:100000000200037581681200A3E582600302006F9D
:10001000780079007A007B007C007D00EC4D601C4C
:1000200088828983E493A3A882A9838A828B83F040
:10003000A3AA82AB831CBCFFE31D80E07582007520
:1000400083007C007D00EC4D600AE4F0A31CBCFF43
:10005000F51D80F27582007583007C007D00EC4DFB
:10006000600AE4F0A31CBCFFF51D80F21200A2128E
:10007000031080FE4C656170202D3E2045464D38B2
:100080000057616974696E6720646174612E2E2E59
:100090000020202020202020202020202020202080
:1000A00020002275A7007597DE7597AD75A71075AE
:1000B000C12075A70075A90075A900E5A930E7FB67
:1000C00075A90375A903E5A930E7FB43A41075E101
:1000D0000175E20075E340759810858E8E758DE68A
:1000E000858D8B53890F438920D28ED299758200DA
:1000F00022AA82438E407592B87593FF85929485AB
:1001000093957591047B00C3EB9A500BE59130E712
:10011000FB53917F0B80F075910022AA82AB837C08
:10012000007D00C3EC9AED9B502B7E00BE04005076
:100130001D7582FAC002C003C004C005C0061200CB
:10014000F1D006D005D004D003D0020E80DE0CBC66
:1001500000D10D80CE22D2A07582281200F1C2A05B
:1001600022AA828AE0A2E79290A2E69291A2E59268
:1001700092A2E49293C0021201567582281200F1F5
:10018000D0028AE0A2E39290A2E29291A2E192923E
:10019000A2E09293020156AA82D2978A821201614A
:1001A00090000202011BAA82C2978A82120161900A
:1001B000000502011BC2A090001412011B758233BE
:1001C0001201A67582331201A67582321201A6753C
:1001D00082281201A675820C1201A67582011201F5
:1001E000A690001402011BAA82AB83ACF07402B586
:1001F00021047DC080027D808D82C002C003C004C6
:100200001201A690000512011BD004D003D0027D7C
:10021000007E00ED2AFFEE3BF88C018F82888389F7
:10022000F012035CFF60208F82C002C003C004C0D4
:1002300005C006120197D006D005D004D003D00225
:100240000DBD00CF0E80CC3000248D028E03C3EA9A
:100250009410EB648094805015758220C002C00316
:10026000120197D003D0020ABA00E30B80E0228586
:10027000822485832585F026E4F527F528E52224C8
:10028000FFFFE52334FFF879007A00C3E99FEA64B1
:100290008088F063F08095F05059C002C007C0001C
:1002A000C001120378AB82D001D000D007D002BBCE
:1002B0000A028003BB0D1DE5272524FCE528352512
:1002C000FDAE268C828D838EF0E412038B8527820F
:1002D00085288322E92524FCEA3525FDAE268C827B
:1002E0008D838EF0EB12038B09B900010A89278AEE
:1002F000288098E5272524FAE5283525FBAC268AB1
:10030000828B838CF0E412038B85228285238322E7
:100310001201B5752101D20090007475F0801201B0
:10032000E7752102D20090008175F0801201E77517
:100330002240E4F52390002975F04012026F7521E8
:1003400002D20090009175F0801201E7752102D26F
:100350000090002975F0401201E780D320F7143097
:10036000F6148883A88220F507E6A8837583002207
:10037000E280F7E49322E02210980280FBAA998A97
:1003800082C0021203A4D0028A822220F71030F623
:10039000118883A88220F507F6A88375830022F2CE
:1003A00080F7F022AA82BA0A0810990280FB759998
:1003B0000D10990280FB8A992200000000000000C5
:00000001FF
