:020000040800F2
:1000000000200020B9000008190600082D0600088D
:1000100000000000000000000000000000000000E0
:1000200000000000000000000000000019060008A9
:100030000000000000000000190600081906000872
:100040001906000819060008190600081906000814
:100050001906000819060008190600081906000804
:10006000000000001906000819060008190600081B
:100070001906000819060008000000007B020008AD
:100080000000000019060008000000000000000049
:1000900019060008000000001906000819060008EB
:1000A000190600081906000819060008A508000826
:1000B000190600081906000800F02AFA00F0ECF909
:1000C000E1235B02180000F045FB62B6C04600F079
:1000D000B1F9024B180000F0ADFCFEE7A065000886
:1000E00080B582B000AF7860A023DB055A69A023F9
:1000F000DB050A218A435A61A023DB055A69A02344
:10010000DB0505210A435A617B68DAB2044B1A7099
:100110007B68DAB2034B1A70C046BD4602B080BDA0
:10012000D0010020D101002080B582B000AF7860FE
:10013000A023DB055A69A023DB0505218A435A6108
:10014000A023DB055A69A023DB050A210A435A6173
:100150007B68DAB2044B1A707B68DAB2034B1A7010
:10016000C046BD4602B080BDD0010020D1010020B4
:1001700080B582B000AF7860A023DB055A69A02368
:10018000DB0505218A435A61A023DB055A69A023B8
:10019000DB050A210A435A617B68DAB2044B1A7004
:1001A000044B00221A70C046BD4602B080BDC04656
:1001B000D0010020D101002080B582B000AF78606E
:1001C000A023DB055A69A023DB0505218A435A6178
:1001D000A023DB055A69A023DB050A210A435A61E3
:1001E000054B00221A707B68DAB2044B1A70C046C5
:1001F000BD4602B080BDC046D0010020D101002024
:1002000080B500AF044B00221A70044B00221A7014
:10021000C046BD4680BDC046D0010020D1010020AF
:1002200080B500AF0A4B0B4A5A60094B00229A6016
:10023000074B05221A60C046054B1A6880235B02F3
:100240001340F9D0024B00221A60C046BD4680BD63
:1002500010E000E0FF7C000080B582B000AF786065
:1002600001E0FFF7DDFF7B685A1E7A60002BF8D1B2
:10027000C046C046BD4602B080BD80B500AF8023F9
:10028000DB051A698023DB0501218A431A61314BA2
:100290001B685A1C2F4B1A602F4B1B78DBB21A00BD
:1002A0002C4B1B689A4217DDA023DB055B690222F9
:1002B000134008D0A023DB055A69A023DB050221E7
:1002C0000A435A6110E0A023DB055A69A023DB052D
:1002D00001210A435A6107E0A023DB055A69A023E4
:1002E000DB0503218A435A611C4B1B78DBB21A00E1
:1002F000184B1B689A4217DDA023DB055B690822B7
:10030000134008D0A023DB055A69A023DB05082190
:100310000A435A6110E0A023DB055A69A023DB05DC
:1003200004210A435A6107E0A023DB055A69A02390
:10033000DB050C218A435A61064B1B680133054AD1
:100340001360632B02DD034B00221A60C046BD46DA
:1003500080BDC046CC010020D0010020D10100208A
:1003600080B500AF314BDA6A304B01210A43DA62C3
:100370002E4B9A6B2D4B01210A439A63A023DB0578
:100380001A68A023DB05FF218A431A60A023DB053E
:100390001A68A023DB0555210A431A60A023DB0558
:1003A0005A68A023DB050F218A435A60A023DB058E
:1003B0005A69A023DB050F218A435A611B4B9A6BB4
:1003C0001A4B01210A439A638023DB054022FF3246
:1003D000DA62174B1A68164B802109020A431A6029
:1003E0008023DB051A688023DB0510210A431A608D
:1003F0008023DB051A688023DB0580210A431A600D
:100400008023DB05DA688023DB0501210A43DA60FB
:100410008023DB051A688023DB0501210A431A606B
:1004200062B6C046C046BD4680BDC0460010024010
:1004300000E100E080B500AFFFF792FFFA235B0018
:100440001800FFF709FF6420FFF76EFEFA239B00F8
:100450001800FFF701FF6420FFF742FEFA239B001C
:100460001800FFF7F9FE6420FFF7A6FEFA239B00B1
:100470001800FFF7F1FE6420FFF77AFEFA239B00D5
:100480001800FFF7E9FEFFF7BBFEFA239B001800F8
:10049000FFF7E2FED7E7C04680B582B000AF164B4B
:1004A0007B60164B3B6007E07A68131D7B603B68FE
:1004B000191D396012681A603A68114B9A42F3D3D9
:1004C00004E03B681A1D3A6000221A603A680D4B3E
:1004D0009A42F6D30C4B3B6004E03B681A1D3A602D
:1004E0001B6898473A68094B9A42F6D3C046C04603
:1004F000BD4602B080BDC0460C6A00080000002066
:10050000CC010020D40300200C6A00080C6A00080B
:1005100080B500AF3B4B1A683A4B01210A431A6081
:10052000C046384B1B6804221340FAD0354B0122D9
:10053000DA60C046334BDB680C221340042BF9D140
:10054000314B1A68304B02210A431A602E4B1A684D
:100550002D4B01210A431A602A4B9A6B294B8021AB
:1005600049050A439A63294B802212011A60C0464A
:10057000264B5B6810221340FAD1224BDA68214BDC
:1005800023490A40DA601F4BDA681E4B8821C903F1
:100590000A43DA601B4A1B4BD268DA60194A194BCE
:1005A000D268DA60174A174BD268DA60154B1A68BE
:1005B000144B18490A401A60124B1A68114B8021DB
:1005C00049040A431A60C0460E4B1A6880239B04F4
:1005D0001340F9D00B4BDA680A4B03218A43DA60E7
:1005E000084BDA68074B03210A43DA60C046054B23
:1005F000DB680C2213400C2BF9D1C046C046BD4627
:1006000080BDC04600100240002002400070004043
:10061000FFFF02FFFFFFFFFE80B500AF024B180097
:1006200000F008FAFEE7C046C865000880B500AFD4
:10063000024B180000F0FEF9FEE7C046F86500081E
:1006400090B585B000AF78603960184B1B68002BFF
:1006500002D101235B4224E00023FB600AE0FB6837
:100660005A1CFA603A68D418114B180000F0ADF922
:10067000030023707B68013B1A00FB68934205D29C
:100680000B4B180000F0CCF9031EE8D1FB68002BDF
:1006900006D03A68FB68D31800221A70FB6800E0A5
:1006A00000231800BD4605B090BDC0466C02002076
:1006B000D401002080B584B000AF78603960224B4F
:1006C0001B68002B02D101235B4238E07B683F2B83
:1006D0000BDCC0461D4B180000F0A2F903004022BD
:1006E000D21A7B689A42F5D302E002235B4226E0ED
:1006F0000023FB600BE03A68FB68D3181A78134BB1
:100700001100180000F030F9FB680133FB607B68D2
:10071000FA689A42EFD30E4B1B68082213400DD1A2
:100720000B4B1A680A4B08210A431A60074B180042
:1007300000F04BF903001A00054B9A6200231800E1
:10074000BD4604B080BDC0466C02002020020020DF
:100750000038014080B584B000AF786072B6C04602
:10076000454B00229A64444B9A6C434B5A64424B6B
:100770005A6C414B1A64414B00229A643F4B9A6C6D
:100780003E4B5A643D4B5A6C3C4B1A643C4B012225
:100790001A603C4B00221A603B4BDA6A3A4B01214B
:1007A0000A43DA62394BFB607968F86800F070FB45
:1007B0000300FB60A023DB059A68A023DB058021F2
:1007C000C9020A439A60A023DB055A68A023DB050F
:1007D0002F490A405A60A023DB051B682D4A1A40A6
:1007E000A023DB05802109030A431A60A023DB054F
:1007F0005A6AA023DB0540210A435A62A023DB0585
:100800001B68254A1A40A023DB05802189030A437F
:100810001A60A023DB055A6AA023DB058021C900EA
:100820000A435A62184B5A6B174B8021C9010A437D
:100830005A631A4B1A68194B6C210A431A60174BFA
:1008400000225A60154B00229A60144BFA68DA6055
:10085000124B1A68114B01210A431A60104B1A6897
:100860000F4B802109050A431A6062B6C046C04694
:10087000BD4604B080BDC046D40100202002002047
:100880006C02002070020020001002400048E801C5
:10089000FFFDFFFFFFFFF3FFFFFFCFFF0038014029
:1008A00000E100E080B500AF084BDB698022134017
:1008B00001D000F025F8054BDB692022134001D060
:1008C00000F006F8C046BD4680BDC0460038014075
:1008D00080B500AF074B5B6ADAB2074B1100180016
:1008E00000F042F8031E02D0044B01221A60C046F9
:1008F000BD4680BD00380140D401002070020020B8
:1009000080B500AF164B180000F08AF8031E08D01F
:10091000134B180000F059F803001A00114B9A62AB
:100920001BE0104B1A680F4B08218A431A600D4BCD
:10093000DB694022134005D00A4B1A6A094B40215B
:100940000A431A62074BDB698022134005D0054B2E
:100950009A69044B10210A439A61C046BD4680BD86
:10096000200200200038014080B582B000AF7860DE
:100970000A00FB1C1A707B681A6C7B685B6C9A42DD
:1009800005D17B689B6C002B01D0012319E072B666
:10099000C0467B681B6C591C7A6811647A68F91C24
:1009A0000978D1547B689B6C5A1C7B689A647B687D
:1009B0001B6C402B02D17B6800221A6462B6C046D1
:1009C00000231800BD4602B080BD80B584B000AFE2
:1009D00078607B689B6C002B01D100231CE072B611
:1009E000C0467B685B6C591C7A6851640F22BA1848
:1009F0007968CB5C13707B685B6C402B02D17B68A1
:100A000000225A647B689B6C5A1E7B689A6462B6AB
:100A1000C0460F23FB181B781800BD4604B080BDEC
:100A200080B582B000AF78607B689B6C1800BD46D3
:100A300002B080BD80B582B000AF78600B4B1B6800
:100A4000002B09D101235B420BE07B685A1C7A60C2
:100A500019000120FFF72EFE7B681B78002BF4D1D4
:100A600000231800BD4602B080BDC0466C020020C5
:100A700080B582B000AF0200FB1D1A70FB1D19008B
:100A80000120FFF717FEC046BD4602B080BD80B50D
:100A900000AF044B1800FFF798FF03001800BD4695
:100AA00080BDC046D4010020B0B584B000AF7860EE
:100AB00039601E4B1B68002B02D101235B4231E0E1
:100AC0000023FB600B23FB1800221A7017E0C046BE
:100AD000174B1800FFF7A4FF031EF9D00B257C1954
:100AE000134B1800FFF771FF03002370FB685A1CBB
:100AF000FA601A007B689B187A1912781A703B68A2
:100B0000013BFA689A4204DA0B23FB181B780D2B81
:100B1000DDD1FB68002B04DDFB687A68D318002266
:100B20001A70FB681800BD4604B0B0BD6C0200200E
:100B3000D401002090B583B000AFFC1DFFF7A7FFE4
:100B400003002370FB1D1B781800FFF791FFFB1DAE
:100B50001B781800BD4603B090BDB0B584B000AF9F
:100B600078603960214B1B68002B02D101235B4266
:100B700037E00023FB600B23FB1800221A701DE0F6
:100B8000C0461B4B1800FFF74BFF031EF9D00B2587
:100B90007C19174B1800FFF718FF030023702C0077
:100BA0003B191B781800FFF763FFFB685A1CFA60BB
:100BB0001A007B689B183A1912781A703B68013B3F
:100BC000FA689A4204DA0B23FB181B780D2BD7D155
:100BD000FB68002B04DDFB687A68D31800221A70CA
:100BE000FB681800BD4604B0B0BDC0466C020020D2
:100BF000D401002080B582B000AF7860FEE780B5F8
:100C000082B000AF786001235B421800BD4602B09D
:100C100080BD80B584B000AFF860B9607A60044BE5
:100C20000C221A6001235B421800BD4604B080BD4F
:100C30008002002080B500AF034B0B221A60012315
:100C40005B421800BD4680BD8002002080B582B0A6
:100C500000AF786039603B68802292015A600023BF
:100C60001800BD4602B080BD80B500AF012318005A
:100C7000BD4680BD80B582B000AF78603960044B5E
:100C800016221A6001235B421800BD4602B080BDE7
:100C90008002002080B582B000AF78603960044BDC
:100CA0001F221A6001235B421800BD4602B080BDBE
:100CB0008002002080B584B000AFF860B9607A602F
:100CC00000231800BD4604B080BD80B582B000AFDF
:100CD000786039603B68802292015A6000231800D6
:100CE000BD4602B080BD80B582B000AF7860012300
:100CF0005B421800BD4602B080BD80B582B000AF37
:100D00007860044B02221A6001235B421800BD4642
:100D100002B080BD8002002080B582B000AF786054
:100D2000044B0A221A6001235B421800BD4602B040
:100D300080BDC0468002002080B582B000AF7860E0
:100D40007B68022B01D8012303E0044B09221A60BF
:100D500000231800BD4602B080BDC04680020020BE
:100D600080B586B000AF7860124B7B61124B3B615F
:100D7000124B1B68002B02D1104B7A691A600F4B83
:100D80001B68FB600D4B1A687B68D3183A699A425E
:100D900005D20B4B0C221A6001235B4206E0074B85
:100DA0001A687B68D218054B1A60FB681800BD46AC
:100DB00006B080BDD4030020001000207C0200207B
:100DC0008002002080B588B000AFF860B9607A601A
:100DD0000023BB61FB68002B22D10023FB611AE0DA
:100DE000FFF755FE03001A0017217B181A70BB6825
:100DF0005A1CBA607A181278D2B21A70BB690133E1
:100E0000BB617B181B78DBB20A2B01D1BB690EE0FA
:100E1000FB690133FB61FA697B689A42E0DB05E01C
:100E2000054B09221A6001235B4200E0BB691800F0
:100E3000BD4608B080BDC0468002002080B586B0A7
:100E400000AFF860B9607A60FB68013B012B11D8F4
:100E500000237B6109E0BB685A1CBA601B7818004C
:100E6000FFF706FE7B6901337B617A697B689A42F2
:100E7000F1DB05E0054B09221A6001235B4200E02B
:100E80007B681800BD4606B080BDC04680020020C9
:100E900003460B437FD4002243088B4274D30309DB
:100EA0008B425FD3030A8B4244D3030B8B4228D37C
:100EB000030C8B420DD3FF22090212BA030C8B42A2
:100EC00002D31212090265D0030B8B4219D300E042
:100ED000090AC30B8B4201D3CB03C01A5241830BC7
:100EE0008B4201D38B03C01A5241430B8B4201D377
:100EF0004B03C01A5241030B8B4201D30B03C01AA0
:100F00005241C30A8B4201D3CB02C01A5241830A19
:100F10008B4201D38B02C01A5241430A8B4201D348
:100F20004B02C01A5241030A8B4201D30B02C01A72
:100F30005241CDD2C3098B4201D3CB01C01A5241D9
:100F400083098B4201D38B01C01A524143098B4262
:100F500001D34B01C01A524103098B4201D30B014B
:100F6000C01A5241C3088B4201D3CB00C01A524170
:100F700083088B4201D38B00C01A524143088B4235
:100F800001D34B00C01A5241411A00D201465241CE
:100F9000104670475DE0CA0F00D04942031000D3ED
:100FA0004042534000229C4603098B422DD3030A42
:100FB0008B4212D3FC22890112BA030A8B420CD352
:100FC000890192118B4208D3890192118B4204D37B
:100FD00089013AD0921100E08909C3098B4201D3FB
:100FE000CB01C01A524183098B4201D38B01C01A35
:100FF000524143098B4201D34B01C01A52410309AC
:101000008B4201D30B01C01A5241C3088B4201D35A
:10101000CB00C01A524183088B4201D38B00C01A07
:101020005241D9D243088B4201D34B00C01A5241DE
:10103000411A00D20146634652415B10104601D36B
:101040004042002B00D54942704763465B1000D3F5
:10105000404201B5002000F005F802BD0029F8D09B
:1010600016E770477047C046F0B51F000023160012
:101070008BB09F4204DA802109067B181F002D23C4
:10108000129A149D1370202303229D43462D07D0EE
:101090002B00453B59424B411099013ACB18109314
:1010A00009AB049308AB0393139B00920293109B2C
:1010B000320001933B0000F0CBFC0400472D1BD114
:1010C000119BDB0711D5109BC31807930022002347
:1010D0003000390003F00CFA002801D0079B099377
:1010E0003022099B07998B4220D32000099B159A37
:1010F0001B1B13600BB0F0BD109BC3180793462D4C
:10110000E4D10378302B0CD10022002330003900C9
:1011100003F0EEF9002804D10123109A9B1A139AC8
:101120001360139B079A1B68D318CEE7591C0991CB
:101130001A70D6E7F0B52B2385B005000C1E02709F
:1011400001DA4C4202336B70092C2EDD02ABDE1D3E
:1011500020000A21FFF782FF37003031013E2000D6
:1011600031700A210194FFF793FE019B0400632B69
:10117000EEDCBA1E30341470AC1C1300210002A83F
:10118000073098420CD802AB07330020934203D3B8
:10119000093002ABC018C01B0019401B05B0F0BDE0
:1011A0001878013308700131E9E73023E418AB7097
:1011B000281DEC70F1E70000F0B597B00C001C9D05
:1011C0000A920B93099000F0A3FB036818000F9399
:1011D00000F0B1FB0023072210901493237E0E939E
:1011E000236811932B68073393430122C0CB2B60F4
:1011F0007B005B080D930C96A664E7640C980D9930
:10120000A44B524205F0FEF8002831D10C980D99FC
:101210000122A04B524203F07BF9002828D1002282
:1012200000233000390003F069F9002803D02300BF
:101230002D2243331A70984B0C930E9B472B01D8E9
:10124000964B0C9303230025119A236101339A4393
:1012500022600B9B2100009309980A9B15AA00F0BD
:10126000D9F9013000D099E00120404217B0F0BD1B
:1012700032003B003000390005F0C4F800280CD0E3
:10128000002F03DA23002D2243331A70844B0C9372
:101290000E9B472BD6D8834BD3E720220E9D636845
:1012A00095435A1C44D1073363608023119ADB00B5
:1012B000134300222360069214AA05920E9A0AA9EB
:1012C000049213AA03922322521802920193636894
:1012D0003200009309983B00FFF7C6FE13990C906B
:1012E000472D2BD1CB1C02DB63688B4244DA0E9E68
:1012F000023EF3B20E9320000E9A01395030139142
:10130000FFF718FF149A050013182361012A02DC65
:101310002268D20701D50133236123230AAA9B182F
:101320001B78002B95D023002D2243331A7090E7B1
:10133000472DBAD1002BB8D10133B5E70E9B652BF1
:10134000D9D90E9B662B19D16368002909DD21616B
:10135000002B02D12268D2070BD501335B18236121
:1013600007E0002B03D101222068104200D09A1C14
:1013700022610025A165D0E767230E93149B8B4261
:1013800005DC23682161DB07F3D54B1CE7E701226D
:10139000002901DC9218521A9B18E0E722685305D5
:1013A00008D423690C9A0A9909980B9DA847013023
:1013B00029D159E70E9B652B00D8D6E0A06CE16CD3
:1013C0000022002303F094F8002833D00123364A8A
:1013D0000A9909980B9DA847013000D144E7149E53
:1013E000139BB34202DB2368DB070CD50B9D109BDC
:1013F0000F9A0A990998A8470025013000D133E7D0
:10140000731EAB420ADC23689B0700D500E1159BE5
:10141000E068984200DB29E7180027E72200012353
:101420000A9909980B9F1A32B847013000D11BE77F
:101430000135E5E7139B002B38DC01231A4A0A9992
:1014400009980B9DA847013000D10DE7149E139B0E
:10145000334302D12368DB07D5D50B9D109B0F9A30
:101460000A990998A8470025013000D1FCE6139B92
:101470005B42AB4201DC330094E7220001230A996E
:1014800009980B9F1A32B847013000D1ECE60135BC
:10149000EDE7C046FFFFEF7F206600081C660008EE
:1014A00028660008246600082C660008149EA76DB4
:1014B000B74200DD3700002F2FDCFB430025DB1790
:1014C0003B400E93A76D0E9BFB1AAB422EDC139B89
:1014D0009E4237DC2368DB0734D4139DF31B751B56
:1014E0009D4200DD1D00002D35DCEB430027DB179E
:1014F0001D400C95139B0C9AF31A9B1ABB4200DCFF
:1015000081E7220001230A9909980B9D1A32A84706
:10151000013000D1A8E60137ECE73B000C9A0A99AC
:1015200009980B9DA8470130C7D19DE622000123F1
:101530000A9909980B9F1A32B847013000D193E6F7
:101540000135BFE7109B0F9A0A9909980B9DA84790
:101550000130C2D188E60C9B0A99DA1909982B0050
:101560000B9FB8470130C0D17EE6149E012E02DCED
:1015700001231A4239D001230C9A0A9909980B9F2A
:10158000B847013000D16FE6109B0F9A0A9909986D
:101590000B9FB847013000D166E6A06CE16C731E6A
:1015A0000E930022002302F0A3FF00281BD10C9A07
:1015B0000E9B01320A9909980B9EB04701300ED15B
:1015C00052E6220001230A9909980B9E1A32B0476D
:1015D000013000D148E601370E9B9F42F1DB22002B
:1015E0002B005032DFE60027F6E70C9AE2E72200F4
:1015F00001230A9909980B9E1932B047013000D196
:1016000032E60135E368159A9B1AAB42EFDCFEE641
:101610000025F7E7F7B5160001938A680B690C00FF
:101620000090934200DA13002200336043321278B4
:10163000002A01D00133336023689B0602D533684A
:10164000023333602268062315001D401A4227D05A
:10165000230043331B785A1E93412268920630D4EC
:10166000220001990098089D4332A847013025D0F7
:101670000622236800251340042B05D13368E56852
:10168000ED1AEB43DB171D40A3682269934201DD8D
:101690009B1AED180026B54220D1002010E001353C
:1016A000E36832689B1AAB42D2DD22000123019924
:1016B0000098089F1932B8470130F0D1012040420C
:1016C000FEBD3020E1184331087021005A1C45311D
:1016D0000978A218433202331170C1E722000123B6
:1016E00001990098089F1A32B8470130E6D00136B8
:1016F000D1E70000F0B58BB006920A0043320793A1
:10170000059003920A7E0C00109B782A09D8622A61
:101710000BD8002A00D1BAE07A490491582A00D1A6
:101720008EE0250042352A7022E01000633815282B
:10173000F7D802F039FE16001F00F6FFF6FFF6FF9D
:10174000F6FF1F00F6FFF6FFF6FFF6FF9F003600DC
:101750007E00F6FFF6FFB000F6FF3600F6FFF6FF5C
:10176000820025001A684235111D196013682B701C
:1017700001239EE018680968021D0D060BD5066856
:101780001A60002E03DA2D23039A764213705D4B04
:101790000A27049318E006681A604906F1D536B2A4
:1017A000EFE70868196840C9050602D4400600D56D
:1017B000B6B21960534B0A2704936F2A00D1023F37
:1017C0002300002243331A706368A360002B06DBFA
:1017D00004212268039D8A43226033430CD0039D79
:1017E0003000390002F070FE049B013D5B5C2B7001
:1017F000330006009F42F3D9082F09D12368DB0785
:1018000006D5626823699A4202DC3023013D2B70C1
:10181000039B5B1B2361079B210000930598069B9C
:1018200009AAFFF7F7FE013048D1012040420BB072
:10183000F0BD202209680A432260782232490491CF
:10184000210045310A701968226840C9100602D487
:10185000500600D5B6B21960D30702D52023134332
:101860002360002E01D01027AAE72022236893438B
:101870002360F8E71A680D68101D4969186013683D
:101880002E0601D5196002E06D06FBD519800023F4
:10189000039D2361BFE71A68111D196015680021B7
:1018A0002800626800F03CF8002801D0401B60600E
:1018B000636823610023039A1370ACE72A0023694D
:1018C00006990598079DA8470130AED023689B076D
:1018D00015D4099BE0689842A9DA1800A7E722000E
:1018E000012306990598079E1932B04701309CD014
:1018F0000135E368099A9B1AAB42F0DCE9E7002561
:10190000F7E7C0462E6600083F660008F0307047D3
:1019100000487047F400002000487047F4000020A1
:10192000C9B28218904201D10020704703788B42DF
:10193000FBD00130F6E70023C25C0133002AFBD163
:10194000581E7047F0B503690C6989B00390069181
:101950000020A34263DB0B00013C1433A500049379
:101960005B190593039B143301935D19059B2F6845
:101970001E6838000136310002F020FD0290B742A7
:1019800027D3049B00279C46019E0797624608CAFE
:1019900030689446029A99B251431B0C5343C919BB
:1019A0000A0C9B1889B282B2521A07991F0C52185E
:1019B000000C9BB21114C31A5B18191492B21B04C9
:1019C000134308C6059B07916345DFD22B68002BA4
:1019D0002BD00699039801F0C5F900281EDB0026DC
:1019E000019D049901C92B6887B29AB2D21B921942
:1019F000000C1B0C1B1A10141B181E1492B21B0493
:101A0000134308C5059B8B42ECD2019AA300D3185F
:101A10001A68002A14D0029B01330293029809B07D
:101A2000F0BD2B68002B04D1013C019B043DAB426F
:101A3000F7D3039B1C61CCE71A68002A04D1013C50
:101A4000019A043B9A42F7D3039B1C61E3E7000031
:101A5000F0B514001D00C2699DB010941195259F2A
:101A60000290002A10D1102000F0DEFD029B021E21
:101A7000D86104D1EF21C04BC04801F0EBFB00233B
:101A8000436083600360C360116800290BD00123A9
:101A90005268029893404A608B6000F0CDFE0022AD
:101AA000029BDB691A602E1E1DDA01236E00DE40E8
:101AB0003B601196B24BB24A3340934216D1B14BC0
:101AC000249A3603360B1360264301D100F07DFDC6
:101AD000AD4B269A0593002A02D0AC4B269A136090
:101AE00005981DB0F0BD00233B60E3E7109A119B01
:101AF0000C920D930C980D990022002302F0F8FC33
:101B0000071E0BD00123249A1360269B002B02D0C2
:101B10009F4B269A13609F4B0593E1E71AAB019305
:101B20001BAB009302980C9A0D9B01F047FA1A9B8D
:101B30000490310D059300D17BE00D9B19971A039A
:101B4000954B120B1343954A8E180C980D9919005A
:101B50000022934B04F01EF8924A934B03F052FD7F
:101B6000924A934B02F0F2FC040030000D0004F0A6
:101B7000A7FC904A904B03F045FD02000B002000AB
:101B8000290002F0E3FC04000D0004F05DFC0022DB
:101B9000039000232000290002F0B0FC00280BD0A5
:101BA000039804F08DFC2B00220002F0A1FC4342BC
:101BB0005841039B1B1A039301231393039B162B7A
:101BC00010D80C980D99039A7C4BD2009B181A6878
:101BD0005B6802F093FC002847D0039B013B039312
:101BE00000231393059B9E1B00230693731E03D5AE
:101BF0000122931B069300230A93039B002B36DBE1
:101C0000039A0A9B944663440A93002312920E930C
:101C1000229B0124092B61D8052B02DD0024043B03
:101C20002293229B981E032862D802F0B3FB5355DF
:101C30003629059B1B9FDF19614BFA18202A0FDDFF
:101C400040239B1A9E405F4B3000FB18DC40204332
:101C500004F064FC01225C4B7E1ECB18199276E7DF
:101C6000202320009B1A9840F2E71390BAE7069BC6
:101C7000039A9B1A069353420E9300231293C7E7CD
:101C80000123239A0F939446039B63440B930133E0
:101C90000893002B08DC012306E001230F93239B0C
:101CA000002B29DD0B930893029A0021D0690422AE
:101CB000150014354E1C9D4223D94160029800F056
:101CC00079FD059000281FD1B021404B2B48059A83
:101CD000FF31D2E60023E1E70023D2E700230F948F
:101CE0002293013B00220B93089313332392DBE7EB
:101CF00001230F93023BF5E701231A000B9308938E
:101D0000F4E731005200D3E7029B059ADB691A60C1
:101D1000089B0E2B00D9DEE0002C00D1DBE0039BFA
:101D2000002B68DD0F21039A244B0A40D2009B1838
:101D30001E685F68039B02251C110C9A0D9B149270
:101D40001593039BDB050AD5214B0C401A6A5B6A8D
:101D50000C980D9903F014F81490159101351C4B53
:101D60000993002C36D11498159932003B0003F0EA
:101D700007F806000F005BE05D6600087466000867
:101D80000000F07F0F270000596600085C6600081D
:101D90002D6600082C6600080000F03F01FCFFFFE4
:101DA0000000F83F61436F63A787D23FB3C8608BE1
:101DB000288AC63FFB799F501344D33F0068000830
:101DC0003204000012040000000010FED566000876
:101DD000D867000801231C4209D0ED18099B300088
:101DE0001A685B68390003F00DFC06000F00099BC0
:101DF00064100833B4E7039B02250C9E0D9F002B53
:101E000016D00F225C422240D24BD2009B183000E9
:101E10001A685B68390003F0F5FBCF4B06000993A5
:101E20000F0000232411002C00D098E0002BA0D13B
:101E3000139B002B00D1A1E0002230003900C74BDA
:101E400002F05CFB002800D198E0089B002B00D139
:101E500094E00B9B002B3EDD039B3000013B3900DF
:101E600009930022BE4B03F0CDFB06000F000B9C34
:101E70000135280004F024FB32003B0003F0C2FBD4
:101E80000022B84B02F062FBB74B14901591CB18AF
:101E90001593149A159B16921793002C72D1002259
:101EA00030003900B14B03F075FE169A179B0600FF
:101EB0000F0002F037FB002800D0AAE280200006C5
:101EC00084461599300061440B00149A390002F0E1
:101ED00015FB002826D11B9B002B00DA69E1039A31
:101EE0000E2A00DD65E19B4BD2009B185C681B68E5
:101EF00006930794239B002B00DBE4E0089B002B58
:101F000000DDE0E00ED1069807990022974B03F020
:101F100079FB02000B000C980D9902F0F9FA0028E9
:101F200000D179E200263700239B059CDB4309930F
:101F3000039700273100029800F07EFC039B002BE2
:101F400000D1B6E0002F05D09F4203D0390002989F
:101F500000F072FC0399029800F06EFCA9E00122E7
:101F6000144206D0099BAD181A685B6803F04AFB5F
:101F70000123099A64100832099254E7039B089CD4
:101F8000099376E7734B621ED2009B181868596854
:101F9000059BE31818930F9B002B49D002000B0000
:101FA0000020734902F0ECFE169A179B03F0F2FD35
:101FB000059B1490159116933900300004F044FAF3
:101FC000050004F07DFA02000B003000390003F038
:101FD000E1FD169B30355C1C1D70149A159B0600A4
:101FE0000F0002F08BFA002863D132003B00002082
:101FF0005A4903F0CFFD149A159B02F07FFA00288E
:1020000000D0B9E0189B9C4200D164E71498159960
:102010000022534B03F0F6FA002214901591504B16
:102020003000390003F0EEFA169406000F00C3E703
:10203000169A179B03F0E6FA14901591059D390046
:10204000300004F001FA040004F03AFA0B00020038
:102050003900300003F09EFD3034189B2C700135A0
:1020600006000F00AB4227D11498159900221C00DE
:102070003F4B02F06BFA02000B003000390002F017
:1020800051FA002800D077E0149A159B00203849B7
:1020900003F080FD02000B003000390002F02EFA40
:1020A000002800D117E72300013C2278302AFAD01B
:1020B0001C00099B03933DE00022294B03F0A2FA88
:1020C00006000F00BBE7089F059E013FBF19069A57
:1020D000079B0C980D9902F053FE04F0B5F905002A
:1020E00004F0EEF9069A079B03F08CFA02000B004D
:1020F0000C980D9903F04EFD2A0033003032013662
:1021000034001A709F4247D102000B0002F01EFA01
:10211000069A079B06000F0002F004FA002829D156
:10212000069A079B3000390002F0E2F9002801D03E
:10213000ED071FD40499029800F07EFB0023237062
:10214000039B249A01331360269B002B00D1C7E424
:102150001C60C5E400680008D86700080000F03F74
:102160000000244000001C400000C0FC000014409F
:102170000000E03F039B099323001C00013B1A78F9
:10218000392A06D1059A9A42F7D1099A0132099261
:10219000302201321A708CE70022C64B03F032FA6B
:1021A000002200230C900D9102F0A2F900288ED09D
:1021B000C0E70F9F0E9D069C002F14D0229A012A83
:1021C00000DDE4E0199A002A00D1DAE0BA4A9B184F
:1021D000069A0121D21806920A9A0298D3180A93F5
:1021E00000F02EFC0700002C0ED00A9B002B0BDD0C
:1021F0000A9A2300944200DD1300069AE41AD21AC8
:1022000006920A9AD31A0A930E9B002B21D00F9B99
:10221000002B00D1D3E0049E002D14D039002A00F9
:10222000029800F0D1FC049A01000700029800F027
:102230001FFC06000499029800F0FEFA0E9B04961B
:102240005B1B0E9305D031000E9A029800F0BCFC87
:1022500004900121029800F0F3FB129B0600002B72
:1022600000D1BCE11A000100029800F0ADFC229BF5
:1022700006000025012B16DC0025109BAB420ED179
:10228000119B1B03AB420AD18C4B119A134206D00F
:10229000069B0135013306930A9B01330A93129B77
:1022A0000120002B08D0336903339B00F3185868D2
:1022B00000F076FB2023181A0A9B181802001F232F
:1022C0001A40184200D181E001339B1A042B79DDBA
:1022D0001C239B1A069AE418D21806920A9AD3185D
:1022E0000A93069B002B05DD1A000499029800F062
:1022F000CDFC04900A9B002B05DD31001A000298EA
:1023000000F0C4FC0600139B002B61D03100049840
:1023100000F028FD00285BDA039B0A22013B0993A9
:1023200004990023029800F0ABFA0F9B0490002B55
:1023300000D15BE1002339000A22029800F0A0FAE4
:102340000B9B0700002B4DDC229B022B46DD0B9BD9
:10235000002B00D0E8E531000522029800F090FA49
:1023600006000100049800F0FDFC002800DCDBE51D
:10237000059B059A5C1C31231370099B013309935B
:10238000D6E536231A9A0E9D9B1A069C20E7089BD9
:102390005D1E0E9BAB4208DB5D1B089B002BF4DA35
:1023A000069B089A9C1A002312E70E9B129AEB1ABE
:1023B000D31812930E95069C0025089B08E70E9AE9
:1023C000049942E7042B8CD01C3383E71300FBE70E
:1023D000039B0993089B0B93002BB5DD0F9B002BF0
:1023E00000D107E1002C05DD39002200029800F041
:1023F0004DFC07000397002D20D07968029800F06B
:10240000D9F9041E0CD122002D4B2E482E49FFF77E
:1024100034FB26003700ABE7039B089E0993F9E7DE
:1024200039003A690C31023292000C3000F008FF9A
:1024300001222100029800F029FC0390059B0B9AD1
:102440000693013B9B1801220E93109B13400C93A3
:1024500031000498FFF776FA390005000A900498D5
:1024600000F080FC039A0B903100029800F096FC7B
:102470000122C368040030350892002B04D101000A
:10248000049800F06FFC08902100029800F0D4F945
:10249000069B229A5C1C089B13430C9A134315D18C
:1024A000392D2ED00B9B002B01DD0A9D3135069B6B
:1024B0001D703FE500002440330400000000F07F61
:1024C000D566000874660008EF0200000B9B002B25
:1024D00004DB229A13430C9A13431ED1089B002B52
:1024E000E5DD04990122029800F0D0FB3100049050
:1024F00000F038FC002802DCD9D1EB07D7D5392D04
:10250000D3D13923069A137023001C00013B1A789B
:10251000392A51D001321A700CE5089B002B03DDDB
:10252000392DEED00135C2E7069B0E9A1D709342FD
:102530002DD000230A220499029800F0A1F9039BF0
:1025400004909F4209D1390000230A22029800F02A
:1025500097F90700039006947AE7390000230A22CE
:10256000029800F08DF9002307000A2203990298CF
:1025700000F086F90390EEE700240B9BA34201DDF7
:102580001C00013C03970027059B0133E4180499C4
:102590000122029800F07AFB3100049000F0E2FB87
:1025A0000028B1DC01D1ED07AED423001C00013BB3
:1025B0001A78302AFAD0BDE4059A9A42A5D1099B2F
:1025C0000133099331231370B4E4154B269A059314
:1025D000144B002A01D0FFF781FAFFF781FA229B02
:1025E000012B00DC48E60120129D65E60B9B002BC9
:1025F00000DCA9E6002431000498FFF7A3F9059B4D
:10260000303018550B9B01340500A342B4DD002384
:102610000A220499029800F033F90490EBE7C046CF
:10262000506600085866000810B5034B0100186892
:1026300000F030F810BDC0467001002010B5034B0B
:102640000100186800F056FE10BDC0467001002061
:1026500070B50F4E0D0031680400002902D100F062
:1026600095FD30602900200000F090FD431C03D14F
:1026700001256D42280070BD0323C51C9D43A8425F
:10268000F8D0291A200000F081FD0130F2D1EFE7E7
:1026900084020020F7B50322CB1C934308330500C6
:1026A0001F000C2B34D20C27B94233D8280000F07D
:1026B00071F8374E33681C00002C2FD139002800E8
:1026C000FFF7C6FF0400431C5FD134680094009BF1
:1026D000002B4AD1002C52D023682800E31800991F
:1026E000019300F053FD019B834248D123682800E9
:1026F000FF1A3900FFF7ACFF013040D02368DB1927
:10270000236033685A68002A33D1009B336019E094
:10271000002BC9DA0C232B600020FEBD2168C91BE9
:1027200020D40B290AD9E2192760A34204D13260D0
:1027300063681160536005E05A60F9E76268A3427C
:102740000ED13260280000F02DF8200007220B3057
:10275000231D9043C21A9842DFD01B1AA350DCE716
:102760005A60EFE723006468A6E7009C6368009363
:10277000ADE71A005B68A342FBD10023DAE70C2324
:1027800028002B6000F00EF8C6E70760DAE7C046C5
:102790008802002010B5024800F00FFD10BDC046B1
:1027A0009002002010B5024800F00DFD10BDC0469B
:1027B0009002002070B5C46905000E00002C10D1F5
:1027C0001020FFF731FF041EE86105D122006B21C4
:1027D000174B184800F03EFD002343608360036000
:1027E000C360E368002B0BD121220421280000F0F4
:1027F00054FDEB69E060DB68002B01D1002070BD67
:10280000B2009B181868002805D002681A600023DF
:102810000361C360F3E701210C00B440621D28008E
:10282000920000F03AFD0028E8D046608460EEE7B0
:102830005D660008E666000870B5C66905000C0014
:10284000002E0ED11020FFF7EFFE021EE86104D12A
:102850008F21094B094800F0FDFC46608660066048
:10286000C660002C07D0EB696268DB6892009B1899
:102870001A6822601C6070BD5D660008E66600088C
:10288000F7B50F0001900C001E0000200D691437F1
:102890003B68013099B251431B0C534389190E0C0C
:1028A0009B191E0C89B21B045B1808C78542EFDC1C
:1028B000002E22D0A368AB4219DC61680198013177
:1028C000FFF778FF071E05D13A00BA210C4B0D48DF
:1028D00000F0C0FC210022690C31023292000C3061
:1028E00000F0AEFC21000198FFF7A6FF3C002B1D75
:1028F0009B00E31801355E6025612000FEBDC046E7
:10290000D5660008E6660008F7B5060018000F0057
:102910000830092100931400FEF7BAFA01230021C0
:1029200083420ADB3000FFF745FF011E08D10A0091
:10293000194B1A48D33100F08DFC5B000131EFE7F1
:10294000089B3D00436101230361092C16DD093515
:102950003B192F0001933B780A22303B3000FFF7F0
:102960008FFF019B013701009F42F4D12D19083DD3
:102970002700009B9F4204DB0800FEBD09240A35A6
:10298000F6E72B1BDB5D0A223000303BFFF778FFB8
:1029900001370100EDE7C046D5660008E66600088D
:1029A0008022030052020020934201D21B04103007
:1029B00080225204934201D208301B028022520529
:1029C000934201D204301B018022D205934201D2EE
:1029D00002309B00002B03DB0130134200D120208A
:1029E00070470368010007221800104013420DD001
:1029F000063A0020134205D10230034203D0D340EF
:102A000010000B6070479B080B60FBE79AB2002A2E
:102A100001D110201B0CDAB2002A01D108301B0AA8
:102A20001A0701D104301B099A0701D102309B0813
:102A3000DA07E9D401305B08E6D12020E2E70000A4
:102A400010B50C000121FFF7B5FE002807D1462183
:102A5000054C0200054B2000FF3100F0FBFB012379
:102A60004461036110BDC046E6660008D5660008F3
:102A7000F0B50D6916690F00140089B0B54204DB8A
:102A800033000C002E0017001D0073190193A3687A
:102A900072196168934200DA0131FFF78BFE0090F2
:102AA000002806D1B121464B4648009A490000F063
:102AB000D1FB009A731914329B00D31802930021A2
:102AC00013000298834229D32300B60014330493E1
:102AD00014379B19AD000393BC462B006344079346
:102AE00000230593230003991533994204D30C1B4B
:102AF000153CA408A3000593079B9C4510D3019B9C
:102B0000002B05DD029B043B02931B68002B52D077
:102B1000009B019A18001A6109B0F0BD02C3D0E70A
:102B200063461C68A4B2002C1ED017000025049E2A
:102B300001CE3B68069383B2634319006B46000CD9
:102B40001B8B6043CB1806995B19090C4018190CB4
:102B500041189BB20D0C09041943039B02C7B342F1
:102B6000E6D8059BD3185D6063461C68240C1ED014
:102B70001168160008000027049D2B68000C9BB20A
:102B80006343DB191B18180489B20843306080CDF9
:102B900070683F0C674381B279181B0CC918039BFE
:102BA0000F0C0436AB42E8D8059BD31859600423B8
:102BB0009C44D218A0E7019B013B01939FE7C046CC
:102BC000D5660008E6660008F7B503231500070080
:102BD0000C001A401D4208D02849013A9200525870
:102BE00000232100FFF74CFE0400AB10019342D0FC
:102BF000FD69002D11D11020FFF716FD051EF861AB
:102C000006D1B4212A001E4B1E48FF3100F022FBE2
:102C10000023436083600360C360AE68002E07D169
:102C200038001949FFF70CFF00230600A860036075
:102C30000122019B25001340019A52100192002BA2
:102C40000CD0210032003800FFF712FF29000400E9
:102C50003800FFF7F1FD019B002B0CD030680028F5
:102C600007D1320031003800FFF702FF0023306047
:102C700003600600DCE72000FEBDC046A067000838
:102C80005D660008E666000871020000F0B50C0001
:102C900016002369571187B0FB1802930133019383
:102CA0004968A3680390019A934210DB0398FFF7E9
:102CB00081FD0023010005001A00143198420CD157
:102CC000EF212A00254B2648490000F0C3FA0131C4
:102CD0005B00E8E798000A500133BB42FADBFB4394
:102CE000DB171F40BF002300C9191F2037002269CE
:102CF0001433920005919A180740064228D00130FB
:102D0000C01B049000201E688C46BE4006436046EF
:102D1000066001CB049E0431F0409A42F3D82100B2
:102D2000153100238A4203D3131B153B9B089B00DC
:102D3000059AD3185860002801D1029B0193019B8A
:102D4000039821002B61FFF777FD280007B0F0BD45
:102D500040CB0E6004319A42FAD8EEE7D5660008FF
:102D6000E666000830B50B6904690200E01A9C426F
:102D70000FD114329B0014311400C918D218043A30
:102D8000043915680B689D4204D001209D4200D291
:102D9000023830BD9442F2D3FBE70000F0B50C00DE
:102DA00087B00090110020001700FFF7DBFF051E21
:102DB00010D101000098FFF7FDFC021E04D1454B25
:102DC0004548464900F046FA012345610361100079
:102DD00007B0F0BD0026B04203DA23003C001F001C
:102DE000013661680098FFF7E5FC021E03D1394BFC
:102DF00039483B49E6E72369143400939B00E31804
:102E0000019314239C463B69BC449B00634402939A
:102E10000300C660002014330393059304946146B5
:102E2000049B20CB049308C98C46A9B20E0099B22A
:102E3000711A09182D0C1B0C0814EB1A1B18181406
:102E400089B21B041943059B02C30593029B63458A
:102E5000E5D83B00029D153300219D4203D3EB1BB7
:102E6000153B9B089900039B5B1861180E1D3500EC
:102E700004330293039B1B1B0393039B9C46019B00
:102E8000AC449D4212D3019801310023884204D3FF
:102E9000030003339B1B9B089B0002995B18043BB8
:102EA0001968002911D0009B136190E7070008CD35
:102EB00098B2C01900141C0C0419DB1920149BB221
:102EC0002404234364462360D7E700990139009125
:102ED000E5E7C046D5660008E66600083702000050
:102EE0004502000010B500240C4B0D4A0B409B1806
:102EF000A34206DC5B421A15132A05DC80231B0360
:102F000013411900200010BD143A01241E2A02DCCE
:102F100080242406D4400023F3E7C0460000F07F5D
:102F20000000C0FCF7B50600036914369B00F318D7
:102F30001D1F2C680F0020000193FFF731FD202298
:102F4000121A3A6003001C4A0A2815DC0B212700DC
:102F5000091ACF403A438C4611000022AE4202D2F9
:102F6000019A083A126815339C4063462700DA40FC
:102F70001743380003B0F0BD0027AE4202D2019DD6
:102F8000083D2F680B2149428C469C440B2B10D0E6
:102F9000614620238C405B1A3900D9400C43224300
:102FA00011000022B54201D9043D2A686446A740B9
:102FB000DDE722431100DCE70000F03FF7B5012117
:102FC00016001F00FFF7F6FB041E05D12200254B5B
:102FD0002548264900F03EF93B037D001B0B6D0D93
:102FE00002D08022520313430193002E25D068465D
:102FF0000096FFF7F6FC009900281CD0019B2022C8
:103000001E00121A96403200C3400A4362610193C7
:10301000019EA661731E9E4101362661002D14D0CB
:103020003526134BED18089B2D181D60099B361A89
:103030001E602000FEBD6161EAE701A8FFF7D1FC38
:10304000019B012663612030E7E70A4BC018089B0B
:103050001860094BF3189B00E3185869FFF7A0FCB0
:103060007601E3E7D5660008E66600080F03000076
:10307000CDFBFFFFCEFBFFFFFFFFFF3FF0B587B0AB
:103080000F0004A90600FFF74DFF00900191009B7F
:10309000019C380005A902930394FFF743FF0D003C
:1030A00002000B0030693969049E401A05994001FD
:1030B000711A41180805002908DD0199411803918A
:1030C0000298039901F05CFE07B0F0BD2B1AF7E7F8
:1030D00010B50400172805DC074BC4001B1918683D
:1030E000596810BD002005490022054B013C02F043
:1030F00089FA002CF8D1F4E7006800080000F03FDE
:103100000000244070B5140005000139136949110D
:103110000131890014349B004118E318A3420DD8F3
:10312000140011340025A34203D39B1A113B9B08C2
:103130009D0000234019884203D370BD40CC40C598
:10314000ECE708C0F7E70200006910B514324B1134
:10315000984213DB0CDD1F2408002040214207D0D9
:1031600099008C582100C140814001208C4204D13B
:103170009B00D318934203D8002010BD0300F7E74B
:10318000043B19680029F5D00120F6E7002370B54B
:10319000064D040008002B60FDF7E2FD431C03D13F
:1031A0002B68002B00D0236070BDC0468002002039
:1031B00070477047704770477047704701207047ED
:1031C000012070477047704770B5141E0B4D05D035
:1031D00010000B4900F02AF8002801D1280070BD2A
:1031E0002900200000F022F80028F7D0200005492F
:1031F00000F01CF80028F1D00020F0E74867000834
:103200004A6700088D6700089422024B5200985CC0
:103210007047C0460400002010B5034B0A000100AF
:103220001868FFF7D1FF10BD7001002002780B78FD
:10323000002A03D0013001319A42F7D0D01A7047EA
:10324000002310B59A4200D110BDCC5CC4540133A8
:10325000F8E700007FB514001A00094B05001B6851
:103260000E00D868074B002C01D1074B1C00074902
:10327000019302942B00009600F0AEF800F0D9F80C
:1032800070010020526700088D6700085F67000822
:10329000130010B50022FFF7DDFF70B50B0C150C05
:1032A000002B1ED1002D0CD189B294B24C432100C9
:1032B000FFF7F0F9051E1BD02200002100F0B1F845
:1032C00016E02B1C0C1C89B292B24A439BB2A1B2ED
:1032D0005943140C0C19230C07D1240492B2144343
:1032E000E5E7002D01D1141CEDE70C230025036058
:1032F000280070BD70B505000C1E10D0043C23687A
:10330000002B00DAE4182800FFF744FA1D4A13687E
:10331000002B05D1636014602800FFF743FA70BDED
:10332000A34208D9206821188B42F3D119685B6841
:1033300009182160EEE71A005B68002B01D0A34258
:10334000F9D911685018A0420BD1206809185018FB
:1033500011608342E0D118685B68411811605360C6
:10336000DAE7A04202D90C232B60D5E720682118A8
:103370008B4203D119685B6809182160636054604F
:10338000CAE7C0468802002037B5069D024C00956A
:103390002468A0473EBDC046E800002082B0002956
:1033A00000D101A9101E06D0002B06D013780B60A7
:1033B0001078431E984102B0704702204042FAE75D
:1033C0000CB407B504AB04CB019300F071F803B063
:1033D00008BC02B0184700000EB417B5054C05AB89
:1033E00004CB01002068019300F062F81EBC08BC09
:1033F00003B018477001002010B5024C2468A047A4
:1034000010BDC046E40000200300081E05D0FF2ABE
:1034100004D98A2201201A604042704701200A70B4
:10342000FBE703008218934200D170471970013303
:10343000F9E7062010B500F0ABFD0120FDF7DAFB3F
:10344000936810B5013B9360002B04DA9469A342A2
:1034500007DB0A2905D01368581C10601970080092
:1034600010BD00F081FA0100F9E7F8B506000F0081
:103470001400D518AC4201D1002007E021783A00B1
:103480003000FFF7DDFF0134431CF3D1F8BD00230A
:1034900010B5140092689A4205D0220000F00AFB91
:1034A00000220300A26000221800626010BD00002C
:1034B000F0B59FB00D0016001C000290002804D04B
:1034C000036A002B01D100F01BFA6B6EDB0705D4F9
:1034D000AB899B0502D4A86DFFF76FFEAB891B0774
:1034E00002D52B69002B13D12900029800F088FA2D
:1034F00000280DD06B6EDB0703D5012040421FB0C2
:10350000F0BDAB899B05F8D4A86DFFF75CFEF4E72E
:103510000023292102AA52180B9320331370013182
:1035200002AA103352181370059434002378002B2C
:1035300001D0252B48D1A71BB4420BD03B00320051
:1035400029000298FFF791FF013000D1AEE00B9BFC
:10355000DB190B932378002B00D1A7E00122532124
:1035600000235242079202AA5218661C069309933E
:10357000089313701C93594F317805223800FEF7D9
:10358000CFF9741C069906AB00281FD1CA0604D5D2
:103590005327202202A8C01902700A0704D5532716
:1035A0002B2202A8C019027032782A2A15D03400C2
:1035B00000200A27DA682178661C3039092950D999
:1035C000002811D009920FE00134AFE70123C01B9E
:1035D00083400B4326000693CDE7059A101D126821
:1035E0000590002A37DBDA6022782E2A0CD1627827
:1035F0002A2A3BD1059A0234111D12680591002A2E
:1036000001DA012252425A60354E032230002178FD
:10361000FEF786F906AF002806D04023801B8340C2
:10362000069A013413430693217806222D48661C1E
:103630003976FEF775F9002847D02B4B002B29D19E
:103640000722059B07339343083305930B9B03998C
:103650005B180B9369E75242DA6002220A43069232
:10366000C2E77A43340001205218A4E700220A205E
:103670005A601100130001342278661C303A092A7E
:1036800003D9002BC0D00791BEE74143340001238A
:103690008918F1E705AA009239002A00134B029815
:1036A000FDF78AFD0390039B0133CFD16B6EDB07DF
:1036B00005D4AB899B0502D4A86DFFF784FDAB89C7
:1036C0005B0600D519E70B9819E705AA00923900A7
:1036D0002A00064B0298FEF70DF8E3E78E67000814
:1036E0009467000898670008B91100086B34000857
:1036F00010B5044C13000A0001002068FFF7D8FE43
:1037000010BDC04670010020002310B50400036006
:103710004360836081814366C28103614361836149
:10372000190008225C30FFF77CFE0B4B24626362B9
:103730000A4BA3620A4BE3620A4B23630A4B9C4287
:1037400005D00A4B9C4202D0094B9C4203D1200079
:103750005830FFF72EFD10BDED410008194200085A
:10376000514200087D42000898020020000300201A
:103770006803002010B5034A0349044800F0FCFA2E
:1037800010BDC046C0010020654100087401002042
:1037900041680B4B10B50400994201D000F0E2FCE7
:1037A000A168084B994202D0200000F0DBFCE168E0
:1037B000054B994202D0200000F0D4FC10BDC04659
:1037C0009802002000030020680300204B6E10B513
:1037D000DB0705D48B899B0502D4886DFFF7EDFCD0
:1037E000002010BD4B6E10B5DB0705D48B899B05FF
:1037F00002D4886DFFF7E7FC002010BD10B5094B1F
:10380000094A04211A6009480022FFF77DFF0122BE
:1038100009210748FFF778FF022212210548FFF728
:1038200073FF10BDD00300207537000898020020F8
:10383000000300206803002010B50248FFF7BDFC1C
:1038400010BDC0469302002010B50248FFF7BBFC34
:1038500010BDC04693020020F8B50700FFF7ECFF4B
:10386000244B1B68002B01D1FFF7C8FF224EB46820
:103870007368013B0FD53568002D39D1D62138004A
:103880004900FEF707FF041E26D13060FFF7DCFF7A
:103890000C233B601CE00C22A55E002D1AD12000F9
:1038A000164B5830E3606566FFF783FCFFF7CCFFEB
:1038B0002000082229002560A560656025616561FA
:1038C000A5615C30FFF7ADFD6563A563A564E564A4
:1038D0002000F8BD6834CCE70423D022056029001D
:1038E000250043600C30A0605200FFF79AFD346061
:1038F0002E00BCE7D0030020C00100200100FFFF24
:1039000010B50400FFF798FF236A002B02D0FFF7E1
:103910009BFF10BD044B2362044B1B68002BF6D1A8
:10392000FFF76CFFF3E7C04691370008D003002093
:1039300010B5FFF781FF0020024A034900F01CFA8E
:1039400010BDC046C0010020CD37000810B5044AA4
:103950000449002000F010FAFFF776FF10BDC046C2
:10396000C0010020E5370008F8B506000D0014007E
:10397000002804D0036A002B01D1FFF7C1FFA3691F
:10398000A360A3891B0702D52369002B09D121005D
:10399000300000F035F8002803D001256D422800E2
:1039A000F8BD23692068EFB2C01A6369EDB28342A3
:1039B00005DC2100300000F0D5FB0028EDD1A36824
:1039C0000130013BA36023685A1C22601F706369A9
:1039D000834204D0A389DB07E1D50A2DDFD1210082
:1039E000300000F0BFFB0028D9D0D6E710B5034B5C
:1039F0000A0001001868FFF7B7FF10BD7001002032
:103A00002B4B70B5050018680C00002804D0036A21
:103A1000002B01D1FFF774FF0C22A35E1A0722D4FA
:103A2000DA0607D409222A60373201201343A38122
:103A3000404270BD5A0713D5616B002908D023009E
:103A40004433994202D02800FFF754FC00236363FB
:103A50002422A38993430022626022691BB2226060
:103A600008221343A3812269002A07D19A0501D5B0
:103A70001B0603D52100280000F0C4F90C23E25EE8
:103A8000012113000B400A420CD00023A36063699C
:103A90005B42A361002023698342CAD11306C8D5C3
:103AA0004023C2E7910700D46369A360F2E7C046F0
:103AB00070010020F0B5936887B00C00029004926A
:103AC000002B02D1002007B0F0BD8B891B0758D511
:103AD0000B69002B55D0049B1B6801930C22A35E3D
:103AE00002221E001640134271D1012201211A4008
:103AF0000B4200D19CE0300037000396002F00D12C
:103B000012E100280AD13A000A210398FDF708FFC4
:103B10007E1C002802D0039B0130C61A0596BE42C7
:103B200000D90597206822696369904200D804E1B2
:103B3000A568059A5D19AA4200DCFEE003992A00F7
:103B400000F099F9236821005B190298236000F0C6
:103B500009FB002800D08EE00120761B06D1210051
:103B6000029800F0FFFA002800D084E0039B049A3A
:103B70005B190393049B7F1B9B685B1B9360BDD108
:103B8000A0E721000298FFF73BFF0028A3D0012007
:103B9000404298E7019B1E685D6808330193002D41
:103BA000F8D0724A2B00954200D913003200A76A60
:103BB000216A0298B84700285DDD049B049A9B683F
:103BC00036181B1A2D1A9360002BE8D17AE70026CD
:103BD0003500E4E7019B1B680393019B5F68083392
:103BE0000193002FF6D00C22A35E80229200206861
:103BF000A668134267D00596BE421CD93E003D0020
:103C00000597059A0399206800F035F9A368059A8D
:103C10009B1BA36023689B182360039B049A5B197A
:103C20000393049B7F1B9B685B1B9360D9D149E77F
:103C300017000392D5E79022D200134241D02169A8
:103C4000421A0320059262694243D50FAD18059AC6
:103C50006D10501CC0192A00A84201D905000200AD
:103C60005B0520D511000298FEF714FD061E07D152
:103C70000C23029A13604023A2891343A38186E791
:103C8000059A2169FFF7DCFAA289394B1A40802393
:103C90001343A381059B26616561F618ED1A266022
:103CA000A5603E00ABE7029800F0EEFA061EF1D1E7
:103CB00021690298FFF71EFB8022A3899343A38109
:103CC000D6E73D009DE72369834202D36569BD4283
:103CD00016D9BE4200D93E003200039900F0CBF85D
:103CE000A36822689B1B92193500A3602260002BF9
:103CF00093D12100029800F035FA00288DD0BAE760
:103D0000802338001B069F4200D31A482900FDF784
:103D1000BFF82B00A66A4343039A216A0298B04772
:103D2000051E00DD79E7A6E7019B00201B680393D1
:103D3000019B5F6808330193E0E6059A934208DC33
:103D4000A56A039A216A0298A847051E00DD03E7C9
:103D500091E7059A039900F08EF8059AA36815007B
:103D60009B1AA36023689B182360F5E600FCFF7F85
:103D70007FFBFFFFFFFFFF7FF7B5140000260090D9
:103D80000191A5686768013F04D52468002CF8D12B
:103D90003000FEBDAB89012B08D90E22AB5E01338A
:103DA00004D029000098019B984706436835EAE74C
:103DB000F0B50E001D000E23C95E140097B0002957
:103DC0000CDAB2898023110019401A4214D18023E1
:103DD000DB0000202960236017B0F0BD6A4600F0C8
:103DE00025F90028EDDBF02301991B021940044B53
:103DF000C9184B425941EAE700214023E9E7C04690
:103E000000E0FFFFF7B502268B8905000C00334266
:103E100006D0230047332360236101236361F7BD8C
:103E20006A4601ABFFF7C4FF009F28003900FEF788
:103E300031FC0C22A35E002806D19A05EFD40322A0
:103E400093431E43A681E4E780221343A381019B91
:103E5000206020616761002BE1D028000E23E15E25
:103E600000F0BCF80028DAD00323A2899A43023B71
:103E70001343A381D3E710B5884202D98B18984227
:103E800008D300239A4207D0CC5CC4540133F9E72D
:103E90008B5C8354013AFBD210BD70B5C46B050036
:103EA000002C0AD18021FEF7F5FBE863002806D03C
:103EB0000300803310C09842FCD1002070BD012067
:103EC0004042FBE770B504000D0016001F2904D91D
:103ED000162303600120404207E0C36B002B05D08E
:103EE000E36BAD005D1928682E6070BDFFF7D5FF4C
:103EF0000028F5D0EEE770B504000D001F2904D9A5
:103F0000162303600120404270BDC36B002B04D018
:103F10008A009B181A68002A08D1200000F082F855
:103F20002A000100200000F06BF8EDE7012A09D01B
:103F3000511C03D1162303600120E5E7002128006E
:103F4000196090470020DFE770B504000D001F29BD
:103F500002D90120404270BDC36B002B12D0E26B2E
:103F6000AB00D21813680120002BF4D00220591C9A
:103F7000F1D00130012BEED00024280014609847C6
:103F80002000E8E7FFF789FF0028E8D0E1E700001C
:103F900010B5034B01001868FFF7ADFF10BDC04618
:103FA0007001002010B5034B0A0001001868FFF7EC
:103FB00089FF10BD7001002010B5024B1868FFF793
:103FC0006CFF10BD7001002010B5034B0100186894
:103FD000FFF7BAFF10BDC04670010020002370B586
:103FE000064D040008002B60FCF7A6FE431C03D11D
:103FF0002B68002B00D0236070BDC04680020020DB
:10400000002370B5064D0400080011002B60FCF77A
:1040100031FE431C03D12B68002B00D0236070BD00
:104020008002002010B5FCF71FFE10BD002370B504
:10403000064D0400080011002B60FCF707FE431C2E
:1040400003D12B68002B00D0236070BD80020020BC
:10405000F7B50C228B5E05000C001A075AD44A688B
:10406000002A02DC0A6C002A4FDDE76A002F4CD0E0
:10407000002280212E682A601A0049010A400B4262
:1040800034D0626DA3895B0706D56368D21A636B6F
:10409000002B01D0236CD21A00232800E76A216A82
:1040A000B8470C23E25E431C06D129681D292ED88F
:1040B0002B4BCB40DB072AD50023636023692360A9
:1040C000D20405D5431C02D12B68002B00D16065BA
:1040D000616B2E60002918D023004433994202D02E
:1040E0002800FFF707F9002363630EE0012328008F
:1040F000216AB8470200431CC4D12B68002BC1D0F1
:104100001D2B01D0162B1DD12E60002021E0402355
:1041100013431BE00E69002EF7D00F680E60BA1B28
:10412000019200229B0700D14A69A260019B002BEB
:10413000EBDDA36A32001F002800019B216AB8470B
:10414000002807DC4023A28913431BB20120A3816E
:104150004042FEBD019B36181B1A0193E6E7C0469C
:10416000010040200B6970B505000C00002B02D146
:104170000025280070BD002804D0036A002B01D15F
:10418000FFF7BEFB0C22A35E002BF1D0626ED207BC
:1041900004D49B0502D4A06DFFF70FF8280021007E
:1041A000FFF756FF636E0500DB07E2D4A3899B058A
:1041B000DFD4A06DFFF707F8DBE70000010010B5C2
:1041C000002805D1054A06490648FFF7D5FD10BD70
:1041D000054B1868FFF7C6FFF9E7C046C00100208D
:1041E00065410008740100207001002070B50C00CA
:1041F0000E25495F00F08CF8002803DB636D1B1867
:10420000636570BDA389024A1340A381F9E7C046E4
:10421000FFEFFFFF00207047F8B51F008B890500F6
:104220000C001600DB0505D50E23C95E0022022313
:1042300000F05AF8A389054A28001340A3813200F0
:104240000E23E15E3B0000F077F8F8BDFFEFFFFFC3
:1042500070B50C000E25495F00F046F80C22A35EF5
:10426000421C03D1044A1340A38170BD8022520135
:104270001343A3816065F8E7FFEFFFFF10B50E233E
:10428000C95E00F06DF810BDF7B506000C00150012
:10429000002905D11100FEF7FDF904002000FEBD44
:1042A000002A03D1FFF726F82C00F7E700F06AF8A0
:1042B0000700854202D84308AB42EFD32900300003
:1042C000FEF7E8F90190002801D1019CE6E72A00F9
:1042D000BD4200D93A0021000198FEF7B1FF21004C
:1042E0003000FFF707F8F0E770B504000800110090
:1042F0001A000023054D2B60FCF7DCFC431C03D1A6
:104300002B68002B00D0236070BDC04680020020C7
:1043100070B50400080011001A000023054D2B6041
:10432000FCF750FD431C03D12B68002B00D0236009
:1043300070BDC0468002002070B504000800110066
:104340001A000023054D2B60FCF778FD431C03D1B8
:104350002B68002B00D0236070BDC0468002002077
:10436000002370B5064D040008002B60FCF747FCE5
:10437000431C03D12B68002B00D0236070BDC046C6
:10438000800200200B1F1B68181F002B01DA0B583E
:10439000C018704702B4714649084900095C4900D9
:1043A0008E4402BC7047C04603B4714649084000C1
:1043B0004900095E49008E4403BC7047002243084F
:1043C0008B4274D303098B425FD3030A8B4244D3DD
:1043D000030B8B4228D3030C8B420DD3FF2209021F
:1043E00012BA030C8B4202D31212090265D0030BDE
:1043F0008B4219D300E0090AC30B8B4201D3CB03D4
:10440000C01A5241830B8B4201D38B03C01A524115
:10441000430B8B4201D34B03C01A5241030B8B4217
:1044200001D30B03C01A5241C30A8B4201D3CB0202
:10443000C01A5241830A8B4201D38B02C01A5241E7
:10444000430A8B4201D34B02C01A5241030A8B42EA
:1044500001D30B02C01A5241CDD2C3098B4201D302
:10446000CB01C01A524183098B4201D38B01C01A80
:10447000524143098B4201D34B01C01A52410309F7
:104480008B4201D30B01C01A5241C3088B4201D3A6
:10449000CB00C01A524183088B4201D38B00C01A53
:1044A000524143088B4201D34B00C01A5241411A7A
:1044B00000D20146524110467047FFE701B5002087
:1044C000FCF7D0FD02BDC0460029F7D076E7704763
:1044D0008446100062468C461900634600E0C046E0
:1044E0001FB501F021F8002801D40021C8421FBDEA
:1044F00010B500F063FF4042013010BD10B501F06F
:1045000013F8002801DB002010BD012010BDC046BB
:1045100010B501F009F8002801DD002010BD0120D0
:1045200010BDC04610B500F08FFF002801DC002050
:1045300010BD012010BDC04610B500F085FF002859
:1045400001DA002010BD012010BDC046F0B54F4675
:104550004646D646C0B50D0382B0009201934E0088
:10456000C300CC0F690A450F9C46009A019B0D437E
:104570005F001903D80F009B490A5B0F1943009B8A
:10458000760D7F0DDA00F31B844258D0002B13DD2B
:10459000002F00D088E00800104300D159E1581ED8
:1045A000012B00D1C2E2B14FBB4200D141E138281A
:1045B00000DD6AE2030064E1002B00D1B1E0BB1B27
:1045C000002E00D0E1E164462C4300D176E25C1E6F
:1045D000012B00D1E8E2A54EB34200D1B7E2382C5E
:1045E00000DC6BE3541EA242924152428D1AA04657
:1045F0001E0004002A0268D443461F1D47459B4104
:104600005B42ED182B0200D49DE3984A0136964296
:1046100000D1EBE0964A73052A405B0D5107FF0875
:1046200052020F43120B1B051343E40723433800C8
:10463000190002B0E0BCBA46B146A846F0BD002B56
:1046400000DCD7E0002F00D09AE00800104300D132
:10465000FFE0581E012B00D148E2844FBB4200D13D
:10466000E7E0382800DCB8E280221204154200D1CD
:1046700049E31E000023150098467C4B01369E42FC
:1046800000D1B3E07A4B01211D4043465A0819403E
:10469000EF070A4317436D087B07B3D00F233B4056
:1046A000042BAFD0B846A7E77048864200D1C0E0DF
:1046B000382B00DCE2E001235B4263449C458041EF
:1046C00040422D1A98462B0296D501235B4298460C
:1046D000684D280001F046FF0300083B20214046BA
:1046E000CA1AD040020040469D4098402A43804666
:1046F000B34200DA72E1981B43460130091A45467D
:104700008B40C5405E1EB34117008F402B431F43B3
:10471000C2403B00150000261343BDD100270022F4
:1047200081E7554F731C3B4200D01BE163460F00ED
:104730002B431743002E00D0C4E1002B00D145E2EB
:10474000002F00D107E163469B1A9846C445B64145
:104750006B1A76429B1B80263604334200D1CBE293
:104760006346D31A9A4292411F00491B52428A1A49
:104770009C46174300D0EDE204000023002252E7DC
:104780003A48864255D0382B00DD48E180200004AD
:1047900001431F2B00DDE3E12027F81A82460800C1
:1047A0005746B840814610004F46D840074338006E
:1047B0005746BA40D940571EBA416D18104360445D
:1047C0008046E045804140422D182B0200D554E739
:1047D00043465B0700D1B9E20F2342461340042B46
:1047E00000D009E733004246D20834E0330000220B
:1047F000002718E7002B00D18FE0BB1B002E00D054
:1048000033E16046284300D140E2581E012B00D11D
:104810000AE2164EB34200D185E2382800DC87E276
:1048200080252D04294200D19CE21E0000239846D9
:1048300023E763466E07D8080643ED0837002F4389
:1048400011D0802212032A4312033700074B120BA8
:10485000E9E66246D2086E071643044AED08934221
:10486000ECD03700D6E0014B0022DCE6FF07000069
:10487000FFFF7FFFFFFF7F00FE0700008020000496
:1048800001431F2B00DDB1E02027F81A8246080003
:104890005746B840814610004F46D840074338007D
:1048A0005746BA40D940571EBA416D1A1043634665
:1048B0001B1A9C458041984640422D1A2B0287D5F1
:1048C0006D026D0A002D00D003E7404601F04AFE5C
:1048D000030018331F2B00DC00E7424608388240F3
:1048E0009E4200DD91E09B1B581C1F2800DCF8E174
:1048F00017001F3BDF40202805D040231B1A9A4099
:10490000531E9A411743002F3CD000267B0700D04E
:10491000C4E63500B846330065E7CB48731C034254
:1049200000D085E063462B43002E00D092E10F00BB
:104930001743002B00D1D8E1002F0CD06244624510
:1049400080416D1840422D182B0200D5F2E117006E
:1049500094462F4316D063466F07D80807430023B9
:10496000ED0857E063469B1A9846C445BF416B1A51
:104970007F42DB1B1F0200D5AEE047461D001F43F0
:10498000A0D10024002300224DE6B04CA74200D164
:10499000DDE0382B00DD85E08024240425431F2B37
:1049A00000DDECE02026F41AA1462C004E46B4406F
:1049B0006646DE403443A04666464C46A640DD408F
:1049C000741EA6414446491B3443131B9A4292412C
:1049D0005242984604003E008D1A6FE7F61A030013
:1049E0009B4D15405B0700D0F6E6FBE618000F0074
:1049F0002038C740202B03D04020C31A99400A43D7
:104A0000531E9A411000384351E79149F31A0A4066
:104A10005707D5082A035B05120B5B0D03E68023BD
:104A20001B041D4200D1BBE01D000023984624E674
:104A30008648834200D1DAE66244624580416918C3
:104A400040420918C8075208104380464D085207D3
:104A500005D00F221E000240042A00D0CCE54246B9
:104A60006F07D20817430D09D4E77848874200D171
:104A7000D5E0382B00DCB2E080252D04294200D19E
:104A80004CE100233E009846F7E501225242624481
:104A90009445804140422D1A90461E002A0200D5BE
:104AA00013E6A9E5531E9A42924152428D1A984646
:104AB00004003E002B0200D507E69DE504000D0032
:104AC000D208C8E6002B00D0E3E0002F3FD18022BF
:104AD00000245E4B1203A6E56346D31A9A42924124
:104AE0004D1B524298460400AD1AEBE66244160094
:104AF000664580416A1840421218130200D49DE0B6
:104B0000534973080A40D107194357085B0700D17E
:104B1000FEE00F230B40042B00D1F9E00B1D98465B
:104B20008845AD416D420223ED195CE663469B1A50
:104B30009C4580416D1A40422D1A98462B020DD497
:104B400043466F07DB081F43ED08012362E74E076A
:104B5000D20804001643CD0870E604000126AFE633
:104B600018000F002038C740202B03D04020C31A64
:104B700099400A43531E9A41100038431FE61C0017
:104B80002E00203CE640202B05D04024E31A9D4017
:104B900063462B439C466446631E9C41344314E7A2
:104BA00001236344984627E56346D31A9A4292410B
:104BB0004D1B5242AD1A98462B02CED443466F0786
:104BC000DB081F4304000123ED0823E7002F00D179
:104BD000D7E604000D009446BDE60300D9E5802029
:104BE000000405431F2B6BDC2020C01A80462800E0
:104BF0004646B0406646DE400643B14660464646FD
:104C0000B040DD40461EB0414E4649193043804613
:104C100090449045924152423E005518D5E54E07CA
:104C2000D2081643CD0809E663469E189642924183
:104C3000691852428A18130200D561E75707F6082F
:104C400001233743D508E5E6FE070000FF07000013
:104C5000FFFF7FFF002BE2D06346DE086B071E4399
:104C60000B00ED08134300D1E8E580231B031D4230
:104C700006D0C808184203D10500D60849070E43DC
:104C8000730FF600F6085B071E43D7E50D00D20848
:104C9000E1E56346DE086B071E43ED08002F00D1F7
:104CA000CCE580231B031D42EAD0CF081F42E7D189
:104CB000D608490704003D000E43E1E723006EE6F5
:104CC00018002E002038C640202B05D04020C31AE3
:104CD0009D4063462B439C466046431E98413043AB
:104CE00095E720210023091A0EE50023002F00D1AB
:104CF000BAE50D00904676E547461F4300D140E6F1
:104D00001D00C44627E60122624490461E0073E45B
:104D1000C9087F0702230F4315097BE6531C9846F9
:104D20000D003E0068E4D6084B071E43CD0885E51C
:104D3000030057E7114BD2082B405F0717435A0275
:104D4000120B01236FE43300B8464CE54346DA0802
:104D5000330080E532420AD0084B04001A4067460F
:104D600001235BE4013290460D001E0044E4DB08A1
:104D700057071F4304000023D5084BE6FFFF7FFFC2
:104D8000F0B5DE46454657464E46E0B587B0009240
:104D900001930B031B0B9B46CA0F4B00040080467C
:104DA0005B0D029200D1BFE08F4A934238D0594642
:104DB000420FC9000A43802109041143C2009046F2
:104DC0008A4A894692469A44002300240393009E0F
:104DD000019F3B031B0B7A0030009B46520DFD0FD9
:104DE000002A00D17FE0804B9A426ED05946730F63
:104DF000C9000B438021090419438B467B49F3000A
:104E00008C46514662448A1A92460021029E6E40A8
:104E1000F6B20F2C00D9F9E0754AA4001259974652
:104E20005A460243914600D0B6E09A460223904685
:104E300008240393CBE72E0000210023002288469C
:104E40001B051343F60733434046190007B0F0BC77
:104E5000BB46B246A946A046F0BDCB464346029D9E
:104E60000399022900D1FAE1032900D1A1E0012927
:104E7000E1D0604A524490464446002C00DC00E2F7
:104E80005A0704D00F221A40042A00D07FE22E00D5
:104E9000DA085B46DB0106D55946574B802419409A
:104EA0008B46E4005444554B9C4209DC5B465B074F
:104EB000134398465B4664055A02120B630DBFE725
:104EC000002100228846484BBAE75B46009A13430C
:104ED0004B4A9446E244002B59D10222144300224B
:104EE0000221934692E75B46009A134349D05B4602
:104EF000002B00D1A4E1584601F034FB030002006E
:104F00000B3B1D27009EFB1A11005846DE40083956
:104F10008840330003439B46009B8B4039495244F1
:104F20008A460021924471E75B460343994621D0AB
:104F30005B46002B00D171E1584601F013FB0B23B7
:104F40005B429C460200844466461D239B1B260050
:104F500011005846DE400839884033000343994623
:104F600023008B409846284B00249B1A9A46002326
:104F700003932CE7002398469A46013304240393B5
:104F800025E7012214430022012193463EE7032333
:104F900003211C43330039E79A460323D9460C24E6
:104FA000039314E700238022984600260E4B120339
:104FB00046E78022594612030A43120398462E0000
:104FC000094B120B3CE7802249461203114202D0E2
:104FD00059461142F0D080224B4612031A43120365
:104FE000029E014B120B2BE7FF07000001FCFFFFA5
:104FF000CC690008FF030000FFFFFFFEFE07000072
:1050000001F8FFFFF30300000DFCFFFFCB4500D2CA
:10501000FAE000D1F5E001225242944600224446D3
:1050200048469046E2445A461F0E12021B02029363
:10503000130C994617433B041B0C49460093FFF79A
:1050400043FA009A0B044243210C050019438A429B
:1050500007D9C919013D8F4203D88A4201D9851E5B
:10506000C919881A4946FFF72FFA009A24044243C7
:105070000904240C03000C43A24204D9E419013BA7
:10508000A74200D8F7E00299A01A2D040C0C0904DD
:105090001D43090C2A0C2B04AB460D001B0C5D4371
:1050A000059163435143049462435B182C0CE3184D
:1050B000994203D9802149028C466244190C2D047F
:1050C0001B042D0C8A185D19904200D287E000D194
:1050D00082E043465D1BA8459B41801A5B42C01A93
:1050E000B14B534498461C00874200D10CE149461D
:1050F000FFF7EAF90200009B03905A430B04290CC6
:1051000019438A420AD90300C919013B03938F420C
:1051100004D88A4202D9831E0393C919881A4946C2
:10512000FFF7D2F90A00120494462A046546009952
:10513000120C414303002A43914207D9D219013886
:10514000974203D8914201D9981ED219039B521A53
:105150001B0403430598190C05008C461904090C1F
:105160004D438946614600956546484304994D4341
:10517000AC464D464D432918009D2D0CA946494487
:10518000884203D9802040028146CC44009D080C0F
:105190002D0409042D0C60444D1982420FD30BD00D
:1051A00001221343814A92456CDB1A1D9A429B41AE
:1051B0005B42D2089B446CE6002D00D193E0591E5F
:1051C000BA188C46BA4200D285E0824200D2C7E0CB
:1051D00000D1D5E00B00E3E7A84500D379E75B46B3
:1051E000591E029B9C46E0441C0098459B415B4233
:1051F000DB19C018874238D2824278D875D08B46E6
:1052000067E7434500D906E74A46D40750084246B7
:10521000520814434246D207904604E701F0A2F92F
:1052200015239C4684440200634620321C2B00DC7C
:105230008AE623000838834099460023984692E680
:1052400001F090F903000200153320321C2B00DC22
:1052500057E600990838814000238B465EE600211E
:105260002E0000228846524BEAE58742C7D14445CA
:10527000C2D98B462DE7A24200D804E7831EE41969
:1052800001E72E0001224146521A382A00DDD3E5FB
:105290001F2A3FDC47481C00504459468340814048
:1052A000D440581E834121430B435946D1400A0044
:1052B000590709D00F211940042905D0191D994219
:1052C0009B415B42D2180B00110268D500210123DB
:1052D00000228846B4E50B00824200D060E7029AC3
:1052E000954200D05CE73500C6E5454587D90223E5
:1052F0005B429C46029BE3449C46E04498459B41AC
:105300005B42DB19C018E4E6002B36DD01230022E6
:105310009B44BEE51F2140464942091A5846C840F1
:105320000100202A04D05846234A524490400343A7
:105330005A1E934107200B430100002219401842D6
:1053400009D00F21194004291FD0181D9842894106
:10535000030049424907DB080B43984600236FE5E9
:105360000299023B49008C4602998C458941494289
:10537000C919521861460291AEE701235B4281E7E9
:105380000299A942ECD36346A9E70021E3E71A1D7D
:105390009A429B415B422E00D2089B4479E551071B
:1053A0005202120BD7E7C046FF03000002FCFFFFCA
:1053B000FF0700001E0400003E040000F0B5574641
:1053C000DE464E464546E0B50D000400E80F834634
:1053D0000903D80F090B82461A488C461F0369003F
:1053E0005E00490D3F0B760D81421AD0864211D0E6
:1053F0000120B1420FD1BC450DD1A2420BD1D34502
:105400001ED0002907D1614611430A00531E9A415C
:10541000100000E00120F0BCBB46B246A946A04601
:10542000F0BD01208E42F6D1614639430F0017438B
:105430002743F0D15B465246981A431E9841EAE74B
:105440000020E8E7FF070000F0B557464E46454606
:10545000DE46E0B50D000E034900490D8A46DF0F18
:10546000E90FBC4683B02F4F0400804601915800DD
:1054700019039146360B090B400DBA451DD0B842B1
:105480000DD05746002F2AD13443002824D10A4397
:1054900036D0002C41D163465800013815E0114345
:1054A00038D15346002B01D12643F4D0019B6345EC
:1054B00007D1019B5800013807E026432AD1504507
:1054C00021D00120019B5F42384303B0F0BCBB46B2
:1054D000B246A946A046F0BD002CDCD0E6E7002885
:1054E000EFD0019B6345ECD18245EADCE1DB8E42E3
:1054F000E7D8DED1C845E4D80020C845E5D2D8E7D2
:10550000002CE2D0DDE7114304D1019B6345D8D1E3
:105510000020DAE702204042D7E7019B6345E6D04E
:10552000CFE7C046FF070000F0B557464E46454658
:10553000DE46E0B50D000E034900490D8A46DF0F37
:10554000E90FBC4683B02E4F0400804601915800FD
:1055500019039146360B090B400DBA451ED0B842CF
:105560000DD05746002F27D13443002833D10A43AA
:1055700034D0002C40D163465800013815E0114367
:1055800012D15346002B01D12643F4D0019B634531
:105590001DD00120019B5F42384306E0264303D122
:1055A0005045F6D111431CD0022003B0F0BCBB46DD
:1055B000B246A946A046F0BD0028EAD0019B63454B
:1055C000E7D18245E5DC02DB8E42E2D80ED0019BBA
:1055D00058000138E9E7002CCDD0D7E7002CE4D003
:1055E000D7E7019B00206345DFD0D2E7C845D0D87C
:1055F0000020C845D9D2EAE7019B6345E4D0C8E75B
:10560000FF070000F0B557464E464546DE46E0B57A
:105610001F000B031B0B16009846CA0F4B0004001B
:10562000924685B05B0D00D1C2E1CC4A934200D1D5
:1056300028E14146420FC9000A4380210904114371
:10564000C2009146C64A884693469B4400230025E3
:1056500001933C037A00FB0F3000240B520D0093A2
:1056600000D185E1BD4B9A4200D160E1BC4B9C4624
:10567000624493440A2D00DD14E1730FE4001C43DF
:1056800080231B042343F0005246009900264A4021
:105690009246022D11DD0122AA40A6211400C90064
:1056A0000C400A4200D0FDE0902189000A4200D05F
:1056B000D4E18821114200D0EFE049464A4609046E
:1056C000140C090C020C0F0015000004000C6543BB
:1056D00047430195B9462F000D0006005543AC46DF
:1056E0004D4666432D0CB4446544AE4205D93E0098
:1056F00080277F02BC46664401964F463F043F0C1C
:105700002E0C2D04ED1902951D0C1B041B0C00958D
:105710001D001F0065434F43AC46009D69436C4329
:105720003D0CA946614449448C4503D980256D024E
:10573000AC4664443F040D0C3F0C0904C919AC4647
:105740007518039545462E04360C2F0C350045433D
:105750007843804638006444AC462D0CA94650433B
:10576000724342444A44904503D980256D02A846BD
:105770004044150CA84665462D042D0CAC4635005A
:105780005D4312046244AC467B43009D404498460E
:105790002B006E4365467B4346442D0CAD191F001C
:1057A0000093A84504D980235B029846474400979C
:1057B000039B019E98462B044644984663468E42BE
:1057C00089411B041B0C4344B61849421B195F183E
:1057D00096429241BC465242804691468C45894150
:1057E000A3429B41E044C14449425B4291459241FE
:1057F0000B43804589412D0C494252420A435B19B3
:105800009B18009A029994464A4663445B02D20D63
:105810001A43904672020A43511E8A41F60D1643FE
:105820004A4652021643B146DB0154D44D4A5A440B
:10583000002A00DC18E133005B0715D00F215B461E
:105840003140042910D04946081D48458941814608
:10585000494288444146C90106D54146424A114061
:1058600080228846D2009A18404B9A4200DD2BE1F4
:1058700041464B464C07DB081C4352054B021B0BB1
:10588000520D1AE042460243914600D0E0E09B46AA
:105890000223904608250193DBE6009A984692463B
:1058A00081460196019B022B00D10DE1032B35D0DF
:1058B000012B1BD100220023002412051A4353465A
:1058C000DB071A432000110005B0F0BCBB46B2460E
:1058D000A946A046F0BD0122730832401343424658
:1058E000D2071343994643465B08984680225B469D
:1058F000D2005A440133002A00DCB6E04946490789
:10590000A8D00F214846014004299CD1A2E70F2DC1
:1059100000D1FDE0009BA0469A46B1468023424656
:105920001B0313431B034C460C4A1B0BC5E70B49D7
:1059300033008C462343E344002B77D102212943D3
:105940000A29AFDC5046009C60408246002D00D101
:105950000EE10D00002002269DE6C046FF07000074
:1059600001FCFFFFFF030000FFFFFFFEFE0700003A
:10597000230033434BD0002C00D1BBE0200000F0CB
:10598000F1FD030002000B3B1D20C31A3000D8407C
:1059900011000300300008398C40884023435946E9
:1059A0008A1A78498B4693440A2D00DC6CE679E725
:1059B00043460343994623D04346002B00D187E05A
:1059C000404600F0CFFD0B235B429C46020084441E
:1059D00011004046083988401D23804660461B1A46
:1059E0002000D840030040460343984623008B40E4
:1059F0009946644B00259B1A9B460023019328E699
:105A0000002398469B4601330425019321E6012299
:105A100015430A2D00DD45E7524600994A4092465B
:105A2000022D00DC46E70020012634E603231D4357
:105A30000A2D00DD6BE75346009A8821534001226E
:105A4000AA409A4603262300114200D135E624E7F6
:105A50009B46032381460C250193FAE500239A46D1
:105A60008023494A1B0328E75B460121891A38290C
:105A700000DD1FE71F295ADD1F204042821A4046E1
:105A8000D040202908D0414A9446424663449A4077
:105A900013004A461A4391464A460721531E9A412B
:105AA0000C00024300231440114209D00831114078
:105AB000042960D0111D9142A4410A006442640788
:105AC000D20814430022F8E6002300242E4AF4E60C
:105AD00000F048FD15239C468444020063462032B2
