:1000000002002E220000000000000000000000009E
:1000200000000000000000000000000201C975810E
:100030004F12015AE582600302009A780079007A33
:10004000007B007C007D00EC4D601C88828983E48D
:1000500093A3A882A9838A828B83F0A3AA82AB830D
:100060001CBCFFE31D80E07582007583007C007D71
:1000700000EC4D600AE4F0A31CBCFFF51D80F27596
:1000800082007583007C007D00EC4D600AE4F0A3E3
:100090001CBCFFF51D80F21200031201DA80FE1B6A
:1000A0005B324A005661726961626C6520667265F6
:1000B0007175656E63792067656E657261746F72C4
:1000C00020666F72207468652045464D384C423179
:1000D0002E0D0A436865636B2070696E7320503281
:1000E0002E3020616E642050322E31207769746882
:1000F00020746865206F7363696C6C6F73636F70D5
:10010000652E0D0A004E6577206672657175656E05
:1001100063793D00256C7500536F72727920256CF0
:100120007520487A206973206F7574206F6620727D
:10013000616E67652E0A000A41637475616C206602
:1001400072657175656E63793A20256C750A003C9D
:100150004E4F20464C4F41543E0075A7007597DE28
:100160007597AD43FF8075EF0275A71075C12075B7
:10017000A70075A90075A900E5A930E7FB75A903DB
:1001800075A903E5A930E7FB43A60343A41075E175
:100190000175E21075E340759810858E8E758DE6B9
:1001A000858D8B53890F438920D28ED29975C800D3
:1001B000438E1075CAEE75CBF675CEFF75CFFFD2A4
:1001C000ADD2CAD2AF75820022C0D075D000C2CFE6
:1001D000B2A0A2A0B392A1D0D032749FC0E07400AC
:1001E000C0E07480C0E012041B1581158115817474
:1001F000A4C0E07400C0E07480C0E012041B15814C
:10020000158115817405C0E07401C0E07480C0E000
:1002100012041B158115811581740AC0E07400C099
:10022000E07440C0E07414C0E07401C0E07480C0A9
:10023000E012032EE58124FAF581E50A250AF50F7F
:10024000E50B33F510E50C33F511E50D33F51290A0
:10025000A20075F04A740412034FAA82AB83ACF07B
:10026000FDC374FF9A74FF9BE49CE49D5020C00A78
:10027000C00BC00CC00D7418C0E07401C0E07480E5
:10028000C0E012041BE58124F9F581020204C2CA10
:10029000E4C39AFAE49BFB74019CE49D8ACA8BCB6D
:1002A000D2CAAACAABCB7C00E4FDC39AFAE49BFB9A
:1002B00074019CFCE49DFDEA2AF50FEB33F510EC8C
:1002C00033F511ED33F51290A20075F04A74041263
:1002D00003B4AA82AB83ACF0FD8A0A8B0B8C0C8D25
:1002E0000DC002C003C004C0057437C0E07401C073
:1002F000E07480C0E012041BE58124F9F58102025C
:10030000041209F4AA82BA0810758220C002120AE7
:1003100007758208120A07D0028A822285823385F5
:10032000833485F03585093690030102064CC008F8
:10033000858108E50824FBF536E50824FBF88633BB
:1003400008863408863590030112064CD00822FB3B
:100350007A20E4FCFDFEFFE5822582F582E5833309
:10036000F583E5F033F5F0EB33FB4017DAE9804233
:10037000E5822582F582E58333F583E5F033F5F0F8
:10038000EB33FBEC33FCED33FDEE33FEEF33FFECF0
:10039000950FED9510EE9511EF95124013EC950F1A
:1003A000FCED9510FDEE9511FEEF9512FF438201D5
:1003B000DABEEB22FBC2D530E715D2D5E4C3958275
:1003C000F582E49583F583E495F0F5F0E49BFBE595
:1003D0001230E717B2D5E4C3950FF50FE49510F589
:1003E00010E49511F511E49512F512EB12034F305C
:1003F000D513FBE4C39582F582E49583F583E495F8
:10040000F0F5F0E49B22020A07858231858332856C
:10041000F033850E34900406020AA5C008858108D1
:10042000E50824FBF534E50824FBF886310886321C
:10043000088633900406120AA5D0082285238285F7
:1004400024831210C6858232E532600A052CE4B599
:100450002C06052D8002D203853282227A007B0091
:100460003003057840760022C002C00312043CAC81
:1004700082D003D002BC0002802DBC08028014BCD4
:1004800009028023BC0A02801EBC0D028019BC2018
:10049000218014EA4B60D11ABAFF011B152C74FF9E
:1004A000B52C02152D80C1EA4B60BDEA2440F876D8
:1004B0000022EC7009EA2440F87600D20322ECB561
:1004C0003107EA2440F8760022C3EA940FEB940047
:1004D00050968A058B060ABA00010BED2440F8A657
:1004E00004020468AA827B7FC3EA648094B040114E
:1004F00074B98AF063F08095F04006EA24D0FB805E
:1005000030C3EA648094C1401174C68AF063F080FD
:1005100095F0400674C92AFB8017C3EA648094E111
:10052000400F74E68AF063F08095F0400474A92AC5
:10053000FBC3EB952E50038B822275827F22AA8209
:10054000752800752900752A00752B008A00E6FAC7
:1005500060148A82C0001204E4AB82D000C3EB9521
:100560002E40030880E886038B82C0001204E4AAB0
:1005700082D000C3E52E9A4050852E0F751000756D
:100580001100751200852882852983852AF0E52BC4
:10059000C002C000121058AB82AC83ADF0FED00098
:1005A000D0028B288C298D2A8E2BE4FBFCFDEA25BA
:1005B00028FAEB3529FBEC352AFCED352BFD8A2892
:1005C0008B298C2A8D2B08809D85288285298385FF
:1005D0002AF0E52B22AA82752800752900752A00C9
:1005E000752B008A00E6FB60228B82C003C00012DC
:1005F00004E4AC82D000D003C3EC952E400DBB2D9B
:10060000028008BB2B0280030880DA88028603BBC5
:100610002D03D38001C39206BB2D028003BB2B01A7
:100620000A8A8212053E300613C3E49528FAE4953F
:1006300029FBE4952AFCE4952BFD8008AA28AB2928
:10064000AC2AAD2B8A828B838CF0ED2285822385A8
:100650008324E4F52CF52DF530C203AA33AB34AC7A
:10066000358A828B838CF012103CFD74012AF5339D
:10067000E43BF5348C35EDFA70030209EBBA250240
:100680008003020984D202C200752E00752F00C2B9
:1006900004C205AB33AC34AD358B828C838DF01244
:1006A000103CFAA3AB82AC838B338C348D358B82B8
:1006B0008C838DF012103CF5318A06BE3000401656
:1006C0008A06EE24C6400FE52F75F00AA4FEEA2440
:1006D000D02EF52F80C38A06BE6100400A8A06EE3E
:1006E000248540035302DFBA250280ADBA2A028076
:1006F00045BA42028036BA43028040BA4403020738
:10070000FFBA49030207FFBA4C028025BA4E030222
:100710000812BA4F03020804BA53028020BA5503E4
:100720000207FDBA580302080B02083AD20002067B
:1007300099D201020699D204020699D20520041723
:10074000E53624FDF88836860308860408860518F1
:10075000188B258C268D27E52F700B3005047B0127
:1007600080027BFF8B2F752E00C3E52E952F500541
:1007700012043CAA82300307E52E700302083AEA0D
:10078000601ABA2002800DBA09028008BA0D0280F0
:1007900003BA0A03300505E52FB52E1FE52E60C903
:1007A0002004120530AB25AC26AD278B828C838DBF
:1007B000F0E41210C8752E0002083ABA081CE52EA3
:1007C00060A7200411AB25AC26AD271BBBFF011C85
:1007D0008B258C268D27152E808F20041BAB25ACF6
:1007E00026AD278B828C838DF0EA1210C80BBB00DC
:1007F000010C8B258C268D27052E020769C20275F8
:100800002E0A8036C202752E08802FC202752E1065
:100810008028E53624FDF888368603088604088695
:100820000518188B258C268D278B828C838DF0E5FF
:100830002C1210C8A3E52D1210C8E52E7003020972
:100840008412045C7840E6700302098430040302D9
:100850000984E53624FDF888368603088604088670
:100860000518188B258C268D2705302002030208D9
:10087000FD30013585253785263885273975824035
:100880001205D5AE82AF83ABF0FC85378285388305
:100890008539F0EE1210C8A3EF1210C8A3EB1210A6
:1008A000C8A3EC1210C802098430002685253785BC
:1008B00026388527397582401205D5AE82AF83ABC5
:1008C000F0FC8537828538838539F0EE1210C80236
:1008D0000984852537852638852739758240120594
:1008E000D5AE82AF83ABF0FC8537828538838539FE
:1008F000F0EE1210C8A3EF1210C8020984300134C0
:1009000085253785263885273975824012053EAE04
:1009100082AF83ABF0FC8537828538838539F0EE72
:100920001210C8A3EF1210C8A3EB1210C8A3EC1248
:1009300010C8805030002585253785263885273911
:1009400075824012053EAE82AF83ABF0FC853782E4
:100950008538838539F0EE1210C8802885253785C3
:10096000263885273975824012053EAE82AF83ABAB
:10097000F0FC8537828538838539F0EE1210C8A3E4
:10098000EF1210C820030302065BAB33AC34AD3565
:100990008B828C838DF012103CFEA3AB82AC838BD8
:1009A000338C348D35EEFA700302065BBA25E18B89
:1009B000828C838DF012103CFABA6E028003BA4E1C
:1009C000CFE53624FDF888368602088606088607B5
:1009D00018188A258E268F278A828E838FF0E52C21
:1009E0001210C8A3E52D1210C880A5AA307B008A7A
:1009F000828B832210980280FBAA998A82C00212FD
:100A00000A07D0028A8222AA82BA0A0810990280B2
:100A1000FB75990D10990280FB8A9922AA82742D88
:100A2000C0E0740AC0E0C023C0248A8222052AE400
:100A3000B52A02052B22AA8274302AFA24C6500A4B
:100A400074072AFA3007034302208A82020A1CE54F
:100A500082FAC4540FF582C002120A36D002740F13
:100A60005AF582020A36AA25AB26AC27AD28AE2954
:100A7000753020EE2EFEED235401FF4206EA2AFADD
:100A8000EB33FBEC33FCED33FDC3EE952C4008EE6D
:100A9000C3952CFE430201D530D98A258B268C279D
:100AA0008D288E2922858223858324E4F52AF52B3F
:100AB000AA31AB32AC338A828B838CF012103CFDAE
:100AC00074012AF531E43BF5328C33EDFA70030200
:100AD0001035BA2502800302102DC20BC20CC20DC4
:100AE000C20EC20FC210C211C212C208C209C20A8B
:100AF000752C00752D00752EFFAB31AC32AD338BEC
:100B0000828C838DF012103CFAA3AB82AC838B31C4
:100B10008C328D33BA25078A82120A1C80928A068B
:100B2000BE3000402E8A06EE24C6402774FFB52E44
:100B300013E52D75F00AA4FEEA24D02EF52D70BF22
:100B4000D20C80BBE52E75F00AA4FEEA24D02EF567
:100B50002E80ACBA2E0A74FFB52EA4752E00809F8D
:100B60008A06BE6100400E8A06EE248540075302C5
:100B7000DFD2078002C207BA20028075BA230302BF
:100B80000C00BA2A03020C05BA2B02805FBA2D02B0
:100B90008055BA4202805FBA4303020C4ABA44034A
:100BA000020D85BA4503020D9FBA4603020D9BBA9A
:100BB0004703020DA3BA4903020D85BA4C02803BDC
:100BC000BA4E03020DA7BA4F03020D8CBA500302AE
:100BD0000D1EBA5303020C6EBA5503020D91BA589A
:100BE00003020D96020DD1D20B020AFFD20D020AAA
:100BF000FFD20E020AFFD210020AFFD211020AFF30
:100C0000D212020AFF74FFB52E2030100BE5341407
:100C1000F88834862D020AFFE53424FEF8883486ED
:100C200006088607188E2D020AFF30100BE53414D3
:100C3000F88834862E020AFFE53424FEF8883486CC
:100C400006088607188E2E020AFF30100AE53414B3
:100C5000F888348602800FE53424FEF88834860351
:100C6000088604188B028A82120A1C020DD6E5340B
:100C700024FDF88834860308860408860518188B36
:100C8000258C268D278B828C838DF01210E1AB8210
:100C9000AC838B2F74FFB52E03852F2E200B1DC325
:100CA000E52F952D5016E52DC3952FF52DAB2D1560
:100CB0002DEB6008758220120A1C80F18525828543
:100CC00026838527F012103CFBFA6029AB2E152EE7
:100CD000C3E464808BF063F08095F050188A821230
:100CE0000A1CAB25AC26AD270BBB00010C8B258C59
:100CF000268D2780C7200B03020DD6C3E52F952D27
:100D00004003020DD6E52DC3952FF52DAB2D152DE6
:100D1000EB7003020DD6758220120A1C80EEE534BA
:100D200024FDF88834860308860408860518188B85
:100D3000258C268D27E527FB30E7047A438013EBCB
:100D4000546060047A50800AEB30E6047A498002ED
:100D50007A588A82C002120A1C75823A120A1C75DD
:100D60008230120A1C758278120A1CD002BA49021B
:100D7000800BBA50028006852682120A4F85258292
:100D8000120A4F8051D20F752C0A804A752C0880A8
:100D900045752C0A8040752C10803BD2088037D2D4
:100DA000098033D20A802FE53424FDF88834860385
:100DB00008860408860518188B258C268D278B82BB
:100DC0008C838DF0E52A1210C8A3E52B1210C88081
:100DD000058A82120A1C200806200903300A5AE5F7
:100DE0003424FCF8883486030886040886050886BF
:100DF000061818188B258C268D278E2875254F757B
:100E00002601752780852535852636852737740187
:100E10002535FEE43536FFAB378E258F268B2785AB
:100E200035828536838537F012103CFBFA70030259
:100E30000AB08A82120A1C80CCE52C7003020AB028
:100E40007B3F30102BE53414F88834E6FC3395E012
:100E5000FDFEFF8C258D268E278F28200F5EAC256A
:100E60007D007E007F008C258D268E278F28804C6C
:100E700030111FE53424FCF8883486040886050800
:100E800086060886071818188C258D268E278F2829
:100E9000802AE53424FEF88834860408860518ED97
:100EA0003395E0FEFF8C258D268E278F28200F0C92
:100EB000AC25AD267E007F008E278F28301243E5BB
:100EC0002545264527452860397408B52C0C7582C0
:100ED00030C003120A1CD00380287410B52C23756F
:100EE0008230C003120A1CD00330070C758278C010
:100EF00003120A1CD003800A758258C003120A1C10
:100F0000D003300F25AC25AD26AE27E528FF30E70E
:100F100017C3E49CFCE49DFDE49EFEE49FFF8C254A
:100F20008D268E278F288002C20F752F00D2138B3B
:100F300000752900C000120A66D00020130DE529B3
:100F4000C4FCE6FD4CF61888038002A629052FB2E2
:100F500013E52545264527452870D68803E52D70DD
:100F600003752D01200C1A200B17E52F04FCC395E7
:100F70002D500E758220C003120A1CD003152D803F
:100F8000E9300F0E75822DC003120A1CD003152DF7
:100F90008024E52F6020300D0E75822BC003120ACD
:100FA0001CD003152D800F300E0C758220C003124B
:100FB0000A1CD003152D200B1EAC2D152DC3E52FBB
:100FC0009C5027300C047C3080027C208C82C00333
:100FD000120A1CD00380E2C3E52F952D5009E52DA0
:100FE000C3952FF52D8003752D008B00AB2F152F8A
:100FF000EB6022B21320130A08E6C4540FFB8B29BE
:1010000080078603740F5BF529852982C000120AC8
:1010100036D00080D7200B03020AB0AB2D152DEB84
:101020007003020AB0758220120A1C80EE8A8212B6
:101030000A1C020AB0852A82852B832220F71430ED
:10104000F6148883A88220F507E6A883758300221A
:10105000E280F7E49322E022AAF0FBE582850FF01C
:10106000A4FCADF0E583850FF0A42DFDE435F0FE82
:10107000E5828510F0A42DFDE5F03EFEE433FFEAA5
:10108000850FF0A42EFEE5F03FFFE5838510F0A468
:101090002EFEE5F03FFFE5828511F0A42EFEE5F07F
:1010A0003FFFEB850FF0A42FFFEA8510F0A42FFF80
:1010B000E5838511F0A42FFFE5828512F0A42F8E21
:1010C000F08D838C8222E47320F71030F611888330
:1010D000A88220F507F6A88375830022F280F7F036
:1010E00022AA82AB83ACF07D007E008A828B838C47
:1010F000F012103CFFA3AA82AB83EF60070DBD0086
:10110000EA0E80E78D828E8322000000000000003E
:00000001FF
