:020000040800F2
:1000000000200020B9000008291500083D1500084F
:1000100000000000000000000000000000000000E0
:10002000000000000000000000000000291500088A
:100030000000000000000000291500082915000834
:100040002915000829150008291500082915000898
:100050002915000829150008291500082915000888
:1000600000000000291500082915000829150008BE
:100070002915000829150008000000003B010008B0
:10008000000000002915000800000000000000002A
:10009000291500080000000029150008291500088E
:1000A000291500082915000829150008591000080D
:1000B000291500082915000801F0B2F901F074F9BA
:1000C000E1235B02180000F01FFF62B6C04600F09B
:1000D000B9FC024B180001F087F8FEE76C3A000803
:1000E00080B500AF0A4B0B4A5A60094B00229A6058
:1000F000074B05221A60C046054B1A6880235B0235
:100100001340F9D0024B00221A60C046BD4680BDA4
:1001100010E000E0FF7C000080B582B000AF7860A6
:1001200001E0FFF7DDFF7B685A1E7A60002BF8D1F3
:10013000C046C046BD4602B080BD80B500AF80233A
:10014000DB051A698023DB0501218A431A61274BED
:100150001B685A1C254B1A60254B1B78DBB21A0012
:10016000224B1B689A4209DDA023DB055A69A023B4
:10017000DB05802109010A435A6107E0A023DB0562
:100180005A69A023DB051B490A405A611A4B1B78A8
:10019000DBB21A00154B1B689A4209DDA023DB0570
:1001A0005A69A023DB05802149010A435A6107E00F
:1001B000A023DB055A69A023DB0510490A405A61D8
:1001C0000A4B1A68FA23DB009A420BDD074B002228
:1001D0001A60A023DB055A69A023DB05C021490171
:1001E0000A435A61C046BD4680BDC0460800002093
:1001F00000000020FFF7FFFF01000020FFEFFFFFDE
:1002000080B500AF764BDA6A754B03210A43DA6298
:10021000744B1A68734B03210A431A60714B1A68B6
:10022000704B0C210A431A6000F05EFDA023DB0531
:100230001A68A023DB056C490A401A60A023DB057D
:10024000DA68A023DB05802149020A43DA60A02393
:10025000DB05DA68A023DB0564490A40DA60A023E5
:10026000DB051A68A023DB0561490A401A60A02358
:10027000DB05DA68A023DB05802149050A43DA6043
:10028000A023DB05DA68A023DB055A490A40DA60BF
:10029000544B1B68C02293431A00524B40210A431F
:1002A0001A60504B5A684F4B08218A435A604D4B95
:1002B0001B68514A1A404B4B802149000A431A607F
:1002C000484B5A68474B10218A435A60454B1B687C
:1002D0004A4A1A40434B8021C9000A431A60414BE5
:1002E0005A68404B20218A435A603E4B1B68444A5F
:1002F0001A403C4B802149010A431A60394B5A6825
:10030000384B40218A435A60364B1B683D4A1A409D
:10031000344B8021C9010A431A60324B5A68314B71
:1003200080218A435A60A023DB051B68364A1A40A5
:10033000A023DB058021C9030A431A60A023DB0543
:100340005A68A023DB0531490A405A60A023DB0527
:100350001B682F4A1A40A023DB05802149040A4369
:100360001A60A023DB055A68A023DB0529490A404F
:100370005A601B4B9A6B1A4B01210A439A638023E4
:10038000DB054022FF32DA62234B1A68224B8021C0
:1003900009020A431A608023DB051A688023DB0503
:1003A00010210A431A608023DB051A688023DB05CD
:1003B00080210A431A608023DB05DA688023DB058D
:1003C00001210A43DA608023DB051A688023DB05FC
:1003D00001210A431A6062B6C046C046BD4680BDD0
:1003E0000010024000040050FFFFFCFFFFFFFDFF74
:1003F000FFFFFFCFFFFFFFDFFFFCFFFFFFF3FFFF6C
:10040000FFCFFFFFFF3FFFFFFFFF3FFFFFF7FFFFB4
:10041000FFFFFFFCFFEFFFFF00E100E0B0B588B099
:1004200000AFF86000200021386179617349744899
:1004300048607249724888607049052008601EE073
:100440006E49086880214902014007D038697969FE
:100450000124002500196941386179617969002911
:1004600007DC796900290AD139696648814200D8D8
:1004700005E0624B00221A6000220023B9E0A021AF
:10048000C9050869802149000140D9D15B49002094
:1004900008605A495A48486058495948886057493D
:1004A0000520086000200021386179611EE0534971
:1004B000086880214902014007D038697969012420
:1004C000002500196941386179617969002907DCE3
:1004D000796900290AD139694A48814200D805E082
:1004E000464B00221A600022002382E0A021C905A9
:1004F0000869802149000140D9D0404900200860A6
:100500003E493F4848603D493D4888603B49052099
:10051000086000200021386179610021F9614FE015
:100520003649086880214902014007D03869796955
:100530000124002500196941386179617969002930
:1005400007DC796900290AD139692E48814200D82F
:1005500005E02A4B00221A600022002349E0A02176
:10056000C9050869802149000140D9D11EE023490D
:10057000086880214902014007D03869796901245F
:10058000002500196941386179617969002907DC22
:10059000796900290AD139691A48814200D805E0F1
:1005A000164B00221A600022002322E0A021C90578
:1005B0000869802149000140D9D0F9690131F96108
:1005C000F869F9688842CADB0C490020086039697B
:1005D000090A786903060B4339690A0607498968DD
:1005E0000748411A39600021796038687968121823
:1005F0004B4110001900BD4608B0B0BD10E000E04E
:10060000FFFFFF00A086010090B595B000AFF86035
:10061000B9607A603823FB18224A13CA13C31168E1
:10062000196012791A711423FB18202200219954A1
:100630001F23FB641BE0FB68B968180001F0BCF9DC
:100640000B001900FB6C5A1EFA643822BA18515C70
:100650001422BA18D154B968F86801F0C7F8030039
:10066000FB607B68002B02D07B68013B7B60FB68F2
:10067000DA17D31ADB0FDAB27B68D917CB1ADB0F84
:10068000DBB21343DBB2002BD5D1FB6C0133142258
:10069000BA18D318180000F0A7FDC046BD4615B023
:1006A00090BDC046C037000880B582B000AF0200E0
:1006B000FB1D1A70FB1D1B78002B06D0084B5A69D6
:1006C000074B08210A435A6105E0054B5A69044B60
:1006D00008218A435A61C046BD4602B080BDC0466B
:1006E0000004005080B500AF3E4B4B221A703E4BC9
:1006F0004B221A70FA235B001800FFF70DFD09E08A
:10070000394B1B78DBB20133DAB2374B1A700A204F
:10071000FFF702FD344B1B78DBB29C2BF0D9FA2398
:100720005B001800FFF7F8FC09E02E4B1B78DBB2EA
:100730000133DAB22B4B1A700A20FFF7EDFC294B7C
:100740001B78DBB2EF2BF0D9FA235B001800FFF720
:10075000E3FC0120FFF7A8FF09E0234B1B78DBB285
:100760000133DAB2204B1A700A20FFF7D5FC1E4B7A
:100770001B78DBB2EF2BF0D9FA235B001800FFF7F0
:10078000CBFC09E0174B1B78DBB2013BDAB2154B0F
:100790001A700A20FFF7C0FC124B1B78DBB24B2B00
:1007A000F0D8FA235B001800FFF7B6FC09E00E4B07
:1007B0001B78DBB2013BDAB20B4B1A700A20FFF751
:1007C000ABFC094B1B78DBB2642BF0D80020FFF7A1
:1007D0006BFFFA235B001800FFF79EFCC046BD4686
:1007E00080BDC046000000200100002080B584B01C
:1007F00000AFF860B9607A60FB68FA2291001800D7
:1008000001F0DAF80B001A00FA239B009A420BDC85
:10081000BB68FA229100180001F0CEF80B001A0014
:10082000FA239B009A4204DD064B180000F0DCFC22
:1008300004E0054B180000F0D7FCC046C046BD469A
:1008400004B080BDD4370008EC37000880B588B00C
:1008500000AF0023BB616420FFF7E0FD02000B0046
:10086000BA60FB60FB68002B07DCFB68002B00D044
:10087000C3E0BB68002B00D1BFE0B868F96801F0A5
:1008800019F9031C191C5F4801F0E6FA031C7B6090
:100890005D4B180000F0A8FC786801F079FF0300B8
:1008A00007220A211800FFF7AFFE584B180000F08E
:1008B0009BFC574B1B781A00564B92007968D1501D
:1008C000534B1B7801330A21180001F075F80B0017
:1008D000DAB24F4B1A7000237B610CE04D4B7A6902
:1008E0009200D358191CF86901F018F9031CFB6138
:1008F0007B6901337B617B69092BEFDD4649F86930
:1009000001F0AAFA031CFB61444B180000F06CFCD8
:10091000F86901F03DFF030007220A211800FFF7E4
:1009200073FE3A4B180000F05FFC0021B86901F03B
:1009300093F8031E12D0FB69BB61394B180000F01D
:1009400053FCB86901F024FF030007220A211800B4
:10095000FFF75AFE2D4B180000F046FCB969F86904
:1009600001F068FD031CB969181C01F075FA031C3D
:100970002C49181C01F038FC031C3B602A4B180062
:1009800000F032FC386801F003FF030007220A215F
:100990001800FFF739FE1D4B180000F025FC234B13
:1009A0001B78002B15D13B685B005B08181C02F01C
:1009B00019FE1F4A1F4B01F02FF8031E09D01B4BD5
:1009C00001221A701C4B180000F00EFCFB69BB6181
:1009D00013E0164B1B78002B0FD03B685B005B08C5
:1009E000181C02F0FFFD154A154B01F001F8031E1B
:1009F00000D102E00D4B00221A70C046BD4608B07F
:100A000080BDC04620BC3E4F08380008243800088E
:100A1000340000200C000020000020412C38000889
:100A2000503800080000C84278380008350000201F
:100A30009A9999999999E93F943800087B14AE479F
:100A4000E17A943F90B585B000AF0F243B190022A6
:100A50001A70FFF7D5FBFA235B001800FFF75CFB69
:100A60008F4B180000F0C0FB8E4B180000F0BCFB51
:100A70008D4B180000F0B8FB8C4B180000F0B4FB55
:100A80008B4B180000F0B0FB8A4B180000F0ACFB59
:100A9000894B180000F0A8FB3B1900221A70874B05
:100AA0005A69864B08218A435A61844B5A69834BA1
:100AB00010218A435A61814B5A69804B20218A4315
:100AC0005A617E4B5A697D4B40218A435A617B4B68
:100AD0005A697A4B80218A435A6180235B0018004F
:100AE00000F052F90300BB60BB68754A5343754977
:100AF000180000F07BFE03007B60734B180000F0D1
:100B000073FBBB68042210211800FFF77DFD6F4BBB
:100B1000180000F069FB7B686D49180000F066FE64
:100B2000030001220A211800FFF76EFD2E2000F0BD
:100B300079FB7B686649180000F03EFF0B00042239
:100B40000A211800FFF760FD624B180000F04CFB13
:100B500080239B00180000F017F90300BB60BB68FE
:100B6000574A53435749180000F040FE03007B608A
:100B7000594B180000F038FBBB6804221021180004
:100B8000FFF742FD514B180000F02EFB7B685049E7
:100B9000180000F02BFE030001220A211800FFF7C5
:100BA00033FD2E2000F03EFB7B684949180000F021
:100BB00003FF0B0004220A211800FFF725FD454B17
:100BC000180000F011FB454B180000F00DFBA023AE
:100BD000DB051A698023DB01134004D0404B180069
:100BE00000F002FB03E03F4B180000F0FDFA0F227B
:100BF000BB181B78BA18591C1170042B1DD023DCAC
:100C0000032B13D020DC012B02D0022B07D01BE0DA
:100C10002A4B5A69294B10210A435A6137E0274B66
:100C20005A69264B20210A435A6130E0234B5A6906
:100C3000224B40210A435A6129E0204B5A691F4B3D
:100C400080210A435A6122E00F23FB1800221A7008
:100C50001A4B5A69194B08218A435A61174B5A6932
:100C6000164B10218A435A61144B5A69134B2021A9
:100C70008A435A61114B5A69104B40218A435A6189
:100C80000E4B5A690D4B80218A435A61C046FFF7CB
:100C9000DDFDFA235B001800FFF73EFA1DE7C046B2
:100CA000A8380008B4380008D83800082C390008E3
:100CB00060390008B0390008F83900080004005015
:100CC000E8800000FF0F00003C3A0008483A0008A6
:100CD000102700004C3A0008503A00085C3A00081F
:100CE000643A0008683A000880B500AF244B5A6B9C
:100CF000234B802189000A435A63224B1A69214BF6
:100D0000C02109060A431A611E4B1A681D4B0121B6
:100D10000A431A601B4B9A681A4B01210A439A60D6
:100D2000184BDA6880231B02134005D1C046154BCF
:100D30001B6801221340FAD0124B9B68012213401A
:100D400005D0104B9A680F4B02210A439A600D4B55
:100D50009A680C4B802109060A439A60C046094BE9
:100D60001A6880231B011340F9D0064B1A68054B03
:100D7000802109010A431A60C046BD4680BDC046B5
:100D8000001002400024014080B582B000AF7860BE
:100D9000164BDA68154B802109020A43DA60134BBF
:100DA0007A689A62114B5A69104B07210A435A61BB
:100DB0007A6880239B029A4206D10D4B1A680C4B2D
:100DC0008021C9030A431A60084B9A68074B042123
:100DD0000A439A60C046054B1B6804221340FAD0B0
:100DE000024B1B6C1800BD4602B080BD00240140C0
:100DF0000827014090B585B000AF78603960184B86
:100E00001B68002B02D101235B4224E00023FB601E
:100E10000AE0FB685A1CFA603A68D418114B1800B3
:100E200000F0ADF9030023707B68013B1A00FB68FA
:100E3000934205D20B4B180000F0CCF9031EE8D109
:100E4000FB68002B06D03A68FB68D31800221A70A2
:100E5000FB6800E000231800BD4605B090BDC04609
:100E6000D00000203800002080B584B000AF78604A
:100E70003960224B1B68002B02D101235B4238E012
:100E80007B683F2B0BDCC0461D4B180000F0A2F91D
:100E900003004022D21A7B689A42F5D302E0022373
:100EA0005B4226E00023FB600BE03A68FB68D31846
:100EB0001A78134B1100180000F030F9FB68013369
:100EC000FB607B68FA689A42EFD30E4B1B680822DE
:100ED00013400DD10B4B1A680A4B08210A431A60C4
:100EE000074B180000F04BF903001A00054B9A62FB
:100EF00000231800BD4604B080BDC046D0000020CD
:100F0000840000200038014080B584B000AF7860D4
:100F100072B6C046454B00229A64444B9A6C434BD0
:100F20005A64424B5A6C414B1A64414B00229A64FA
:100F30003F4B9A6C3E4B5A643D4B5A6C3C4B1A6487
:100F40003C4B01221A603C4B00221A603B4BDA6A90
:100F50003A4B01210A43DA62394BFB607968F86841
:100F600000F044FC0300FB60A023DB059A68A0238B
:100F7000DB058021C9020A439A60A023DB055A6879
:100F8000A023DB052F490A405A60A023DB051B681C
:100F90002D4A1A40A023DB05802109030A431A6069
:100FA000A023DB055A6AA023DB0540210A435A62CD
:100FB000A023DB051B68254A1A40A023DB058021FE
:100FC00089030A431A60A023DB055A6AA023DB05C4
:100FD0008021C9000A435A62184B5A6B174B802173
:100FE000C9010A435A631A4B1A68194B6C210A4308
:100FF0001A60174B00225A60154B00229A60144B5E
:10100000FA68DA60124B1A68114B01210A431A6020
:10101000104B1A680F4B802109050A431A6062B60B
:10102000C046C046BD4604B080BDC0463800002062
:1010300084000020D0000020D400002000100240D6
:101040000048E801FFFDFFFFFFFFF3FFFFFFCFFFB9
:101050000038014000E100E080B500AF084BDB69DB
:101060008022134001D000F025F8054BDB692022D7
:10107000134001D000F006F8C046BD4680BDC04612
:101080000038014080B500AF074B5B6ADAB2074B0E
:101090001100180000F042F8031E02D0044B012298
:1010A0001A60C046BD4680BD0038014038000020AF
:1010B000D400002080B500AF164B180000F08AF86D
:1010C000031E08D0134B180000F059F803001A0053
:1010D000114B9A621BE0104B1A680F4B08218A4390
:1010E0001A600D4BDB694022134005D00A4B1A6A87
:1010F000094B40210A431A62074BDB6980221340E7
:1011000005D0054B9A69044B10210A439A61C046E9
:10111000BD4680BD840000200038014080B582B00B
:1011200000AF78600A00FB1C1A707B681A6C7B6841
:101130005B6C9A4205D17B689B6C002B01D001232C
:1011400019E072B6C0467B681B6C591C7A68116442
:101150007A68F91C0978D1547B689B6C5A1C7B68AF
:101160009A647B681B6C402B02D17B6800221A6456
:1011700062B6C04600231800BD4602B080BD80B5EF
:1011800084B000AF78607B689B6C002B01D100239A
:101190001CE072B6C0467B685B6C591C7A6851646F
:1011A0000F22BA187968CB5C13707B685B6C402B9C
:1011B00002D17B6800225A647B689B6C5A1E7B6854
:1011C0009A6462B6C0460F23FB181B781800BD4610
:1011D00004B080BD80B582B000AF78607B689B6C46
:1011E0001800BD4602B080BD80B582B000AF786007
:1011F0000B4B1B68002B09D101235B420BE07B6882
:101200005A1C7A6019000120FFF72EFE7B681B78BC
:10121000002BF4D100231800BD4602B080BDC046AB
:10122000D000002080B582B000AF0200FB1D1A7014
:10123000FB1D19000120FFF717FEC046BD4602B096
:1012400080BD80B500AF044B1800FFF798FF030086
:101250001800BD4680BDC04638000020B0B584B03F
:1012600000AF786039601E4B1B68002B02D1012350
:101270005B4231E00023FB600B23FB1800221A7055
:1012800017E0C046174B1800FFF7A4FF031EF9D064
:101290000B257C19134B1800FFF771FF0300237017
:1012A000FB685A1CFA601A007B689B187A1912783E
:1012B0001A703B68013BFA689A4204DA0B23FB1868
:1012C0001B780D2BDDD1FB68002B04DDFB687A68F1
:1012D000D31800221A70FB681800BD4604B0B0BDD8
:1012E000D00000203800002090B583B000AFFC1D76
:1012F000FFF7A7FF03002370FB1D1B781800FFF703
:1013000091FFFB1D1B781800BD4603B090BDB0B522
:1013100084B000AF78603960214B1B68002B02D18C
:1013200001235B4237E00023FB600B23FB18002204
:101330001A701DE0C0461B4B1800FFF74BFF031E41
:10134000F9D00B257C19174B1800FFF718FF030085
:1013500023702C003B191B781800FFF763FFFB6814
:101360005A1CFA601A007B689B183A1912781A7096
:101370003B68013BFA689A4204DA0B23FB181B789E
:101380000D2BD7D1FB68002B04DDFB687A68D318DE
:1013900000221A70FB681800BD4604B0B0BDC046FC
:1013A000D00000203800002080B582B000AF164B7E
:1013B0007B60164B3B6007E07A68131D7B603B68DF
:1013C000191D396012681A603A68114B9A42F3D3BA
:1013D00004E03B681A1D3A6000221A603A680D4B1F
:1013E0009A42F6D30C4B3B6004E03B681A1D3A600E
:1013F0001B6898473A68094B9A42F6D3C046C046E4
:10140000BD4602B080BDC046E83B00080000002099
:1014100008000020E8000020E83B0008E83B000846
:1014200080B500AF3B4B1A683A4B01210A431A6062
:10143000C046384B1B6804221340FAD0354B0122BA
:10144000DA60C046334BDB680C221340042BF9D121
:10145000314B1A68304B02210A431A602E4B1A682E
:101460002D4B01210A431A602A4B9A6B294B80218C
:1014700049050A439A63294B802212011A60C0462B
:10148000264B5B6810221340FAD1224BDA68214BBD
:1014900023490A40DA601F4BDA681E4B8821C903D2
:1014A0000A43DA601B4A1B4BD268DA60194A194BAF
:1014B000D268DA60174A174BD268DA60154B1A689F
:1014C000144B18490A401A60124B1A68114B8021BC
:1014D00049040A431A60C0460E4B1A6880239B04D5
:1014E0001340F9D00B4BDA680A4B03218A43DA60C8
:1014F000084BDA68074B03210A43DA60C046054B04
:10150000DB680C2213400C2BF9D1C046C046BD4607
:1015100080BDC04600100240002002400070004024
:10152000FFFF02FFFFFFFFFE80B500AF024B180078
:10153000FFF75AFEFEE7C046943A000880B500AFB8
:10154000024B1800FFF750FEFEE7C046C43A000801
:1015500080B582B000AF7860FEE780B582B000AFA2
:10156000786001235B421800BD4602B080BD80B5A3
:1015700084B000AFF860B9607A60044B0C221A6046
:1015800001235B421800BD4604B080BDE40000208A
:1015900080B500AF034B0B221A6001235B42180099
:1015A000BD4680BDE400002080B582B000AF786009
:1015B00039603B68802292015A6000231800BD46C2
:1015C00002B080BD80B500AF01231800BD4680BDCC
:1015D00080B582B000AF78603960044B16221A6083
:1015E00001235B421800BD4602B080BDE40000202C
:1015F00080B582B000AF78603960044B1F221A605A
:1016000001235B421800BD4602B080BDE40000200B
:1016100080B584B000AFF860B9607A60002318002C
:10162000BD4604B080BD80B582B000AF786039603F
:101630003B68802292015A6000231800BD4602B028
:1016400080BD80B582B000AF786001235B42180096
:10165000BD4602B080BD80B582B000AF7860044B5B
:1016600002221A6001235B421800BD4602B080BD11
:10167000E400002080B582B000AF7860044B0A22FD
:101680001A6001235B421800BD4602B080BDC0460F
:10169000E400002080B582B000AF78607B68022B48
:1016A00001D8012303E0044B09221A60002318002B
:1016B000BD4602B080BDC046E400002080B586B0C3
:1016C00000AF7860124B7B61124B3B61124B1B6881
:1016D000002B02D1104B7A691A600F4B1B68FB601C
:1016E0000D4B1A687B68D3183A699A4205D20B4BA6
:1016F0000C221A6001235B4206E0074B1A687B68E4
:10170000D218054B1A60FB681800BD4606B080BDB4
:10171000E800002000100020E0000020E40000208D
:1017200080B588B000AFF860B9607A600023BB6113
:10173000FB68002B22D10023FB611AE0FFF781FD3B
:1017400003001A0017217B181A70BB685A1CBA6074
:101750007A181278D2B21A70BB690133BB617B1858
:101760001B78DBB20A2B01D1BB690EE0FB690133A8
:10177000FB61FA697B689A42E0DB05E0054B0922D0
:101780001A6001235B4200E0BB691800BD4608B047
:1017900080BDC046E400002080B586B000AFF86090
:1017A000B9607A60FB68013B012B11D800237B6193
:1017B00009E0BB685A1CBA601B781800FFF732FDBD
:1017C0007B6901337B617A697B689A42F1DB05E0D2
:1017D000054B09221A6001235B4200E07B68180078
:1017E000BD4606B080BDC046E400002003460B4362
:1017F0007FD4002243088B4274D303098B425FD30A
:10180000030A8B4244D3030B8B4228D3030C8B4235
:101810000DD3FF22090212BA030C8B4202D312121B
:10182000090265D0030B8B4219D300E0090AC30BF0
:101830008B4201D3CB03C01A5241830B8B4201D39D
:101840008B03C01A5241430B8B4201D34B03C01A86
:101850005241030B8B4201D30B03C01A5241C30AFE
:101860008B4201D3CB02C01A5241830A8B4201D36F
:101870008B02C01A5241430A8B4201D34B02C01A59
:101880005241030A8B4201D30B02C01A5241CDD2FE
:10189000C3098B4201D3CB01C01A524183098B4249
:1018A00001D38B01C01A524143098B4201D34B0132
:1018B000C01A524103098B4201D30B01C01A524195
:1018C000C3088B4201D3CB00C01A524183088B421C
:1018D00001D38B00C01A524143088B4201D34B0005
:1018E000C01A5241411A00D2014652411046704777
:1018F0005DE0CA0F00D04942031000D3404253407C
:1019000000229C4603098B422DD3030A8B4212D33B
:10191000FC22890112BA030A8B420CD3890192116D
:101920008B4208D3890192118B4204D389013AD0AA
:10193000921100E08909C3098B4201D3CB01C01A7F
:10194000524183098B4201D38B01C01A5241430992
:101950008B4201D34B01C01A524103098B4201D380
:101960000B01C01A5241C3088B4201D3CB00C01AED
:10197000524183088B4201D38B00C01A5241D9D205
:1019800043088B4201D34B00C01A5241411A00D286
:101990000146634652415B10104601D34042002B82
:1019A00000D54942704763465B1000D3404201B501
:1019B000002000F005F802BD0029F8D016E77047B6
:1019C0007047C0468446100062468C461900634644
:1019D00000E0C0461FB501F0DFFA002801D4002165
:1019E000C8421FBD10B501F02FFA4042013010BDB2
:1019F00010B501F0D1FA002801DB002010BD012054
:101A000010BDC04610B501F0C7FA002801DD002066
:101A100010BD012010BDC04610B501F057FA0028D6
:101A200001DC002010BD012010BDC04610B501F042
:101A30004DFA002801DA002010BD012010BDC0467B
:101A4000844608006146FFE71FB500F089FB0028C7
:101A500001D40021C8421FBD10B500F015FB404263
:101A6000013010BD10B500F07BFB002801DB002029
:101A700010BD012010BDC04610B500F071FB00285C
:101A800001DD002010BD012010BDC04610B500F0E2
:101A900021FB002801DC002010BD012010BDC04644
:101AA00010B500F017FB002801DA002010BD01205E
:101AB00010BDC046D0B5040001260B002200144F13
:101AC00076420800B6185F418021C9038F4216D2C2
:101AD00010498F4211D001F02FFD00220E4B01F072
:101AE000BFFA06000F00200001F056FD32003B0057
:101AF00000F06EFE01F0BEFDD0BDB11CEBD9520569
:101B0000E9D08023E40AE4021B011C43E3E7C0465A
:101B1000FFFF1F00FFFF3F000000F041F0B5C64689
:101B200043025B0A4E0245004F00DA00C40F9C4698
:101B3000700A904600B52D0E3F0EC90FB6098C42B3
:101B40004BD0EA1B002A36DD002F61D0FF2D00D1DB
:101B5000ADE08023DB041E431B2A00DCD3E0012020
:101B60004346181A430100D48CE0800187093800ED
:101B700001F008FE05388740854200DCB6E02D1AEA
:101B8000B3483840430704D00F230340042B00D050
:101B90000430430100D478E06A1CFE2D65D080013A
:101BA000430A9C46D2B26346D0051843E40720435B
:101BB00080BCB846F0BD002A35D07A1B002D00D07D
:101BC000AFE04346002B00D1A7E0531E012A00D10D
:101BD0002FE1FF2A69D01A00AAE0E91B002970DD75
:101BE000002F37D0FF2D62D08023DB041E431B293A
:101BF00000DCB0E001204044430143D50135FF2D16
:101C000033D00123934A0340400810401843B9E7FA
:101C1000002E00D183E0511E012A00D1D8E0FF2A16
:101C200045D00A0098E7FE276A1C174200D086E0DC
:101C3000002D00D0B7E04346002B00D1F3E0002296
:101C4000002EB0D0981B430100D4FAE043460C00AC
:101C5000F01A97E7002E00D1C8E04A1E012900D1F2
:101C6000AEE0FF2923D01100C1E70023FF229C46EC
:101C700099E7FE216A1C114277D0FF2AF5D01500A2
:101C800046447008430700D07EE7C308FF2D0ED0FE
:101C90005B025B0A9C46EAB285E7002E07D08022F1
:101CA000D203134203D0104201D10C000300002BD9
:101CB000DBD08020C00318434002430A9C46FF2229
:101CC00071E70029D5D07A1B002D60D14346002B47
:101CD00024D0531E012A73D0FF2AE7D01A001B2AF2
:101CE00000DC85E001203D00801985E720233A00D3
:101CF000451B38000135EA405D1BA840431E984152
:101D0000002510433EE7202330009B1A3100984005
:101D1000D140431E9841084322E70C000300150000
:101D2000B4E7FF2FC1D080234046DB041843804630
:101D30001B2A51DD01200C003D00301A12E74346FA
:101D40009F1B7B012BD4002F00D010E70023002421
:101D500000229C4627E7202332003000CA40591A4F
:101D60008840431E9841104345E7002D4AD1434621
:101D7000002B63D00022002E00D114E73000404435
:101D8000430100D47EE7324B013518407AE7FF2F3C
:101D90008CD080234146DB04194388469FE74346A5
:101DA0000C00F71AE3E64246002A00D075E7002E41
:101DB00000D07AE78023DB0300249C46FF22F2E672
:101DC000300040440125430100D45BE7022518E7B9
:101DD00043460125981BC5E6202344464046D4408F
:101DE0009A1A9040431E98412043A4E70D004DE706
:101DF000202341464046D1409A1A9040431E9841C4
:101E0000084370E74246002A00D14FE7002E00D178
:101E10004DE78022D203134200D148E7104200D0A0
:101E200045E7030043E7002E90D00C0084460022D3
:101E3000B9E643460C00F01A013593E684460022C9
:101E4000B1E6002800D01DE7002300249C46AAE646
:101E5000FFFFFFFBFFFFFF7DF0B54F464646D6462E
:101E60004502C0B547000C1C6D0A3F0EC60F002F7F
:101E700000D170E0FF2F00D175E0EB008025ED046C
:101E80001D43002399469A467F3F6002430A9846C5
:101E900063001B0EE40F002B4ED0FF2B46D04246B2
:101EA000D0008022D2040243904600227F3B3100C2
:101EB000FF1A4B466140C9B213430F2B00D9B5E05E
:101EC0006E489B00C3589F4600239846260045460F
:101ED00092465346022B00D189E0032B00D19EE0AD
:101EE000012B18D03B007F33002B69DD6A0704D03B
:101EF0000F222A40042A00D004352A0103D5604B62
:101F00001D403B008033FE2B00DD70E0AD016D0A0B
:101F1000D8B202E00E0000200025C0052843F607D5
:101F20003043E0BCBA46B146A846F0BD4346002B5C
:101F30003FD10222FF3F03E04346002B2DD1012277
:101F400031004B466140C9B213430F2B34D84D4882
:101F50009B00C3589F46002D13D104239946033B91
:101F600000279A4691E7002D05D108239946063BA4
:101F7000FF279A4689E70C239946093BFF279A4693
:101F800083E7280001F0FEFB7627431F9D400023D6
:101F90007F4299469A463F1A77E7404601F0F2FBA6
:101FA0004246431F9A4076235B4290461B1A00220A
:101FB0007DE7FF2303227AE70E00FF200025ACE730
:101FC0000120C01A1B28A6DC9E372A00BD40C24053
:101FD0006B1E9D4115436B0704D00F232B40042B30
:101FE00000D004356B0144D50120002595E7FF2082
:101FF000002592E780250026FF20ED038DE70023D2
:1020000098468020C003054209D04346034206D1CA
:10201000454605436D022600FF206D0A7DE78020BE
:10202000C00305436D02FF206D0A76E742466B014F
:102030005001834219D21B220025013F01261C00BA
:102040006D005B00002C01DB984201D81B1A354360
:10205000013A002AF3D15A1E93411D433B007F33BE
:102060000E00002B00DD41E7AAE71A2201251B1A0A
:10207000E4E7AD0100206D0A4FE7C046E83A0008EA
:10208000FFFFFFF7283B000870B5420045024E02F3
:102090004C00C30F6D0A0120120E760A240EC90FE0
:1020A000FF2A06D0FF2C03D0A24201D1B54206D0B0
:1020B00070BD002DFCD1FF2CFAD1002EF8D18B423F
:1020C00006D00120002AF3D12800431E9841EFE7F3
:1020D0000020EDE770B5420045024E024C00C30FF0
:1020E0006D0A120E760A240EC80FFF2A1BD0FF2C91
:1020F0000ED0002A1BD1002C01D1002E1CD0002DA7
:102100000CD083421CD00221581E0840013870BDFB
:10211000002E22D1002AF4D1002DF2D10028F6D1D0
:1021200001204042F3E7002D17D1FF2CF0D0002C06
:10213000E7D1002EE5D1E6E70020002DE7D0E2E769
:10214000A24205DCEADBB54202D8E7D30020DEE795
:102150004342584140000138D9E702204042D6E7C7
:1021600070B5420045024E024C00C30F6D0A120EBC
:10217000760A240EC80FFF2A0BD0FF2C0DD0002AA0
:102180001FD1002C16D1002E14D10020002D10D00C
:1021900009E0002D0CD1FF2C13D1002E08D1002A0C
:1021A00008D0834212D00221581E0840013800E0B6
:1021B000022070BD002DF4D10028FAD10120404248
:1021C000F7E7002CEDD1002EEBD1ECE7A24205DCC5
:1021D000F2DBB54202D8EFD30020EAE74342584190
:1021E00040000138E5E7C046F0B54F464646D646C2
:1021F00044024500C0B5640A0F1C2D0EC60F002D09
:1022000000D18DE0FF2D00D192E00023802099467F
:102210009A46E400C00404437F3D7802430A98468E
:102220007B001B0EFF0F002B00D170E0FF2B00D1B5
:1022300086E04246D00080227F3BED180023D20486
:10224000024390469C4631004B467940681C0F2B58
:102250001CD8764A9B00D3589F4639004446E24634
:102260005346022B0FD0032B00D1D7E0012B37D1DF
:1022700000200024C0052043C9070843E0BCBA463B
:10228000B146A846F0BDFF200024F3E7260C240445
:10229000220C44462404240C434627001B0C5743BD
:1022A00074435A435E4312193B0C9B189C4203D95A
:1022B00080225202944666443F041A043F0CD2190D
:1022C0009401671EBC411B0C920E9B1914439B0189
:1022D0001C431B0100D49BE0012362081C401443F3
:1022E00002007F32002A64DD630704D00F232340FD
:1022F000042B00D00434230103D502004C4B803260
:102300001C40FE2ABFDCA401640AD0B2B2E74346F7
:10231000002B3DD14A4601331A4391469C4692E731
:10232000002C29D104239946033B00259A4674E7E3
:10233000002C1BD108239946063BFF259A466CE7E3
:102340004346FF35002B0BD102234A461A439146E0
:102350009C4678E753463100022B00D083E792E792
:1023600003234A461A4391469C466CE70C23994640
:10237000093BFF259A4650E7200001F003FA762535
:10238000431F9C4000236D4299469A462D1A44E70C
:10239000404601F0F7F94246431F9A4000232D1AA8
:1023A00090469C46763D4EE780240021FF20E403C2
:1023B00060E701239B1A1B2B00DD59E722009E30AA
:1023C000DA4084401300621E94411C43630704D02A
:1023D0000F232340042B00D0043463011AD50120BD
:1023E000002447E78020C003044209D0434603424B
:1023F00006D14446044364023900FF20640A39E7E9
:102400008020C003044364023100FF20640A31E7E6
:10241000280065E7A4010020640A2BE78020C003A0
:1024200004436402FF20640A24E7C046683B0008B6
:10243000FFFFFFF7F8B5CE46474643025B0A4E0260
:10244000DA009446720A914645004A0080B52D0E86
:102450001F00C40F120EC90FB609FF2A5BD001205E
:1024600041408C4239D0A81A00285ADD002A6AD08F
:10247000FF2D00D1D9E08022D20416431B2800DCB6
:10248000E9E001206346181A430100D4B4E080015A
:102490008709380001F076F905388740854200DC6D
:1024A000CCE02D1AB5483840430704D00F23034031
:1024B000042B00D00430430100D4A0E06A1CFE2DA0
:1024C00000D18DE08001470AD2B2D0053843E4073D
:1024D0002043C0BCB946B046F8BDA81A80460028C3
:1024E00045DD002A70D0FF2D00D19EE08023DB0463
:1024F0001E4343461B2B00DCD2E001206044430115
:102500007AD50135FF2D6BD001239D4A0340400849
:1025100010401843C8E7002E20D08C4223D028005A
:10252000FF38002839D0571B002D00D09DE06346AE
:10253000002B00D1DBE07B1E012F00D10DE1FF2F2E
:1025400071D01F0098E0002E00D1A7E0421E0128A4
:1025500000D1E6E0FF2868D010008FE7012041405D
:10256000A14200D07FE7FF2040428046A844404679
:10257000002838D0511B002D00D1AEE0FF2A00D139
:10258000DFE080236046DB04184384461B2900DC1F
:10259000D9E0012015008019B1E7FE206A1C104225
:1025A00071D1002D00D0A6E06346002B00D1D9E008
:1025B0000022002E00D188E7981B430100D4E1E0FF
:1025C00063460C00F01A6FE7002E00D1B7E002005E
:1025D000013A012800D19CE0FF2826D0904688E7E8
:1025E000FF22002771E7FE206A1C104264D0FF2AF8
:1025F000F6D0150066447008430700D056E7C308BC
:10260000FF2D12D05B025F0AEAB25EE76246002A43
:1026100000D196E0002E08D08022D203134204D0CD
:102620004846104201D10C004B46002BD8D08027E1
:10263000FF031F437F02FF227F0A46E720233A0061
:10264000451B38000135EA405D1BA840431E9841F8
:102650000025104328E720231B1A32009E40C24069
:102660003000431E984110430CE7FF2ADBD0802343
:102670006046DB04184384461B2F56DD01200C0006
:102680001500301A00E763469F1B7B013DD4002FE5
:1026900000D0FEE600240022002716E70500AFE781
:1026A000320043464146DA4020235B1A9E40300008
:1026B000431E9841104321E7002DA7D16346002B0C
:1026C00059D00022002E00D1FFE6300060444301C3
:1026D00092D52A4B013518408EE76346002B47D030
:1026E0004B1E012915D0FF292BD019004EE70C00F5
:1026F0004B463D0084E76246002A8BD1002E92D1E2
:1027000080270024FF22FF03DFE663460C00F71A50
:10271000BFE6300060440125430100D46CE7022588
:10272000F2E663460125981BAEE620236446604628
:10273000FC40DF1BB840431E984120439FE7050043
:102740005EE74B4671E7202365466046CD40591A47
:102750008840431E984128431CE763460C0001252E
:10276000F01A91E6002E95D00C004F460022ACE600
:102770004B460D0044E74F460022A6E6FFFFFFFB55
:10278000FFFFFF7D002800D036E7002400279CE6ED
:1027900041024200C30F490A0020120E7E2A03DDC7
:1027A0009D2A02DD094A98187047802000040143E1
:1027B000952A07DC9620821AD1404842002BF3D19B
:1027C0000800F1E7963A9140F7E7C046FFFFFF7F28
:1027D000F0B54F464646D6460D000400C0B51F0072
:1027E00011002803620F400A10437A00520DE300E3
:1027F0003C039146640AFA0F4F0F6E00274392463E
:10280000B846760DED0FC900954200D199E04C46CF
:10281000341BA446002C00DC7CE04A46002A00D190
:10282000B8E0C54A964200D11CE180223C00120467
:102830001443A0466246382A00DD61E11F2A00DD0C
:10284000CCE164462022121B444694400F00A1466E
:1028500064469140E7404C464A1E91413C43424603
:1028600021436446E240801A5C1AA3429B415F42C6
:10287000C71B3B0200D4D0E07F027F0A002F00D1AB
:10288000FFE0380000F07EFF01000839202322001D
:102890005B1A8F40DA408C401743B14200DAFFE008
:1028A000891B4B1C1F2B00DDA8E020223900D21A07
:1028B000200094409140D840621E9441DF400026A1
:1028C00001430C43630709D00F232340042B05D099
:1028D000231DA342A44164423F191C003B0200D4C3
:1028E0009EE0954B01369E4200D1B7E0934AE40842
:1028F00017407B0771057F0223433F0B4A0D1205EA
:102900003A43ED072A4318001100E0BCBA46B1462D
:10291000A846F0BD002C4BD04C46A41BA446002E6C
:1029200000D023E104001C4300D1AFE16246541EF5
:10293000012A00D115E2804DAC4500D1C8E1A44682
:102940001BE14A46B21A9446002A00DCACE04A4633
:10295000002A43D0784A964200D1AFE180223C0061
:1029600012041443A0466246382A67DC1F2A00DCA2
:102970005FE14746203AD7406246202A05D06446A8
:102980004022121B4446944021434A1E91410C00B0
:102990003C4357E03A000A4300D105E12200013AE6
:1029A000012C00D182E1644CA4455BD0944641E700
:1029B000634C771C274200D0C4E004001C43002E67
:1029C00000D069E1002C00D1BFE144460C4300D0A7
:1029D000D0E14207DB081343C00829E03A000A436C
:1029E00000D170E162466446013A012C00D1E0E07A
:1029F000514CA44500D161E19446B4E73A001F3937
:102A0000CA401100202B03D04022D31A9F403C43E0
:102A1000631E9C41002700260C43630700D053E748
:102A2000B446E4087B072343F808434A94451DD085
:102A30006246070352053F0B520D60E744460C43C4
:102A4000621E9441E4189C429B415F423F183B0246
:102A5000E3D5394B01369E4200D0B5E03200002765
:102A600000234CE74207DB081343C0081A00024367
:102A700000D1E1E180273F0307433F032E4A3F0B8C
:102A80003DE7200000F07EFE010018311F2900DC28
:102A9000FCE60838844027000024B14200DBFFE652
:102AA000264A761A17400DE7002A2FD04A46921B75
:102AB0009446002E00D1ADE01F4A914500D10FE1B0
:102AC0008022120410436246382A00DD0FE11F2ADB
:102AD00000DD80E1644620221E00121B67460400D0
:102AE00093409440FE405A1E9341F84034431C43A7
:102AF000804464188C42BF417F424E464744A6E75B
:102B000042460A4311004A1E9141ADE60C4C721C2C
:102B1000224200D0A1E002001A43002E00D0FAE0C9
:102B2000002A00D145E13A000A4300D046E14207BD
:102B3000DB081343C0087BE7FF070000FFFF7FFFB0
:102B4000FE07000047465C1AC21BA342BF417F42FA
:102B5000B94617004A46BF1A3A0200D58DE0230055
:102B60003B4300D08AE60020002561E7B44CA14534
:102B700000D1ADE08024240420436446382C3DDCA1
:102B800062461F2C00DDB7E020251E002D1B04002F
:102B9000AB40AC40D640D04042465D1EAB413443D2
:102BA000121A904623432CE04207DB081343C00867
:102BB0003BE75C189C429B4140445B42C71801269E
:102BC0003B0200D429E702269E4A630817400122EF
:102BD00014401C43FB071C437F0873E64446203A1D
:102BE000D4406246202A05D067464022D21B474681
:102BF000974039434A1E9141214335E60343581E0D
:102C00008341CC1AA142BF4143467F4255464E46BE
:102C1000DF1B2EE602001A4300D1BDE06246644687
:102C2000013A012C00D1E5E0854CA44558D09446EA
:102C300049E764462022121B444694400F00A146F7
:102C400064469140E7404C464A1E91413C4342460F
:102C50000C436146CA408018F4E6794CA24200D188
:102C6000FDE6591899429B4140445F42C719FC0751
:102C7000490816000C437F08CFE6CC1AA142BF4199
:102C800043467F42181A5546C71BF7E5C9087B071C
:102C900055460B43F808C8E6002C00D081E04346B7
:102CA0000B4315D1802000250003E3E65C1AA34204
:102CB0009B41C71B5B420126FF1ADAE54207DB088E
:102CC0001343C008D2E64207DB081343C008ACE652
:102CD00043464246C9085B0755460B43D008C5E644
:102CE000434642465B07C9080B43D008BEE6034390
:102CF0001C00631E9C41FCE60200203CE2401400E4
:102D00006246202A03D04025AD1AA8400343581E2E
:102D10008341234375E7002AE2D03A000A43CDD02D
:102D20004207DB0813438022C0081203104206D07A
:102D3000FC08144203D12000CB087A0713435A0F32
:102D4000DB005207DB08134390E643460B4300D1F8
:102D500009E743464246C9085B0755460B43D0087E
:102D600066E6CC1AA14289413F1A494255460126DE
:102D70007F1A7EE542465C1A871AA342924152426C
:102D8000BF1A3A023DD5CC1AA14289414346494275
:102D90001F1A55467F1A95E57B07C9080B43F808AB
:102DA00043E64446DB080C4330D142071343C008D6
:102DB0005CE67B07C9080B43F80839E65C189C42BF
:102DC0009B4140445B42C7183B0200D425E61D4BA3
:102DD00001261F4021E60400203AD4406246202A02
:102DE00004D040226646921B904003435A1E9341F2
:102DF0001C437EE65C188C42894140444942471896
:102E0000DDE623003B4300D1ADE606E6440723435D
:102E10008024C0082403204208D04246D608264217
:102E200004D155463000CB0851070B435A0FDB0045
:102E3000DB085207134319E60023014A1F005EE531
:102E4000FF070000FFFF7FFFF0B54E464546DE4618
:102E500057469046E0B517001A03120B050084464A
:102E600019480E034C0091465A00DB0F9B46360B67
:102E7000640DC90F520D844219D0824210D0012036
:102E800094420ED14E450CD10120C44509D159457B
:102E900017D0002C05D130002843431E984100E094
:102EA0000120F0BCBB46B246A946A046F0BD3300A7
:102EB00001202B43F5D1A242F3D14B463B43F0D145
:102EC000E2E70020EDE7C046FF070000F0B5474607
:102ED000CE460400180016001B031B0B2D4D4A00A4
:102EE000994680B543000F03A446B0463F0B520DF0
:102EF000C90F5B0DC00FAA4221D0AB4213D0002AEC
:102F000022D13C43002B02D14D462E4322D0002C2F
:102F100010D0814222D00220013908400138C0BCC3
:102F2000B946B046F0BD4D462E4329D1002AF0D116
:102F30003C43EED10028F2D101204042EFE73D00B2
:102F400025431DD19342EED0002BE2D14C462643BF
:102F5000DFD1E0E70020002CE1D0DCE79A420ADC78
:102F6000E8DB4F45D7D80ED000204F45D7D20029F7
:102F7000E2D00800D3E74342584140000138CEE791
:102F800002204042CBE7C445C5D80020C445C6D284
:102F9000EDE7C046FF070000F0B54746CE46040007
:102FA000180016001B031B0B2C4D4A00994680B5D8
:102FB00043000F03A446B0463F0B520DC90F5B0DF3
:102FC000C00FAA420DD0AB4210D0002A27D13C43FB
:102FD000002B11D14D462E430ED10020002C15D0D0
:102FE0000EE03D00254310D1934218D14D462E43AB
:102FF0000BD1002A02D13C43002C0BD0814214D0CB
:10300000022001390840013800E00220C0BCB94666
:10301000B046F0BD0028F9D101204042F6E7002B70
:10302000ECD14C462643E9D1EAE79A4204DD43421B
:10303000584140000138E9E79A42EBDB4F45DFD8C1
:1030400006D000204F45E1D20029E5D00800DDE799
:10305000C445D5D80020C445D8D2F5E7FF07000005
:10306000F0B557464E464546DE46E0B598460C0359
:103070004B000600924687B0240B5B0DCF0F002B50
:1030800000D15CE1D94A934200D175E1420FE400DE
:103090001443802212041443D54AC5009446634465
:1030A0000093002399469B46434642461E03D20F97
:1030B0005B0050469046360B5B0D00D120E1CB4AB9
:1030C000934200D162E1CA49420F8C4600996344A1
:1030D000F6008C46164380229C4412046346164335
:1030E000C200002000930099434601318C464946B6
:1030F0007B4001930F2926D8BE4B890059588F4633
:10310000434601933400150083465B46022B16D0DC
:10311000032B00D103E2012B00D0CDE000220024DC
:103120000025019B12052243DB071A4328001100EA
:1031300007B0F0BCBB46B246A946A046F0BD00248D
:103140000025AA4AEDE7280C2D042D0C2B00110CAC
:103150001204120C5343984613002F004343994620
:103160004F434F44BB4647460B003F0CBA464343D0
:10317000DA440293D14504D980277F02B9464B44F3
:10318000029353461B0C9B4653461F0443461B04A5
:103190001B0C98463B0043440493330C3604360C16
:1031A0009846330043439946434643432F009A468B
:1031B000434677435D43380C4D444519A94503D92F
:1031C00080235B029946CA443F04280C3F0C2D041F
:1031D000ED19270C2404240C0300200050437A43EB
:1031E00091463A0053440593030C9A464A4361437F
:1031F00049445144AB44894503D980235B02994635
:103200004A4400040B0C000C0904091820009946DC
:10321000434670435C437E435F43030C9846A419C6
:1032200044444A440397A64204D980235B0298464B
:10323000474403972304029E9A46059B5E449846A2
:10324000AE42AD4176188E4289410004000C5044D4
:1032500040446D424719B846934649428946C344A3
:10326000D94498428041A845AD4193459241894552
:1032700089416D4240422843240C524249420A434C
:10328000039B00198018C7184B46DC0D049B750280
:103290001D436A1E95414B46F60D7F0235435A0287
:1032A0003C431543FB0100D41CE101216A080D4099
:1032B0001543E207154364084F496144002900DCC7
:1032C000B0E06B0709D00F222A40042A05D02A1D3E
:1032D000AA42AD416D4264191500E30104D5802175
:1032E000464AC90014406144454A914200DD26E740
:1032F0006207ED08640249051543240B4A0D10E7E7
:103300005246324300D17FE0002E00D1DCE0300095
:1033100000F038FA02000B3A1D2301009B1A5246B6
:103320000839DA408E40164352468A40009B3549A0
:10333000181A03008C46634400200093D3E625004E
:1033400005434AD0002C00D1B0E0200000F01AFA6A
:10335000010002000B391D2310005B1A31003500FB
:1033600008388440D94085400C432648831A00938E
:10337000002399469B4697E60500254326D108225F
:1033800000930223002491469B468DE65246009B03
:10339000324310D1154900268C46634449460093B8
:1033A00002231943894602209DE65B460197022BC2
:1033B00000D0ADE6C3E60D4A0320944663444A4676
:1033C000009303231A43914652468CE60C22009345
:1033D0000323050091469B4666E604239946002395
:1033E0000093013300249B465EE6C046FF070000C1
:1033F00001FCFFFFA83B0008FF030000FFFFFFFEEA
:10340000FE0700000DFCFFFF4946012319438946D2
:103410000026012067E6002380240025434A01930B
:1034200024037EE60120401A382800DD76E61F28B6
:103430005BDD1F2223005242511ACB401900202885
:1034400003D03B4A6244944025436A1E95412A00BA
:103450000A4307210D000024154011425BD00F21C3
:1034600000241140042953D0111D9142924152422F
:10347000A4180A0023024BD501220024002550E69F
:1034800080231B031C4209D01E4207D133431C0377
:1034900043461500240B254A019342E6802212037D
:1034A00014432403214A240B01973AE600F06AF9F9
:1034B00001000200153120321C2900DC4BE73400EA
:1034C00008380025844050E700F05CF903001A003A
:1034D000153220301C2A00DC1EE75646083B00222D
:1034E0009E4023E7009B9C46E6E612492200614489
:1034F0002E008D408A40C640691E8D4132432A43CA
:10350000C4405307B6D00F2111400429ACD1B1E714
:1035100065076402240BD2081543002201E68022CD
:10352000120314432403014A240BFAE5FF070000A9
:103530003E0400001E04000070B5002816D0C3171A
:10354000C5185D40C40F280000F01CF9114A121A7A
:103550000A2816DC03002E0015339E400B23181A90
:10356000C54052052D032D0B530D03E0002400230D
:10357000002500261B052B43E407234330001900D8
:1035800070BD0B38854052052D0300262D0B530DC1
:10359000F0E7C0461E04000010B5041E10D000F075
:1035A000F1F80F4B1B1A0A2811DC0B222100121A0A
:1035B000D14015300A035B058440120B5B0D01E01E
:1035C000002300221B0513432000190010BD220018
:1035D0000B3882405B0512030024120B5B0DF1E7F0
:1035E0001E04000070B543004602C40FFE201B0EEF
:1035F000591C750A08420CD0E022920094466D07CF
:10360000360B63441B053343E407234328001900AA
:1036100070BD002B14D1002D1BD0280000F0B2F893
:103620000A281CDC0B232E001B1ADE400300153376
:103630009D400E4A3603121A5205360B530DE1E730
:10364000002D09D08022360B1203094B6D0716435B
:10365000D8E700230026D5E70026054BD2E7030074
:103660000B3B9D402E000025E3E7C0468903000088
:10367000FF07000002004B00F0B55B0D0C033D4E50
:10368000640A400F5F1CC90F0443D50037420AD0BB
:1036900039481E18FE2E16DDFF200024C0052043E9
:1036A000C9070843F0BD002B06D12C4326D00522C4
:1036B0009201540AD8B2F1E72543EDD08020C0032F
:1036C0000443FF20EAE7002E1BDD9201531E9A41BE
:1036D000E4006D0F22432A43530748D00F231340C1
:1036E000042B00D004328023DB0413403FD0701C35
:1036F000FE2ED1D09201540AC0B2CFE700200024A0
:10370000CCE73200173222DB8020000420431E2445
:10371000A41B1F2C1DDD02225242961B0200F24008
:103720001600202C04D0154A944663449840054363
:103730002A00531E9A41324300265307CED18024DB
:103740001300E404012023402242D3D1B0E7002338
:10375000ADE70B4A94462A00E24014002A00634475
:103760009A409840551EAA4102432243E4E73300A1
:103770009EE7C046FE07000080FCFFFFA2FCFFFFA3
:1037800082FCFFFF1C2101231B04984201D3000C83
:1037900010391B0A984201D3000A08391B099842C4
:1037A00001D30009043902A2105C40187047C046DA
:1037B00004030202010101010000000000000000FA
:1037C0003031323334353637383941424344454657
:1037D00000000000504552494D4554455220444593
:1037E000544543544544210D0A0000004E4F2050DB
:1037F0004552494D4554455220444554454354454E
:1038000044210D0A0000000044454255473A204338
:10381000757272656E74204672657175656E637936
:103820003A00000020487A200D0A00004445425525
:10383000473A204D6F76696E672041766572616701
:10384000652043616C63756C6174696F6E3A20002A
:1038500044454255473A20426173656C696E652064
:103860004672657175656E637920496E6974696128
:103870006C697A65643A000044454255473A2046EF
:1038800072657175656E6379204368616E67653A2C
:1038900020000000434F494E2044455445435445C1
:1038A00044210D0A000000001B5B324A1B5B313BC8
:1038B000314800000D0A53544D33324C303531201D
:1038C0006D756C746920492F4F206578616D706C3F
:1038D000652E0D0A000000004D65617375726573F9
:1038E0002074686520766F6C746167652066726FFE
:1038F0006D20414443206368616E6E656C732038AF
:1039000020616E642039202870696E732031342064
:10391000616E64203135206F66204C514650333241
:10392000207061636B616765290D0A004D656173E5
:103930007572657320706572696F64206F6E2050B8
:103940004138202870696E203138206F66204C5134
:1039500046503332207061636B616765290D0A0040
:10396000546F67676C6573205042332C205042348B
:103970002C205042352C205042362C2050423720EB
:103980002870696E732032362C2032372C20323862
:103990002C2032392C203330206F66204C51465079
:1039A0003332207061636B616765290D0A00000086
:1039B00047656E65726174657320736572766F20FA
:1039C00050574D73206F6E20504131312C205041A3
:1039D0003132202870696E732032312C203232202F
:1039E0006F66204C5146503332207061636B6167C3
:1039F00065290D0A00000000526561647320746837
:103A00006520707573682D627574746F6E206F6EAB
:103A10002070696E2050413134202870696E203248
:103A200034206F66204C5146503332207061636BF6
:103A3000616765290D0A0D0A000000004144435BDF
:103A4000385D3D30780000002C200000562000003A
:103A50004144435B395D3D307800000050413134D2
:103A60003D00000031200000302000000D0A5265AA
:103A70007475726E65642066726F6D206D61696E1B
:103A800028292E202053797374656D2073746F700C
:103A90002E000000496E746572727570742077692B
:103AA00074686F75742068616E646C657220284953
:103AB0005352292E202053797374656D2073746FCF
:103AC000702E000048617264204661756C74206934
:103AD0006E746572727570742E20205379737465DC
:103AE0006D2073746F702E002C200008B81F000822
:103AF000141F0008CC1E0008141F0008F41F000843
:103B0000141F0008CC1E0008B81F0008B81F0008CA
:103B1000F41F0008CC1E0008D21E0008D21E0008A8
:103B2000D21E000802200008B81F0008B81F0008B5
:103B3000141F0008C81E0008141F0008F41F000806
:103B4000141F0008C81E0008B81F0008B81F00088E
:103B5000F41F0008C81E0008D21E0008D21E00086C
:103B6000D21E0008FE1F00088C2200085C220008FC
:103B70005C2200085A220008602200086022000827
:103B8000A82300085A22000860220008A823000881
:103B9000602200085A220008542300085423000819
:103BA00054230008E42300084631000804310008CB
:103BB00004310008003100080A3100080A31000809
:103BC00016340008003100080A31000816340008D5
:103BD0000A31000800310008AA330008AA3300089F
:083BE000AA330008803400083C
:083BE80064640000DC00002011
:04000005080000B936
:00000001FF
