:020000040800F2
:1000000000200020B90000086519000879190008CF
:1000100000000000000000000000000000000000E0
:10002000000000000000000000000000651900084A
:1000300000000000000000006519000865190008B4
:100040006519000865190008651900086519000898
:100050006519000865190008651900086519000888
:1000600000000000651900086519000865190008FE
:100070006519000865190008000000003B01000830
:1000800000000000651900080000000000000000EA
:1000900065190008000000006519000865190008CE
:1000A000651900086519000865190008951400080D
:1000B000891E00086519000801F0D0FB01F092FBD1
:1000C000E1235B02180001F03DF962B6C04600F082
:1000D0008FFE024B180001F0A5FAFEE7C05D000894
:1000E00080B500AF0A4B0B4A5A60094B00229A6058
:1000F000074B05221A60C046054B1A6880235B0235
:100100001340F9D0024B00221A60C046BD4680BDA4
:1001100010E000E0FF7C000080B582B000AF7860A6
:1001200001E0FFF7DDFF7B685A1E7A60002BF8D1F3
:10013000C046C046BD4602B080BD80B500AF80233A
:10014000DB051A698023DB0501218A431A61594BBB
:100150001B68002B4BD0584B1B685A1C564B1A601F
:10016000564B1B78DBB21A00534B1B689A4209DDD1
:10017000A023DB055A69A023DB05802109010A437E
:100180005A6107E0A023DB055A69A023DB054C492F
:100190000A405A614B4B1B78DBB21A00464B1B6876
:1001A0009A4209DDA023DB055A69A023DB058021E3
:1001B00049010A435A6107E0A023DB055A69A023DD
:1001C000DB0541490A405A613B4B1A68FA23DB00C0
:1001D0009A426BDD384B00221A60A023DB055A6976
:1001E000A023DB05C02149010A435A615EE0374B79
:1001F0001B685A1C354B1A60354B1B78DBB21A0052
:10020000324B1B689A4217DDA023DB055B69022293
:10021000134008D0A023DB055A69A023DB05022187
:100220000A435A6110E0A023DB055A69A023DB05CD
:1002300001210A435A6107E0A023DB055A69A02384
:10024000DB0503218A435A61224B1B78DBB21A007B
:100250001E4B1B689A4217DDA023DB055B69082251
:10026000134008D0A023DB055A69A023DB05082131
:100270000A435A6110E0A023DB055A69A023DB057D
:1002800004210A435A6107E0A023DB055A69A02331
:10029000DB050C218A435A610C4B1B6801330B4A66
:1002A0001360632B02DD094B00221A60C046BD4675
:1002B00080BDC0467C0000207000002000000020AF
:1002C000FFF7FFFF01000020FFEFFFFF7400002099
:1002D000780000207900002080B500AF7A4BDA6A00
:1002E000794B03210A43DA62784B1A68774B032172
:1002F0000A431A60754B1A68744B0C210A431A6042
:1003000000F010FFA023DB051A68A023DB0570496D
:100310000A401A60A023DB05DA68A023DB058021F0
:1003200049020A43DA60A023DB05DA68A023DB0573
:1003300068490A40DA60A023DB05DA68A023DB0500
:1003400002210A43DA60A023DB05DA68A023DB057B
:1003500004218A43DA605D4B1B68C02293431A0074
:100360005A4B40210A431A60584B5A68574B082190
:100370008A435A60A023DB051A68A023DB05FF210E
:100380008A431A60A023DB051A68A023DB055521E8
:100390000A431A60A023DB055A68A023DB050F215E
:1003A0008A435A60A023DB055A69A023DB050F218D
:1003B0008A435A61A023DB051B68474A1A40A023E1
:1003C000DB058021C9030A431A60A023DB055A68B4
:1003D000A023DB0541490A405A60A023DB051B68C6
:1003E0003F4A1A40A023DB05802149040A431A60D2
:1003F000A023DB055A68A023DB053A490A405A606E
:10040000314B9A6B304B01210A439A638023DB0501
:100410004022FF32DA62344B1A68334B80210902E2
:100420000A431A608023DB051A688023DB0510214C
:100430000A431A608023DB051A688023DB058021CC
:100440000A431A608023DB05DA688023DB0501217B
:100450000A43DA608023DB051A688023DB0501216B
:100460000A431A6062B6C046A023DB051B681F4A18
:100470001A40A023DB058021C9040A431A60A02387
:10048000DB055A69A023DB05802189010A435A61F3
:10049000A023DB051A68A023DB0514490A401A6073
:1004A000A023DB05DA68A023DB058021C9040A4309
:1004B000DA60A023DB05DA68A023DB050C490A40DB
:1004C000DA60C046BD4680BD001002400004005006
:1004D000FFFFFCFFFFFFFDFFFFFF3FFFFFF7FFFFF9
:1004E000FFFFFFFCFFEFFFFF00E100E0FFFFFFF376
:1004F000FFFFFFF790B58DB000AF78607A68184BBA
:100500001100180003F02AFCA023DB055A69A02380
:10051000DB0514490A405A610A20FFF7FDFD7B689C
:10052000180001F079FD08243B192721180001F07B
:10053000ADFDA023DB055A69A023DB0580218901DD
:100540000A435A610A20FFF7E7FD3A19064B1100EA
:10055000180003F003FCC046BD460DB090BDC04678
:10056000A05A0008FFDFFFFFAC5A000880B500AFBB
:10057000A023DB055A69A023DB0510490A405A6114
:100580000A20FFF7C9FD0E4B180001F045FD0A20B7
:10059000FFF7C2FDA023DB055A69A023DB058021FC
:1005A00089010A435A6101E001F063FD01F0B4FDE5
:1005B000031EF9DCC046C046BD4680BDFFDFFFFF1D
:1005C000BC5A000880B582B000AF7860A023DB057C
:1005D0005A69A023DB050A218A435A61A023DB055F
:1005E0005A69A023DB0505210A435A617B68DAB208
:1005F000044B1A707B68DAB2034B1A70C046BD46D2
:1006000002B080BD780000207900002080B582B063
:1006100000AF7860A023DB055A69A023DB05052124
:100620008A435A61A023DB055A69A023DB050A210E
:100630000A435A617B68DAB2044B1A707B68DAB2FB
:10064000034B1A70C046BD4602B080BD7800002042
:100650007900002080B582B000AF7860A023DB0570
:100660005A69A023DB0505218A435A61A023DB05D3
:100670005A69A023DB050A210A435A617B68DAB272
:10068000044B1A70044B00221A70C046BD4602B0DB
:1006900080BDC046780000207900002080B582B07F
:1006A00000AF7860A023DB055A69A023DB05052194
:1006B0008A435A61A023DB055A69A023DB050A217E
:1006C0000A435A61054B00221A707B68DAB2044B68
:1006D0001A70C046BD4602B080BDC04678000020FA
:1006E0007900002080B500AF044B00221A70044B43
:1006F00000221A70C046BD4680BDC046780000206A
:100700007900002080B582B000AF7860A023DB05BF
:100710005A69A023DB0506218A435A61A023DB0521
:100720005A69A023DB0509210A435A617B68DAB2C2
:10073000044B1A707B68DAB2034B1A70C046BD4690
:1007400002B080BD780000207900002080B582B022
:1007500000AF7860A023DB055A69A023DB050921DF
:100760008A435A61A023DB055A69A023DB050621D1
:100770000A435A617B68DAB2044B1A707B68DAB2BA
:10078000034B1A70C046BD4602B080BD7800002001
:100790007900002080B584B000AF03F0A5FB030012
:1007A0005B21180001F00AFE0B005A33FB6003F0D6
:1007B0009BFB03001E4A134004D5013B0222524218
:1007C00013430133BB60F86803F02EF9194A1A4B42
:1007D00002F0BEFE02000B00100019000022174BB1
:1007E00002F0C0FB02000B001000190003F072F9C8
:1007F000031C7B60BB68012B03D16420FFF782FFE1
:1008000002E06420FFF7A2FF0D49786801F028FF9D
:10081000031C181C02F04AF803001800FFF77CFCC8
:100820006420FFF7F3FEC046BD4604B080BDC0465D
:1008300001000080295C8FC2F528EC3F00806640F3
:1008400000007A44B0B588B000AFF8600020002105
:100850003861796172B6C04678497948486077490D
:100860007748886075490520086020E0734908686A
:1008700080214902014007D03869796901240025A7
:1008800000196941386179617969002907DC796962
:1008900000290CD139696B48814200D807E0674BC9
:1008A00000221A6062B6C04600220023C1E0A021E7
:1008B000C9050869802149000140D7D15F4900205E
:1008C00008605E495E4848605C495D4888605B49F5
:1008D00005200860002000213861796120E0574937
:1008E000086880214902014007D0386979690124EC
:1008F000002500196941386179617969002907DCAF
:10090000796900290CD139694E48814200D807E045
:100910004A4B00221A6062B6C0460022002388E0DB
:10092000A021C9050869802149000140D7D0434969
:10093000002008604149424848604049404888607A
:100940003E490520086000200021386179610021BE
:10095000F96153E03949086880214902014007D014
:100960003869796901240025001969413861796184
:100970007969002907DC796900290CD13969314886
:10098000814200D807E02D4B00221A6062B6C046B3
:10099000002200234DE0A021C905086980214900FB
:1009A0000140D7D120E02549086880214902014053
:1009B00007D0386979690124002500196941386137
:1009C00079617969002907DC796900290CD13969D5
:1009D0001C48814200D807E0184B00221A6062B61A
:1009E000C0460022002324E0A021C9050869802117
:1009F00049000140D7D0F9690131F961F869F96816
:100A00008842C8DB0D490020086062B6C0463969DB
:100A1000090A786903060B4339690A060749896898
:100A20000748411A396000217960386879681218DE
:100A30004B4110001900BD4608B0B0BD10E000E009
:100A4000FFFFFF00A086010090B595B000AFF860F1
:100A5000B9607A603823FB18224A13CA13C311689D
:100A6000196012791A711423FB182022002199545D
:100A70001F23FB641BE0FB68B968180001F09EFCB3
:100A80000B001900FB6C5A1EFA643822BA18515C2C
:100A90001422BA18D154B968F86801F0A9FB030010
:100AA000FB607B68002B02D07B68013B7B60FB68AE
:100AB000DA17D31ADB0FDAB27B68D917CB1ADB0F40
:100AC000DBB21343DBB2002BD5D1FB6C0133142214
:100AD000BA18D318180000F0A5FDC046BD4615B0E1
:100AE00090BDC046CC5A000880B582B000AF02006D
:100AF000FB1D1A70FB1D1B78002B06D0084B5A6992
:100B0000074B08210A435A6105E0054B5A69044B1B
:100B100008218A435A61C046BD4602B080BDC04626
:100B20000004005080B500AF444B01221A60444BD2
:100B30004B221A70434B4B221A70FA235B001800A9
:100B4000FFF7EAFA09E03F4B1B78DBB20133DAB278
:100B50003C4B1A700A20FFF7DFFA3A4B1B78DBB2E6
:100B60009C2BF0D9FA235B001800FFF7D5FA09E0B7
:100B7000334B1B78DBB20133DAB2314B1A700A20E7
:100B8000FFF7CAFA2E4B1B78DBB2EF2BF0D9FA2312
:100B90005B001800FFF7C0FA0120FFF7A5FF09E08E
:100BA000284B1B78DBB20133DAB2264B1A700A20CD
:100BB000FFF7B2FA234B1B78DBB2EF2BF0D9FA2305
:100BC0005B001800FFF7A8FA09E01D4B1B78DBB2A9
:100BD000013BDAB21A4B1A700A20FFF79DFA184B44
:100BE0001B78DBB24B2BF0D8FA235B001800FFF721
:100BF00093FA09E0134B1B78DBB2013BDAB2114BDD
:100C00001A700A20FFF788FA0E4B1B78DBB2642BB0
:100C1000F0D80020FFF768FF094B4B221A70094BF0
:100C20004B221A70054B00221A60FA235B00180051
:100C3000FFF772FAC046BD4680BDC0467C0000206A
:100C4000000000200100002080B584B000AFF860F3
:100C5000B9607A60FB681149180001F0AFFB0B0026
:100C60001A007B68934209DBBB680C49180001F04D
:100C7000A5FB0B001A007B68934206DA084B1800AC
:100C800000F0D0FCFFF786FD04E0064B180000F0F2
:100C9000C9FCC046C046BD4604B080BD1027000058
:100CA000E05A0008F45A000880B584B000AF642010
:100CB000FFF7C8FD02000B00BA60FB60B868F96876
:100CC00001F082FB031C191C044801F0B1FB031C5A
:100CD0007B607B68181CBD4604B080BD20BC3E4FC5
:100CE00080B582B000AF384B1B68002B09D0642060
:100CF000FFF7A8FD02000B00344B1A60324B0022B4
:100D00001A606420FFF79EFD02000B003A607B60D2
:100D10002F4B180000F086FC3B6806220A211800C1
:100D2000FFF792FE2B4B180000F07CFC274B1B6852
:100D30001A003B68D31ADA179B185340642B31DD35
:100D4000254B180000F06EFC6420FFF73BFCFA23F3
:100D50005B001800FFF7E0F9FFF7C4FCFFF7E2FEC5
:100D60001E4B180000F05EFC1D4B180000F05AFCF2
:100D70001C4B1B685A1C1B4B1A601A4B1B68012228
:100D80000A211800FFF760FE124B180000F04AFC21
:100D90006420FFF757FD02000B000C4B1A60642023
:100DA000FFF734FC0F4B1B68032B08D10E4B1800C8
:100DB00000F038FC0D4B01221A60FFF793FCC0468F
:100DC000BD4602B080BDC04604000020880000205F
:100DD0000C5B0008145B0008185B00082C5B000823
:100DE000385B00088C000020445B00088000002075
:100DF000B0B59EB000AF00237B6700233B670023A4
:100E0000FB666423BB6600237B66FFF765FA9623C7
:100E10009B01180000F092FFFA235B001800FFF717
:100E20007BF9A44B180000F0FDFBA34B180000F069
:100E3000F9FBA24B180000F0F5FBA14B180000F0E5
:100E4000F1FBA04B180000F0EDFBFFF78FFB9E4B72
:100E50001800FFF74FFB9D4B1800FFF74BFB9C4B17
:100E60001800FFF747FB9B4B1800FFF743FB9A4B1B
:100E70001800FFF73FFB994B1800FFF73BFB984B1F
:100E80001800FFF737FB974B1800FFF733FB964B23
:100E90001800FFF72FFB00237B6700237B6680236E
:100EA0005B00180000F08EF903003B663B6E8F4A32
:100EB00053438F49180001F09BF90300FB65802321
:100EC0009B00180000F07EF903003B663B6E874AEA
:100ED00053438749180001F08BF90300BB6501F00B
:100EE0001BF9031E00DCCFE057257C1901F0C1F887
:100EF000030023707B191B78212B00D09AE03B1D47
:100F00004F21180001F0C2F83B1D180003F074F8DF
:100F10000300082B00D086E03B1D3521180003F0AC
:100F20005DF8031E0CD0734B180000F07BFB724B76
:100F300001221A60FA239B001800FFF7EDF8A3E0E6
:100F40003B1D3621180003F049F8031E0CD06B4BF3
:100F5000180000F067FB684B00221A60FA239B0020
:100F60001800FFF7D9F88FE0634B1B68002B11D1F5
:100F70003B1D3121180003F031F8031E0AD0604BED
:100F8000180002F077FF6420FFF740FB0A20FFF70C
:100F9000C3F879E0584B1B68002B11D13B1D32215F
:100FA000180003F01BF8031E0AD0564B180002F07D
:100FB00061FF6420FFF706FB0A20FFF7ADF863E04E
:100FC0004D4B1B68002B11D13B1D3321180003F042
:100FD00005F8031E0AD04C4B180002F04BFF6420AA
:100FE000FFF75CFB0A20FFF797F84DE0424B1B68C8
:100FF000002B11D13B1D3421180002F0EFFF031E1E
:101000000AD0424B180002F035FF6420FFF722FBA4
:101010000A20FFF781F837E0FFF764FB3C4B18002C
:1010200002F028FF30E03A1D3A4B1100180002F0A0
:1010300095FE29E05723FB181B78402B24D1FFF79E
:1010400033FE031C181C01F031FC03007B667A6E32
:1010500031493B1D180002F0A1FF304B180000F091
:10106000E1FA3B1D180000F0DDFAFFF71DFE031C3E
:10107000181C01F01BFC03007B660520FFF74CF8F1
:101080003B1D180000F0C8FF1B4B1B68012B00D054
:1010900005E7234B1B68002B00D000E76420FFF717
:1010A000B5FAFFF71DFEFA239B001800FFF734F88E
:1010B000F5E6C046745B0008805B0008A45B00088E
:1010C000F85B00082C5C0008745C0008805C000879
:1010D0008C5C0008985C0008A45C0008B05C000808
:1010E000BC5C0008C85C0008D85C0008E880000010
:1010F000FF0F0000E45C000884000020005D000891
:10110000185D00082C5D0008445D0008585D00086B
:101110006C5D00087C5D0008985D0008A05D00081B
:101120008000002080B500AF244B5A6B234B8021F8
:1011300089000A435A63224B1A69214BC0210906D0
:101140000A431A611E4B1A681D4B01210A431A609B
:101150001B4B9A681A4B01210A439A60184BDA68B4
:1011600080231B02134005D1C046154B1B6801228A
:101170001340FAD0124B9B680122134005D0104B4C
:101180009A680F4B02210A439A600D4B9A680C4BE8
:10119000802109060A439A60C046094B1A688023D9
:1011A0001B011340F9D0064B1A68054B8021090139
:1011B0000A431A60C046BD4680BDC04600100240CA
:1011C0000024014080B582B000AF7860164BDA6829
:1011D000154B802109020A43DA60134B7A689A6240
:1011E000114B5A69104B07210A435A617A688023D0
:1011F0009B029A4206D10D4B1A680C4B8021C90301
:101200000A431A60084B9A68074B04210A439A6004
:10121000C046054B1B6804221340FAD0024B1B6CDE
:101220001800BD4602B080BD0024014008270140DF
:1012300090B585B000AF78603960184B1B68002B03
:1012400002D101235B4224E00023FB600AE0FB683B
:101250005A1CFA603A68D418114B180000F0ADF926
:10126000030023707B68013B1A00FB68934205D2A0
:101270000B4B180000F0CCF9031EE8D1FB68002BE3
:1012800006D03A68FB68D31800221A70FB6800E0A9
:1012900000231800BD4605B090BDC04628010020BF
:1012A0009000002080B584B000AF78603960224B98
:1012B0001B68002B02D101235B4238E07B683F2B87
:1012C0000BDCC0461D4B180000F0A2F903004022C1
:1012D000D21A7B689A42F5D302E002235B4226E0F1
:1012E0000023FB600BE03A68FB68D3181A78134BB5
:1012F0001100180000F030F9FB680133FB607B68D7
:10130000FA689A42EFD30E4B1B68082213400DD1A6
:101310000B4B1A680A4B08210A431A60074B180046
:1013200000F04BF903001A00054B9A6200231800E5
:10133000BD4604B080BDC04628010020DC0000206E
:101340000038014080B584B000AF786072B6C04606
:10135000454B00229A64444B9A6C434B5A64424B6F
:101360005A6C414B1A64414B00229A643F4B9A6C71
:101370003E4B5A643D4B5A6C3C4B1A643C4B012229
:101380001A603C4B00221A603B4BDA6A3A4B01214F
:101390000A43DA62394BFB607968F86800F028FF8D
:1013A0000300FB60A023DB059A68A023DB058021F6
:1013B000C9020A439A60A023DB055A68A023DB0513
:1013C0002F490A405A60A023DB051B682D4A1A40AA
:1013D000A023DB05802109030A431A60A023DB0553
:1013E0005A6AA023DB0540210A435A62A023DB0589
:1013F0001B68254A1A40A023DB05802189030A4384
:101400001A60A023DB055A6AA023DB058021C900EE
:101410000A435A62184B5A6B174B8021C9010A4381
:101420005A631A4B1A68194B6C210A431A60174BFE
:1014300000225A60154B00229A60144BFA68DA6059
:10144000124B1A68114B01210A431A60104B1A689B
:101450000F4B802109050A431A6062B6C046C04698
:10146000BD4604B080BDC04690000020DC000020D6
:10147000280100202C010020001002400048E80153
:10148000FFFDFFFFFFFFF3FFFFFFCFFF003801402D
:1014900000E100E080B500AF084BDB69802213401B
:1014A00001D000F025F8054BDB692022134001D064
:1014B00000F006F8C046BD4680BDC0460038014079
:1014C00080B500AF074B5B6ADAB2074B110018001A
:1014D00000F042F8031E02D0044B01221A60C046FD
:1014E000BD4680BD00380140900000202C01002046
:1014F00080B500AF164B180000F08AF8031E08D024
:10150000134B180000F059F803001A00114B9A62AF
:101510001BE0104B1A680F4B08218A431A600D4BD1
:10152000DB694022134005D00A4B1A6A094B40215F
:101530000A431A62074BDB698022134005D0054B32
:101540009A69044B10210A439A61C046BD4680BD8A
:10155000DC0000200038014080B582B000AF786028
:101560000A00FB1C1A707B681A6C7B685B6C9A42E1
:1015700005D17B689B6C002B01D0012319E072B66A
:10158000C0467B681B6C591C7A6811647A68F91C28
:101590000978D1547B689B6C5A1C7B689A647B6881
:1015A0001B6C402B02D17B6800221A6462B6C046D5
:1015B00000231800BD4602B080BD80B584B000AFE6
:1015C00078607B689B6C002B01D100231CE072B615
:1015D000C0467B685B6C591C7A6851640F22BA184C
:1015E0007968CB5C13707B685B6C402B02D17B68A5
:1015F00000225A647B689B6C5A1E7B689A6462B6B0
:10160000C0460F23FB181B781800BD4604B080BDF0
:1016100080B582B000AF78607B689B6C1800BD46D7
:1016200002B080BD80B582B000AF78600B4B1B6804
:10163000002B09D101235B420BE07B685A1C7A60C6
:1016400019000120FFF72EFE7B681B78002BF4D1D8
:1016500000231800BD4602B080BDC046280100200E
:1016600080B582B000AF0200FB1D1A70FB1D19008F
:101670000120FFF717FEC046BD4602B080BD80B511
:1016800000AF044B1800FFF798FF03001800BD4699
:1016900080BDC04690000020B0B584B000AF786037
:1016A00039601E4B1B68002B02D101235B4231E0E5
:1016B0000023FB600B23FB1800221A7017E0C046C2
:1016C000174B1800FFF7A4FF031EF9D00B257C1958
:1016D000134B1800FFF771FF03002370FB685A1CBF
:1016E000FA601A007B689B187A1912781A703B68A6
:1016F000013BFA689A4204DA0B23FB181B780D2B86
:10170000DDD1FB68002B04DDFB687A68D31800226A
:101710001A70FB681800BD4604B0B0BD2801002057
:101720009000002090B583B000AFFC1DFFF7A7FF2D
:1017300003002370FB1D1B781800FFF791FFFB1DB2
:101740001B781800BD4603B090BDB0B584B000AFA3
:1017500078603960214B1B68002B02D101235B426A
:1017600037E00023FB600B23FB1800221A701DE0FA
:10177000C0461B4B1800FFF74BFF031EF9D00B258B
:101780007C19174B1800FFF718FF030023702C007B
:101790003B191B781800FFF763FFFB685A1CFA60BF
:1017A0001A007B689B183A1912781A703B68013B43
:1017B000FA689A4204DA0B23FB181B780D2BD7D159
:1017C000FB68002B04DDFB687A68D31800221A70CE
:1017D000FB681800BD4604B0B0BDC046280100201B
:1017E0009000002080B582B000AF164B7B60164B96
:1017F0003B6007E07A68131D7B603B68191D396008
:1018000012681A603A68114B9A42F3D304E03B68BD
:101810001A1D3A6000221A603A680D4B9A42F6D3BC
:101820000C4B3B6004E03B681A1D3A601B6898470C
:101830003A68094B9A42F6D3C046C046BD4602B04C
:1018400080BDC046E8600008000000207000002055
:10185000F8010020E8600008E860000880B500AFEB
:101860003B4B1A683A4B01210A431A60C046384B79
:101870001B6804221340FAD0354B0122DA60C046BF
:10188000334BDB680C221340042BF9D1314B1A681F
:10189000304B02210A431A602E4B1A682D4B01214E
:1018A0000A431A602A4B9A6B294B802149050A4347
:1018B0009A63294B802212011A60C046264B5B684E
:1018C00010221340FAD1224BDA68214B23490A40F7
:1018D000DA601F4BDA681E4B8821C9030A43DA60BD
:1018E0001B4A1B4BD268DA60194A194BD268DA607E
:1018F000174A174BD268DA60154B1A68144B18490F
:101900000A401A60124B1A68114B802149040A439D
:101910001A60C0460E4B1A6880239B041340F9D00E
:101920000B4BDA680A4B03218A43DA60084BDA680A
:10193000074B03210A43DA60C046054BDB680C22E3
:1019400013400C2BF9D1C046C046BD4680BDC046F1
:10195000001002400020024000700040FFFF02FF24
:10196000FFFFFFFE80B500AF024B1800FFF75AFEE5
:10197000FEE7C046E85D000880B500AF024B1800E6
:10198000FFF750FEFEE7C046185E000880B582B043
:1019900000AF7860FEE780B582B000AF78600123C9
:1019A0005B421800BD4602B080BD80B584B000AF78
:1019B000F860B9607A60044B0C221A6001235B4224
:1019C0001800BD4604B080BDE001002080B500AF26
:1019D000034B0B221A6001235B421800BD4680BDF9
:1019E000E001002080B582B000AF786039603B68CC
:1019F000802292015A6000231800BD4602B080BDCB
:101A000080B500AF01231800BD4680BD80B582B00F
:101A100000AF78603960044B16221A6001235B42E4
:101A20001800BD4602B080BDE001002080B582B044
:101A300000AF78603960044B1F221A6001235B42BB
:101A40001800BD4602B080BDE001002080B584B022
:101A500000AFF860B9607A6000231800BD4604B09A
:101A600080BD80B582B000AF786039603B6880226D
:101A700092015A6000231800BD4602B080BD80B5B7
:101A800082B000AF786001235B421800BD4602B00F
:101A900080BD80B582B000AF7860044B02221A602E
:101AA00001235B421800BD4602B080BDE00100206A
:101AB00080B582B000AF7860044B0A221A6001231F
:101AC0005B421800BD4602B080BDC046E001002068
:101AD00080B582B000AF78607B68022B01D801230B
:101AE00003E0044B09221A6000231800BD4602B02F
:101AF00080BDC046E001002080B586B000AF7860B0
:101B0000124B7B61124B3B61124B1B68002B02D1C5
:101B1000104B7A691A600F4B1B68FB600D4B1A68FB
:101B20007B68D3183A699A4205D20B4B0C221A6093
:101B300001235B4206E0074B1A687B68D218054B0D
:101B40001A60FB681800BD4606B080BDF801002091
:101B50000010002038010020E001002080B588B08E
:101B600000AFF860B9607A600023BB61FB68002BAE
:101B700022D10023FB611AE0FFF781FD03001A0068
:101B800017217B181A70BB685A1CBA607A18127831
:101B9000D2B21A70BB690133BB617B181B78DBB210
:101BA0000A2B01D1BB690EE0FB690133FB61FA69C5
:101BB0007B689A42E0DB05E0054B09221A600123AD
:101BC0005B4200E0BB691800BD4608B080BDC0465E
:101BD000E001002080B586B000AFF860B9607A609F
:101BE000FB68013B012B11D800237B6109E0BB6836
:101BF0005A1CBA601B781800FFF732FD7B6901336D
:101C00007B617A697B689A42F1DB05E0054B09222A
:101C10001A6001235B4200E07B681800BD4606B0F5
:101C200080BDC046E001002090B585B000AF78606F
:101C30003960184B1B68002B02D101235B4224E062
:101C40000023FB600AE0FB685A1CFA603A68D4186B
:101C5000114B180000F0ABF9030023707B68013BC7
:101C60001A00FB68934205D20B4B180000F0CAF92A
:101C7000031EE8D1FB68002B06D03A68FB68D31836
:101C800000221A70FB6800E000231800BD4605B072
:101C900090BDC046D40100203C01002080B584B036
:101CA00000AF78603960224B1B68002B02D1012302
:101CB0005B4238E07B683F2B0BDCC0461D4B1800B5
:101CC00000F0A0F903004022D21A7B689A42F5D3B3
:101CD00002E002235B4226E00023FB600BE03A684F
:101CE000FB68D3181A78134B1100180000F02EF976
:101CF000FB680133FB607B68FA689A42EFD30E4BB6
:101D00001B68082213400DD10B4B1A680A4B08219F
:101D10000A431A60074B180000F049F903001A0043
:101D2000054B9A6200231800BD4604B080BDC04632
:101D3000D4010020880100200044004080B584B018
:101D400000AF786072B6C046454B00229A64444B9F
:101D50009A6C434B5A64424B5A6C414B1A64414B48
:101D600000229A643F4B9A6C3E4B5A643D4B5A6C2E
:101D70003C4B1A643C4B01221A603C4B00221A6017
:101D80003B4BDA6A3A4B01210A43DA62394BFB607A
:101D90007968F86800F02CFA0300FB60A023DB05EB
:101DA0009A68A023DB05802149050A439A60A02395
:101DB000DB055A68A023DB052F490A405A60A0239F
:101DC000DB051B682D4A1A40A023DB05802189050D
:101DD0000A431A60A023DB055A6AA023DB05802191
:101DE000C9040A435A62A023DB051B689B009A08BA
:101DF000A023DB05802109060A431A60A023DB0526
:101E00005A6AA023DB058021C9050A435A62184B90
:101E10009A6B174B802189020A439A63184B1A6800
:101E2000174B6C210A431A60154B00225A60144B61
:101E300000229A60124BFA68DA60114B1A68104B54
:101E400001210A431A600F4B1A680E4B8021490585
:101E50000A431A6062B6C046C046BD4604B080BDA3
:101E60003C01002088010020D4010020D80100207E
:101E7000001002400048E801FFBFFFFFFFFFFFCF57
:101E80000044004000E100E080B500AF084BDB6992
:101E90008022134001D000F025F8054BDB69202299
:101EA000134001D000F006F8C046BD4680BDC046D4
:101EB0000044004080B500AF074B5B6ADAB2074BC5
:101EC0001100180000F042F8031E02D0044B01225A
:101ED0001A60C046BD4680BD004400403C01002061
:101EE000D801002080B500AF164B180000F08AF82A
:101EF000031E08D0134B180000F059F803001A0015
:101F0000114B9A621BE0104B1A680F4B08218A4351
:101F10001A600D4BDB694022134005D00A4B1A6A48
:101F2000094B40210A431A62074BDB6980221340A8
:101F300005D0054B9A69044B10210A439A61C046AB
:101F4000BD4680BD880100200044004080B582B0BD
:101F500000AF78600A00FB1C1A707B681A6C7B6803
:101F60005B6C9A4205D17B689B6C002B01D00123EE
:101F700019E072B6C0467B681B6C591C7A68116404
:101F80007A68F91C0978D1547B689B6C5A1C7B6871
:101F90009A647B681B6C402B02D17B6800221A6418
:101FA00062B6C04600231800BD4602B080BD80B5B1
:101FB00084B000AF78607B689B6C002B01D100235C
:101FC0001CE072B6C0467B685B6C591C7A68516431
:101FD0000F22BA187968CB5C13707B685B6C402B5E
:101FE00002D17B6800225A647B689B6C5A1E7B6816
:101FF0009A6462B6C0460F23FB181B781800BD46D2
:1020000004B080BD80B582B000AF78607B689B6C07
:102010001800BD4602B080BD80B582B000AF7860C8
:102020000B4B1B68002B09D101235B420BE07B6843
:102030005A1C7A6019000120FFF730FE7B681B787C
:10204000002BF4D100231800BD4602B080BDC0466D
:10205000D401002080B582B000AF0200FB1D1A70D1
:10206000FB1D19000120FFF719FEC046BD4602B056
:1020700080BD80B500AF044B1800FFF798FF030048
:102080001800BD4680BDC0463C010020B0B584B0FC
:1020900000AF786039601E4B1B68002B02D1012312
:1020A0005B4231E00023FB600B23FB1800221A7017
:1020B00017E0C046174B1800FFF7A4FF031EF9D026
:1020C0000B257C19134B1800FFF771FF03002370D9
:1020D000FB685A1CFA601A007B689B187A19127800
:1020E0001A703B68013BFA689A4204DA0B23FB182A
:1020F0001B780A2BDDD1FB68002B04DDFB687A68B6
:10210000D31800221A70FB681800BD4604B0B0BD99
:10211000D40100203C01002080B500AF034B180023
:10212000FFF770FF03001800BD4680BD3C01002092
:1021300090B583B000AFFC1DFFF79BFF0300237039
:10214000FB1D1B781800FFF785FFFB1D1B7818008F
:10215000BD4603B090BDB0B584B000AF78603960C3
:10216000214B1B68002B02D101235B4237E0002387
:10217000FB600B23FB1800221A701DE0C0461B4BAE
:102180001800FFF73FFF031EF9D00B257C19174BF2
:102190001800FFF70CFF030023702C003B191B787D
:1021A0001800FFF757FFFB685A1CFA601A007B689B
:1021B0009B183A1912781A703B68013BFA689A42E8
:1021C00004DA0B23FB181B780D2BD7D1FB68002BEF
:1021D00004DDFB687A68D31800221A70FB681800C7
:1021E000BD4604B0B0BDC046D40100203C01002073
:1021F00003460B437FD4002243088B4274D3030968
:102200008B425FD3030A8B4244D3030B8B4228D308
:10221000030C8B420DD3FF22090212BA030C8B422E
:1022200002D31212090265D0030B8B4219D300E0CE
:10223000090AC30B8B4201D3CB03C01A5241830B53
:102240008B4201D38B03C01A5241430B8B4201D303
:102250004B03C01A5241030B8B4201D30B03C01A2C
:102260005241C30A8B4201D3CB02C01A5241830AA6
:102270008B4201D38B02C01A5241430A8B4201D3D5
:102280004B02C01A5241030A8B4201D30B02C01AFF
:102290005241CDD2C3098B4201D3CB01C01A524166
:1022A00083098B4201D38B01C01A524143098B42EF
:1022B00001D34B01C01A524103098B4201D30B01D8
:1022C000C01A5241C3088B4201D3CB00C01A5241FD
:1022D00083088B4201D38B00C01A524143088B42C2
:1022E00001D34B00C01A5241411A00D2014652415B
:1022F000104670475DE0CA0F00D04942031000D37A
:102300004042534000229C4603098B422DD3030ACE
:102310008B4212D3FC22890112BA030A8B420CD3DE
:10232000890192118B4208D3890192118B4204D307
:1023300089013AD0921100E08909C3098B4201D387
:10234000CB01C01A524183098B4201D38B01C01AC1
:10235000524143098B4201D34B01C01A5241030938
:102360008B4201D30B01C01A5241C3088B4201D3E7
:10237000CB00C01A524183088B4201D38B00C01A94
:102380005241D9D243088B4201D34B00C01A52416B
:10239000411A00D20146634652415B10104601D3F8
:1023A0004042002B00D54942704763465B1000D382
:1023B000404201B5002000F005F802BD0029F8D028
:1023C00016E770477047C046D0B5040001260B00E1
:1023D0002200144F76420800B6185F418021C903DD
:1023E0008F4216D210498F4211D001F01DFB0022FE
:1023F0000E4B01F0ADF806000F00200001F044FB89
:1024000032003B0000F072FA01F064FBD0BDB11C59
:10241000EBD95205E9D08023E40AE4021B011C43F6
:10242000E3E7C046FFFF1F00FFFF3F000000F04151
:10243000F0B54F464646D6464502C0B547000C1C8F
:102440006D0A3F0EC60F002F00D170E0FF2F00D1A4
:1024500075E0EB008025ED041D43002399469A4664
:102460007F3F6002430A984663001B0EE40F002B77
:102470004ED0FF2B46D04246D0008022D2040243E9
:10248000904600227F3B3100FF1A4B466140C9B2A3
:1024900013430F2B00D9B5E06E489B00C3589F46ED
:1024A000002398462600454692465346022B00D10B
:1024B00089E0032B00D19EE0012B18D03B007F3335
:1024C000002B69DD6A0704D00F222A40042A00D0BD
:1024D00004352A0103D5604B1D403B008033FE2BA1
:1024E00000DD70E0AD016D0AD8B202E00E00002000
:1024F0000025C0052843F6073043E0BCBA46B14684
:10250000A846F0BD4346002B3FD10222FF3F03E027
:102510004346002B2DD1012231004B466140C9B208
:1025200013430F2B34D84D489B00C3589F46002DB2
:1025300013D104239946033B00279A4691E7002DC7
:1025400005D108239946063BFF279A4689E70C23C5
:102550009946093BFF279A4683E7280001F0CCFB08
:102560007627431F9D4000237F4299469A463F1A93
:1025700077E7404601F0C0FB4246431F9A4076236E
:102580005B4290461B1A00227DE7FF2303227AE775
:102590000E00FF200025ACE70120C01A1B28A6DC96
:1025A0009E372A00BD40C2406B1E9D4115436B07FC
:1025B00004D00F232B40042B00D004356B0144D5ED
:1025C0000120002595E7FF20002592E780250026C1
:1025D000FF20ED038DE7002398468020C0030542CD
:1025E00009D04346034206D1454605436D02260005
:1025F000FF206D0A7DE78020C00305436D02FF20A8
:102600006D0A76E742466B015001834219D21B22C4
:102610000025013F01261C006D005B00002C01DB42
:10262000984201D81B1A3543013A002AF3D15A1EA9
:1026300093411D433B007F330E00002B00DD41E73B
:10264000AAE71A2201251B1AE4E7AD0100206D0A52
:102650004FE7C0463C5E0008FFFFFFF77C5E0008C6
:10266000F0B54F464646D64644024500C0B5640A1A
:102670000F1C2D0EC60F002D00D18DE0FF2D00D1B7
:1026800092E00023802099469A46E400C004044367
:102690007F3D7802430A98467B001B0EFF0F002BFC
:1026A00000D170E0FF2B00D186E04246D0008022AE
:1026B0007F3BED180023D204024390469C46310034
:1026C0004B467940681C0F2B1CD8764A9B00D35888
:1026D0009F4639004446E2465346022B0FD0032B57
:1026E00000D1D7E0012B37D100200024C0052043C2
:1026F000C9070843E0BCBA46B146A846F0BDFF2072
:102700000024F3E7260C2404220C44462404240C61
:10271000434627001B0C574374435A435E43121928
:102720003B0C9B189C4203D980225202944666447B
:102730003F041A043F0CD2199401671EBC411B0CC4
:10274000920E9B1914439B011C431B0100D49BE078
:10275000012362081C40144302007F32002A64DD1A
:10276000630704D00F232340042B00D0043423013B
:1027700003D502004C4B80321C40FE2ABFDCA40172
:10278000640AD0B2B2E74346002B3DD14A4601333A
:102790001A4391469C4692E7002C29D1042399467E
:1027A000033B00259A4674E7002C1BD10823994669
:1027B000063BFF259A466CE74346FF35002B0BD1BD
:1027C00002234A461A4391469C4678E75346310015
:1027D000022B00D083E792E703234A461A4391462F
:1027E0009C466CE70C239946093BFF259A4650E727
:1027F000200001F081FA7625431F9C4000236D42A2
:1028000099469A462D1A44E7404601F075FA424629
:10281000431F9A4000232D1A90469C46763D4EE772
:1028200080240021FF20E40360E701239B1A1B2B77
:1028300000DD59E722009E30DA4084401300621E1A
:1028400094411C43630704D00F232340042B00D082
:10285000043463011AD50120002447E78020C00317
:10286000044209D04346034206D14446044364026D
:102870003900FF20640A39E78020C0030443640262
:102880003100FF20640A31E7280065E7A401002039
:10289000640A2BE78020C00304436402FF20640A1B
:1028A00024E7C046BC5E0008FFFFFFF7410242007C
:1028B000C30F490A0020120E7E2A03DD9D2A02DD85
:1028C000094A98187047802000040143952A07DCC4
:1028D0009620821AD1404842002BF3D10800F1E73C
:1028E000963A9140F7E7C046FFFFFF7FF0B54F46AD
:1028F0004646D6460D000400C0B51F00110028034F
:10290000620F400A10437A00520DE3003C039146E7
:10291000640AFA0F4F0F6E0027439246B846760DB1
:10292000ED0FC900954200D199E04C46341BA446F6
:10293000002C00DC7CE04A46002A00D1B8E0C54A01
:10294000964200D11CE180223C0012041443A046B0
:102950006246382A00DD61E11F2A00DDCCE16446D1
:102960002022121B444694400F00A1466446914029
:10297000E7404C464A1E91413C434246214364464F
:10298000E240801A5C1AA3429B415F42C71B3B0294
:1029900000D4D0E07F027F0A002F00D1FFE0380092
:1029A00001F0AAF901000839202322005B1A8F40A8
:1029B000DA408C401743B14200DAFFE0891B4B1C20
:1029C0001F2B00DDA8E020223900D21A20009440FD
:1029D0009140D840621E9441DF40002601430C43E1
:1029E000630709D00F232340042B05D0231DA342E6
:1029F000A44164423F191C003B0200D49EE0954B69
:102A000001369E4200D1B7E0934AE40817407B07A5
:102A100071057F0223433F0B4A0D12053A43ED0730
:102A20002A4318001100E0BCBA46B146A846F0BDE2
:102A3000002C4BD04C46A41BA446002E00D023E112
:102A400004001C4300D1AFE16246541E012A00D1AC
:102A500015E2804DAC4500D1C8E1A4461BE14A46D1
:102A6000B21A9446002A00DCACE04A46002A43D061
:102A7000784A964200D1AFE180223C001204144310
:102A8000A0466246382A67DC1F2A00DC5FE1474621
:102A9000203AD7406246202A05D064464022121BC5
:102AA0004446944021434A1E91410C003C4357E068
:102AB0003A000A4300D105E12200013A012C00D17D
:102AC00082E1644CA4455BD0944641E7634C771C9B
:102AD000274200D0C4E004001C43002E00D069E16E
:102AE000002C00D1BFE144460C4300D0D0E14207A6
:102AF000DB081343C00829E03A000A4300D170E123
:102B000062466446013A012C00D1E0E0514CA445F4
:102B100000D161E19446B4E73A001F39CA40110080
:102B2000202B03D04022D31A9F403C43631E9C417C
:102B3000002700260C43630700D053E7B446E4089F
:102B40007B072343F808434A94451DD06246070398
:102B500052053F0B520D60E744460C43621E944100
:102B6000E4189C429B415F423F183B02E3D5394B3E
:102B700001369E4200D0B5E03200002700234CE72A
:102B80004207DB081343C0081A00024300D1E1E109
:102B900080273F0307433F032E4A3F0B3DE72000BA
:102BA00001F0AAF8010018311F2900DCFCE6083802
:102BB000844027000024B14200DBFFE6264A761A53
:102BC00017400DE7002A2FD04A46921B9446002E4C
:102BD00000D1ADE01F4A914500D10FE180221204DF
:102BE00010436246382A00DD0FE11F2A00DD80E134
:102BF000644620221E00121B674604009340944046
:102C0000FE405A1E9341F84034431C4380446418EC
:102C10008C42BF417F424E464744A6E742460A43A4
:102C200011004A1E9141ADE60C4C721C224200D0AC
:102C3000A1E002001A43002E00D0FAE0002A00D1E1
:102C400045E13A000A4300D046E14207DB0813435E
:102C5000C0087BE7FF070000FFFF7FFFFE070000C3
:102C600047465C1AC21BA342BF417F42B9461700C8
:102C70004A46BF1A3A0200D58DE023003B4300D0FC
:102C80008AE60020002561E7B44CA14500D1ADE003
:102C90008024240420436446382C3DDC62461F2CEB
:102CA00000DDB7E020251E002D1B0400AB40AC402A
:102CB000D640D04042465D1EAB413443121A904686
:102CC00023432CE04207DB081343C0083BE75C18B2
:102CD0009C429B4140445B42C71801263B0200D402
:102CE00029E702269E4A63081740012214401C432C
:102CF000FB071C437F0873E64446203AD4406246F3
:102D0000202A05D067464022D21B474697403943C8
:102D10004A1E9141214335E60343581E8341CC1A94
:102D2000A142BF4143467F4255464E46DF1B2EE639
:102D300002001A4300D1BDE062466446013A012C0C
:102D400000D1E5E0854CA44558D0944649E7644657
:102D50002022121B444694400F00A1466446914035
:102D6000E7404C464A1E91413C4342460C43614673
:102D7000CA408018F4E6794CA24200D1FDE6591809
:102D800099429B4140445F42C719FC07490816001D
:102D90000C437F08CFE6CC1AA142BF4143467F4295
:102DA000181A5546C71BF7E5C9087B0755460B435C
:102DB000F808C8E6002C00D081E043460B4315D14B
:102DC000802000250003E3E65C1AA3429B41C71B59
:102DD0005B420126FF1ADAE54207DB081343C0080D
:102DE000D2E64207DB081343C008ACE6434642463E
:102DF000C9085B0755460B43D008C5E64346424623
:102E00005B07C9080B43D008BEE603431C00631EE2
:102E10009C41FCE60200203CE24014006246202A6D
:102E200003D04025AD1AA8400343581E83412343D5
:102E300075E7002AE2D03A000A43CDD04207DB080A
:102E400013438022C0081203104206D0FC0814422B
:102E500003D12000CB087A0713435A0FDB00520737
:102E6000DB08134390E643460B4300D109E7434692
:102E70004246C9085B0755460B43D00866E6CC1AA4
:102E8000A14289413F1A4942554601267F1A7EE5F3
:102E900042465C1A871AA34292415242BF1A3A0232
:102EA0003DD5CC1AA1428941434649421F1A554695
:102EB0007F1A95E57B07C9080B43F80843E64446AB
:102EC000DB080C4330D142071343C0085CE67B07A4
:102ED000C9080B43F80839E65C189C429B41404402
:102EE0005B42C7183B0200D425E61D4B01261F405C
:102EF00021E60400203AD4406246202A04D0402231
:102F00006646921B904003435A1E93411C437EE643
:102F10005C188C428941404449424718DDE6230051
:102F20003B4300D1ADE606E6440723438024C008B6
:102F30002403204208D04246D608264204D15546F2
:102F40003000CB0851070B435A0FDB00DB08520758
:102F5000134319E60023014A1F005EE5FF07000046
:102F6000FFFF7FFFF0B557464E464546DE46E0B5CB
:102F7000814605000C03480092461F0085B0240BD3
:102F8000400DCE0F002800D156E1D44B984200D11D
:102F900072E16B0FE4001C4380231B04234398461B
:102FA000CF4BED009B4600239946834400933C039E
:102FB0007B005046240B5B0DFF0F002B00D11FE15F
:102FC000C64A934200D162E1C549420F8C46E400F3
:102FD00059461443802263441204CB1A14439B467F
:102FE000C200002033007B409A464B460F2B27D867
:102FF000BC499B00CB589F46B246009B022B16D083
:10300000032B00D18EE2012B00D0D9E00023002455
:10301000002552461B052343D207134328001900FD
:1030200005B0F0BCBB46B246A946A046F0BD0024A0
:103030000025AA4BEDE7BA46A04615000090DCE754
:10304000444500D2C7E100D1C2E101235B429C4666
:103050002E0040460025E3442302140E1C431B0CA3
:10306000994623041F0C120249460092019700F072
:103070003FFE02007A430B04310C804619438A421A
:1030800007D901235B429C460919E0448C4200D8D1
:1030900007E2881A494600F02BFE09048C463104E9
:1030A0006646019A090C4243030031438A4204D91F
:1030B0000919013B8C4200D8EDE1881A42461204FE
:1030C0001A4390464146009B0E041B0C1F000293BE
:1030D000009B360C1B04190C0B007343120C7E432F
:1030E000039151437A431F0CBC4676186644B142A3
:1030F00003D9802149028C466244310C8A1831047C
:103100001E04360C8E19904202D312D1B54210D251
:103110004346591E009B9C4665441F009D429B41AF
:103120005B421B19C018844200D2A0E100D19BE190
:103130008846AE1BB542AD41801A6D42401B8442A9
:1031400000D1D5E1494600F0D3FD019A0B0442437A
:10315000310C050019438A4200D96CE1881A4946AE
:1031600000F0C6FD019A360442430904360C030000
:103170000E43B24200D953E10398B61A02002D045F
:103180001D43029F2B041B0C5A437B439C46290C76
:103190004843130C844463447943984203D9802004
:1031A000400284466144180C12041B04120C41189E
:1031B0009B188E4200D2FFE000D1FAE001231D43AC
:1031C000494A5A44002A00DCAAE06B0700D03DE1DE
:1031D000ED084346DB0106D54246444B1A40904673
:1031E0008022D2005A44424B9A4200DD1FE74346F8
:1031F0005B071D43434652055C02240B530D08E751
:103200005246224300D17BE0002C00D1FAE020009E
:1032100000F072FD02000B3A1D2301009B1A52467A
:103220000839DA408C40144352468A40314B5844A6
:103230009B4683440020D5E64B462343984644D022
:10324000002C00D1CEE0200000F056FD010002006D
:103250000B391D235B1A49461000D94008388440B9
:103260000B004D462343984685402348831A9B46CE
:103270000023994600939AE64B46234398461DD176
:1032800008239946063B0025834600938FE6524665
:10329000224309D1022349461943184B89469C46CB
:1032A00000240220E3449DE603234A461A43134BBD
:1032B00091469C4652460320E34493E60C239946EC
:1032C000093BA0468346009371E6042399460023F8
:1032D0009B4601330025009369E6C046FF070000C6
:1032E00001FCFFFFFC5E0008FF030000FFFFFFFE84
:1032F000FE070000F30300000DFCFFFF01F8FFFFD5
:103300004946012319438946002401206AE6002327
:1033100080249A4600258A4B24037AE601256D42D3
:1033200001239B1A382B00DD70E61F2B00DCBFE069
:103330001F2149428A1A4146D1400A00202B04D05D
:103340004146804B5B4499400D436B1E9D410723D2
:103350002A431D0000241540134200D1D4E00F2160
:1033600000231140042900D1CBE0111D914292416C
:1033700052429B180A00190200D4C2E00123002423
:10338000002546E6802341461B03194208D01C4213
:1033900006D11C432403BA461500694B240B38E6BA
:1033A0008024434624031C432403B246644B240B6D
:1033B0002FE6002B00D103E7A619681EA64200D213
:1033C0008DE08E4200D2A3E000D1B3E00500F5E627
:1033D000AA4200D939E64346DE0758086B081E4367
:1033E000ED0739E6484600F087FC01000200153180
:1033F00020321C2900DC2CE74B460838834000258E
:10340000984632E700F078FC03001A0015322030AD
:103410001C2A00DC00E75446083B00229C4005E7DC
:103420003619013BB44200D9A6E6B24200D8A3E661
:10343000831E3619A0E60919013D8C4200D98DE69C
:103440008A4200D88AE6851E091987E60F232B4099
:10345000042B00D1BCE605235B42AB429B41043503
:103460005B42ED089844B4E6AF4200D960E6824280
:1034700004D800D05CE6AE4200D859E602235B4295
:103480009C46009BE0449C4665449D429B415B42B8
:103490001B19C0184DE68A4200D80EE6831E091992
:1034A0000BE68A4200D8F4E5831E98460919F0E538
:1034B0002549280059448D4042468A40691E8D4165
:1034C0004146D840D94002432A430B00510700D15E
:1034D00051E70F211140042900D046E74BE70500D2
:1034E0008E4200D06AE6009A934200D066E667E614
:1034F000164A5A44002A00DC10E7012300259844AC
:1035000067E65D075B021C0BD2080023154380E5CC
:103510000098023D42008242BF417F423C19361969
:103520000092DDE78024434624031C432403044B1C
:10353000240B6EE5009A9A42EAD30500D3E7C04611
:10354000FF0700003E0400001E040000FF0300000F
:10355000F0B557464E464546DE46E0B598460C0364
:103560004B000600924687B0240B5B0DCF0F002B5B
:1035700000D15CE1D94A934200D175E1420FE400E9
:103580001443802212041443D54AC5009446634470
:103590000093002399469B46434642461E03D20FA2
:1035A0005B0050469046360B5B0D00D120E1CB4AC4
:1035B000934200D162E1CA49420F8C4600996344AC
:1035C000F6008C46164380229C4412046346164340
:1035D000C200002000930099434601318C464946C1
:1035E0007B4001930F2926D8BE4B890059588F463E
:1035F000434601933400150083465B46022B16D0E8
:10360000032B00D103E2012B00D0CDE000220024E7
:103610000025019B12052243DB071A4328001100F5
:1036200007B0F0BCBB46B246A946A046F0BD002498
:103630000025AA4AEDE7280C2D042D0C2B00110CB7
:103640001204120C5343984613002F00434399462B
:103650004F434F44BB4647460B003F0CBA464343DB
:10366000DA440293D14504D980277F02B9464B44FE
:10367000029353461B0C9B4653461F0443461B04B0
:103680001B0C98463B0043440493330C3604360C21
:103690009846330043439946434643432F009A4696
:1036A000434677435D43380C4D444519A94503D93A
:1036B00080235B029946CA443F04280C3F0C2D042A
:1036C000ED19270C2404240C0300200050437A43F6
:1036D00091463A0053440593030C9A464A4361438A
:1036E00049445144AB44894503D980235B02994640
:1036F0004A4400040B0C000C0904091820009946E8
:10370000434670435C437E435F43030C9846A419D1
:1037100044444A440397A64204D980235B02984656
:10372000474403972304029E9A46059B5E449846AD
:10373000AE42AD4176188E4289410004000C5044DF
:1037400040446D424719B846934649428946C344AE
:10375000D94498428041A845AD419345924189455D
:1037600089416D4240422843240C524249420A4357
:10377000039B00198018C7184B46DC0D049B75028B
:103780001D436A1E95414B46F60D7F0235435A0292
:103790003C431543FB0100D41CE101216A080D40A4
:1037A0001543E207154364084F496144002900DCD2
:1037B000B0E06B0709D00F222A40042A05D02A1D49
:1037C000AA42AD416D4264191500E30104D5802180
:1037D000464AC90014406144454A914200DD26E74B
:1037E0006207ED08640249051543240B4A0D10E7F2
:1037F0005246324300D17FE0002E00D1DCE03000A1
:1038000000F07AFA02000B3A1D2301009B1A52467F
:103810000839DA408E40164352468A40009B3549AB
:10382000181A03008C46634400200093D3E6250059
:1038300005434AD0002C00D1B0E0200000F05CFA33
:10384000010002000B391D2310005B1A3100350006
:1038500008388440D94085400C432648831A009399
:10386000002399469B4697E60500254326D108226A
:1038700000930223002491469B468DE65246009B0E
:10388000324310D1154900268C46634449460093C3
:1038900002231943894602209DE65B460197022BCD
:1038A00000D0ADE6C3E60D4A0320944663444A4681
:1038B000009303231A43914652468CE60C22009350
:1038C0000323050091469B4666E6042399460023A0
:1038D0000093013300249B465EE6C046FF070000CC
:1038E00001FCFFFF3C5F0008FF030000FFFFFFFE3D
:1038F000FE0700000DFCFFFF4946012319438946DE
:103900000026012067E6002380240025434A019316
:1039100024037EE60120401A382800DD76E61F28C1
:103920005BDD1F2223005242511ACB401900202890
:1039300003D03B4A6244944025436A1E95412A00C5
:103940000A4307210D000024154011425BD00F21CE
:1039500000241140042953D0111D9142924152423A
:10396000A4180A0023024BD501220024002550E6AA
:1039700080231B031C4209D01E4207D133431C0382
:1039800043461500240B254A019342E68022120388
:1039900014432403214A240B01973AE600F0ACF9C2
:1039A00001000200153120321C2900DC4BE73400F5
:1039B00008380025844050E700F09EF903001A0003
:1039C000153220301C2A00DC1EE75646083B002238
:1039D0009E4023E7009B9C46E6E612492200614494
:1039E0002E008D408A40C640691E8D4132432A43D5
:1039F000C4405307B6D00F2111400429ACD1B1E720
:103A000065076402240BD2081543002201E68022D8
:103A1000120314432403014A240BFAE5FF070000B4
:103A20003E0400001E04000070B5002816D0C31725
:103A3000C5185D40C40F280000F05EF9114A121A43
:103A40000A2816DC03002E0015339E400B23181A9B
:103A5000C54052052D032D0B530D03E00024002318
:103A6000002500261B052B43E407234330001900E3
:103A700070BD0B38854052052D0300262D0B530DCC
:103A8000F0E7C0461E04000010B5041E10D000F080
:103A900033F90F4B1B1A0A2811DC0B222100121AD2
:103AA000D14015300A035B058440120B5B0D01E029
:103AB000002300221B0513432000190010BD220023
:103AC0000B3882405B0512030024120B5B0DF1E7FB
:103AD0001E04000002004B00F0B55B0D0C033D4ED0
:103AE000640A400F5F1CC90F0443D50037420AD057
:103AF00039481E18FE2E16DDFF200024C005204385
:103B0000C9070843F0BD002B06D12C4326D005225F
:103B10009201540AD8B2F1E72543EDD08020C003CA
:103B20000443FF20EAE7002E1BDD9201531E9A4159
:103B3000E4006D0F22432A43530748D00F2313405C
:103B4000042B00D004328023DB0413403FD0701CD0
:103B5000FE2ED1D09201540AC0B2CFE7002000243B
:103B6000CCE73200173222DB8020000420431E24E1
:103B7000A41B1F2C1DDD02225242961B0200F240A4
:103B80001600202C04D0154A9446634498400543FF
:103B90002A00531E9A41324300265307CED1802477
:103BA0001300E404012023402242D3D1B0E70023D4
:103BB000ADE70B4A94462A00E24014002A00634411
:103BC0009A409840551EAA4102432243E4E733003D
:103BD0009EE7C046FE07000080FCFFFFA2FCFFFF3F
:103BE00082FCFFFF002243088B4274D303098B42FF
:103BF0005FD3030A8B4244D3030B8B4228D3030CBD
:103C00008B420DD3FF22090212BA030C8B4202D35E
:103C10001212090265D0030B8B4219D300E0090A86
:103C2000C30B8B4201D3CB03C01A5241830B8B428F
:103C300001D38B03C01A5241430B8B4201D34B0378
:103C4000C01A5241030B8B4201D30B03C01A5241DD
:103C5000C30A8B4201D3CB02C01A5241830A8B4262
:103C600001D38B02C01A5241430A8B4201D34B024B
:103C7000C01A5241030A8B4201D30B02C01A5241AF
:103C8000CDD2C3098B4201D3CB01C01A5241830963
:103C90008B4201D38B01C01A524143098B4201D39D
:103CA0004B01C01A524103098B4201D30B01C01AC8
:103CB0005241C3088B4201D3CB00C01A5241830842
:103CC0008B4201D38B00C01A524143088B4201D36F
:103CD0004B00C01A5241411A00D2014652411046CF
:103CE0007047FFE701B50020FEF76CFB02BDC04640
:103CF0000029F7D076E770471C2101231B04984266
:103D000001D3000C10391B0A984201D3000A08396C
:103D10001B09984201D30009043902A2105C401823
:103D20007047C046040302020101010100000000C7
:103D3000000000000EB417B5041E04D08369002BE8
:103D400001D100F0C1FB06AB2000059AA1680193E8
:103D500001F03CF81EBC08BC03B018470FB40B4B75
:103D600013B51C68002C05D0A369002B02D12000DC
:103D700000F0AAFB05AB2000049AA168019301F0B2
:103D800025F816BC08BC04B01847C0460C0000203B
:103D900070B505000E00002804D08369002B01D106
:103DA00000F092FBAB69AC68002B02D1280000F058
:103DB0008BFB2D4B9C4222D16C68636EDB0705D4D4
:103DC000A3899B0502D4A06D00F076FCA3891B0794
:103DD00002D52369002B29D12100280000F074F9B5
:103DE000002823D001256D42636EDB0705D4A3892B
:103DF0009B0502D4A06D00F065FC280070BD1B4B34
:103E00009C4201D1AC68D8E7194B9C42D5D1EC68F3
:103E1000D3E70136A360002B04DAA2699A4216DCCC
:103E20000A2914D023685A1C22601970A3683178BB
:103E3000013B0029EDD1A360002B0FDA28002200FE
:103E40000A3100F0E1F80A25431CCDD1CAE722006F
:103E5000280000F0D9F8431CE8D1C3E70A252368FD
:103E60005A1C22601D70BFE7706000089060000857
:103E70005060000810B5034B01001868FFF788FF79
:103E800010BDC0460C000020114B70B51D68040029
:103E9000AB6B002B16D1182000F082FC021EA86329
:103EA00004D142210B4B0C4800F086F90B4B00214A
:103EB00003600B4B43600B4B83600B23838101201A
:103EC000106151610022AB6B1C615A6170BDC0462C
:103ED0000C0000207C5F0008935F00080E33CDAB20
:103EE00034126DE6ECDE0500164B10B51C68A36BB2
:103EF000002B16D1182000F053FC021EA06304D141
:103F00004E21114B114800F057F9114B002103606D
:103F1000104B4360104B83600B23838101201061A1
:103F20005161A46B0D4A206961690D4B01F08AFD56
:103F30000122002380185941206161614800400836
:103F400010BDC0460C0000207C5F0008935F000895
:103F50000E33CDAB34126DE6ECDE05002D7F954CB3
:103F60002DF451580CB400B59DB002910691094949
:103F70001EAB07910491084904CB059102A9019356
:103F800000F0EEFD0023029A13701DB008BC02B0D1
:103F90001847C046FFFFFF7F0802FFFF0EB400B5C1
:103FA0000B499CB01DAB0290069007910491094803
:103FB000094904CB0591006802A9019300F0D0FDE6
:103FC0000023029A13701CB008BC03B01847C04607
:103FD000FFFFFF7F0C0000200802FFFFC9B203783B
:103FE000002B04D08B4200D170470130F7E74B42E1
:103FF000594149420840F7E70023C25C0133002AD7
:10400000FBD1581E70470000F8B505000E001400E3
:10401000002804D08369002B01D100F055FA224B0F
:104020009C422ED16C68A369A360A3891B0732D57B
:104030002369002B2FD023682269F7B2981A63698D
:10404000F6B2834205DC2100280000F065F9002863
:1040500027D1A3680130013BA36023685A1C22606A
:104060001F706369834204D0A389DB0707D50A2E3A
:1040700005D12100280000F04FF9002811D13000AF
:10408000F8BD0A4B9C4201D1AC68CCE7084B9C427E
:10409000C9D1EC68C7E72100280000F015F8002816
:1040A000C9D001267642EAE77060000890600008F7
:1040B0005060000810B5034B0A0001001868FFF7B4
:1040C000A3FF10BD0C000020374B70B51D68060023
:1040D0000C00002D05D0AB69002B02D1280000F0A8
:1040E000F3F9324B9C420FD16C680C23E25E93B221
:1040F00011072DD4D90611D4092301203360373399
:104100001343A381404270BD294B9C4201D1AC684E
:10411000EBE7284B9C42E8D1EC68E6E75B0713D558
:10412000616B002908D023004433994202D030004B
:1041300000F052FB002363632422A3899343A381ED
:1041400000236360236923600823A2891343A381AA
:104150002369002B0BD1A0218022A3898900920022
:104160000B40934203D02100300000F0D5FA0C221E
:10417000A35E01201A0099B2024003420FD0002230
:10418000A26062695242A261002022698242BAD1D1
:104190000A06B8D540221343A3810138B3E7880744
:1041A00000D46269A260EFE70C0000207060000894
:1041B000906000085060000830B514001A00094BE8
:1041C00005001B6885B0D868074B002C01D1074B50
:1041D0001C00019300912B000549029400F01CFA89
:1041E00001F030F90C000020116000084C6000085C
:1041F0001E600008130010B50022FFF7DDFF00006D
:10420000F7B58B8905000C001A075FD44A68002AAD
:1042100004DC0A6C002A01DC0020FEBDE76A002FE6
:10422000FAD0002280212E682A601A0049010A4033
:104230000B4234D0606DA3895B0706D56368C01A52
:10424000636B002B01D0236CC01A0200216A00238B
:104250002800E76AB847A189431C06D12B681D2BAB
:1042600031D82C4ADA40D3072DD500236360236967
:104270002360CB0405D5431C02D12B68002B00D151
:104280006065616B2E600029C6D0230044339942DB
:1042900002D0280000F0A0FA00206063BDE70123EF
:1042A0002800216AB847431CC5D12B68002BC2D017
:1042B0001D2B01D0162B01D12E60ADE74023A28922
:1042C0001343A381A9E740230B43FAE70F69002FAB
:1042D000A2D00A680F60D21B019200229B0700D176
:1042E0004A69A260019B002B00DC95E73A00280098
:1042F000019B216AA66AB047002806DC4023012002
:10430000A28940421343A38187E7019B3F181B1AF0
:104310000193E7E7010040200B6970B505000C0030
:10432000002B02D10025280070BD002804D083692D
:10433000002B01D100F0C8F8144B9C421BD16C68D3
:104340000C22A35E002BEDD0626ED20704D49B0535
:1043500002D4A06D00F0B0F928002100FFF750FF53
:10436000636E0500DB07DED4A3899B05DBD4A06D5B
:1043700000F0A8F9D7E7064B9C4201D1AC68DFE713
:10438000044B9C42DCD1EC68DAE7C0467060000860
:104390009060000850600008010010B5002805D1A9
:1043A000054B0649186800F062F910BD044B186807
:1043B000FFF7B2FFF9E7C046B060000819430008F4
:1043C0000C000020002310B50400036043608360EC
:1043D000818143661900C2810361436183610822C0
:1043E0005C3000F0F1F9054B24626362044BA36278
:1043F000044BE362044B236310BDC04681530008A5
:10440000AD530008E55300081154000810B50249E7
:1044100000F02DF910BDC04619430008436E10B5D9
:10442000DB0705D483899B0502D4806D00F044F935
:10443000002010BD436E10B5DB0705D483899B05B2
:1044400002D4806D00F03EF9002010BD70B56825E3
:104450004A1E55430E002900743100F029FA041E4B
:1044600008D000212A00016046600C30A06068324C
:1044700000F0AAF9200070BD10B5024B1868FFF7D4
:10448000C5FF10BDB060000810B5024800F014F977
:1044900010BDC046EA01002010B5024800F012F934
:1044A00010BDC046EA01002010B5024800F004F932
:1044B00010BDC046EB01002010B5024800F002F923
:1044C00010BDC046EB01002013B50400FFF7ECFF60
:1044D000A369002B02D0FFF7EFFF13BDA364E364D1
:1044E0002365134B134A1B68A2620193A34201D1B7
:1044F0000123A361200000F01FF86060200000F09D
:104500001BF8A060200000F017F800220421E060F2
:104510006068FFF757FF01220921A068FFF752FFEB
:1045200002221221E068FFF74DFF0123A361D2E7C9
:10453000B06000080D440008F8B50700FFF7A4FFBD
:104540001F4B1E68B369002B02D13000FFF7BCFF80
:104550004836B4687368013B04D53368002B22D019
:104560003668F6E70C22A55E002D1AD12000154B07
:104570005830E360656600F09BF8FFF78DFF200080
:10458000082229002560A560656025616561A56137
:104590005C3000F019F96563A563A564E56420004B
:1045A000F8BD6834D7E704213800FFF74FFF041E39
:1045B0003060D5D1FFF770FF0C233B60EFE7C046BA
:1045C000B06000080100FFFF10B5FFF75DFF034B6F
:1045D0000349186800F030F810BDC0460C000020F8
:1045E0001D44000810B5044B0449186800F024F875
:1045F000FFF752FF10BDC0460C00002035440008F4
:104600000CB407B504AB04CB019300F0DFFB03B09F
:1046100008BC02B0184700000EB403B5010003AB9C
:10462000044804CB0068019300F0D0FB02B008BC42
:1046300003B018470C000020F7B5483004000026EE
:104640000191A5686768013F04D52468002CF8D162
:104650003000FEBDAB89012B07D90E22AB5E0133C2
:1046600003D02800019B984706436835EBE7F7B570
:10467000040006000027019148346368A568009390
:10468000009B013B009304D52468002CF5D1380031
:10469000FEBDAB89012B08D90E22AB5E013304D0DD
:1046A00029003000019B984707436835E8E77047C9
:1046B000704770477047704770470120704701206E
:1046C000704770477047000070B50E001D000E2344
:1046D000C95E140096B0002908DA0C22B35E0022ED
:1046E0002A601B0611D48023DB000FE06A4600F02D
:1046F000C3FE0028F1DBF02301991B021940054B92
:10470000C9184B4259412960EDE74023002023603E
:1047100016B070BD00E0FFFFF7B502268B890500DB
:104720000C00334206D0230047332360236101236A
:104730006361F7BD6A4601ABFFF7C6FF009907004A
:10474000280000F0B5F8002808D10C22A35E9A05D5
:10475000EFD4032293431E43A681E4E70F4BAB62E1
:104760008023A28920601343A381009B20616361A1
:10477000019B002B0DD028000E23E15E00F0F6FF18
:10478000002806D00322A38993431A000123134370
:10479000A381A0890743A781CBE7C0460D44000849
:1047A00010B5034B0100186800F082F810BDC04638
:1047B0000C00002010B5034B0100186800F00CF845
:1047C00010BDC0460C00002003008218934200D1A7
:1047D000704719700133F9E770B50500002910D052
:1047E0000C1F2368002B00DAE418280001F00CF8F5
:1047F0001D4A1368002B05D163601460280001F086
:104800000BF870BDA34208D9216860188342F3D128
:1048100018685B6841182160EEE71A005B68002B9E
:1048200001D0A342F9D911685018A0420BD12068D9
:104830000918501811608342E0D118685B6841186C
:1048400011605360DAE7A04202D90C232B60D5E750
:1048500021686018834203D118685B6841182160A1
:1048600063605460CAE7C046F001002070B50F4E87
:104870000D0031680400002902D100F06FFD3060A6
:104880002900200000F06AFD431C0AD00323C51C48
:104890009D43A84207D0291A200000F05FFD431C69
:1048A00001D101256D42280070BDC046F4010020F1
:1048B000F7B50322CB1C9343083306001F000C2BD3
:1048C00032D20C27B94231D8300000F09DFF324D72
:1048D0002B681C00002C2ED139003000FFF7C6FFDA
:1048E0000400431C1ED12C682500002D4AD12368EA
:1048F0002900E3183000019300F030FD019B834252
:1049000043D123680337FF1A03239F4308370C2F33
:1049100000D20C2739003000FFF7A8FF431C34D029
:104920002368DF19276013E0002BCBDA0C23002566
:1049300033602800FEBD2268D11B20D40B2917D973
:10494000E2192760A34211D12A60636811605360A5
:104950003000250000F060FF07220B35231D954332
:10496000EA1A9D42E5D05B1BA350E2E75A60ECE7F0
:104970006268A34201D12A60EAE75A60E8E72300AF
:104980006468A7E72C006D68AFE70C233000336044
:1049900000F042FFCDE7C046F0010020F0B58E6880
:1049A00085B007000C00039201939E423CD89023EF
:1049B0008A89DB001A4234D00969236860695B1A6E
:1049C000029303234343DD0FED18019B029801334B
:1049D0001B186D10AB4200D91D00530532D52900BC
:1049E0003800FFF765FF061E09D10C233B6040230A
:1049F0000120A28940421343A38105B0F0BD029A71
:104A0000216900F0E4FEA389144A1A40802313436D
:104A1000A381029B2661F61826606561019EED1A4E
:104A2000A560019B9E4200D9019E32000399206837
:104A300000F0D6FEA36800209B1BA36023689E198C
:104A40002660DAE72A00380000F0EEFE061EE0D10C
:104A500038002169FFF7C0FEC7E7C0467FFBFFFFB4
:104A6000F0B5936887B00C0017000290002B65D05A
:104A700013680393002305930193019B002B2DD012
:104A8000A6689E4249D89023A289DB001A4241D0F1
:104A90000320216923685B1A049363694343DD0F94
:104AA000ED18049B019801331B186D10AB4200D91F
:104AB0001D00530546D529000298FFF7F9FE061E92
:104AC00016D10C23029A012013604023A289404290
:104AD0001343A3810023BB607B6031E0039B1B6811
:104AE0000593039B5B680193039B08330393C4E71F
:104AF000049A216900F06BFEA389184A1A408023AA
:104B00001343A381049B2661F61826606561019E0C
:104B1000ED1AA560019B9E4200D9019E32000599C5
:104B2000206800F05DFEA368019A9B1BA3602368C8
:104B30009E19BB6826609B1ABB60CFD100207860AD
:104B400007B0F0BD2A00029800F06EFE061ED9D113
:104B500021690298FFF740FEB3E7C0467FFBFFFFE5
:104B6000F0B5A1B003901D008B890F0016001B0645
:104B700011D50B69002B0ED14021FFF799FE38604B
:104B80003861002805D10C23039A0138136021B045
:104B9000F0BD40237B61002308AC63612033637662
:104BA0001033A376079535002B78002B01D0252BE9
:104BB00047D1AB1B0593B5420CD0320039000398A6
:104BC000FFF7ECFE431C00D1AEE06269059B944602
:104BD000634463612B78002B00D1A5E00122002300
:104BE0005242626004A9543252186E1C2360E36082
:104BF000A3601370A36505223178544800F0DCFDF2
:104C0000751C00281FD12268D30604D5532304A99C
:104C10005B1820211970130704D5532304A95B18CE
:104C20002B21197033782A2B16D0350000210A2049
:104C3000E3682A786E1C303A092A4ED9002911D12E
:104C400017E00135B0E7414B2268C01A01238340C9
:104C500013432E002360CEE7079B191D1B680791A5
:104C6000002B01DB0B9304E05B42E3600223134360
:104C700023602B782E2B0AD16B782A2B35D1079BFA
:104C800002351A1D1B680792002B2BDB0993304E4F
:104C900003223000297800F08FFD002806D0402341
:104CA000801B834022680135134323602978062244
:104CB00028486E1C217600F07FFD00283CD0264B52
:104CC000002B25D10722079B073393430833079313
:104CD0006369049A9B18636165E7434335000121CA
:104CE0009B18A6E701235B42D0E700230A201A00A5
:104CF0000135636029786E1C3039092903D9002BEE
:104D0000C5D00992C3E74243350001235218F1E7A9
:104D100007AB00933A002100104B039800E000BF5E
:104D20000490049B0133D3D1BB890D985B0600D45A
:104D30002DE7012040422AE707AB00933A0021000B
:104D4000064B039800F0F8F9EAE7C046B4600008A3
:104D5000BA600008BE600008000000009D4900081D
:104D6000936810B5013B9360002B04DA9469A34269
:104D700007DB0A2905D01368581C10601970080059
:104D800010BDFFF741F90100F9E7F8B506000F0083
:104D90001400D518AC4201D1002007E021783A0078
:104DA0003000FFF7DDFF0134431CF3D1F8BD9368F9
:104DB00010B51400002B02D11800536010BD00F094
:104DC0006DFB0023A3606360F8E70000F0B5A1B0BD
:104DD00006000C001F000392002804D08369002BFA
:104DE00001D1FFF771FB8E4B9C421CD17468636E3E
:104DF000DB0705D4A3899B0502D4A06DFFF75CFCFB
:104E0000A3891B0702D52369002B1DD12100300087
:104E1000FFF75AF9002817D0636EDB070DD5012084
:104E2000404221B0F0BD7F4B9C4201D1B468DEE727
:104E30007D4B9C42DBD1F468D9E7A3899B05EED476
:104E4000A06DFFF73FFCEAE7002308AD6B6120335C
:104E50006B761033AB760797039F3B78002B01D01E
:104E6000252B4ED1039BFB1A0593039B9F420DD02C
:104E7000059B21003000039AFFF787FF431C00D1F8
:104E8000B5E06A69059B944663446B613B78002BEF
:104E900000D1ACE001227B1C0393002352426A60E4
:104EA00004A9543252182B60EB60AB601370AB65F1
:104EB000039B052219785D4800F07EFC039B5F1C74
:104EC000002820D12A68D30604D5532304A95B18EF
:104ED00020211970130704D5532304A95B182B2133
:104EE0001970039B1B782A2B16D00021EB68039FB7
:104EF0003A78781C303A8446092A4FD9002911D1D2
:104F000017E00137A9E7494B2A68C01A01238340FB
:104F100013432B600397CBE7079B191D1B68079171
:104F2000002B01DB0B9304E05B42EB600223134395
:104F30002B603B782E2B0AD17B782A2B37D1079B0D
:104F400002371A1D1B680792002B2DDB09930322E1
:104F50003978374800F030FC002807D0344B2A68F5
:104F6000C01A40238340134301372B6039787B1CE0
:104F7000062230480393297600F01EFC002845D015
:104F80002D4B002B27D10722079B07339343083370
:104F900007936B69049A9B186B615DE70A214B4389
:104FA00067469B180939A3E701235B42CEE700233C
:104FB0001A0001376B603978781C3039844609292A
:104FC00003D9002BC3D00992C1E70A235A4367468D
:104FD0005218093BEFE707AB00932200290030008D
:104FE000164B00E000BF0490049B0133D1D1636EE7
:104FF000DB0705D4A3899B0502D4A06DFFF762FBF4
:10500000A3895B0600D50AE70D980AE707AB009372
:10501000220029003000094B00F08EF8E3E7C0467B
:10502000706000089060000850600008B4600008DC
:10503000BA600008BE600008000000008B4D000848
:1050400010B513000A00010002480068FFF7BEFE19
:1050500010BDC0460C000020F7B5150001938A680A
:105060000B690C000090934200DA130022002B60C1
:1050700043321278002A01D001332B6023689B064B
:1050800002D52B6802332B602268062317001F40CD
:105090001A4227D0230043331B785A1E93412268BB
:1050A000920630D4220001990098089E4332B047FE
:1050B000431C25D0062320682A68E16800250340A8
:1050C000042B03D18D1AEB43DB171D40A368226923
:1050D000934201DD9B1AED180027BD4220D100202C
:1050E00010E00137E3682A689B1ABB42D2DD220038
:1050F000012301990098089E1932B047431CF0D152
:1051000001204042FEBD3020E118433108702100EB
:105110005A1C45310978A218433202331170C1E795
:105120002200012301990098089E1A32B047431CBF
:10513000E6D00137D1E70000F0B58BB006920A0047
:1051400043320793059004920A7E0C00109B782A44
:1051500007D8622A09D8002A00D1C1E0582A00D114
:105160008CE026004236327022E0100063381528A9
:10517000F7D800F05DFC16001F00F6FFF6FFF6FF03
:10518000F6FF1F00F6FFF6FFF6FFF6FFA800360059
:105190009A00F6FFF6FFB900F6FF3600F6FFF6FFBD
:1051A0009E0026001A684236111D1960136833707C
:1051B0000123A7E0086819680A1D05060BD50D68CC
:1051C0001A60002D03DA2D23049A6D421370614B8F
:1051D0000A2703931BE00D681A604106F1D52DB232
:1051E000EFE70D681968081D18602E0601D50D68D7
:1051F00003E06D06FBD50D68ADB2564B082703934F
:105200006F2A00D002372300002243331A706368EC
:10521000A360002B03DB0422216891432160002D51
:1052200002D1049E002B0CD0049E28003900FEF70A
:105230005FFD039B013E5B5C33702B0005009F42CA
:10524000F3D9082F09D12368DB0706D563682269E3
:10525000934202DC3023013E3370049B9B1B23618D
:10526000079B210000930598069B09AAFFF7F4FE0F
:10527000431C4CD1012040420BB0F0BD45310A70B7
:10528000344A03921A68216820CA1A60080616D5A3
:10529000CB0702D52023194321601027002DB2D15E
:1052A000202322689A432260ADE7202209680A433E
:1052B00022602200782145321170274AE1E7480632
:1052C000E6D5ADB2E4E71A680D68101D49691860AB
:1052D00013682E0601D5196002E06D06FBD5198012
:1052E0000023049E2361BBE71A68111D196016682C
:1052F00000213000626800F05FFA002801D0801BB6
:105300006060636823610023049A1370A8E723692F
:10531000320006990598079DA847431CAAD0236828
:105320009B0715D4099BE0689842A5DA1800A3E70B
:105330002200012306990598079E1932B047431CA5
:1053400098D00135E368099A9B1AAB42F0DCE9E793
:105350000025F7E7C5600008D6600008002370B597
:10536000064D040008002B60FCF7C6FB431C03D16C
:105370002B68002B00D0236070BDC046E0010020E8
:1053800070B50C000E25495F00F07EFA002803DBA3
:10539000636D1B18636570BDA389024A1340A38126
:1053A000F9E7C046FFEFFFFF00207047F8B51F0088
:1053B0008B8905000C001600DB0505D50E23C95EA0
:1053C0000022022300F0E4F9A389054A28001340D3
:1053D000A38132000E23E15E3B0000F01FF8F8BD10
:1053E000FFEFFFFF70B50C000E25495F00F0D0F90C
:1053F000A389421C03D1054A1340A38170BD8022BA
:1054000052011343A3816065F8E7C046FFEFFFFF39
:1054100010B50E23C95E00F01DF810BD70B5040074
:10542000080011001A000023054D2B60FCF7D2FB89
:10543000431C03D12B68002B00D0236070BDC046F5
:10544000E0010020062010B500F0AEFA0120FCF7C4
:105450009DFA0000002370B5064D040008002B6083
:10546000FCF799FA431C03D12B68002B00D0236072
:1054700070BDC046E0010020002370B5064D040059
:10548000080011002B60FCF7ADFA431C03D12B6818
:10549000002B00D0236070BDE0010020F0B59368C0
:1054A00087B00C0017000390002B02D1002007B03A
:1054B000F0BD8B891B0759D50B69002B56D03B6873
:1054C00002220293A38918001040134275D10122D1
:1054D00001211A400B4200D1ADE00600019004907A
:1054E000049B002B00D116E100280CD11A000A21E0
:1054F000300000F061F9049B01330193002802D0D1
:105500000130831B0193019B049A0593934200D9B8
:105510000592206822696369904200D804E1A2687C
:105520009D18059AAA4200DCFEE031002A0000F036
:1055300057F9236821005B1903982360FEF7ECFEFE
:10554000002873D1019B01205B1B019305D1210031
:105550000398FEF7E1FE002868D1049B76195B1BD7
:105560000493BB685D1BBD60BAD19FE7210003981F
:10557000FEF7AAFD0028A2D00120404297E7029B37
:105580001B680193029B5D6808330293002DF6D0DF
:10559000724A2B00954200D91300019A216A0398A0
:1055A000A66AB047002841DD019B2D1A1B18019304
:1055B000BB68181AB860E9D178E700231D00019391
:1055C000E4E7029B1B680493029B5B680193029BC8
:1055D00008330293019B002BF3D08023A2899B0008
:1055E0002068A5681A4264D0019B9D4238D8902358
:1055F000DB001A4234D02169431A03200593636902
:105600005843059BC60F3618019801331B187610B6
:10561000B34200D91E0053053CD531000398FFF773
:1056200047F9051E0AD10C23039A13604023A2896F
:105630001343A381A0E704920192CBE7059A216965
:1056400000F0C5F8A389464A1A4080231343A3817A
:10565000059B2561ED1825606661019DF61AA6601F
:10566000019EB54200D935002A000499206800F057
:10567000B7F8A3685B1BA36023685D192560049BD2
:105680009B190493019B9B1B0193BB689E1BBE60EF
:10569000A0D10BE73200039800F0C6F8051ED7D161
:1056A00021690398FFF798F88022A3899343A38187
:1056B000B9E72369834203D36669019B9E4217D9E8
:1056C000019B9D4200D91D002A00049900F088F832
:1056D000A36822685B1B52192E00A3602260002B76
:1056E000CDD121000398FEF717FE0028C7D09DE713
:1056F000019A1C4B10009A4200D91B483100FCF75C
:1057000077FD3300049A4343216A0398A56AA847AA
:10571000061EB4DC8AE7029B00201E685B680493C7
:10572000029B08330293DBE6059A934208DCA56AE4
:105730003200216A0398A847051E00DD02E775E7DD
:10574000059A310000F04CF8059AA36815009B1AE1
:10575000A36023689B182360F4E6C04600FCFF7F2B
:105760007FFBFFFFFEFFFF7FFFFFFF7F002370B582
:10577000064D040008002B60FCF7AAF9431C03D176
:105780002B68002B00D0236070BDC046E0010020D4
:1057900070B50400080011001A000023054D2B60AD
:1057A000FCF754F9431C03D12B68002B00D0236075
:1057B00070BDC046E0010020C9B28218904201D1FC
:1057C0000020704703788B42FBD00130F6E70023BE
:1057D00010B59A4200D110BDCC5CC4540133F8E737
:1057E00010B5884202D98B18984203D3002307E0F2
:1057F0008B5C8354013AFBD210BDCC5CC4540133A2
:105800009A42FAD1F8E7000010B50248FEF754FFBB
:1058100010BDC046E901002010B50248FEF752FF56
:1058200010BDC046E9010020F7B507000E001400C6
:10583000002905D11100FFF73BF805002800FEBD47
:10584000002A03D1FEF7C8FF2500F7E700F0E8F8CB
:105850000190844203D835004308A342EED32100CF
:105860003800FFF725F8051EE8D0019B22009C4276
:1058700000D91A0031002800FFF7A9FF31003800D5
:10588000FEF7AAFFDAE7000070B504000800110077
:105890001A000023054D2B60FCF760F9431C03D16F
:1058A0002B68002B00D0236070BDC046E0010020B3
:1058B00070B5446C0500002C0AD18021FEF7F8FF7A
:1058C0006864002806D00300803310C09842FCD1E1
:1058D000002070BD01204042FBE770B504000D00C0
:1058E00016001F2904D9162303600120404207E057
:1058F000436C002B05D0A900656C6D1828682E60DC
:1059000070BDFFF7D5FF0028F5D0EEE770B50400B5
:105910000D001F2904D9162303600120404270BDE9
:10592000436C002B04D08A009B181A68002A08D107
:10593000200000F071F82A000100200000F05AF861
:10594000EDE70020012AEAD0511C03D116230130D3
:105950002360E4E7002428001C6090472000DEE775
:1059600070B504000D001F2902D90120404270BD0E
:10597000436C002B12D0626CAB00D218136801206C
:10598000002BF4D00220591CF1D00130012BEED0B5
:1059900000242800146098472000E8E7FFF788FFFC
:1059A0000028E8D0E1E7000010B5034B01001868BB
:1059B000FFF7ACFF10BDC0460C00002010B5034B34
:1059C0000A0001001868FFF788FF10BD0C000020D6
:1059D00010B5024B1868FFF76BFF10BD0C000020DC
:1059E00010B5034B01001868FFF7BAFF10BDC046A1
:1059F0000C000020002370B5064D040008001100C3
:105A00002B60FCF703F8431C03D12B68002B00D05C
:105A1000236070BDE001002010B5FBF7F1FF10BD61
:105A20000B1F1B68181F002B01DA0B58C01870479A
:105A300003B47146490840004900095E49008E449C
:105A400003BC7047F0B5CE46474680B5070099467F
:105A50003B0C9C4613041B0C1D000E006146000409
:105A6000140C000C45434B4360436143C0182C0C9D
:105A700020188C46834203D980235B029846C44495
:105A8000494679437243030C63442D042D0CC91815
:105A9000000440198918C0BCB946B046F0BDC046E4
:105AA000436F6D6D616E643A2025730052657370AB
:105AB0006F6E73653A2025730000000041542B443B
:105AC000564944303030300D0A0000003031323356
:105AD00034353637383941424344454600000000EA
