:020000040800F2
:1000000000200020B9000008791500088D150008AF
:1000100000000000000000000000000000000000E0
:10002000000000000000000000000000791500083A
:100030000000000000000000791500087915000894
:100040007915000879150008791500087915000858
:100050007915000879150008791500087915000848
:1000600000000000791500087915000879150008CE
:100070007915000879150008000000003B01000810
:1000800000000000791500080000000000000000DA
:10009000791500080000000079150008791500089E
:1000A000791500087915000879150008A9100008CD
:1000B0009D1A00087915000801F0DAF901F09CF9A1
:1000C000E1235B02180000F047FF62B6C04600F073
:1000D00095FD024B180001F0AFF8FEE790360008DE
:1000E00080B500AF0A4B0B4A5A60094B00229A6058
:1000F000074B05221A60C046054B1A6880235B0235
:100100001340F9D0024B00221A60C046BD4680BDA4
:1001100010E000E0FF7C000080B582B000AF7860A6
:1001200001E0FFF7DDFF7B685A1E7A60002BF8D1F3
:10013000C046C046BD4602B080BD80B500AF80233A
:10014000DB051A698023DB0501218A431A61564BBE
:100150001B685A1C544B1A60544B1B685A1C534B57
:100160001A60534B1B78DBB21A004F4B1B689A4244
:1001700017DDA023DB055B690222134008D0A02312
:10018000DB055A69A023DB0502210A435A6110E00E
:10019000A023DB055A69A023DB0501210A435A612C
:1001A00007E0A023DB055A69A023DB0503218A436E
:1001B0005A61404B1B78DBB21A003B4B1B689A42DA
:1001C00017DDA023DB055B690822134008D0A023BC
:1001D000DB055A69A023DB0508210A435A6110E0B8
:1001E000A023DB055A69A023DB0504210A435A61D9
:1001F00007E0A023DB055A69A023DB050C218A4315
:100200005A61294B1B680133274A1360632B02DDB7
:10021000254B00221A60284B1B78DBB21A00224BB8
:100220001B689A4209DDA023DB055A69A023DB0580
:10023000802109010A435A6107E0A023DB055A69BE
:10024000A023DB051D490A405A611D4B1B78DBB218
:100250001A00154B1B689A4209DDA023DB055A6979
:10026000A023DB05802149010A435A6107E0A0234E
:10027000DB055A69A023DB0512490A405A610A4B83
:100280001A68FA23DB009A420BDD074B00221A6042
:10029000A023DB055A69A023DB05C02149010A43DD
:1002A0005A61C046BD4680BD680000206C00002039
:1002B000700000207100002000000020FFF7FFFF09
:1002C00001000020FFEFFFFF80B500AF7A4BDA6A34
:1002D000794B03210A43DA62784B1A68774B032182
:1002E0000A431A60754B1A68744B0C210A431A6052
:1002F00000F022FDA023DB051A68A023DB0570496E
:100300000A401A60A023DB05DA68A023DB05802100
:1003100049020A43DA60A023DB05DA68A023DB0583
:1003200068490A40DA60A023DB05DA68A023DB0510
:1003300002210A43DA60A023DB05DA68A023DB058B
:1003400004218A43DA605D4B1B68C02293431A0084
:100350005A4B40210A431A60584B5A68574B0821A0
:100360008A435A60A023DB051A68A023DB05FF211E
:100370008A431A60A023DB051A68A023DB055521F8
:100380000A431A60A023DB055A68A023DB050F216E
:100390008A435A60A023DB055A69A023DB050F219D
:1003A0008A435A61A023DB051B68474A1A40A023F1
:1003B000DB058021C9030A431A60A023DB055A68C4
:1003C000A023DB0541490A405A60A023DB051B68D6
:1003D0003F4A1A40A023DB05802149040A431A60E2
:1003E000A023DB055A68A023DB053A490A405A607E
:1003F000314B9A6B304B01210A439A638023DB0512
:100400004022FF32DA62344B1A68334B80210902F2
:100410000A431A608023DB051A688023DB0510215C
:100420000A431A608023DB051A688023DB058021DC
:100430000A431A608023DB05DA688023DB0501218B
:100440000A43DA608023DB051A688023DB0501217B
:100450000A431A6062B6C046A023DB051B681F4A28
:100460001A40A023DB058021C9040A431A60A02397
:10047000DB055A69A023DB05802189010A435A6103
:10048000A023DB051A68A023DB0514490A401A6083
:10049000A023DB05DA68A023DB058021C9040A4319
:1004A000DA60A023DB05DA68A023DB050C490A40EB
:1004B000DA60C046BD4680BD001002400004005016
:1004C000FFFFFCFFFFFFFDFFFFFF3FFFFFF7FFFF09
:1004D000FFFFFFFCFFEFFFFF00E100E0FFFFFFF386
:1004E000FFFFFFF790B58DB000AF78607A68184BCA
:1004F0001100180001F07EFDA023DB055A69A0233E
:10050000DB0514490A405A610A20FFF705FE7B68A3
:10051000180001F08BFB08243B192721180001F07B
:10052000BFFBA023DB055A69A023DB0580218901DD
:100530000A435A610A20FFF7EFFD3A19064B1100F2
:10054000180001F057FDC046BD460DB090BDC04635
:1005500088340008FFDFFFFF9434000880B500AF47
:10056000A023DB055A69A023DB0510490A405A6124
:100570000A20FFF7D1FD0E4B180001F057FB0A20AF
:10058000FFF7CAFDA023DB055A69A023DB05802104
:1005900089010A435A6101E001F075FB01F0C6FBD5
:1005A000031EF9DCC046C046BD4680BDFFDFFFFF2D
:1005B000A434000880B582B000AF7860A023DB05CA
:1005C0005A69A023DB050A218A435A61A023DB056F
:1005D0005A69A023DB0505210A435A617B68DAB218
:1005E000044B1A707B68DAB2034B1A70C046BD46E2
:1005F00002B080BD700000207100002080B582B084
:1006000000AF7860A023DB055A69A023DB05052134
:100610008A435A61A023DB055A69A023DB050A211E
:100620000A435A617B68DAB2044B1A707B68DAB20B
:10063000034B1A70C046BD4602B080BD700000205A
:100640007100002080B582B000AF7860A023DB0588
:100650005A69A023DB0505218A435A61A023DB05E3
:100660005A69A023DB050A210A435A617B68DAB282
:10067000044B1A70044B00221A70C046BD4602B0EB
:1006800080BDC046700000207100002080B582B09F
:1006900000AF7860A023DB055A69A023DB050521A4
:1006A0008A435A61A023DB055A69A023DB050A218E
:1006B0000A435A61054B00221A707B68DAB2044B78
:1006C0001A70C046BD4602B080BDC0467000002012
:1006D0007100002080B500AF044B00221A70044B5B
:1006E00000221A70C046BD4680BDC0467000002082
:1006F00071000020B0B588B000AFF8600020002184
:100700003861796172B6C04678497948486077495E
:100710007748886075490520086020E073490868BB
:1007200080214902014007D03869796901240025F8
:1007300000196941386179617969002907DC7969B3
:1007400000290CD139696B48814200D807E0674B1A
:1007500000221A6062B6C04600220023C1E0A02138
:10076000C9050869802149000140D7D15F490020AF
:1007700008605E495E4848605C495D4888605B4946
:1007800005200860002000213861796120E0574988
:10079000086880214902014007D03869796901243D
:1007A000002500196941386179617969002907DC00
:1007B000796900290CD139694E48814200D807E097
:1007C0004A4B00221A6062B6C0460022002388E02D
:1007D000A021C9050869802149000140D7D04349BB
:1007E00000200860414942484860404940488860CC
:1007F0003E49052008600020002138617961002110
:10080000F96153E03949086880214902014007D065
:1008100038697969012400250019694138617961D5
:100820007969002907DC796900290CD139693148D7
:10083000814200D807E02D4B00221A6062B6C04604
:10084000002200234DE0A021C9050869802149004C
:100850000140D7D120E025490868802149020140A4
:1008600007D0386979690124002500196941386188
:1008700079617969002907DC796900290CD1396926
:100880001C48814200D807E0184B00221A6062B66B
:10089000C0460022002324E0A021C9050869802168
:1008A00049000140D7D0F9690131F961F869F96867
:1008B0008842C8DB0D490020086062B6C04639692D
:1008C000090A786903060B4339690A0607498968EA
:1008D0000748411A39600021796038687968121830
:1008E0004B4110001900BD4608B0B0BD10E000E05B
:1008F000FFFFFF00A086010090B595B000AFF86043
:10090000B9607A603823FB18224A13CA13C31168EE
:10091000196012791A711423FB18202200219954AE
:100920001F23FB641BE0FB68B968180001F050FB53
:100930000B001900FB6C5A1EFA643822BA18515C7D
:100940001422BA18D154B968F86801F05BFA0300B0
:10095000FB607B68002B02D07B68013B7B60FB68FF
:10096000DA17D31ADB0FDAB27B68D917CB1ADB0F91
:10097000DBB21343DBB2002BD5D1FB6C0133142265
:10098000BA18D318180000F057FCC046BD4615B081
:1009900090BDC046B434000880B582B000AF0200FC
:1009A000FB1D1A70FB1D1B78002B06D0084B5A69E3
:1009B000074B08210A435A6105E0054B5A69044B6D
:1009C00008218A435A61C046BD4602B080BDC04678
:1009D0000004005080B500AF3E4B4B221A703E4BD6
:1009E0004B221A70FA235B001800FFF795FB09E011
:1009F000394B1B78DBB20133DAB2374B1A700A205D
:100A0000FFF78AFB344B1B78DBB29C2BF0D9FA231F
:100A10005B001800FFF780FB09E02E4B1B78DBB270
:100A20000133DAB22B4B1A700A20FFF775FB294B02
:100A30001B78DBB2EF2BF0D9FA235B001800FFF72D
:100A40006BFB0120FFF7A8FF09E0234B1B78DBB20B
:100A50000133DAB2204B1A700A20FFF75DFB1E4B00
:100A60001B78DBB2EF2BF0D9FA235B001800FFF7FD
:100A700053FB09E0174B1B78DBB2013BDAB2154B95
:100A80001A700A20FFF748FB124B1B78DBB24B2B86
:100A9000F0D8FA235B001800FFF73EFB09E00E4B8D
:100AA0001B78DBB2013BDAB20B4B1A700A20FFF75E
:100AB00033FB094B1B78DBB2642BF0D80020FFF727
:100AC0006BFFFA235B001800FFF726FBC046BD460C
:100AD00080BDC046000000200100002080B584B029
:100AE00000AFF860B9607A60FB681549180001F042
:100AF0006FFA0B001A007B68934209DBBB68104950
:100B0000180001F065FA0B001A007B6893420DDAB9
:100B10000C4B180000F090FB3220FFF74BFD322009
:100B2000FFF790FD3220FFF769FD04E0064B180047
:100B300000F082FBC046C046BD4604B080BDC04642
:100B400010270000C8340008DC34000880B582B0EB
:100B500000AF244B1B68002B09D06420FFF7CAFDAF
:100B600002000B00204B1A601E4B00221A6064200A
:100B7000FFF7C0FD02000B003A607B601B4B1800C2
:100B800000F05AFB3B6806220A211800FFF7B4FE6A
:100B9000174B180000F050FB134B1B681A003B6802
:100BA000D31ADA179B185340642B16DD114B18002B
:100BB00000F042FB6420FFF7FDFCFFF70BFF642011
:100BC000FFF798FD02000B00074B1A600A4B180054
:100BD00000F032FB6420FFF711FDC046BD4602B0B5
:100BE00080BDC0460400002074000020F4340008DA
:100BF000FC340008003500081435000880B59CB0AE
:100C000000AF0023FB660023BB6600237B666423E2
:100C10003B66FFF759FB96239B01180000F098FEF6
:100C2000FA235B001800FFF777FA324B180000F048
:100C300003FB314B180000F0FFFA304B180000F0B6
:100C4000FBFA2F4B180000F0F7FA2E4B180000F0BB
:100C5000F3FAFFF783FC2C4B1800FFF743FC2B4BF8
:100C60001800FFF73FFC2A4B1800FFF73BFC294B0D
:100C70001800FFF737FC284B1800FFF733FC274B11
:100C80001800FFF72FFC264B1800FFF72BFC254B15
:100C90001800FFF727FC244B1800FFF723FC002364
:100CA000FB6680235B00180000F096F80300FB65EC
:100CB000FB6D1E4A53431E49180001F0A3F80300C0
:100CC000BB6580239B00180000F086F80300FB65DD
:100CD000FB6D164A53431649180001F093F80300C0
:100CE0007B65FFF733FF134A796DBB6D1800FFF783
:100CF000F5FED6E7203500082C35000850350008F1
:100D0000A4350008D8350008203600082C36000825
:100D10003836000844360008503600085C360008B3
:100D2000683600087436000884360008E880000041
:100D3000FF0F0000B80B000080B500AF244B5A6BCA
:100D4000234B802189000A435A63224B1A69214BA5
:100D5000C02109060A431A611E4B1A681D4B012166
:100D60000A431A601B4B9A681A4B01210A439A6086
:100D7000184BDA6880231B02134005D1C046154B7F
:100D80001B6801221340FAD0124B9B6801221340CA
:100D900005D0104B9A680F4B02210A439A600D4B05
:100DA0009A680C4B802109060A439A60C046094B99
:100DB0001A6880231B011340F9D0064B1A68054BB3
:100DC000802109010A431A60C046BD4680BDC04665
:100DD000001002400024014080B582B000AF78606E
:100DE000164BDA68154B802109020A43DA60134B6F
:100DF0007A689A62114B5A69104B07210A435A616B
:100E00007A6880239B029A4206D10D4B1A680C4BDC
:100E10008021C9030A431A60084B9A68074B0421D2
:100E20000A439A60C046054B1B6804221340FAD05F
:100E3000024B1B6C1800BD4602B080BD002401406F
:100E40000827014090B585B000AF78603960184B35
:100E50001B68002B02D101235B4224E00023FB60CE
:100E60000AE0FB685A1CFA603A68D418114B180063
:100E700000F0ADF9030023707B68013B1A00FB68AA
:100E8000934205D20B4B180000F0CCF9031EE8D1B9
:100E9000FB68002B06D03A68FB68D31800221A7052
:100EA000FB6800E000231800BD4605B090BDC046B9
:100EB000140100207C00002080B584B000AF786071
:100EC0003960224B1B68002B02D101235B4238E0C2
:100ED0007B683F2B0BDCC0461D4B180000F0A2F9CD
:100EE00003004022D21A7B689A42F5D302E0022323
:100EF0005B4226E00023FB600BE03A68FB68D318F6
:100F00001A78134B1100180000F030F9FB68013318
:100F1000FB607B68FA689A42EFD30E4B1B6808228D
:100F200013400DD10B4B1A680A4B08210A431A6073
:100F3000074B180000F04BF903001A00054B9A62AA
:100F400000231800BD4604B080BDC0461401002037
:100F5000C80000200038014080B584B000AF786040
:100F600072B6C046454B00229A64444B9A6C434B80
:100F70005A64424B5A6C414B1A64414B00229A64AA
:100F80003F4B9A6C3E4B5A643D4B5A6C3C4B1A6437
:100F90003C4B01221A603C4B00221A603B4BDA6A40
:100FA0003A4B01210A43DA62394BFB607968F868F1
:100FB00000F028FF0300FB60A023DB059A68A02354
:100FC000DB058021C9020A439A60A023DB055A6829
:100FD000A023DB052F490A405A60A023DB051B68CC
:100FE0002D4A1A40A023DB05802109030A431A6019
:100FF000A023DB055A6AA023DB0540210A435A627D
:10100000A023DB051B68254A1A40A023DB058021AD
:1010100089030A431A60A023DB055A6AA023DB0573
:101020008021C9000A435A62184B5A6B174B802122
:10103000C9010A435A631A4B1A68194B6C210A43B7
:101040001A60174B00225A60154B00229A60144B0D
:10105000FA68DA60124B1A68114B01210A431A60D0
:10106000104B1A680F4B802109050A431A6062B6BB
:10107000C046C046BD4604B080BDC0467C000020CE
:10108000C8000020140100201801002000100240B8
:101090000048E801FFFDFFFFFFFFF3FFFFFFCFFF69
:1010A0000038014000E100E080B500AF084BDB698B
:1010B0008022134001D000F025F8054BDB69202287
:1010C000134001D000F006F8C046BD4680BDC046C2
:1010D0000038014080B500AF074B5B6ADAB2074BBE
:1010E0001100180000F042F8031E02D0044B012248
:1010F0001A60C046BD4680BD003801407C0000201B
:101100001801002080B500AF164B180000F08AF8D7
:10111000031E08D0134B180000F059F803001A0002
:10112000114B9A621BE0104B1A680F4B08218A433F
:101130001A600D4BDB694022134005D00A4B1A6A36
:10114000094B40210A431A62074BDB698022134096
:1011500005D0054B9A69044B10210A439A61C04699
:10116000BD4680BDC80000200038014080B582B077
:1011700000AF78600A00FB1C1A707B681A6C7B68F1
:101180005B6C9A4205D17B689B6C002B01D00123DC
:1011900019E072B6C0467B681B6C591C7A681164F2
:1011A0007A68F91C0978D1547B689B6C5A1C7B685F
:1011B0009A647B681B6C402B02D17B6800221A6406
:1011C00062B6C04600231800BD4602B080BD80B59F
:1011D00084B000AF78607B689B6C002B01D100234A
:1011E0001CE072B6C0467B685B6C591C7A6851641F
:1011F0000F22BA187968CB5C13707B685B6C402B4C
:1012000002D17B6800225A647B689B6C5A1E7B6803
:101210009A6462B6C0460F23FB181B781800BD46BF
:1012200004B080BD80B582B000AF78607B689B6CF5
:101230001800BD4602B080BD80B582B000AF7860B6
:101240000B4B1B68002B09D101235B420BE07B6831
:101250005A1C7A6019000120FFF72EFE7B681B786C
:10126000002BF4D100231800BD4602B080BDC0465B
:101270001401002080B582B000AF0200FB1D1A707F
:10128000FB1D19000120FFF717FEC046BD4602B046
:1012900080BD80B500AF044B1800FFF798FF030036
:1012A0001800BD4680BDC0467C000020B0B584B0AB
:1012B00000AF786039601E4B1B68002B02D1012300
:1012C0005B4231E00023FB600B23FB1800221A7005
:1012D00017E0C046174B1800FFF7A4FF031EF9D014
:1012E0000B257C19134B1800FFF771FF03002370C7
:1012F000FB685A1CFA601A007B689B187A191278EE
:101300001A703B68013BFA689A4204DA0B23FB1817
:101310001B780D2BDDD1FB68002B04DDFB687A68A0
:10132000D31800221A70FB681800BD4604B0B0BD87
:10133000140100207C00002090B583B000AFFC1D9C
:10134000FFF7A7FF03002370FB1D1B781800FFF7B2
:1013500091FFFB1D1B781800BD4603B090BDB0B5D2
:1013600084B000AF78603960214B1B68002B02D13C
:1013700001235B4237E00023FB600B23FB180022B4
:101380001A701DE0C0461B4B1800FFF74BFF031EF1
:10139000F9D00B257C19174B1800FFF718FF030035
:1013A00023702C003B191B781800FFF763FFFB68C4
:1013B0005A1CFA601A007B689B183A1912781A7046
:1013C0003B68013BFA689A4204DA0B23FB181B784E
:1013D0000D2BD7D1FB68002B04DDFB687A68D3188E
:1013E00000221A70FB681800BD4604B0B0BDC046AC
:1013F000140100207C00002080B582B000AF164BA5
:101400007B60164B3B6007E07A68131D7B603B688E
:10141000191D396012681A603A68114B9A42F3D369
:1014200004E03B681A1D3A6000221A603A680D4BCE
:101430009A42F6D30C4B3B6004E03B681A1D3A60BD
:101440001B6898473A68094B9A42F6D3C046C04693
:10145000BD4602B080BDC0464037000800000020F5
:10146000680000201C0300204037000840370008B7
:1014700080B500AF3B4B1A683A4B01210A431A6012
:10148000C046384B1B6804221340FAD0354B01226A
:10149000DA60C046334BDB680C221340042BF9D1D1
:1014A000314B1A68304B02210A431A602E4B1A68DE
:1014B0002D4B01210A431A602A4B9A6B294B80213C
:1014C00049050A439A63294B802212011A60C046DB
:1014D000264B5B6810221340FAD1224BDA68214B6D
:1014E00023490A40DA601F4BDA681E4B8821C90382
:1014F0000A43DA601B4A1B4BD268DA60194A194B5F
:10150000D268DA60174A174BD268DA60154B1A684E
:10151000144B18490A401A60124B1A68114B80216B
:1015200049040A431A60C0460E4B1A6880239B0484
:101530001340F9D00B4BDA680A4B03218A43DA6077
:10154000084BDA68074B03210A43DA60C046054BB3
:10155000DB680C2213400C2BF9D1C046C046BD46B7
:1015600080BDC046001002400020024000700040D4
:10157000FFFF02FFFFFFFFFE80B500AF024B180028
:10158000FFF75AFEFEE7C046B836000880B500AF48
:10159000024B1800FFF750FEFEE7C046E836000891
:1015A00080B582B000AF7860FEE780B582B000AF52
:1015B000786001235B421800BD4602B080BD80B553
:1015C00084B000AFF860B9607A60044B0C221A60F6
:1015D00001235B421800BD4604B080BDCC01002051
:1015E00080B500AF034B0B221A6001235B42180049
:1015F000BD4680BDCC01002080B582B000AF7860D0
:1016000039603B68802292015A6000231800BD4671
:1016100002B080BD80B500AF01231800BD4680BD7B
:1016200080B582B000AF78603960044B16221A6032
:1016300001235B421800BD4602B080BDCC010020F2
:1016400080B582B000AF78603960044B1F221A6009
:1016500001235B421800BD4602B080BDCC010020D2
:1016600080B584B000AFF860B9607A6000231800DC
:10167000BD4604B080BD80B582B000AF78603960EF
:101680003B68802292015A6000231800BD4602B0D8
:1016900080BD80B582B000AF786001235B42180046
:1016A000BD4602B080BD80B582B000AF7860044B0B
:1016B00002221A6001235B421800BD4602B080BDC1
:1016C000CC01002080B582B000AF7860044B0A22C4
:1016D0001A6001235B421800BD4602B080BDC046BF
:1016E000CC01002080B582B000AF78607B68022B0F
:1016F00001D8012303E0044B09221A6000231800DB
:10170000BD4602B080BDC046CC01002080B586B089
:1017100000AF7860124B7B61124B3B61124B1B6830
:10172000002B02D1104B7A691A600F4B1B68FB60CB
:101730000D4B1A687B68D3183A699A4205D20B4B55
:101740000C221A6001235B4206E0074B1A687B6893
:10175000D218054B1A60FB681800BD4606B080BD64
:101760001C0300200010002024010020CC010020D8
:1017700080B588B000AFF860B9607A600023BB61C3
:10178000FB68002B22D10023FB611AE0FFF781FDEB
:1017900003001A0017217B181A70BB685A1CBA6024
:1017A0007A181278D2B21A70BB690133BB617B1808
:1017B0001B78DBB20A2B01D1BB690EE0FB69013358
:1017C000FB61FA697B689A42E0DB05E0054B092280
:1017D0001A6001235B4200E0BB691800BD4608B0F7
:1017E00080BDC046CC01002080B586B000AFF86057
:1017F000B9607A60FB68013B012B11D800237B6143
:1018000009E0BB685A1CBA601B781800FFF732FD6C
:101810007B6901337B617A697B689A42F1DB05E081
:10182000054B09221A6001235B4200E07B68180027
:10183000BD4606B080BDC046CC01002090B585B045
:1018400000AF78603960184B1B68002B02D1012370
:101850005B4224E00023FB600AE0FB685A1CFA604C
:101860003A68D418114B180000F0ABF9030023704C
:101870007B68013B1A00FB68934205D20B4B1800B2
:1018800000F0CAF9031EE8D1FB68002B06D03A68C5
:10189000FB68D31800221A70FB6800E000231800D0
:1018A000BD4605B090BDC046C00100202801002003
:1018B00080B584B000AF78603960224B1B68002B84
:1018C00002D101235B4238E07B683F2B0BDCC04632
:1018D0001D4B180000F0A0F903004022D21A7B68CB
:1018E0009A42F5D302E002235B4226E00023FB602C
:1018F0000BE03A68FB68D3181A78134B11001800F4
:1019000000F02EF9FB680133FB607B68FA689A42AD
:10191000EFD30E4B1B68082213400DD10B4B1A68F6
:101920000A4B08210A431A60074B180000F049F9D6
:1019300003001A00054B9A6200231800BD4604B04C
:1019400080BDC046C001002074010020004400405A
:1019500080B584B000AF786072B6C046454B0022B7
:101960009A64444B9A6C434B5A64424B5A6C414BB9
:101970001A64414B00229A643F4B9A6C3E4B5A6466
:101980003D4B5A6C3C4B1A643C4B01221A603C4B59
:1019900000221A603B4BDA6A3A4B01210A43DA62B1
:1019A000394BFB607968F86800F02CFA0300FB60A3
:1019B000A023DB059A68A023DB05802149050A43A3
:1019C0009A60A023DB055A68A023DB052F490A4053
:1019D0005A60A023DB051B682D4A1A40A023DB05B3
:1019E000802189050A431A60A023DB055A6AA023D7
:1019F000DB058021C9040A435A62A023DB051B686A
:101A00009B009A08A023DB05802109060A431A607F
:101A1000A023DB055A6AA023DB058021C9050A4300
:101A20005A62184B9A6B174B802189020A439A63BA
:101A3000184B1A68174B6C210A431A60154B002289
:101A40005A60144B00229A60124BFA68DA60114B0C
:101A50001A68104B01210A431A600F4B1A680E4B8B
:101A6000802149050A431A6062B6C046C046BD4699
:101A700004B080BD2801002074010020C0010020B6
:101A8000C4010020001002400048E801FFBFFFFF32
:101A9000FFFFFFCF0044004000E100E080B500AF51
:101AA000084BDB698022134001D000F025F8054B7C
:101AB000DB692022134001D000F006F8C046BD4685
:101AC00080BDC0460044004080B500AF074B5B6A54
:101AD000DAB2074B1100180000F042F8031E02D0E2
:101AE000044B01221A60C046BD4680BD0044004040
:101AF00028010020C401002080B500AF164B18005B
:101B000000F08AF8031E08D0134B180000F059F8B3
:101B100003001A00114B9A621BE0104B1A680F4B1E
:101B200008218A431A600D4BDB694022134005D01F
:101B30000A4B1A6A094B40210A431A62074BDB69B8
:101B40008022134005D0054B9A69044B10210A43AB
:101B50009A61C046BD4680BD74010020004400402B
:101B600080B582B000AF78600A00FB1C1A707B68F9
:101B70001A6C7B685B6C9A4205D17B689B6C002B6E
:101B800001D0012319E072B6C0467B681B6C591C5A
:101B90007A6811647A68F91C0978D1547B689B6C67
:101BA0005A1C7B689A647B681B6C402B02D17B6853
:101BB00000221A6462B6C04600231800BD4602B077
:101BC00080BD80B584B000AF78607B689B6C002BD3
:101BD00001D100231CE072B6C0467B685B6C591CC7
:101BE0007A6851640F22BA187968CB5C13707B68ED
:101BF0005B6C402B02D17B6800225A647B689B6C33
:101C00005A1E7B689A6462B6C0460F23FB181B7885
:101C10001800BD4604B080BD80B582B000AF7860CA
:101C20007B689B6C1800BD4602B080BD80B582B059
:101C300000AF78600B4B1B68002B09D101235B427E
:101C40000BE07B685A1C7A6019000120FFF730FE18
:101C50007B681B78002BF4D100231800BD4602B02E
:101C600080BDC046C001002080B582B000AF020038
:101C7000FB1D1A70FB1D19000120FFF719FEC0465D
:101C8000BD4602B080BD80B500AF044B1800FFF721
:101C900098FF03001800BD4680BDC0462801002003
:101CA000B0B584B000AF786039601E4B1B68002B64
:101CB00002D101235B4231E00023FB600B23FB18C0
:101CC00000221A7017E0C046174B1800FFF7A4FF58
:101CD000031EF9D00B257C19134B1800FFF771FF79
:101CE00003002370FB685A1CFA601A007B689B187B
:101CF0007A1912781A703B68013BFA689A4204DA42
:101D00000B23FB181B780A2BDDD1FB68002B04DDAD
:101D1000FB687A68D31800221A70FB681800BD4669
:101D200004B0B0BDC00100202801002080B500AF84
:101D3000034B1800FFF770FF03001800BD4680BD7D
:101D40002801002090B583B000AFFC1DFFF79BFF7A
:101D500003002370FB1D1B781800FFF785FFFB1D98
:101D60001B781800BD4603B090BDB0B584B000AF7D
:101D700078603960214B1B68002B02D101235B4244
:101D800037E00023FB600B23FB1800221A701DE0D4
:101D9000C0461B4B1800FFF73FFF031EF9D00B2571
:101DA0007C19174B1800FFF70CFF030023702C0061
:101DB0003B191B781800FFF757FFFB685A1CFA60A5
:101DC0001A007B689B183A1912781A703B68013B1D
:101DD000FA689A4204DA0B23FB181B780D2BD7D133
:101DE000FB68002B04DDFB687A68D31800221A70A8
:101DF000FB681800BD4604B0B0BDC046C00100205D
:101E00002801002003460B437FD4002243088B4265
:101E100074D303098B425FD3030A8B4244D3030B71
:101E20008B4228D3030C8B420DD3FF22090212BA36
:101E3000030C8B4202D31212090265D0030B8B42B2
:101E400019D300E0090AC30B8B4201D3CB03C01A9C
:101E50005241830B8B4201D38B03C01A5241430B77
:101E60008B4201D34B03C01A5241030B8B4201D367
:101E70000B03C01A5241C30A8B4201D3CB02C01AD2
:101E80005241830A8B4201D38B02C01A5241430A4A
:101E90008B4201D34B02C01A5241030A8B4201D339
:101EA0000B02C01A5241CDD2C3098B4201D3CB01E0
:101EB000C01A524183098B4201D38B01C01A52418F
:101EC00043098B4201D34B01C01A524103098B4293
:101ED00001D30B01C01A5241C3088B4201D3CB007E
:101EE000C01A524183088B4201D38B00C01A524161
:101EF00043088B4201D34B00C01A5241411A00D211
:101F000001465241104670475DE0CA0F00D0494279
:101F1000031000D34042534000229C4603098B42E9
:101F20002DD3030A8B4212D3FC22890112BA030A71
:101F30008B420CD3890192118B4208D389019211F3
:101F40008B4204D389013AD0921100E08909C30978
:101F50008B4201D3CB01C01A524183098B4201D37A
:101F60008B01C01A524143098B4201D34B01C01A65
:101F7000524103098B4201D30B01C01A5241C308DD
:101F80008B4201D3CB00C01A524183088B4201D34C
:101F90008B00C01A5241D9D243088B4201D34B0067
:101FA000C01A5241411A00D20146634652415B10A9
:101FB000104601D34042002B00D54942704763468A
:101FC0005B1000D3404201B5002000F005F802BDCF
:101FD0000029F8D016E770477047C0460EB403B525
:101FE00003AB04CB8168019300F04CF802B008BC4D
:101FF00003B018470FB407B5054904AB086804CB14
:102000008168019300F03EF803B008BC04B01847A3
:102010000C000020936810B5013B9360002B04DA9C
:102020009469A34207DB0A2905D01368581C106085
:102030001970080010BD00F0C9FD0100F9E7F8B5FE
:1020400006000F001400D518AC4201D1002007E0B3
:1020500021783A003000FFF7DDFF0134431CF3D153
:10206000F8BD002310B5140092689A4205D02200F2
:1020700000F0E0FB00220300A26000221800626072
:1020800010BD0000F0B59FB00D0016001C000290BE
:10209000002804D0036A002B01D100F097FB6B6E7F
:1020A000DB0705D4AB899B0502D4A86D00F0A1FE27
:1020B000AB891B0702D52B69002B13D1290002988D
:1020C00000F0D0FD00280DD06B6EDB0703D501209A
:1020D00040421FB0F0BDAB899B05F8D4A86D00F05D
:1020E0008EFEF4E70023292102AA52180B93203315
:1020F0001370013102AA1033521813700594340082
:102100002378002B01D0252B48D1A71BB4420BD03C
:102110003B00320029000298FFF791FF013000D107
:10212000AEE00B9BDB190B932378002B00D1A7E0CB
:102130000122532100235242079202AA5218661C20
:1021400006930993089313701C93594F3178052215
:10215000380000F055FE741C069906AB00281FD10C
:10216000CA0604D55327202202A8C01902700A0704
:1021700004D553272B2202A8C019027032782A2ACC
:1021800015D0340000200A27DA682178661C30391F
:10219000092950D9002811D009920FE00134AFE786
:1021A0000123C01B83400B4326000693CDE7059A0D
:1021B000101D12680590002A37DBDA6022782E2A7B
:1021C0000CD162782A2A3BD1059A0234111D12687B
:1021D0000591002A01DA012252425A60354E03224B
:1021E0003000217800F00CFE06AF002806D0402316
:1021F000801B8340069A01341343069321780622FC
:102200002D48661C397600F0FBFD002847D02B4B8B
:10221000002B29D10722059B0733934308330593ED
:102220000B9B03995B180B9369E75242DA60022219
:102230000A430692C2E77A43340001205218A4E709
:1022400000220A205A601100130001342278661C13
:10225000303A092A03D9002BC0D00791BEE7414389
:10226000340001238918F1E705AA009239002A00F9
:10227000134B029800E000BF0390039B0133CFD1C2
:102280006B6EDB0705D4AB899B0502D4A86D00F00B
:10229000B6FDAB895B0600D519E70B9819E705AACF
:1022A000009239002A00064B029800F087F8E3E715
:1022B0000C3700081237000816370008000000002D
:1022C0003F20000810B5044C13000A0001002068EC
:1022D000FFF7D8FE10BDC0460C000020F7B5160071
:1022E00001938A680B690C000090934200DA130096
:1022F0002200336043321278002A01D00133336068
:1023000023689B0602D533680233336022680623B4
:1023100015001D401A4227D0230043331B785A1E54
:1023200093412268920630D4220001990098089DBA
:102330004332A847013025D00622236800251340E8
:10234000042B05D13368E568ED1AEB43DB171D401C
:10235000A3682269934201DD9B1AED180026B5425D
:1023600020D1002010E00135E36832689B1AAB42AF
:10237000D2DD2200012301990098089F1932B84745
:102380000130F0D101204042FEBD3020E118433140
:10239000087021005A1C45310978A21843320233D3
:1023A0001170C1E72200012301990098089F1A3299
:1023B000B8470130E6D00136D1E70000F0B58BB068
:1023C00006920A0043320793059003920A7E0C009E
:1023D000109B782A09D8622A0BD8002A00D1BAE0CB
:1023E0007A490491582A00D18EE0250042352A709E
:1023F00022E0100063381528F7D800F0B1FF16006E
:102400001F00F6FFF6FFF6FFF6FF1F00F6FFF6FFD0
:10241000F6FFF6FF9F0036007E00F6FFF6FFB000E5
:10242000F6FF3600F6FFF6FF820025001A684235F7
:10243000111D196013682B7001239EE0186809684C
:10244000021D0D060BD506681A60002E03DA2D2337
:10245000039A764213705D4B0A27049318E00668CE
:102460001A604906F1D536B2EFE70868196840C925
:10247000050602D4400600D5B6B21960534B0A27B0
:1024800004936F2A00D1023F2300002243331A70C5
:102490006368A360002B06DB04212268039D8A4346
:1024A000226033430CD0039D3000390000F0E8FF78
:1024B000049B013D5B5C2B70330006009F42F3D907
:1024C000082F09D12368DB0706D5626823699A4281
:1024D00002DC3023013D2B70039B5B1B2361079BB8
:1024E000210000930598069B09AAFFF7F7FE01302B
:1024F00048D1012040420BB0F0BD202209680A43B8
:102500002260782232490491210045310A7019680D
:10251000226840C9100602D4500600D5B6B2196030
:10252000D30702D5202313432360002E01D01027A8
:10253000AAE72022236893432360F8E71A680D680E
:10254000101D4969186013682E0601D5196002E054
:102550006D06FBD519800023039D2361BFE71A6830
:10256000111D1960156800212800626800F048FC00
:10257000002801D0401B6060636823610023039A38
:102580001370ACE72A00236906990598079DA847B0
:102590000130AED023689B0715D4099BE0689842B0
:1025A000A9DA1800A7E72200012306990598079EDB
:1025B0001932B04701309CD00135E368099A9B1A63
:1025C000AB42F0DCE9E70025F7E7C0461D3700081D
:1025D0002E370008002310B50400036043608360B9
:1025E00081814366C28103614361836119000822CE
:1025F0005C3000F0A3FB0B4B246263620A4BA362C6
:102600000A4BE3620A4B23630A4B9C4205D00A4BF8
:102610009C4202D0094B9C4203D12000583000F06C
:10262000E4FB10BD312B00085D2B0008952B000842
:10263000C12B0008D001002038020020A002002099
:1026400010B5034A0349044800F056FA10BDC046CD
:102650005C000020953100081000002041680B4B01
:1026600010B50400994201D000F094FDA168084B18
:10267000994202D0200000F08DFDE168054B99429F
:1026800002D0200000F086FD10BDC046D001002021
:1026900038020020A00200204B6E10B5DB0705D4E5
:1026A0008B899B0502D4886D00F0A3FB002010BD30
:1026B0004B6E10B5DB0705D48B899B0502D4886D62
:1026C00000F09DFB002010BD10B5094B094A042104
:1026D0001A6009480022FFF77DFF012209210748FF
:1026E000FFF778FF022212210548FFF773FF10BDA4
:1026F0000803002041260008D001002038020020F5
:10270000A002002010B5024800F073FB10BDC046C7
:102710001303002010B5024800F071FB10BDC04645
:1027200013030020F8B50700FFF7ECFF244B1B68EC
:10273000002B01D1FFF7C8FF224EB4687368013B3C
:102740000FD53568002D39D1D6213800490000F069
:10275000D7FB041E26D13060FFF7DCFF0C233B6063
:102760001CE00C22A55E002D1AD12000164B58301B
:10277000E360656600F039FBFFF7CCFF200008221C
:1027800029002560A560656025616561A5615C30F3
:1027900000F0D4FA6563A563A564E5642000F8BD84
:1027A0006834CCE70423D02205602900250043606B
:1027B0000C30A060520000F0C1FA34602E00BCE77B
:1027C000080300205C0000200100FFFF10B504009A
:1027D000FFF798FF236A002B02D0FFF79BFF10BD85
:1027E000044B2362044B1B68002BF6D1FFF76CFFF0
:1027F000F3E7C0465D2600080803002010B5FFF788
:1028000081FF0020024A034900F076F910BDC0465E
:102810005C0000209926000810B5044A04490020F5
:1028200000F06AF9FFF776FF10BDC0465C0000209B
:10283000B1260008F0B5936887B00C0002900492AE
:10284000002B02D1002007B0F0BD8B891B0758D5A3
:102850000B69002B55D0049B1B6801930C22A35ECF
:1028600002221E001640134271D1012201211A409A
:102870000B4200D19CE0300037000396002F00D1BE
:1028800012E100280AD13A000A21039800F0B8FAB0
:102890007E1C002802D0039B0130C61A0596BE425A
:1028A00000D90597206822696369904200D804E145
:1028B000A568059A5D19AA4200DCFEE003992A008A
:1028C00000F02AFA236821005B190298236000F0C7
:1028D00061FC002800D08EE00120761B06D121008B
:1028E000029800F057FC002800D084E0039B049A73
:1028F0005B190393049B7F1B9B685B1B9360BDD19B
:10290000A0E72100029800F0ADF90028A3D0012033
:10291000404298E7019B1E685D6808330193002DD3
:10292000F8D0724A2B00954200D913003200A76AF2
:10293000216A0298B84700285DDD049B049A9B68D1
:1029400036181B1A2D1A9360002BE8D17AE700265F
:102950003500E4E7019B1B680393019B5F68083324
:102960000193002FF6D00C22A35E802292002068F3
:10297000A668134267D00596BE421CD93E003D00B2
:102980000597059A0399206800F0C6F9A368059A8F
:102990009B1BA36023689B182360039B049A5B190D
:1029A0000393049B7F1B9B685B1B9360D9D149E712
:1029B00017000392D5E79022D200134241D021693B
:1029C000421A0320059262694243D50FAD18059A59
:1029D0006D10501CC0192A00A84201D90500020040
:1029E0005B0520D51100029800F08AFA061E07D177
:1029F0000C23029A13604023A2891343A38186E724
:102A0000059A216900F007FAA289394B1A40802300
:102A10001343A381059B26616561F618ED1A2660B4
:102A2000A5603E00ABE7029800F0FAFA061EF1D16D
:102A30002169029800F0F8F98022A3899343A381C9
:102A4000D6E73D009DE72369834202D36569BD4215
:102A500016D9BE4200D93E003200039900F05CF95D
:102A6000A36822689B1B92193500A3602260002B8B
:102A700093D12100029800F08DFB00288DD0BAE799
:102A8000802338001B069F4200D31A482900FFF715
:102A9000B9F92B00A66A4343039A216A0298B0470A
:102AA000051E00DD79E7A6E7019B00201B68039364
:102AB000019B5F6808330193E0E6059A934208DCC6
:102AC000A56A039A216A0298A847051E00DD03E75C
:102AD00091E7059A039900F01FF9059AA36815007C
:102AE0009B1AA36023689B182360F5E600FCFF7F18
:102AF0007FFBFFFFFFFFFF7FF7B51400002600906C
:102B00000191A5686768013F04D52468002CF8D1BD
:102B10003000FEBDAB89012B08D90E22AB5E01331C
:102B200004D029000098019B984706436835EAE7DE
:102B300070B50C000E25495F00F02EF9002803DB6C
:102B4000636D1B18636570BDA389024A1340A3819E
:102B5000F9E7C046FFEFFFFF00207047F8B51F0000
:102B60008B8905000C001600DB0505D50E23C95E18
:102B70000022022300F0FCF8A389054A2800134034
:102B8000A38132000E23E15E3B0000F019F9F8BD8D
:102B9000FFEFFFFF70B50C000E25495F00F0E8F86D
:102BA0000C22A35E421C03D1044A1340A38170BDD2
:102BB000802252011343A3816065F8E7FFEFFFFF16
:102BC00010B50E23C95E00F0C1F810BDF8B50600BF
:102BD0000D001400002804D0036A002B01D1FFF778
:102BE000F5FDA369A360A3891B0702D52369002B08
:102BF00009D12100300000F035F8002803D001256C
:102C00006D422800F8BD23692068EFB2C01A6369DD
:102C1000EDB2834205DC2100300000F0BBFA002851
:102C2000EDD1A3680130013BA36023685A1C2260E8
:102C30001F706369834204D0A389DB07E1D50A2DA5
:102C4000DFD12100300000F0A5FA0028D9D0D6E766
:102C500010B5034B0A0001001868FFF7B7FF10BD5D
:102C60000C0000202B4B70B5050018680C000028E4
:102C700004D0036A002B01D1FFF7A8FD0C22A35E4C
:102C80001A0722D4DA0607D409222A603732012033
:102C90001343A381404270BD5A0713D5616B0029CD
:102CA00008D023004433994202D0280000F0BCF839
:102CB000002363632422A389934300226260226974
:102CC0001BB2226008221343A3812269002A07D184
:102CD0009A0501D51B0603D52100280000F0C8FA8B
:102CE0000C23E25E012113000B400A420CD00023AA
:102CF000A36063695B42A361002023698342CAD158
:102D00001306C8D54023C2E7910700D46369A360C6
:102D1000F2E7C0460C00002010B5884202D98B189B
:102D2000984208D300239A4207D0CC5CC4540133A4
:102D3000F9E78B5C8354013AFBD210BD0300821883
:102D4000934200D1704719700133F9E7002370B541
:102D5000064D040008002B60FEF727FC431C03D13E
:102D60002B68002B00D0236070BDC046CC01002032
:102D700070B50400080011001A000023054D2B60F7
:102D8000FEF76EFC431C03D12B68002B00D02360A0
:102D900070BDC046CC01002070B5040008001100D1
:102DA0001A000023054D2B60FEF7E2FC431C03D103
:102DB0002B68002B00D0236070BDC046CC010020E2
:102DC00070B50400080011001A000023054D2B60A7
:102DD000FEF70AFD431C03D12B68002B00D02360B3
:102DE00070BDC046CC0100207047704770477047E7
:102DF0007047704701207047012070477047704747
:102E0000C9B28218904201D10020704703788B42EA
:102E1000FBD00130F6E7002310B59A4200D110BD77
:102E2000CC5CC4540133F8E770B505000C1E10D01B
:102E3000043C2368002B00DAE418280000F0E0F8D6
:102E40001D4A1368002B05D163601460280000F050
:102E5000DFF870BDA34208D9206821188B42F3D156
:102E600019685B6809182160EEE71A005B68002B9F
:102E700001D0A342F9D911685018A0420BD12068A3
:102E80000918501811608342E0D118685B68411836
:102E900011605360DAE7A04202D90C232B60D5E71A
:102EA000206821188B4203D119685B6809182160DA
:102EB00063605460CAE7C0461803002070B50F4E27
:102EC0000D0031680400002902D100F02FFA3060B3
:102ED0002900200000F02AFA431C03D101256D428D
:102EE000280070BD0323C51C9D43A842F8D0291AB1
:102EF000200000F01BFA0130F2D1EFE714030020AC
:102F0000F7B50322CB1C9343083305001F000C2B9D
:102F100034D20C27B94233D8280000F071F8374E6C
:102F200033681C00002C2FD139002800FFF7C6FFA2
:102F30000400431C5FD134680094009B002B4AD1ED
:102F4000002C52D023682800E3180099019300F068
:102F5000EDF9019B834248D123682800FF1A39000C
:102F6000FFF7ACFF013040D02368DB1923603368E2
:102F70005A68002A33D1009B336019E0002BC9DA6C
:102F80000C232B600020FEBD2168C91B20D40B2917
:102F90000AD9E2192760A34204D132606368116044
:102FA000536005E05A60F9E76268A3420ED13260CF
:102FB000280000F02DF8200007220B30231D90433D
:102FC000C21A9842DFD01B1AA350DCE75A60EFE721
:102FD00023006468A6E7009C63680093ADE71A00CD
:102FE0005B68A342FBD10023DAE70C2328002B60A7
:102FF00000F00EF8C6E70760DAE7C04618030020C5
:1030000010B50248FFF7F5FE10BDC04610030020C2
:1030100010B50248FFF7F3FE10BDC04610030020B4
:10302000F7B506000C001500002905D11100FFF7C7
:1030300067FF04002000FEBD002A03D1FFF7F4FE65
:103040002C00F7E700F084F90700854202D8430816
:10305000AB42EFD329003000FFF752FF0190002868
:1030600001D1019CE6E72A00BD4200D93A002100C7
:103070000198FFF7D0FE21003000FFF7D5FEF0E702
:10308000F7B50C228B5E05000C001A075AD44A686B
:10309000002A02DC0A6C002A4FDDE76A002F4CD0C0
:1030A000002280212E682A601A0049010A400B4242
:1030B00034D0626DA3895B0706D56368D21A636B4F
:1030C000002B01D0236CD21A00232800E76A216A62
:1030D000B8470C23E25E431C06D129681D292ED86F
:1030E0002B4BCB40DB072AD5002363602369236089
:1030F000D20405D5431C02D12B68002B00D160659A
:10310000616B2E60002918D023004433994202D00D
:103110002800FFF789FE002363630EE001232800E7
:10312000216AB8470200431CC4D12B68002BC1D0D0
:103130001D2B01D0162B1DD12E60002021E0402335
:1031400013431BE00E69002EF7D00F680E60BA1B08
:10315000019200229B0700D14A69A260019B002BCB
:10316000EBDDA36A32001F002800019B216AB847EB
:10317000002807DC4023A28913431BB20120A3814E
:103180004042FEBD019B36181B1A0193E6E7C0467C
:10319000010040200B6970B505000C00002B02D126
:1031A0000025280070BD002804D0036A002B01D13F
:1031B000FFF70CFB0C22A35E002BF1D0626ED2074E
:1031C00004D49B0502D4A06DFFF713FE2800210054
:1031D000FFF756FF636E0500DB07E2D4A3899B056A
:1031E000DFD4A06DFFF70BFEDBE70000010010B598
:1031F000002805D1054A06490648FFF77DFC10BDA9
:10320000054B1868FFF7C6FFF9E7C0465C000020D1
:1032100095310008100000200C000020F0B50E00D1
:103220001D000E23C95E140097B000290CDAB28984
:103230008023110019401A4214D18023DB000020A2
:103240002960236017B0F0BD6A4600F04BF80028F3
:10325000EDDBF02301991B021940044BC9184B42C6
:103260005941EAE700214023E9E7C04600E0FFFFBB
:10327000F7B502268B8905000C00334206D02300E7
:1032800047332360236101236361F7BD6A4601ABC5
:10329000FFF7C4FF009F28003900FFF731FE0C2222
:1032A000A35E002806D19A05EFD4032293431E4360
:1032B000A681E4E780221343A381019B2060206163
:1032C0006761002BE1D028000E23E15E00F01CF8BE
:1032D0000028DAD00323A2899A43023B1343A38137
:1032E000D3E70000002370B5064D0400080011006C
:1032F0002B60FEF781F9431C03D12B68002B00D013
:10330000236070BDCC010020002370B5064D040081
:1033100008002B60FEF7E6F9431C03D12B68002B55
:1033200000D0236070BDC046CC010020002370B5E2
:10333000064D040008002B60FEF7E8F9431C03D19A
:103340002B68002B00D0236070BDC046CC0100204C
:103350000B1F1B68181F002B01DA0B58C018704791
:1033600003B47146490840004900095E49008E4493
:1033700003BC7047002243088B4274D303098B427D
:103380005FD3030A8B4244D3030B8B4228D3030C35
:103390008B420DD3FF22090212BA030C8B4202D3D7
:1033A0001212090265D0030B8B4219D300E0090AFF
:1033B000C30B8B4201D3CB03C01A5241830B8B4208
:1033C00001D38B03C01A5241430B8B4201D34B03F1
:1033D000C01A5241030B8B4201D30B03C01A524156
:1033E000C30A8B4201D3CB02C01A5241830A8B42DB
:1033F00001D38B02C01A5241430A8B4201D34B02C4
:10340000C01A5241030A8B4201D30B02C01A524127
:10341000CDD2C3098B4201D3CB01C01A52418309DB
:103420008B4201D38B01C01A524143098B4201D315
:103430004B01C01A524103098B4201D30B01C01A40
:103440005241C3088B4201D3CB00C01A52418308BA
:103450008B4201D38B00C01A524143088B4201D3E7
:103460004B00C01A5241411A00D201465241104647
:103470007047FFE701B50020FEF7AEFD02BDC04674
:103480000029F7D076E77047436F6D6D616E643A3F
:1034900020257300526573706F6E73653A20257333
:1034A0000000000041542B44564944303030300D68
:1034B0000A00000030313233343536373839414272
:1034C0004344454600000000504552494D4554458F
:1034D0005220444554454354454421004E4F20500A
:1034E0004552494D45544552204445544543544561
:1034F00044210000636F756E743D00000D0A0000EA
:10350000636F696E206465746563746564210D0A78
:1035100000000000676F7420636F696E2100000077
:103520001B5B324A1B5B313B314800000D0A535490
:103530004D33324C303531206D756C746920492F14
:103540004F206578616D706C652E0D0A00000000DB
:103550004D656173757265732074686520766F6C54
:10356000746167652066726F6D2041444320636813
:10357000616E6E656C73203820616E64203920287E
:1035800070696E7320313420616E64203135206F94
:1035900066204C5146503332207061636B61676521
:1035A000290D0A004D65617375726573207065722F
:1035B000696F64206F6E20504138202870696E203A
:1035C0003138206F66204C51465033322070616391
:1035D0006B616765290D0A0047656E6572617465E8
:1035E0007320736572766F2050574D73206F6E2075
:1035F000504131312C2050413132202870696E7396
:103600002032312C203232206F66204C514650330C
:1036100032207061636B616765290D0A000000004C
:1036200041542B5645520D0A0000000041542B42D4
:103630004155440D0A00000041542B524649440DA7
:103640000A00000041542B445649440D0A00000072
:1036500041542B5246430D0A0000000041542B50A8
:103660004F57450D0A00000041542B434C53530D56
:103670000A00000041542B44564944464446440D38
:103680000A00000041542B5246433131330D0A00E9
:103690000D0A52657475726E65642066726F6D20D6
:1036A0006D61696E28292E202053797374656D2011
:1036B00073746F702E000000496E746572727570BD
:1036C0007420776974686F75742068616E646C65C6
:1036D000722028495352292E202053797374656D26
:1036E0002073746F702E000048617264204661750B
:1036F0006C7420696E746572727570742E2020531C
:10370000797374656D2073746F702E00232D302BC8
:103710002000686C4C0065666745464700303132D2
:103720003334353637383941424344454600303129
:103730003233343536373839616263646566000088
:10374000646400000100000020010020100000203F
:1037500000000000D001002038020020A00200205C
:103760000000000000000000000000000000000059
:103770000000000000000000000000000000000049
:103780000000000000000000000000000000000039
:103790000000000000000000000000000000000029
:0837A00003000000D00100202D
:04000005080000B936
:00000001FF
