:020000040800F2
:1000000000200020B9000008ED13000801140008CA
:1000100000000000000000000000000000000000E0
:10002000000000000000000000000000ED130008C8
:100030000000000000000000ED130008ED130008B0
:10004000ED130008ED130008ED130008ED13000890
:10005000ED130008ED130008ED130008ED13000880
:1000600000000000ED130008ED130008ED13000878
:10007000ED130008ED130008000000003B0100082C
:1000800000000000ED130008000000000000000068
:10009000ED13000800000000ED130008ED13000848
:1000A000ED130008ED130008ED1300081D0F000804
:1000B000ED130008ED13000801F014F901F0D6F873
:1000C000E1235B02180000F081FE62B6C04600F03A
:1000D000DBFB024B180000F0E9FFFEE7E02200081E
:1000E00080B500AF0A4B0B4A5A60094B00229A6058
:1000F000074B05221A60C046054B1A6880235B0235
:100100001340F9D0024B00221A60C046BD4680BDA4
:1001100010E000E0FF7C000080B582B000AF7860A6
:1001200001E0FFF7DDFF7B685A1E7A60002BF8D1F3
:10013000C046C046BD4602B080BD80B500AF80233A
:10014000DB051A698023DB0501218A431A61274BED
:100150001B685A1C254B1A60254B1B78DBB21A0012
:10016000224B1B689A4209DDA023DB055A69A023B4
:10017000DB05802109010A435A6107E0A023DB0562
:100180005A69A023DB051B490A405A611A4B1B78A8
:10019000DBB21A00154B1B689A4209DDA023DB0570
:1001A0005A69A023DB05802149010A435A6107E00F
:1001B000A023DB055A69A023DB0510490A405A61D8
:1001C0000A4B1A68FA23DB009A420BDD074B002228
:1001D0001A60A023DB055A69A023DB05C021490171
:1001E0000A435A61C046BD4680BDC0460800002093
:1001F00000000020FFF7FFFF01000020FFEFFFFFDE
:1002000080B500AF764BDA6A754B03210A43DA6298
:10021000744B1A68734B03210A431A60714B1A68B6
:10022000704B0C210A431A6000F0C0FCA023DB05D0
:100230001A68A023DB056C490A401A60A023DB057D
:10024000DA68A023DB05802149020A43DA60A02393
:10025000DB05DA68A023DB0564490A40DA60A023E5
:10026000DB051A68A023DB0561490A401A60A02358
:10027000DB05DA68A023DB05802149050A43DA6043
:10028000A023DB05DA68A023DB055A490A40DA60BF
:10029000544B1B68C02293431A00524B40210A431F
:1002A0001A60504B5A684F4B08218A435A604D4B95
:1002B0001B68514A1A404B4B802149000A431A607F
:1002C000484B5A68474B10218A435A60454B1B687C
:1002D0004A4A1A40434B8021C9000A431A60414BE5
:1002E0005A68404B20218A435A603E4B1B68444A5F
:1002F0001A403C4B802149010A431A60394B5A6825
:10030000384B40218A435A60364B1B683D4A1A409D
:10031000344B8021C9010A431A60324B5A68314B71
:1003200080218A435A60A023DB051B68364A1A40A5
:10033000A023DB058021C9030A431A60A023DB0543
:100340005A68A023DB0531490A405A60A023DB0527
:100350001B682F4A1A40A023DB05802149040A4369
:100360001A60A023DB055A68A023DB0529490A404F
:100370005A601B4B9A6B1A4B01210A439A638023E4
:10038000DB054022FF32DA62234B1A68224B8021C0
:1003900009020A431A608023DB051A688023DB0503
:1003A00010210A431A608023DB051A688023DB05CD
:1003B00080210A431A608023DB05DA688023DB058D
:1003C00001210A43DA608023DB051A688023DB05FC
:1003D00001210A431A6062B6C046C046BD4680BDD0
:1003E0000010024000040050FFFFFCFFFFFFFDFF74
:1003F000FFFFFFCFFFFFFFDFFFFCFFFFFFF3FFFF6C
:10040000FFCFFFFFFF3FFFFFFFFF3FFFFFF7FFFFB4
:10041000FFFFFFFCFFEFFFFF00E100E0B0B588B099
:1004200000AFF86000200021386179617349744899
:1004300048607249724888607049052008601EE073
:100440006E49086880214902014007D038697969FE
:100450000124002500196941386179617969002911
:1004600007DC796900290AD139696648814200D8D8
:1004700005E0624B00221A6000220023B9E0A021AF
:10048000C9050869802149000140D9D15B49002094
:1004900008605A495A48486058495948886057493D
:1004A0000520086000200021386179611EE0534971
:1004B000086880214902014007D038697969012420
:1004C000002500196941386179617969002907DCE3
:1004D000796900290AD139694A48814200D805E082
:1004E000464B00221A600022002382E0A021C905A9
:1004F0000869802149000140D9D0404900200860A6
:100500003E493F4848603D493D4888603B49052099
:10051000086000200021386179610021F9614FE015
:100520003649086880214902014007D03869796955
:100530000124002500196941386179617969002930
:1005400007DC796900290AD139692E48814200D82F
:1005500005E02A4B00221A600022002349E0A02176
:10056000C9050869802149000140D9D11EE023490D
:10057000086880214902014007D03869796901245F
:10058000002500196941386179617969002907DC22
:10059000796900290AD139691A48814200D805E0F1
:1005A000164B00221A600022002322E0A021C90578
:1005B0000869802149000140D9D0F9690131F96108
:1005C000F869F9688842CADB0C490020086039697B
:1005D000090A786903060B4339690A0607498968DD
:1005E0000748411A39600021796038687968121823
:1005F0004B4110001900BD4608B0B0BD10E000E04E
:10060000FFFFFF00A086010090B595B000AFF86035
:10061000B9607A603823FB18224A13CA13C31168E1
:10062000196012791A711423FB18202200219954A1
:100630001F23FB641BE0FB68B968180001F01EF97A
:100640000B001900FB6C5A1EFA643822BA18515C70
:100650001422BA18D154B968F86801F029F80300D7
:10066000FB607B68002B02D07B68013B7B60FB68F2
:10067000DA17D31ADB0FDAB27B68D917CB1ADB0F84
:10068000DBB21343DBB2002BD5D1FB6C0133142258
:10069000BA18D318180000F009FDC046BD4615B0C1
:1006A00090BDC0469020000880B582B000AF020027
:1006B000FB1D1A70FB1D1B78002B06D0084B5A69D6
:1006C000074B08210A435A6105E0054B5A69044B60
:1006D00008218A435A61C046BD4602B080BDC0466B
:1006E0000004005080B500AFC046BD4680BD80B557
:1006F00000AF3E4B4B221A703D4B4B221A70FA232F
:100700005B001800FFF708FD09E0394B1B78DBB2EE
:100710000133DAB2364B1A700A20FFF7FDFC344B76
:100720001B78DBB29C2BF0D9FA235B001800FFF793
:10073000F3FC09E02D4B1B78DBB20133DAB22B4B13
:100740001A700A20FFF7E8FC284B1B78DBB2EF2B6E
:10075000F0D9FA235B001800FFF7DEFC0120FFF759
:10076000A3FF09E0224B1B78DBB20133DAB2204B46
:100770001A700A20FFF7D0FC1D4B1B78DBB2EF2B61
:10078000F0D9FA235B001800FFF7C6FC09E0174B0D
:100790001B78DBB2013BDAB2144B1A700A20FFF768
:1007A000BBFC124B1B78DBB24B2BF0D8FA235B005F
:1007B0001800FFF7B1FC09E00D4B1B78DBB2013BE1
:1007C000DAB20B4B1A700A20FFF7A6FC084B1B7815
:1007D000DBB2642BF0D80020FFF766FFFA235B0042
:1007E0001800FFF799FCC046BD4680BD0000002000
:1007F0000100002080B584B000AFF860B9607A6075
:10080000FB68FA229100180001F038F80B001A007A
:10081000FA239B009A420BDCBB68FA229100180075
:1008200001F02CF80B001A00FA239B009A4204DD19
:10083000064B180000F03AFC04E0054B180000F0ED
:1008400035FCC046C046BD4604B080BDA4200008AB
:10085000B820000880B582B000AF786039607A684F
:100860003B689A4209DD074B180000F01FFC01208D
:10087000FFF71AFF0020FFF717FFC046BD4602B082
:1008800080BDC046D020000890B587B000AF1724C7
:100890003B1900221A70FFF7B3FCFA235B00180023
:1008A000FFF73AFCAA4B180000F000FCA94B180017
:1008B00000F0FCFBA84B180000F0F8FBA74B180059
:1008C00000F0F4FBA64B180000F0F0FBA54B18005D
:1008D00000F0ECFBA44B180000F0E8FB3B190022F1
:1008E0001A70A24B5A69A14B08218A435A619F4B47
:1008F0005A699E4B10218A435A619C4B5A699B4B03
:1009000020218A435A61994B5A69984B40218A4366
:100910005A61964B5A69954B80218A435A618023CC
:100920005B00180000F092F903003B613B69904ABC
:1009300053439049180000F0BBFE0300FB608E4B50
:10094000180000F0B3FB3B69042210211800FFF7E8
:100950005BFE8A4B180000F0A9FBFB688849180071
:1009600000F0A6FE030001220A211800FFF74CFE4A
:100970002E2000F0B9FBFB688149180000F07EFFD3
:100980000B0004220A211800FFF73EFE7D4B1800E1
:1009900000F08CFB80239B00180000F057F9030047
:1009A0003B613B69724A53437249180000F080FE74
:1009B0000300FB60744B180000F078FB3B690422D5
:1009C00010211800FFF720FE6C4B180000F06EFBA2
:1009D000FB686B49180000F06BFE030001220A213E
:1009E0001800FFF711FE2E2000F07EFBFB68644923
:1009F000180000F043FF0B0004220A211800FFF743
:100A000003FE604B180000F051FB604B180000F033
:100A10004DFBA023DB051A698023DB01134004D0C2
:100A20005B4B180000F042FB03E05A4B180000F04B
:100A30003DFB6420FFF7F2FC02000B001300BB60DB
:100A4000BB68002B29DDB86801F04AFA02000B00F0
:100A50000020514900F018FF02000B00100019009F
:100A600001F008FA03007B604C4B180000F01EFBFD
:100A70007B6807220A211800FFF7C6FD484B1800C3
:100A800000F014FBBB6806220A211800FFF7BCFD2A
:100A9000444B180000F00AFB03E0434B180000F041
:100AA00005FB1722BB181B78BA18591C1170042BB0
:100AB0001DD023DC032B13D020DC012B02D0022B12
:100AC00007D01BE0294B5A69284B10210A435A6171
:100AD00037E0264B5A69254B20210A435A6130E002
:100AE000224B5A69214B40210A435A6129E01F4B8E
:100AF0005A691E4B80210A435A6122E01723FB18D2
:100B000000221A70194B5A69184B08218A435A61FE
:100B1000164B5A69154B10218A435A61134B5A6977
:100B2000124B20218A435A61104B5A690F4B4021C6
:100B30008A435A610D4B5A690C4B80218A435A6192
:100B4000C046FA235B001800FFF7E6FAE7E6C04666
:100B5000E0200008EC2000081021000864210008B3
:100B600098210008E8210008302200080004005005
:100B7000E8800000FF0F00007422000880220008B7
:100B80001027000084220008882200089422000810
:100B90009C220008A022000884D7E741A422000874
:100BA000A8220008B4220008C022000880B500AFC7
:100BB000244B5A6B234B802189000A435A63224BF2
:100BC0001A69214BC02109060A431A611E4B1A6893
:100BD0001D4B01210A431A601B4B9A681A4B0121D5
:100BE0000A439A60184BDA6880231B02134005D130
:100BF000C046154B1B6801221340FAD0124B9B686C
:100C00000122134005D0104B9A680F4B02210A4372
:100C10009A600D4B9A680C4B802109060A439A6032
:100C2000C046094B1A6880231B011340F9D0064BBC
:100C30001A68054B802109010A431A60C046BD4667
:100C400080BDC046001002400024014080B582B043
:100C500000AF7860164BDA68154B802109020A4311
:100C6000DA60134B7A689A62114B5A69104B07216C
:100C70000A435A617A6880239B029A4206D10D4B3F
:100C80001A680C4B8021C9030A431A60084B9A6802
:100C9000074B04210A439A60C046054B1B68042297
:100CA0001340FAD0024B1B6C1800BD4602B080BD49
:100CB000002401400827014090B585B000AF78605E
:100CC0003960184B1B68002B02D101235B4224E0E2
:100CD0000023FB600AE0FB685A1CFA603A68D418EB
:100CE000114B180000F0ADF9030023707B68013B45
:100CF0001A00FB68934205D20B4B180000F0CCF9A8
:100D0000031EE8D1FB68002B06D03A68FB68D318B5
:100D100000221A70FB6800E000231800BD4605B0F1
:100D200090BDC046A40000200C00002080B584B017
:100D300000AF78603960224B1B68002B02D1012381
:100D40005B4238E07B683F2B0BDCC0461D4B180034
:100D500000F0A2F903004022D21A7B689A42F5D330
:100D600002E002235B4226E00023FB600BE03A68CE
:100D7000FB68D3181A78134B1100180000F030F9F3
:100D8000FB680133FB607B68FA689A42EFD30E4B35
:100D90001B68082213400DD10B4B1A680A4B08211F
:100DA0000A431A60074B180000F04BF903001A00C1
:100DB000054B9A6200231800BD4604B080BDC046B2
:100DC000A4000020580000200038014080B584B005
:100DD00000AF786072B6C046454B00229A64444B1F
:100DE0009A6C434B5A64424B5A6C414B1A64414BC8
:100DF00000229A643F4B9A6C3E4B5A643D4B5A6CAE
:100E00003C4B1A643C4B01221A603C4B00221A6096
:100E10003B4BDA6A3A4B01210A43DA62394BFB60F9
:100E20007968F86800F044FC0300FB60A023DB0550
:100E30009A68A023DB058021C9020A439A60A02397
:100E4000DB055A68A023DB052F490A405A60A0231E
:100E5000DB051B682D4A1A40A023DB05802109030E
:100E60000A431A60A023DB055A6AA023DB05402150
:100E70000A435A62A023DB051B68254A1A40A023B7
:100E8000DB05802189030A431A60A023DB055A6A27
:100E9000A023DB058021C9000A435A62184B5A6B14
:100EA000174B8021C9010A435A631A4B1A68194B20
:100EB0006C210A431A60174B00225A60154B00221E
:100EC0009A60144BFA68DA60124B1A68114B0121D0
:100ED0000A431A60104B1A680F4B802109050A4318
:100EE0001A6062B6C046C046BD4604B080BDC0466A
:100EF0000C00002058000020A4000020A8000020C2
:100F0000001002400048E801FFFDFFFFFFFFF3FF74
:100F1000FFFFCFFF0038014000E100E080B500AFE7
:100F2000084BDB698022134001D000F025F8054B07
:100F3000DB692022134001D000F006F8C046BD4610
:100F400080BDC0460038014080B500AF074B5B6AEA
:100F5000DAB2074B1100180000F042F8031E02D06D
:100F6000044B01221A60C046BD4680BD00380140D6
:100F70000C000020A800002080B500AF164B180020
:100F800000F08AF8031E08D0134B180000F059F83F
:100F900003001A00114B9A621BE0104B1A680F4BAA
:100FA00008218A431A600D4BDB694022134005D0AB
:100FB0000A4B1A6A094B40210A431A62074BDB6944
:100FC0008022134005D0054B9A69044B10210A4337
:100FD0009A61C046BD4680BD5800002000380140DF
:100FE00080B582B000AF78600A00FB1C1A707B6885
:100FF0001A6C7B685B6C9A4205D17B689B6C002BFA
:1010000001D0012319E072B6C0467B681B6C591CE5
:101010007A6811647A68F91C0978D1547B689B6CF2
:101020005A1C7B689A647B681B6C402B02D17B68DE
:1010300000221A6462B6C04600231800BD4602B002
:1010400080BD80B584B000AF78607B689B6C002B5E
:1010500001D100231CE072B6C0467B685B6C591C52
:101060007A6851640F22BA187968CB5C13707B6878
:101070005B6C402B02D17B6800225A647B689B6CBE
:101080005A1E7B689A6462B6C0460F23FB181B7811
:101090001800BD4604B080BD80B582B000AF786056
:1010A0007B689B6C1800BD4602B080BD80B582B0E5
:1010B00000AF78600B4B1B68002B09D101235B420A
:1010C0000BE07B685A1C7A6019000120FFF72EFEA6
:1010D0007B681B78002BF4D100231800BD4602B0BA
:1010E00080BDC046A400002080B582B000AF0200E1
:1010F000FB1D1A70FB1D19000120FFF717FEC046EB
:10110000BD4602B080BD80B500AF044B1800FFF7AC
:1011100098FF03001800BD4680BDC0460C000020AB
:10112000B0B584B000AF786039601E4B1B68002BEF
:1011300002D101235B4231E00023FB600B23FB184B
:1011400000221A7017E0C046174B1800FFF7A4FFE3
:10115000031EF9D00B257C19134B1800FFF771FF04
:1011600003002370FB685A1CFA601A007B689B1806
:101170007A1912781A703B68013BFA689A4204DACD
:101180000B23FB181B780D2BDDD1FB68002B04DD36
:10119000FB687A68D31800221A70FB681800BD46F5
:1011A00004B0B0BDA40000200C00002090B583B0B6
:1011B00000AFFC1DFFF7A7FF03002370FB1D1B788A
:1011C0001800FFF791FFFB1D1B781800BD4603B008
:1011D00090BDB0B584B000AF78603960214B1B681A
:1011E000002B02D101235B4237E00023FB600B237D
:1011F000FB1800221A701DE0C0461B4B1800FFF7B9
:101200004BFF031EF9D00B257C19174B1800FFF775
:1012100018FF030023702C003B191B781800FFF700
:1012200063FFFB685A1CFA601A007B689B183A1926
:1012300012781A703B68013BFA689A4204DA0B2371
:10124000FB181B780D2BD7D1FB68002B04DDFB6846
:101250007A68D31800221A70FB681800BD4604B0E3
:10126000B0BDC046A40000200C00002080B582B0B4
:1012700000AF164B7B60164B3B6007E07A68131D8E
:101280007B603B68191D396012681A603A68114B1F
:101290009A42F3D304E03B681A1D3A6000221A60B8
:1012A0003A680D4B9A42F6D30C4B3B6004E03B6826
:1012B0001A1D3A601B6898473A68094B9A42F6D360
:1012C000C046C046BD4602B080BDC0469C23000853
:1012D0000000002008000020BC0000209C23000823
:1012E0009C23000880B500AF3B4B1A683A4B0121A4
:1012F0000A431A60C046384B1B6804221340FAD0D8
:10130000354B0122DA60C046334BDB680C221340B8
:10131000042BF9D1314B1A68304B02210A431A6071
:101320002E4B1A682D4B01210A431A602A4B9A6BE7
:10133000294B802149050A439A63294B80221201D7
:101340001A60C046264B5B6810221340FAD1224B2C
:10135000DA68214B23490A40DA601F4BDA681E4BDA
:101360008821C9030A43DA601B4A1B4BD268DA6042
:10137000194A194BD268DA60174A174BD268DA60FB
:10138000154B1A68144B18490A401A60124B1A6818
:10139000114B802149040A431A60C0460E4B1A685B
:1013A00080239B041340F9D00B4BDA680A4B0321CE
:1013B0008A43DA60084BDA68074B03210A43DA6094
:1013C000C046054BDB680C2213400C2BF9D1C046FC
:1013D000C046BD4680BDC04600100240002002400D
:1013E00000700040FFFF02FFFFFFFFFE80B500AF6F
:1013F000024B1800FFF75AFEFEE7C046082300081C
:1014000080B500AF024B1800FFF750FEFEE7C04664
:101410003823000880B582B000AF7860FEE780B561
:1014200082B000AF786001235B421800BD4602B075
:1014300080BD80B584B000AFF860B9607A60044BBD
:101440000C221A6001235B421800BD4604B080BD27
:10145000B800002080B500AF034B0B221A600123B7
:101460005B421800BD4680BDB800002080B582B048
:1014700000AF786039603B68802292015A60002397
:101480001800BD4602B080BD80B500AF0123180032
:10149000BD4680BD80B582B000AF78603960044B36
:1014A00016221A6001235B421800BD4602B080BDBF
:1014B000B800002080B582B000AF78603960044B7E
:1014C0001F221A6001235B421800BD4602B080BD96
:1014D000B800002080B584B000AFF860B9607A60D1
:1014E00000231800BD4604B080BD80B582B000AFB7
:1014F000786039603B68802292015A6000231800AE
:10150000BD4602B080BD80B582B000AF78600123D7
:101510005B421800BD4602B080BD80B582B000AF0E
:101520007860044B02221A6001235B421800BD461A
:1015300002B080BDB800002080B582B000AF7860F6
:10154000044B0A221A6001235B421800BD4602B018
:1015500080BDC046B800002080B582B000AF786082
:101560007B68022B01D8012303E0044B09221A6097
:1015700000231800BD4602B080BDC046B800002060
:1015800080B586B000AF7860124B7B61124B3B6137
:10159000124B1B68002B02D1104B7A691A600F4B5B
:1015A0001B68FB600D4B1A687B68D3183A699A4236
:1015B00005D20B4B0C221A6001235B4206E0074B5D
:1015C0001A687B68D218054B1A60FB681800BD4684
:1015D00006B080BDBC00002000100020B400002038
:1015E000B800002080B588B000AFF860B9607A60BC
:1015F0000023BB61FB68002B22D10023FB611AE0B2
:10160000FFF781FD03001A0017217B181A70BB68D1
:101610005A1CBA607A181278D2B21A70BB690133B8
:10162000BB617B181B78DBB20A2B01D1BB690EE0D2
:10163000FB690133FB61FA697B689A42E0DB05E0F4
:10164000054B09221A6001235B4200E0BB691800C8
:10165000BD4608B080BDC046B800002080B586B049
:1016600000AFF860B9607A60FB68013B012B11D8CC
:1016700000237B6109E0BB685A1CBA601B78180024
:10168000FFF732FD7B6901337B617A697B689A429F
:10169000F1DB05E0054B09221A6001235B4200E003
:1016A0007B681800BD4606B080BDC046B80000206B
:1016B00003460B437FD4002243088B4274D30309B3
:1016C0008B425FD3030A8B4244D3030B8B4228D354
:1016D000030C8B420DD3FF22090212BA030C8B427A
:1016E00002D31212090265D0030B8B4219D300E01A
:1016F000090AC30B8B4201D3CB03C01A5241830B9F
:101700008B4201D38B03C01A5241430B8B4201D34E
:101710004B03C01A5241030B8B4201D30B03C01A77
:101720005241C30A8B4201D3CB02C01A5241830AF1
:101730008B4201D38B02C01A5241430A8B4201D320
:101740004B02C01A5241030A8B4201D30B02C01A4A
:101750005241CDD2C3098B4201D3CB01C01A5241B1
:1017600083098B4201D38B01C01A524143098B423A
:1017700001D34B01C01A524103098B4201D30B0123
:10178000C01A5241C3088B4201D3CB00C01A524148
:1017900083088B4201D38B00C01A524143088B420D
:1017A00001D34B00C01A5241411A00D201465241A6
:1017B000104670475DE0CA0F00D04942031000D3C5
:1017C0004042534000229C4603098B422DD3030A1A
:1017D0008B4212D3FC22890112BA030A8B420CD32A
:1017E000890192118B4208D3890192118B4204D353
:1017F00089013AD0921100E08909C3098B4201D3D3
:10180000CB01C01A524183098B4201D38B01C01A0C
:10181000524143098B4201D34B01C01A5241030983
:101820008B4201D30B01C01A5241C3088B4201D332
:10183000CB00C01A524183088B4201D38B00C01ADF
:101840005241D9D243088B4201D34B00C01A5241B6
:10185000411A00D20146634652415B10104601D343
:101860004042002B00D54942704763465B1000D3CD
:10187000404201B5002000F005F802BD0029F8D073
:1018800016E770477047C046F0B557464E46454686
:10189000DE46E0B5814605000C03480092461F0075
:1018A00085B0240B400DCE0F002800D156E1D44B5B
:1018B000984200D172E16B0FE4001C4380231B04AB
:1018C00023439846CF4BED009B4600239946834423
:1018D00000933C037B005046240B5B0DFF0F002B55
:1018E00000D11FE1C64A934200D162E1C549420FCF
:1018F0008C46E40059461443802263441204CB1AF8
:1019000014439B46C200002033007B409A464B465E
:101910000F2B27D8BC499B00CB589F46B246009B53
:10192000022B16D0032B00D18EE2012B00D0D9E080
:1019300000230024002552461B052343D2071343EE
:101940002800190005B0F0BCBB46B246A946A04627
:10195000F0BD00240025AA4BEDE7BA46A0461500CD
:101960000090DCE7444500D2C7E100D1C2E1012389
:101970005B429C462E0040460025E3442302140EA1
:101980001C431B0C994623041F0C1202494600926B
:10199000019700F05BFB02007A430B04310C804698
:1019A00019438A4207D901235B429C460919E04446
:1019B0008C4200D807E2881A494600F047FB090428
:1019C0008C4631046646019A090C424303003143B8
:1019D0008A4204D90919013B8C4200D8EDE1881AEA
:1019E000424612041A4390464146009B0E041B0CCB
:1019F0001F000293009B360C1B04190C0B00734351
:101A0000120C7E43039151437A431F0CBC46761857
:101A10006644B14203D9802149028C466244310CAC
:101A20008A1831041E04360C8E19904202D312D14A
:101A3000B54210D24346591E009B9C4665441F0088
:101A40009D429B415B421B19C018844200D2A0E119
:101A500000D19BE18846AE1BB542AD41801A6D4274
:101A6000401B844200D1D5E1494600F0EFFA019ACB
:101A70000B044243310C050019438A4200D96CE142
:101A8000881A494600F0E2FA019A360442430904F2
:101A9000360C03000E43B24200D953E10398B61A44
:101AA00002002D041D43029F2B041B0C5A437B4351
:101AB0009C46290C4843130C844463447943984260
:101AC00003D98020400284466144180C12041B0490
:101AD000120C41189B188E4200D2FFE000D1FAE0B0
:101AE00001231D43494A5A44002A00DCAAE06B073F
:101AF00000D03DE1ED084346DB0106D54246444BAC
:101B00001A4090468022D2005A44424B9A4200DD4D
:101B10001FE743465B071D43434652055C02240B07
:101B2000530D08E75246224300D17BE0002C00D140
:101B3000FAE0200000F08EFA02000B3A1D230100AB
:101B40009B1A52460839DA408C40144352468A4068
:101B5000314B58449B4683440020D5E64B462343F3
:101B6000984644D0002C00D1CEE0200000F072FA5C
:101B7000010002000B391D235B1A49461000D940B1
:101B8000083884400B004D4623439846854023483F
:101B9000831A9B460023994600939AE64B462343BB
:101BA00098461DD108239946063B0025834600939D
:101BB0008FE65246224309D1022349461943184B66
:101BC00089469C4600240220E3449DE603234A46BE
:101BD0001A43134B91469C4652460320E34493E636
:101BE0000C239946093BA0468346009371E60423E3
:101BF000994600239B4601330025009369E6C046C1
:101C0000FF07000001FCFFFF5C230008FF0300004A
:101C1000FFFFFFFEFE070000F30300000DFCFFFFC7
:101C200001F8FFFF4946012319438946002401209A
:101C30006AE6002380249A4600258A4B24037AE62C
:101C400001256D4201239B1A382B00DD70E61F2B06
:101C500000DCBFE01F2149428A1A4146D1400A00F8
:101C6000202B04D04146804B5B4499400D436B1EB2
:101C70009D4107232A431D0000241540134200D133
:101C8000D4E00F2100231140042900D1CBE0111D25
:101C90009142924152429B180A00190200D4C2E0BC
:101CA00001230024002546E6802341461B031942F8
:101CB00008D01C4206D11C432403BA461500694BC8
:101CC000240B38E68024434624031C432403B246F5
:101CD000644B240B2FE6002B00D103E7A619681EE6
:101CE000A64200D28DE08E4200D2A3E000D1B3E044
:101CF0000500F5E6AA4200D939E64346DE07580852
:101D00006B081E43ED0739E6484600F0A3F90100D1
:101D10000200153120321C2900DC2CE74B46083824
:101D200083400025984632E700F094F903001A003A
:101D3000153220301C2A00DC00E75446083B002204
:101D40009C4005E73619013BB44200D9A6E6B242F1
:101D500000D8A3E6831E3619A0E60919013D8C427E
:101D600000D98DE68A4200D88AE6851E091987E6E1
:101D70000F232B40042B00D1BCE605235B42AB4272
:101D80009B4104355B42ED089844B4E6AF4200D96C
:101D900060E6824204D800D05CE6AE4200D859E644
:101DA00002235B429C46009BE0449C4665449D4266
:101DB0009B415B421B19C0184DE68A4200D80EE6D3
:101DC000831E09190BE68A4200D8F4E5831E984663
:101DD0000919F0E52549280059448D4042468A40BA
:101DE000691E8D414146D840D94002432A430B0029
:101DF000510700D151E70F211140042900D046E7D7
:101E00004BE705008E4200D06AE6009A934200D06C
:101E100066E667E6164A5A44002A00DC10E701230A
:101E20000025984467E65D075B021C0BD20800237F
:101E3000154380E50098023D42008242BF417F4247
:101E40003C1936190092DDE78024434624031C43E5
:101E50002403044B240B6EE5009A9A42EAD3050052
:101E6000D3E7C046FF0700003E0400001E04000048
:101E7000FF0300000A0030B5134C530009030500AE
:101E8000090B00205B0DD20FA34204DD0F488342F3
:101E900002DD0F4BD01830BD8020400301430D48B8
:101EA000C01A1F2808DD0C48C31AD9400B0058423D
:101EB000002AF0D11800EEE7084CC540A446634460
:101EC00099400B002B43F2E7FE0300001D040000C5
:101ED000FFFFFF7F3304000013040000EDFBFFFF52
:101EE00070B5002816D0C317C5185D40C40F280070
:101EF00000F0B0F8114A121A0A2816DC03002E006E
:101F000015339E400B23181AC54052052D032D0B87
:101F1000530D03E000240023002500261B052B435E
:101F2000E40723433000190070BD0B38854052058B
:101F30002D0300262D0B530DF0E7C0461E040000B4
:101F4000002243088B4274D303098B425FD3030AF8
:101F50008B4244D3030B8B4228D3030C8B420DD30B
:101F6000FF22090212BA030C8B4202D31212090299
:101F700065D0030B8B4219D300E0090AC30B8B42D7
:101F800001D3CB03C01A5241830B8B4201D38B0385
:101F9000C01A5241430B8B4201D34B03C01A52412A
:101FA000030B8B4201D30B03C01A5241C30A8B426D
:101FB00001D3CB02C01A5241830A8B4201D38B0258
:101FC000C01A5241430A8B4201D34B02C01A5241FC
:101FD000030A8B4201D30B02C01A5241CDD2C3096E
:101FE0008B4201D3CB01C01A524183098B4201D3EA
:101FF0008B01C01A524143098B4201D34B01C01AD5
:10200000524103098B4201D30B01C01A5241C3084C
:102010008B4201D3CB00C01A524183088B4201D3BB
:102020008B00C01A524143088B4201D34B00C01AA7
:102030005241411A00D20146524110467047FFE713
:1020400001B50020FFF71EFC02BDC0460029F7D0F5
:1020500076E770471C2101231B04984201D3000C32
:1020600010391B0A984201D3000A08391B0998420B
:1020700001D30009043902A2105C40187047C04621
:102080000403020201010101000000000000000041
:10209000303132333435363738394142434445469E
:1020A00000000000504552494D45544552204445DA
:1020B00054454354454421004E4F20504552494D0C
:1020C000455445522044455445435445442100005D
:1020D000434F494E20444554454354454421000054
:1020E0001B5B324A1B5B313B314800000D0A5354E5
:1020F0004D33324C303531206D756C746920492F69
:102100004F206578616D706C652E0D0A000000002F
:102110004D656173757265732074686520766F6CA8
:10212000746167652066726F6D2041444320636867
:10213000616E6E656C73203820616E6420392028D2
:1021400070696E7320313420616E64203135206FE8
:1021500066204C5146503332207061636B61676575
:10216000290D0A004D656173757265732070657283
:10217000696F64206F6E20504138202870696E208E
:102180003138206F66204C514650333220706163E5
:102190006B616765290D0A00546F67676C65732072
:1021A0005042332C205042342C205042352C2050A9
:1021B00042362C20504237202870696E7320323608
:1021C0002C2032372C2032382C2032392C2033303E
:1021D000206F66204C5146503332207061636B6132
:1021E0006765290D0A00000047656E6572617465B8
:1021F0007320736572766F2050574D73206F6E2079
:10220000504131312C2050413132202870696E7399
:102210002032312C203232206F66204C5146503310
:1022200032207061636B616765290D0A0000000050
:1022300052656164732074686520707573682D62DF
:102240007574746F6E206F6E2070696E205041310E
:1022500034202870696E203234206F66204C51463D
:10226000503332207061636B616765290D0A0D0A76
:10227000000000004144435B385D3D3078000000C1
:102280002C200000562000004144435B395D3D3066
:1022900078000000504131343D0000003120000042
:1022A00030200000663D0000487A2C20636F756E78
:1022B000743D0000202020202020202020200D0020
:1022C0004E4F205349474E414C20202020202020B3
:1022D00020202020202020202020202020200D0031
:1022E0000D0A52657475726E65642066726F6D209A
:1022F0006D61696E28292E202053797374656D20D5
:1023000073746F702E000000496E74657272757080
:102310007420776974686F75742068616E646C6589
:10232000722028495352292E202053797374656DE9
:102330002073746F702E00004861726420466175CE
:102340006C7420696E746572727570742E202053DF
:10235000797374656D2073746F702E0064190008B2
:1023600052190008301900085A19000830190008DD
:10237000321C0008301900085A19000852190008C8
:1023800052190008321C00085A1900081C190008CC
:0C2390001C1900081C190008A81C0008FB
:08239C0064640000B0000020A1
:04000005080000B936
:00000001FF
