:020000040800F2
:1000000000200020B9000008D5140008E9140008F9
:1000100000000000000000000000000000000000E0
:10002000000000000000000000000000D5140008DF
:100030000000000000000000D5140008D5140008DE
:10004000D5140008D5140008D5140008D5140008EC
:10005000D5140008D5140008D5140008D5140008DC
:1000600000000000D5140008D5140008D5140008BD
:10007000D5140008D5140008000000000301000892
:1000800000000000D514000800000000000000007F
:10009000D514000800000000D5140008D51400088D
:1000A000D5140008D5140008D514000861170008FD
:1000B000ED0F0008D514000801F088F901F04AF9A5
:1000C000E1235B02180001F0A3FA62B6C04600F01B
:1000D00007FD024B180001F00BFCFEE7486D00081D
:1000E00080B582B000AF786001E001F065FF7B6809
:1000F0005A1E7A60002BF8D1C046C046BD4602B0F9
:1001000080BD80B500AF8023DB051A698023DB0545
:1001100001218A431A61274B1B685A1C254B1A6020
:10012000254B1B78DBB21A00224B1B689A4209DD73
:10013000A023DB055A69A023DB05802109010A43BE
:100140005A6107E0A023DB055A69A023DB051B49A0
:100150000A405A611A4B1B78DBB21A00154B1B6818
:100160009A4209DDA023DB055A69A023DB05802123
:1001700049010A435A6107E0A023DB055A69A0231D
:10018000DB0510490A405A610A4B1A68FA23DB0062
:100190009A420BDD074B00221A60A023DB055A6947
:1001A000A023DB05C02149010A435A61C046BD4670
:1001B00080BDC0466400002000000020FFF7FFFF64
:1001C00001000020FFEFFFFF80B500AF7A4BDA6A35
:1001D000794B03210A43DA62784B1A68774B032183
:1001E0000A431A60754B1A68744B0C210A431A6053
:1001F00001F0ACFDA023DB051A68A023DB057049E4
:100200000A401A60A023DB05DA68A023DB05802101
:1002100049020A43DA60A023DB05DA68A023DB0584
:1002200068490A40DA60A023DB05DA68A023DB0511
:1002300002210A43DA60A023DB05DA68A023DB058C
:1002400004218A43DA605D4B1B68C02293431A0085
:100250005A4B40210A431A60584B5A68574B0821A1
:100260008A435A60A023DB051A68A023DB05FF211F
:100270008A431A60A023DB051A68A023DB055521F9
:100280000A431A60A023DB055A68A023DB050F216F
:100290008A435A60A023DB055A69A023DB050F219E
:1002A0008A435A61A023DB051B68474A1A40A023F2
:1002B000DB058021C9030A431A60A023DB055A68C5
:1002C000A023DB0541490A405A60A023DB051B68D7
:1002D0003F4A1A40A023DB05802149040A431A60E3
:1002E000A023DB055A68A023DB053A490A405A607F
:1002F000314B9A6B304B01210A439A638023DB0513
:10030000354ADA62354B1A68344B802109020A43B8
:100310001A608023DB051A688023DB0510210A435D
:100320001A608023DB051A688023DB0580210A43DD
:100330001A608023DB05DA688023DB0501210A438C
:10034000DA608023DB051A688023DB0501210A437C
:100350001A6062B6C046A023DB051B68204A1A401B
:10036000A023DB058021C9040A431A60A023DB0512
:100370005A69A023DB05802189010A435A61A02321
:10038000DB051A68A023DB0515490A401A60A02383
:10039000DB05DA68A023DB058021C9040A43DA60A3
:1003A000A023DB05DA68A023DB050E490A40DA60EA
:1003B000C046BD4680BDC04600100240000400504B
:1003C000FFFFFCFFFFFFFDFFFFFF3FFFFFF7FFFF0A
:1003D000FFFFFFFCFFEFFFFF7F3E000000E100E0BA
:1003E000FFFFFFF3FFFFFFF790B58DB000AF786020
:1003F0007A68184B1100180004F0EEFDA023DB050D
:100400005A69A023DB0514490A405A610A20FFF704
:1004100067FE7B68180000F0B1FE08243B19272115
:10042000180000F0E5FEA023DB055A69A023DB05D8
:10043000802189010A435A610A20FFF751FE3A19C7
:10044000064B1100180004F0C7FDC046BD460DB0B4
:1004500090BDC046CC690008FFDFFFFFD8690008E7
:1004600080B500AFA023DB055A69A023DB05104946
:100470000A405A610A20FFF733FE0E4B180000F0C5
:100480007DFE0A20FFF72CFEA023DB055A69A0237E
:10049000DB05802189010A435A6101E000F09BFEDF
:1004A00000F0ECFE031EF9DCC046C046BD4680BD30
:1004B000FFDFFFFFE8690008B0B588B000AFF86063
:1004C000002000213861796173497448486072499D
:1004D000724888607049052008601EE06E4908680F
:1004E00080214902014007D038697969012400253B
:1004F00000196941386179617969002907DC7969F6
:1005000000290AD139696648814200D805E0624B6A
:1005100000221A6000220023B9E0A021C905086961
:10052000802149000140D9D15B49002008605A4927
:100530005A4848605849594888605749052008601A
:1005400000200021386179611EE05349086880214C
:100550004902014007D03869796901240025001952
:100560006941386179617969002907DC7969002975
:100570000AD139694A48814200D805E0464B002239
:100580001A600022002382E0A021C90508698021A9
:1005900049000140D9D04049002008603E493F4809
:1005A00048603D493D4888603B490520086000207F
:1005B0000021386179610021F9614FE0364908680E
:1005C00080214902014007D038697969012400255A
:1005D00000196941386179617969002907DC796915
:1005E00000290AD139692E48814200D805E02A4BFA
:1005F00000221A600022002349E0A021C9050869F1
:10060000802149000140D9D11EE02349086880219A
:100610004902014007D03869796901240025001991
:100620006941386179617969002907DC79690029B4
:100630000AD139691A48814200D805E0164B0022D8
:100640001A600022002322E0A021C9050869802148
:1006500049000140D9D0F9690131F961F869F968B7
:100660008842CADB0C49002008603969090A7869A8
:1006700003060B4339690A06074989680748411A86
:100680003960002179603868796812184B41100090
:100690001900BD4608B0B0BD10E000E0FFFFFF004C
:1006A000A086010090B595B000AFF860B9607A609F
:1006B0003823FB18224A13CA13C311681960127930
:1006C0001A711423FB182022002199541F23FB6464
:1006D0001BE0FB68B968180001F096FE0B001900DA
:1006E000FB6C5A1EFA643822BA18515C1422BA18EC
:1006F000D154B968F86801F0A1FD0300FB607B6884
:10070000002B02D07B68013B7B60FB68DA17D31AB1
:10071000DB0FDAB27B68D917CB1ADB0FDBB21343DE
:10072000DBB2002BD5D1FB6C01331422BA18D318DD
:10073000180001F0DDF8C046BD4615B090BDC046BA
:10074000F869000880B582B000AF0200FB1D1A7086
:10075000FB1D1B78002B06D0084B5A69074B08215C
:100760000A435A6105E0054B5A69044B08218A4344
:100770005A61C046BD4602B080BDC046000400506C
:1007800080B500AF3E4B4B221A703E4B4B221A7085
:10079000FA235B001800FFF7A3FC09E0394B1B7834
:1007A000DBB20133DAB2374B1A700A20FFF798FC3C
:1007B000344B1B78DBB29C2BF0D9FA235B0018007A
:1007C000FFF78EFC09E02E4B1B78DBB20133DAB267
:1007D0002B4B1A700A20FFF783FC294B1B78DBB2E6
:1007E000EF2BF0D9FA235B001800FFF779FC01200A
:1007F000FFF7A8FF09E0234B1B78DBB20133DAB225
:10080000204B1A700A20FFF76BFC1E4B1B78DBB2E3
:10081000EF2BF0D9FA235B001800FFF761FC09E029
:10082000174B1B78DBB2013BDAB2154B1A700A206A
:10083000FFF756FC124B1B78DBB24B2BF0D8FA2398
:100840005B001800FFF74CFC09E00E4B1B78DBB295
:10085000013BDAB20B4B1A700A20FFF741FC094B3F
:100860001B78DBB2642BF0D80020FFF76BFFFA2374
:100870005B001800FFF734FCC046BD4680BDC04693
:10088000000000200100002080B584B000AFF860B7
:10089000B9607A60FB68FA229100180001F0B4FD9B
:1008A0000B001A00FA239B009A420BDCBB68FA2269
:1008B0009100180001F0A8FD0B001A00FA239B001C
:1008C0009A4204DD064B180001F012F804E0054BD3
:1008D000180001F00DF8C046C046BD4604B080BD0A
:1008E0000C6A0008246A000880B588B000AF0023B5
:1008F000BB616420FFF7E0FD02000B00BA60FB6003
:10090000FB68002B07DCFB68002B00D0C3E0BB6852
:10091000002B00D1BFE0B868F96801F0F3FD031CBB
:10092000191C5F4802F030F8031C7B605D4B180017
:1009300000F0DEFF786802F089FD030007220A213B
:100940001800FFF7AFFE584B180000F0D1FF574BCF
:100950001B781A00564B92007968D150534B1B7884
:1009600001330A21180001F04FFD0B00DAB24F4BA2
:100970001A7000237B610CE04D4B7A699200D358CA
:10098000191CF86901F0F2FD031CFB617B6901335E
:100990007B617B69092BEFDD4649F86901F0F4FFC3
:1009A000031CFB61444B180000F0A2FFF86902F041
:1009B0004DFD030007220A211800FFF773FE3A4B92
:1009C000180000F095FF0021B86901F06DFD031ECD
:1009D00012D0FB69BB61394B180000F089FFB86980
:1009E00002F034FD030007220A211800FFF75AFE27
:1009F0002D4B180000F07CFFB969F86902F0E4FAA9
:100A0000031CB969181C01F0BFFF031C2C49181CFA
:100A100002F088F9031C3B602A4B180000F068FFC5
:100A2000386802F013FD030007220A211800FFF7BF
:100A300039FE1D4B180000F05BFF234B1B78002B89
:100A400015D13B685B005B08181C04F095F81F4A41
:100A50001F4B01F009FD031E09D01B4B01221A7028
:100A60001C4B180000F044FFFB69BB6113E0164B00
:100A70001B78002B0FD03B685B005B08181C04F050
:100A80007BF8154A154B01F0DBFC031E00D102E098
:100A90000D4B00221A70C046BD4608B080BDC0464E
:100AA00020BCBE4E406A00085C6A0008900000202E
:100AB0006800002000002041646A0008886A00087D
:100AC0000000C842B06A0008910000209A999999E4
:100AD0009999E93FCC6A00087B14AE47E17A943FCC
:100AE000B0B59AB000AF67243B1900221A700023FA
:100AF0003B660023FB650023BB6564237B65FFF732
:100B000063FB96239B01180000F0CAF9FA235B00EF
:100B10001800FFF7E5FA874B180000F0E9FE864B56
:100B2000180000F0E5FE854B180000F0E1FE844B54
:100B3000180000F0DDFE834B180000F0D9FE824B58
:100B4000180000F0D5FE814B180000F0D1FEFFF731
:100B500087FC7F4B1800FFF747FC7E4B1800FFF720
:100B600043FC7D4B1800FFF73FFC7C4B1800FFF760
:100B70003BFC7B4B1800FFF737FC7A4B1800FFF764
:100B800033FC794B1800FFF72FFC784B1800FFF768
:100B90002BFC774B1800FFF727FC00233B663B1923
:100BA00000221A70734B5A69724B08218A435A61AA
:100BB000704B5A696F4B10218A435A616D4B5A69C9
:100BC0006C4B20218A435A616A4B5A69694B402118
:100BD0008A435A61674B5A69664B80218A435A613E
:100BE0006722BB181B78BA18591C1170042B1DD032
:100BF00023DC032B13D020DC012B02D0022B07D0E7
:100C00001BE05C4B5A695B4B10210A435A6137E089
:100C1000584B5A69574B20210A435A6130E0554BD3
:100C20005A69544B40210A435A6129E0514B5A6991
:100C3000504B80210A435A6122E06723FB180022AF
:100C40001A704C4B5A694B4B08218A435A61494BE5
:100C50005A69484B10218A435A61464B5A69454BA1
:100C600020218A435A61434B5A69424B40218A43AF
:100C70005A61404B5A693F4B80218A435A61C046B2
:100C800000F0FCFA031EABDD53257C1900F0A3FA3B
:100C9000030023707B191B78212B33D13B004F219C
:100CA000180000F0A5FA3B00180004F0B3F90300A7
:100CB000082B20D13A00304B1100180004F08CF9B9
:100CC0003B00180004F088F93B003221180004F0C2
:100CD00093F9031E07D0294B180004F07DF9642016
:100CE00001F0DEF87CE7322001F0DAF8244B18003E
:100CF00004F072F974E73A00224B1100180004F076
:100D00006BF96DE75323FB181B78402B00D067E786
:100D10003A6E1D493B00180004F0C4F83B6E0133E5
:100D20003B660520FFF7DCF93B00180000F026FACF
:100D300056E7C046E06A0008EC6A0008106B00083D
:100D4000646B0008986B0008E86B0008306C0008C2
:100D5000746C0008806C00088C6C0008986C0008AB
:100D6000A46C0008B06C0008BC6C0008C86C0008DB
:100D7000D86C000800040050E46C0008F86C00080F
:100D8000146D0008246D0008406D000890B585B012
:100D900000AF78603960184B1B68002B02D101232B
:100DA0005B4224E00023FB600AE0FB685A1CFA6007
:100DB0003A68D418114B180000F0ABF90300237007
:100DC0007B68013B1A00FB68934205D20B4B18006D
:100DD00000F0CAF9031EE8D1FB68002B06D03A6880
:100DE000FB68D31800221A70FB6800E0002318008B
:100DF000BD4605B090BDC0462C01002094000020E7
:100E000080B584B000AF78603960224B1B68002B3E
:100E100002D101235B4238E07B683F2B0BDCC046EC
:100E20001D4B180000F0A0F903004022D21A7B6885
:100E30009A42F5D302E002235B4226E00023FB60E6
:100E40000BE03A68FB68D3181A78134B11001800AE
:100E500000F02EF9FB680133FB607B68FA689A4268
:100E6000EFD30E4B1B68082213400DD10B4B1A68B1
:100E70000A4B08210A431A60074B180000F049F991
:100E800003001A00054B9A6200231800BD4604B007
:100E900080BDC0462C010020E0000020004400403E
:100EA00080B584B000AF786072B6C046454B002272
:100EB0009A64444B9A6C434B5A64424B5A6C414B74
:100EC0001A64414B00229A643F4B9A6C3E4B5A6421
:100ED0003D4B5A6C3C4B1A643C4B01221A603C4B14
:100EE00000221A603B4BDA6A3A4B01210A43DA626C
:100EF000394BFB607968F86801F0A0F90300FB60EA
:100F0000A023DB059A68A023DB05802149050A435D
:100F10009A60A023DB055A68A023DB052F490A400D
:100F20005A60A023DB051B682D4A1A40A023DB056D
:100F3000802189050A431A60A023DB055A6AA02391
:100F4000DB058021C9040A435A62A023DB051B6824
:100F50009B009A08A023DB05802109060A431A603A
:100F6000A023DB055A6AA023DB058021C9050A43BB
:100F70005A62184B9A6B174B802189020A439A6375
:100F8000184B1A68174B6C210A431A60154B002244
:100F90005A60144B00229A60124BFA68DA60114BC7
:100FA0001A68104B01210A431A600F4B1A680E4B46
:100FB000802149050A431A6062B6C046C046BD4654
:100FC00004B080BD94000020E00000202C0100202F
:100FD00030010020001002400048E801FFBFFFFF81
:100FE000FFFFFFCF0044004000E100E080B500AF0C
:100FF000084BDB698022134001D000F025F8054B37
:10100000DB692022134001D000F006F8C046BD463F
:1010100080BDC0460044004080B500AF074B5B6A0E
:10102000DAB2074B1100180000F042F8031E02D09C
:10103000044B01221A60C046BD4680BD00440040FA
:10104000940000203001002080B500AF164B18003E
:1010500000F08AF8031E08D0134B180000F059F86E
:1010600003001A00114B9A621BE0104B1A680F4BD9
:1010700008218A431A600D4BDB694022134005D0DA
:101080000A4B1A6A094B40210A431A62074BDB6973
:101090008022134005D0054B9A69044B10210A4366
:1010A0009A61C046BD4680BDE0000020004400407B
:1010B00080B582B000AF78600A00FB1C1A707B68B4
:1010C0001A6C7B685B6C9A4205D17B689B6C002B29
:1010D00001D0012319E072B6C0467B681B6C591C15
:1010E0007A6811647A68F91C0978D1547B689B6C22
:1010F0005A1C7B689A647B681B6C402B02D17B680E
:1011000000221A6462B6C04600231800BD4602B031
:1011100080BD80B584B000AF78607B689B6C002B8D
:1011200001D100231CE072B6C0467B685B6C591C81
:101130007A6851640F22BA187968CB5C13707B68A7
:101140005B6C402B02D17B6800225A647B689B6CED
:101150005A1E7B689A6462B6C0460F23FB181B7840
:101160001800BD4604B080BD80B582B000AF786085
:101170007B689B6C1800BD4602B080BD80B582B014
:1011800000AF78600B4B1B68002B09D101235B4239
:101190000BE07B685A1C7A6019000120FFF730FED3
:1011A0007B681B78002BF4D100231800BD4602B0E9
:1011B00080BDC0462C01002080B582B000AF020087
:1011C000FB1D1A70FB1D19000120FFF719FEC04618
:1011D000BD4602B080BD80B500AF044B1800FFF7DC
:1011E00098FF03001800BD4680BDC0469400002053
:1011F000B0B584B000AF786039601E4B1B68002B1F
:1012000002D101235B4231E00023FB600B23FB187A
:1012100000221A7017E0C046174B1800FFF7A4FF12
:10122000031EF9D00B257C19134B1800FFF771FF33
:1012300003002370FB685A1CFA601A007B689B1835
:101240007A1912781A703B68013BFA689A4204DAFC
:101250000B23FB181B780A2BDDD1FB68002B04DD68
:10126000FB687A68D31800221A70FB681800BD4624
:1012700004B0B0BD2C0100209400002080B500AF68
:10128000034B1800FFF770FF03001800BD4680BD38
:101290009400002090B583B000AFFC1DFFF79BFFCA
:1012A00003002370FB1D1B781800FFF785FFFB1D53
:1012B0001B781800BD4603B090BDB0B584B000AF38
:1012C00078603960214B1B68002B02D101235B42FF
:1012D00037E00023FB600B23FB1800221A701DE08F
:1012E000C0461B4B1800FFF73FFF031EF9D00B252C
:1012F0007C19174B1800FFF70CFF030023702C001C
:101300003B191B781800FFF757FFFB685A1CFA605F
:101310001A007B689B183A1912781A703B68013BD7
:10132000FA689A4204DA0B23FB181B780D2BD7D1ED
:10133000FB68002B04DDFB687A68D31800221A7062
:10134000FB681800BD4604B0B0BDC0462C010020AB
:101350009400002080B582B000AF164B7B60164B26
:101360003B6007E07A68131D7B603B68191D39609C
:1013700012681A603A68114B9A42F3D304E03B6852
:101380001A1D3A6000221A603A680D4B9A42F6D351
:101390000C4B3B6004E03B681A1D3A601B689847A1
:1013A0003A68094B9A42F6D3C046C046BD4602B0E1
:1013B00080BDC046686F0008000000206400002067
:1013C0003C030020686F0008686F000880B500AF1C
:1013D0003B4B1A683A4B01210A431A60C046384B0E
:1013E0001B6804221340FAD0354B0122DA60C04654
:1013F000334BDB680C221340042BF9D1314B1A68B4
:10140000304B02210A431A602E4B1A682D4B0121E2
:101410000A431A602A4B9A6B294B802149050A43DB
:101420009A63294B802212011A60C046264B5B68E2
:1014300010221340FAD1224BDA68214B23490A408B
:10144000DA601F4BDA681E4B8821C9030A43DA6051
:101450001B4A1B4BD268DA60194A194BD268DA6012
:10146000174A174BD268DA60154B1A68144B1849A3
:101470000A401A60124B1A68114B802149040A4332
:101480001A60C0460E4B1A6880239B041340F9D0A3
:101490000B4BDA680A4B03218A43DA60084BDA689F
:1014A000074B03210A43DA60C046054BDB680C2278
:1014B00013400C2BF9D1C046C046BD4680BDC04686
:1014C000001002400020024000700040FFFF02FFB9
:1014D000FFFFFFFE80B500AF024B180000F008FAD6
:1014E000FEE7C046706D000880B500AF024B1800E3
:1014F00000F0FEF9FEE7C046A06D000890B585B08B
:1015000000AF78603960184B1B68002B02D10123B3
:101510005B4224E00023FB600AE0FB685A1CFA608F
:101520003A68D418114B180000F0ADF9030023708D
:101530007B68013B1A00FB68934205D20B4B1800F5
:1015400000F0CCF9031EE8D1FB68002B06D03A6806
:10155000FB68D31800221A70FB6800E00023180013
:10156000BD4605B090BDC046D00100203801002026
:1015700080B584B000AF78603960224B1B68002BC7
:1015800002D101235B4238E07B683F2B0BDCC04675
:101590001D4B180000F0A2F903004022D21A7B680C
:1015A0009A42F5D302E002235B4226E00023FB606F
:1015B0000BE03A68FB68D3181A78134B1100180037
:1015C00000F030F9FB680133FB607B68FA689A42EF
:1015D000EFD30E4B1B68082213400DD10B4B1A683A
:1015E0000A4B08210A431A60074B180000F04BF918
:1015F00003001A00054B9A6200231800BD4604B090
:1016000080BDC046D0010020840100200038014088
:1016100080B584B000AF786072B6C046454B0022FA
:101620009A64444B9A6C434B5A64424B5A6C414BFC
:101630001A64414B00229A643F4B9A6C3E4B5A64A9
:101640003D4B5A6C3C4B1A643C4B01221A603C4B9C
:1016500000221A603B4BDA6A3A4B01210A43DA62F4
:10166000394BFB607968F86800F0E8FD0300FB6027
:10167000A023DB059A68A023DB058021C9020A4369
:101680009A60A023DB055A68A023DB052F490A4096
:101690005A60A023DB051B682D4A1A40A023DB05F6
:1016A000802109030A431A60A023DB055A6AA0239C
:1016B000DB0540210A435A62A023DB051B68254A4B
:1016C0001A40A023DB05802189030A431A60A02366
:1016D000DB055A6AA023DB058021C9000A435A6250
:1016E000184B5A6B174B8021C9010A435A631A4B96
:1016F0001A68194B6C210A431A60174B00225A6072
:10170000154B00229A60144BFA68DA60124B1A6883
:10171000114B01210A431A60104B1A680F4B8021AC
:1017200009050A431A6062B6C046C046BD4604B009
:1017300080BDC0463801002084010020D001002077
:10174000D4010020001002400048E801FFFDFFFF27
:10175000FFFFF3FFFFFFCFFF0038014000E100E093
:1017600080B500AF084BDB698022134001D000F048
:1017700025F8054BDB692022134001D000F006F864
:10178000C046BD4680BDC0460038014080B500AFB0
:10179000074B5B6ADAB2074B1100180000F042F801
:1017A000031E02D0044B01221A60C046BD4680BD14
:1017B0000038014038010020D401002080B500AF7E
:1017C000164B180000F08AF8031E08D0134B1800BF
:1017D00000F059F803001A00114B9A621BE0104BFD
:1017E0001A680F4B08218A431A600D4BDB694022AF
:1017F000134005D00A4B1A6A094B40210A431A626A
:10180000074BDB698022134005D0054B9A69044BD6
:1018100010210A439A61C046BD4680BD8401002064
:101820000038014080B582B000AF78600A00FB1C30
:101830001A707B681A6C7B685B6C9A4205D17B6876
:101840009B6C002B01D0012319E072B6C0467B6867
:101850001B6C591C7A6811647A68F91C0978D15498
:101860007B689B6C5A1C7B689A647B681B6C402B62
:1018700002D17B6800221A6462B6C04600231800B9
:10188000BD4602B080BD80B584B000AF78607B6893
:101890009B6C002B01D100231CE072B6C0467B6814
:1018A0005B6C591C7A6851640F22BA187968CB5C5A
:1018B00013707B685B6C402B02D17B6800225A64FA
:1018C0007B689B6C5A1E7B689A6462B6C0460F2385
:1018D000FB181B781800BD4604B080BD80B582B0EF
:1018E00000AF78607B689B6C1800BD4602B080BD7D
:1018F00080B582B000AF78600B4B1B68002B09D11C
:1019000001235B420BE07B685A1C7A6019000120BE
:10191000FFF72EFE7B681B78002BF4D10023180004
:10192000BD4602B080BDC046D001002080B582B067
:1019300000AF0200FB1D1A70FB1D19000120FFF70C
:1019400017FEC046BD4602B080BD80B500AF044B57
:101950001800FFF798FF03001800BD4680BDC04681
:1019600038010020B0B584B000AF786039601E4BFC
:101970001B68002B02D101235B4231E00023FB6096
:101980000B23FB1800221A7017E0C046174B1800F3
:10199000FFF7A4FF031EF9D00B257C19134B180089
:1019A000FFF771FF03002370FB685A1CFA601A00EE
:1019B0007B689B187A1912781A703B68013BFA68A9
:1019C0009A4204DA0B23FB181B780D2BDDD1FB6840
:1019D000002B04DDFB687A68D31800221A70FB68BC
:1019E0001800BD4604B0B0BDD00100203801002071
:1019F00090B583B000AFFC1DFFF7A7FF0300237075
:101A0000FB1D1B781800FFF791FFFB1D1B781800CA
:101A1000BD4603B090BDB0B584B000AF786039600A
:101A2000214B1B68002B02D101235B4237E00023CE
:101A3000FB600B23FB1800221A701DE0C0461B4BF5
:101A40001800FFF74BFF031EF9D00B257C19174B2D
:101A50001800FFF718FF030023702C003B191B78B8
:101A60001800FFF763FFFB685A1CFA601A007B68D6
:101A70009B183A1912781A703B68013BFA689A422F
:101A800004DA0B23FB181B780D2BD7D1FB68002B36
:101A900004DDFB687A68D31800221A70FB6818000E
:101AA000BD4604B0B0BDC046D001002038010020C2
:101AB00080B582B000AF7860FEE780B582B000AF3D
:101AC000786001235B421800BD4602B080BD80B53E
:101AD00084B000AFF860B9607A60044B0C221A60E1
:101AE00001235B421800BD4604B080BDEC0100201C
:101AF00080B500AF034B0B221A6001235B42180034
:101B0000BD4680BDEC01002080B582B000AF78609A
:101B100039603B68802292015A6000231800BD465C
:101B200002B080BD80B500AF01231800BD4680BD66
:101B300080B582B000AF78603960044B16221A601D
:101B400001235B421800BD4602B080BDEC010020BD
:101B500080B582B000AF78603960044B1F221A60F4
:101B600001235B421800BD4602B080BDEC0100209D
:101B700080B584B000AFF860B9607A6000231800C7
:101B8000BD4604B080BD80B582B000AF78603960DA
:101B90003B68802292015A6000231800BD4602B0C3
:101BA00080BD80B582B000AF786001235B42180031
:101BB000BD4602B080BD80B582B000AF7860044BF6
:101BC00002221A6001235B421800BD4602B080BDAC
:101BD000EC01002080B582B000AF7860044B0A228F
:101BE0001A6001235B421800BD4602B080BDC046AA
:101BF000EC01002080B582B000AF78607B68022BDA
:101C000001D8012303E0044B09221A6000231800C5
:101C1000BD4602B080BDC046EC01002080B586B054
:101C200000AF7860124B7B61124B3B61124B1B681B
:101C3000002B02D1104B7A691A600F4B1B68FB60B6
:101C40000D4B1A687B68D3183A699A4205D20B4B40
:101C50000C221A6001235B4206E0074B1A687B687E
:101C6000D218054B1A60FB681800BD4606B080BD4F
:101C70003C03002000100020E0010020EC010020C7
:101C800080B588B000AFF860B9607A600023BB61AE
:101C9000FB68002B22D10023FB611AE0FFF755FE01
:101CA00003001A0017217B181A70BB685A1CBA600F
:101CB0007A181278D2B21A70BB690133BB617B18F3
:101CC0001B78DBB20A2B01D1BB690EE0FB69013343
:101CD000FB61FA697B689A42E0DB05E0054B09226B
:101CE0001A6001235B4200E0BB691800BD4608B0E2
:101CF00080BDC046EC01002080B586B000AFF86022
:101D0000B9607A60FB68013B012B11D800237B612D
:101D100009E0BB685A1CBA601B781800FFF706FE82
:101D20007B6901337B617A697B689A42F1DB05E06C
:101D3000054B09221A6001235B4200E07B68180012
:101D4000BD4606B080BDC046EC01002080B500AFA6
:101D5000244B5A6B234B802189000A435A63224B40
:101D60001A69214BC02109060A431A611E4B1A68E1
:101D70001D4B01210A431A601B4B9A681A4B012123
:101D80000A439A60184BDA6880231B02134005D17E
:101D9000C046154B1B6801221340FAD0124B9B68BA
:101DA0000122134005D0104B9A680F4B02210A43C1
:101DB0009A600D4B9A680C4B802109060A439A6081
:101DC000C046094B1A6880231B011340F9D0064B0B
:101DD0001A68054B802109010A431A60C046BD46B6
:101DE00080BDC046001002400024014080B582B092
:101DF00000AF7860164BDA68154B802109020A4360
:101E0000DA60134B7A689A62114B5A69104B0721BA
:101E10000A435A617A6880239B029A4206D10D4B8D
:101E20001A680C4B8021C9030A431A60084B9A6850
:101E3000074B04210A439A60C046054B1B680422E5
:101E40001340FAD0024B1B6C1800BD4602B080BD97
:101E5000002401400827014080B582B000AF7860BF
:101E6000A023DB055A69A023DB050A218A435A61B6
:101E7000A023DB055A69A023DB0505210A435A612B
:101E80007B68DAB2044B1A707B68DAB2034B1A70C3
:101E9000C046BD4602B080BDE8010020E901002037
:101EA00080B582B000AF7860A023DB055A69A0231B
:101EB000DB0505218A435A61A023DB055A69A0236B
:101EC000DB050A210A435A617B68DAB2044B1A70B7
:101ED0007B68DAB2034B1A70C046BD4602B080BDC3
:101EE000E8010020E901002080B582B000AF7860F1
:101EF000A023DB055A69A023DB0505218A435A612B
:101F0000A023DB055A69A023DB050A210A435A6195
:101F10007B68DAB2044B1A70044B00221A70C04678
:101F2000BD4602B080BDC046E8010020E9010020A6
:101F300080B582B000AF7860A023DB055A69A0238A
:101F4000DB0505218A435A61A023DB055A69A023DA
:101F5000DB050A210A435A61054B00221A707B688F
:101F6000DAB2044B1A70C046BD4602B080BDC0460E
:101F7000E8010020E901002080B500AFA023DB05C7
:101F80005A69A023DB0505218A435A61A023DB059A
:101F90005A69A023DB050A210A435A61044B002237
:101FA0001A70044B00221A70C046BD4680BDC04660
:101FB000E8010020E901002080B500AF0A4B0B4A80
:101FC0005A60094B00229A60074B05221A60C046EE
:101FD000054B1A6880235B021340F9D0024B0022A4
:101FE0001A60C046BD4680BD10E000E07F3E0000A4
:101FF00080B582B000AF786001E0FFF7DDFF7B685D
:102000005A1E7A60002BF8D1C046C046BD4602B0C9
:1020100080BD80B500AF8023DB051A698023DB0516
:1020200001218A431A61324B1B685A1C304B1A60DB
:10203000304B1B78DBB21A002D4B1B689A4217DD20
:10204000A023DB055B690222134008D0A023DB0537
:102050005A69A023DB0502210A435A6110E0A0233C
:10206000DB055A69A023DB0501210A435A6107E019
:10207000A023DB055A69A023DB0503218A435A61AB
:102080001D4B1B78DBB21A00194B1B689A4217DDF7
:10209000A023DB055B690822134008D0A023DB05E1
:1020A0005A69A023DB0508210A435A6110E0A023E6
:1020B000DB055A69A023DB0504210A435A6107E0C6
:1020C000A023DB055A69A023DB050C218A435A6152
:1020D000074B1B685A1C064B1A60054B1B68FE2BEE
:1020E00002DD034B00221A60C046BD4680BDC046DB
:1020F000E4010020E8010020E901002080B582B061
:1021000000AF7860A023DB055A69A023DB05062118
:102110008A435A61A023DB055A69A023DB05092104
:102120000A435A617B68DAB2044B1A707B68DAB2F0
:10213000034B1A70C046BD4602B080BDE8010020C6
:10214000E901002080B582B000AF7860A023DB05F4
:102150005A69A023DB0509218A435A61A023DB05C4
:102160005A69A023DB0506210A435A617B68DAB26B
:10217000044B1A707B68DAB2034B1A70C046BD4636
:1021800002B080BDE8010020E901002080B584B0E4
:1021900000AF02F0D7FE03009721180000F034F9D9
:1021A0000B001E33FB6002F0CDFE03001E4A1340FD
:1021B00004D5013B0222524213430133BB60F8684D
:1021C00002F088FC194A1A4B02F0BCF902000B001D
:1021D000100019000022174B01F072FD02000B00E5
:1021E0001000190002F010FD031C7B60BB68012B7E
:1021F00003D1FF20FFF782FF02E0FF20FFF7A2FFDD
:102200000D49786800F08EFD031C181C01F01EF9C2
:1022100003001800FFF7ECFEFF20FFF741FEC04669
:10222000BD4604B080BDC04601000080295C8FC25D
:10223000F528EC3F0080664000007A4403460B43DB
:102240007FD4002243088B4274D303098B425FD3AF
:10225000030A8B4244D3030B8B4228D3030C8B42DB
:102260000DD3FF22090212BA030C8B4202D31212C1
:10227000090265D0030B8B4219D300E0090AC30B96
:102280008B4201D3CB03C01A5241830B8B4201D343
:102290008B03C01A5241430B8B4201D34B03C01A2C
:1022A0005241030B8B4201D30B03C01A5241C30AA4
:1022B0008B4201D3CB02C01A5241830A8B4201D315
:1022C0008B02C01A5241430A8B4201D34B02C01AFF
:1022D0005241030A8B4201D30B02C01A5241CDD2A4
:1022E000C3098B4201D3CB01C01A524183098B42EF
:1022F00001D38B01C01A524143098B4201D34B01D8
:10230000C01A524103098B4201D30B01C01A52413A
:10231000C3088B4201D3CB00C01A524183088B42C1
:1023200001D38B00C01A524143088B4201D34B00AA
:10233000C01A5241411A00D201465241104670471C
:102340005DE0CA0F00D04942031000D34042534021
:1023500000229C4603098B422DD3030A8B4212D3E1
:10236000FC22890112BA030A8B420CD38901921113
:102370008B4208D3890192118B4204D389013AD050
:10238000921100E08909C3098B4201D3CB01C01A25
:10239000524183098B4201D38B01C01A5241430938
:1023A0008B4201D34B01C01A524103098B4201D326
:1023B0000B01C01A5241C3088B4201D3CB00C01A93
:1023C000524183088B4201D38B00C01A5241D9D2AB
:1023D00043088B4201D34B00C01A5241411A00D22C
:1023E0000146634652415B10104601D34042002B28
:1023F00000D54942704763465B1000D3404201B5A7
:10240000002000F005F802BD0029F8D016E770475B
:102410007047C0468446100062468C4619006346E9
:1024200000E0C0461FB502F01FF8002801D40021CB
:10243000C8421FBD10B501F061FF4042013010BD20
:1024400010B502F011F8002801DB002010BD0120BA
:1024500010BDC04610B502F007F8002801DD0020CD
:1024600010BD012010BDC04610B501F08DFF002841
:1024700001DC002010BD012010BDC04610B501F0E8
:1024800083FF002801DA002010BD012010BDC046E6
:10249000844608006146FFE71FB500F0FBFB0028FB
:1024A00001D40021C8421FBD10B500F083FB40429B
:1024B000013010BD10B500F0EDFB002801DB00205D
:1024C00010BD012010BDC04610B500F0E3FB002890
:1024D00001DD002010BD012010BDC04610B500F088
:1024E00091FB002801DC002010BD012010BDC0467A
:1024F00010B500F087FB002801DA002010BD012094
:1025000010BDC0460122F8B50D000400144B524224
:10251000802112196B41C9038B4217D211498B429A
:1025200012D0280002F0D6FA00220F4B02F00AF86F
:1025300006000F00200002F0FBFA32003B0000F022
:10254000A5FF02F061FBF8BD0232EAD96305E8D0CD
:102550008021E30ADB02090119430C00E1E7C046D0
:10256000FFFF1F00FFFF3F000000F0414A02F8B5E7
:10257000530ACE4699464B00C90F47468846460047
:102580004502360E1B0E80B5C40F6F0A9209AD09C5
:10259000F11A44454BD0002938DD002B00D174E0FE
:1025A000FF2E00D1BEE08023DB041A431B2900DC90
:1025B000FDE0013D6B0100D4AFE001256D42AD01AE
:1025C000AF09380002F032FC3B00053883408642F8
:1025D00000DCD3E0B94D311A1D405A0700D19EE00E
:1025E0000F221340042B00D199E004356B0100D475
:1025F00095E0481CFE2951D1FF200023C005184357
:10260000E4072043C0BCB946B046F8BD002949D014
:10261000991B002E72D1002D00D133E14C1E0129EF
:1026200000D159E1FF2900D14CE121006CE00029E3
:1026300000DC81E0002B55D1002A70D04B1E01290F
:1026400000D12BE1FF296DD01B2B50DC190020237A
:102650005B1A10009A40C840531E9A410243AD18BD
:102660008023DB041D4200D1ADE0711CFE2EC3D0DF
:1026700001206A082840924D154005436A0700D0A2
:102680008BE01D42B5D1EF0834E0002A47D04B1E45
:10269000012966D0FF2945D0190087E7C0B2AB01F8
:1026A0005B0AABE7FE239C46701C030060461842A1
:1026B00000D092E0002E00D0E7E0002D00D119E11B
:1026C000002A17D08023AF1ADB041F4200D142E159
:1026D0004446551B00D187E001201D42DFD1002177
:1026E000EF0807E0FF2E1DD01B2900DC94E031002D
:1026F0000535EF087B025B0AC8B27FE7FF2B00D1EC
:10270000E0E08020C00405431B2900DC88E0551E62
:1027100044461E00690100D54FE731000435EF083B
:10272000FF29E7D1002F00D166E78023DB033B437D
:102730005B02FF205B0A61E7002958D0991B002E3D
:1027400000D089E0002D00D19DE04E1E012900D16E
:10275000A4E0FF2900D1B6E01B2E00DDB8E0310077
:1027600081E0AA1A530100D4AFE09701BF093800F5
:1027700002F05CFB3B000538834001261D00811BF5
:1027800020200131CD40411A8B40591E8B411D4301
:102790002AD000216B0700D1F0E00F232B40042B3F
:1027A00000D022E76B0100D523E7EF08A2E7202342
:1027B0005B1A10009A40C840531E9A410243AD1A5A
:1027C0006B0100D5FBE66B0700D1D5E00F2331008C
:1027D0002B40042B00D008E7A1E7AF1A7B014ED4B1
:1027E000002F00D0EDE600240020002306E7FE23A2
:1027F000711C0B4221D1002E00D081E0002D00D1B0
:102800009FE0002A00D1B2E0AB185A0100D4B0E03A
:102810009B0101205B0AF1E68023DB041A4316E7E3
:1028200020242800C840611A8D4029004C1EA14177
:10283000014344461E00551AC2E7FF2900D1DBE6DA
:10284000AF187F087B0705D00F233D1D3B40042BAD
:1028500000D064E7FF084DE7FF2B34D01B2937DC9D
:102860008020C004054328002026C840711A8D40EE
:1028700029004D1EA94101431E008D18F0E6444673
:10288000571B9EE64446150049E7002D46D1002A15
:1028900066D180230024FF20DB03AFE6AA18530192
:1028A00013D5074F52081740530744D00F23134046
:1028B000042B40D002213D1D31E7C046FFFFFFFB46
:1028C000FFFFFF7D44464F462CE70121D70811E763
:1028D00005321900D7080DE7571B7B0137D5BF011B
:1028E000BF09380002F0A2FA3B0005388340444695
:1028F000013643E7002A00D175E744464F46F9E622
:10290000002DE0D08023DB03002A17D09F4200D2A5
:102910000BE7994500D308E74F4606E78023DB0322
:10292000002A0BD09F4200D2FFE6994500D3FCE677
:1029300044464F46F9E60221FF08DBE6FF203B4311
:102940005CE6002A00D14FE70021D708D2E64446D2
:102950000121FF08CEE6002F00D07BE7002443E7EB
:1029600080234A46DB034446FF20134346E600210A
:10297000C0E60021DF08BDE63100D0E601206A0193
:1029800000D58BE62A00DFE7F0B546464F46D6462F
:102990004502C0B5C30F470098460E1C6D0A3F0E96
:1029A0005BD0FF2F21D08023ED00DB041D430023EB
:1029B00099469A467F3F74027300640A1B0EF60F15
:1029C000002B20D0FF2B43D080220020E400D20433
:1029D00014437F3B4246FF1A4B4672400F2B00D9EF
:1029E0009DE071499B00CB589F46002D5AD108238A
:1029F0009946063B74029A467300FF27640A1B0E31
:102A0000F60F002BDED1002C3BD101234246494674
:102A1000724019430E2918D86448890041588F46DE
:102A20005346022B00D1B8E0032B6ED042462C0057
:102A3000012B40D100200024C0052043D2071043C1
:102A4000E0BCBA46B146A846F0BDFF200024F3E73B
:102A5000002C20D10223FF3FD8E7002D05D104230D
:102A60009946033B00279A46A5E7280002F0DEF9C5
:102A70007627431F9D4000237F4299469A463F1A7E
:102A800099E7200002F0D2F9431F9C4076235B4275
:102A90001B1A00209EE703234A461A43914603204F
:102AA000FC3397E70C239946093BFF279A4682E7B8
:102AB00003282CD0320038007F30002847DD630720
:102AC00004D00F232340042B00D00434230103D56A
:102AD0003800374B80301C40FE28B6DCA401640A65
:102AE000C0B2A9E780240022FF20E403A4E78023EA
:102AF000DB031D4201D01C420BD08024E4032C4395
:102B000064024246FF20640A96E746462C00802372
:102B1000DB031C4364023200FF20640A8CE76D0172
:102B2000600185422DD21B230024013F012629008C
:102B300064006D00002901DB854201D32D1A344366
:102B4000013B002BF3D16B1E9D412C43B3E70123C6
:102B50001B1A1B2B00DD6DE721009E37D940BC40BE
:102B60000B00611E8C412343590704D00F211940EB
:102B7000042900D00433590113D49B0100205C0ABE
:102B80005AE71A2301242D1AD0E7981E43425841D0
:102B9000404232000024C0B24EE74246FF200024EB
:102BA0004AE70120002447E7C46D0008046E0008CE
:102BB000FFFFFFF770B542004E024C0045026D0A60
:102BC000120EC30F760A240EC90FFF2A10D0FF2C55
:102BD0000CD00120A2420AD1B54208D18B420FD0BD
:102BE000002A04D12800431E984100E0012070BD56
:102BF0000120FF2CFBD13543F9D14B401800F6E7FB
:102C00000020F4E730B5420044024D02C30F4800F3
:102C1000640A120E6D0A000EC90FFF2A18D0FF2891
:102C20000AD0002A1ED100280AD1002D29D0002C5C
:102C30002DD14800013830BD002D25D1002A01D109
:102C4000002CF6D08B4219D001205B421843F2E7EA
:102C5000002C19D1FF28F7D1002D15D100208B426F
:102C6000F2D1E8E70028EFD08B42EDD18242EBDCD5
:102C700004DBAC42E8D80020AC42DCD2580001387A
:102C8000D9E7002CD7D0DFE702204042D3E78B42C0
:102C9000DAD1EEE730B5420044024D02C30F4800DE
:102CA000640A120E6D0A000EC90FFF2A17D0FF2802
:102CB0000AD0002A1BD100280AD1002D1DD0002CDB
:102CC0002DD14800013811E0002D0ED1002A01D18C
:102CD000002CF6D08B420CD15800013806E0002CB5
:102CE00003D1FF2805D1002D15D0022030BD0028CA
:102CF00006D101205B421843F8E7002CF6D0F8E734
:102D00008B42F6D18242F4DCE6DBAC42F1D8002003
:102D1000AC42EBD2E0E700208B42EAD1E6E78B42FF
:102D2000E7D1F2E7F0B54F464646D6464502C0B574
:102D300046000F1C6D0A360EC40F002E00D1CDE0E8
:102D4000FF2E72D08023ED00DB041D430023994643
:102D50009A467F3E7B025B0A98467B001B0EFF0F64
:102D6000002B72D0FF2B00D1A9E07F3BF6184B4619
:102D70000A2B00DD85E043468022DB00D2041A43A3
:102D80004B4690467C400022022B0FDD4946012332
:102D90008B40A621C9000B4200D072E0902189002F
:102DA0000B4200D0DAE08821194267D1280C424654
:102DB0002D042D0C4346290012041B0C120C514308
:102DC0005D4342435843AD180B0C5B199A4203D93B
:102DD000802252029446604409041A04090C5218D5
:102DE0009501691E8D411B0C920E1B1815439B010A
:102DF0001D431B0100D5CFE030007F30002800DCF0
:102E0000B1E06B070BD00F2332002B40042B06D010
:102E100004352B0103D5803210006A4B1D40FE287B
:102E200064DCAB015B0AC0B21FE0002D00D08FE074
:102E300008239946063B9A467B025B0A98467B002C
:102E4000FF261B0EFF0F002B8CD14346002B5CD1BD
:102E50004A4601331A43914613000A2A11DC012223
:102E60007C40022B92DC00200023C0051843E407BD
:102E70002043E0BCBA46B146A846F0BD3C004546FA
:102E800092465346022B31D0032B11D0012BEAD0AE
:102E900030008030721C002866DD6B07B9D00F232C
:102EA0002B40042BB4D1B4E70F2A7AD03C0045461E
:102EB0008023DB032B435B02FF205B0AD5E74346FD
:102EC000FF36002B34D14A46023313430A2BD8DC99
:102ED0007C40002A0AD09946022257E7002D08D1EB
:102EE00004239946033B00269A4633E7FF2000233C
:102EF000BBE7280001F09AFF7626431F9D40002380
:102F0000764299469A46361A24E7404601F08EFFEB
:102F10004B46361A763E0A2BB3DC434605388340CF
:102F200098464B4600227C40022B00DD2EE73DE711
:102F300003234A461A4313000A2AB5DC01229A40A9
:102F4000882113007C400322194200D12EE795E727
:102F50000C239946093BFF269A46FBE68023002472
:102F6000FF20DB0381E7320001231B1A1B2B00DD4E
:102F700079E79E3229009540D9406A1E95410D435C
:102F80006B0704D00F232B40042B00D004356B01BA
:102F900013D50120002368E701236A081D4015436B
:102FA00076E78023DB031D4282D042461A4200D0DE
:102FB0007EE73C00FF20134357E7AB0100205B0A8C
:102FC00053E7C046FFFFFFF7F8B54746CE464B0232
:102FD000460080B5C40F4702580A844648007A0A62
:102FE000360EBF09000ECD0F9B09FF286DD00121C1
:102FF0004D40311AAC423AD0002900DC9CE1002857
:1030000000D19EE0FF2E00D188E08022D20413433D
:103010001B2900DCF6E0013F7A0100D479E00127AA
:103020007F42BF01BB099846404601F0FFFE434680
:1030300005388340864200DCCCE0B44F311A1F4093
:103040005A0768D00F221340042B64D004377B0149
:1030500061D5481CFE2900D081E0FF200023C00577
:103060001843E4072043C0BCB946B046F8BD002968
:1030700000DC79E1002876D1002B4CD0481E0129D4
:1030800000D147E1FF2949D01B2871DC01001A005B
:103090002020CA40411A8B40591E8B411343FF1810
:1030A0008023DB041F4200D1B8E0711CFE2ED4D077
:1030B000012297483A407F08074017437A0700D01B
:1030C00096E01F42C5D1FA0855E03100FF39894624
:1030D000002B2CD101214D40AC4200D1B4E0494637
:1030E00000294CD0002E00D0F9E0FF21002F00D1A4
:1030F00008E14A1E012900D156E1FF2900D142E131
:103100001B2A00DC24E15F1E2C0006007A0100D59A
:1031100085E731000437FA08FF292CD1002A9CD01A
:103120008023DB0313435B02FF205B0A97E7AC427B
:1031300000D1A7E0002922D0002ED6D062462C0074
:10314000EEE7002BE7D0481E012936D0FF29E5D055
:1031500001005DE701203B007A0100D457E1C0B2D5
:10316000BB015B0A7BE7FF2ED8D01B2900DC9FE068
:1031700031000537FA0853025B0AC8B26FE7FE2038
:10318000711C084254D1002E00D0B1E0002F00D1B4
:1031900002E1002B00D1F9E08021FA1AC9040A42A9
:1031A00000D13BE10124DF1B2C40002F49D001203E
:1031B0000F42D5D10021FA08DDE7FF1A7B0100D4C8
:1031C000DEE0BD01AD09280001F030FE2B0005381E
:1031D000834001262022811B0131521A1F00934097
:1031E000CF405A1E93411F432BD000217B07B1D003
:1031F0000F233B40042B00D028E77B0100D528E7B4
:10320000FA08B8E71A002020CA40411A8B40591E1C
:103210008B411343FF1A7B0100D502E77B0700D1E6
:103220000DE10F2331003B40042B00D00EE772E785
:10323000FA1A9046520156D44346002B00D0F3E6CA
:103240000024002000230AE7494600291CD0002E54
:1032500000D002E7FF21002F55D04A1E012959D086
:10326000FF2900D190E01B2A00DD91E011003A0017
:103270002025CA40691A8F40791E8F4117430600E6
:10328000FF180DE7002926D1FE20711C084213D13A
:10329000002E00D096E0002F00D1B4E0002B75D0B6
:1032A000FB185A0100D4B2E09B015B0AFD38D6E658
:1032B0008022D2041343EAE6FF2900D1CDE6FA18B2
:1032C0005208530705D00F23171D1340042B00D0BD
:1032D00021E7D2084FE7002EBCD0624620E72C0041
:1032E000FF200023BBE60124DB1B98462C409BE615
:1032F000002F75D1002B00D096E080230024FF2002
:10330000DB03ACE62C001F0005E7C046FFFFFFFB18
:10331000FFFFFF7DFB185A0100D48DE04A4A5B088D
:103320001A40590700D18CE00F210B400D39042BB6
:10333000CFD00221171DEEE6002900D11FE7821B26
:103340001100002E00D1D1E68021C9040F43D7E639
:1033500039002024D140A21A97407A1E97410F438A
:103360002C000600DF1B56E700298DD0811B002EA4
:1033700000D170E71B290BDC8022D204174376E7CB
:103380000121FA08F7E62C006246C7E60021F2E6C2
:1033900005330100DA08EEE6002B00D150E70124E6
:1033A000002162462C40E6E6DA1B530132D5920139
:1033B0009409200001F03AFD2300053883402C00D9
:1033C000012607E7002FDFD0002B17D08023DB0377
:1033D0009A4200D2A4E69C4500D3A1E662469FE64D
:1033E000002B0BD08023DB039A4200D298E69C4549
:1033F00000D395E6012462462C4091E68023DB034E
:10340000FF2013432BE60020002B00D127E60021EC
:10341000DA08B0E62C000121D208ACE6002A00D17F
:103420000EE70021D208A6E6802362460124DB03D2
:10343000FF2013432C4012E60121DA089BE63100FD
:1034400069E60221D20896E6FFFFFF7D41024200B5
:10345000C30F490A0020120E7E2A03DD9D2A02DDD9
:10346000094A98187047802000040143952A07DC18
:103470009620821AD1404842002BF3D10800F1E790
:10348000963A9140F7E7C046FFFFFF7FF0B54F4601
:103490004646D646C0B50D0382B0009201934E0059
:1034A000C300CC0F690A450F9C46009A019B0D434F
:1034B0005F001903D80F009B490A5B0F1943009B5B
:1034C000760D7F0DDA00F31B844258D0002B13DDFC
:1034D000002F00D088E00800104300D159E1581EA9
:1034E000012B00D1C2E2B14FBB4200D141E13828EB
:1034F00000DD6AE2030064E1002B00D1B1E0BB1BF8
:10350000002E00D0E1E164462C4300D176E25C1E3F
:10351000012B00D1E8E2A54EB34200D1B7E2382C2E
:1035200000DC6BE3541EA242924152428D1AA04627
:103530001E0004002A0268D443461F1D47459B41D4
:103540005B42ED182B0200D49DE3984A0136964267
:1035500000D1EBE0964A73052A405B0D5107FF0846
:1035600052020F43120B1B051343E4072343380099
:10357000190002B0E0BCBA46B146A846F0BD002B27
:1035800000DCD7E0002F00D09AE00800104300D103
:10359000FFE0581E012B00D148E2844FBB4200D10E
:1035A000E7E0382800DCB8E280221204154200D19E
:1035B00049E31E000023150098467C4B01369E42CD
:1035C00000D1B3E07A4B01211D4043465A0819400F
:1035D000EF070A4317436D087B07B3D00F233B4027
:1035E000042BAFD0B846A7E77048864200D1C0E0B0
:1035F000382B00DCE2E001235B4263449C458041C0
:1036000040422D1A98462B0296D501235B429846DC
:10361000684D280001F00AFC0300083B20214046C9
:10362000CA1AD040020040469D4098402A43804636
:10363000B34200DA72E1981B43460130091A45464D
:103640008B40C5405E1EB34117008F402B431F4384
:10365000C2403B00150000261343BDD100270022C5
:1036600081E7554F731C3B4200D01BE163460F00BE
:103670002B431743002E00D0C4E1002B00D145E2BC
:10368000002F00D107E163469B1A9846C445B64116
:103690006B1A76429B1B80263604334200D1CBE264
:1036A0006346D31A9A4292411F00491B52428A1A1A
:1036B0009C46174300D0EDE204000023002252E7AD
:1036C0003A48864255D0382B00DD48E1802000047E
:1036D00001431F2B00DDE3E12027F81A8246080092
:1036E0005746B840814610004F46D840074338003F
:1036F0005746BA40D940571EBA416D18104360442E
:103700008046E045804140422D182B0200D554E709
:1037100043465B0700D1B9E20F2342461340042B16
:1037200000D009E733004246D20834E033000022DB
:10373000002718E7002B00D18FE0BB1B002E00D024
:1037400033E16046284300D140E2581E012B00D1EE
:103750000AE2164EB34200D185E2382800DC87E247
:1037600080252D04294200D19CE21E0000239846AA
:1037700023E763466E07D8080643ED0837002F435A
:1037800011D0802212032A4312033700074B120B79
:10379000E9E66246D2086E071643044AED089342F2
:1037A000ECD03700D6E0014B0022DCE6FF0700003A
:1037B000FFFF7FFFFFFF7F00FE0700008020000467
:1037C00001431F2B00DDB1E02027F81A82460800D4
:1037D0005746B840814610004F46D840074338004E
:1037E0005746BA40D940571EBA416D1A1043634636
:1037F0001B1A9C458041984640422D1A2B0287D5C2
:103800006D026D0A002D00D003E7404601F00EFB6B
:10381000030018331F2B00DC00E7424608388240C3
:103820009E4200DD91E09B1B581C1F2800DCF8E144
:1038300017001F3BDF40202805D040231B1A9A4069
:10384000531E9A411743002F3CD000267B0700D01F
:10385000C4E63500B846330065E7CB48731C034225
:1038600000D085E063462B43002E00D092E10F008C
:103870001743002B00D1D8E1002F0CD062446245E1
:1038800080416D1840422D182B0200D5F2E117003F
:1038900094462F4316D063466F07D808074300238A
:1038A000ED0857E063469B1A9846C445BF416B1A22
:1038B0007F42DB1B1F0200D5AEE047461D001F43C1
:1038C000A0D10024002300224DE6B04CA74200D135
:1038D000DDE0382B00DD85E08024240425431F2B08
:1038E00000DDECE02026F41AA1462C004E46B44040
:1038F0006646DE403443A04666464C46A640DD4060
:10390000741EA6414446491B3443131B9A429241FC
:103910005242984604003E008D1A6FE7F61A0300E3
:103920009B4D15405B0700D0F6E6FBE618000F0044
:103930002038C740202B03D04020C31A99400A43A7
:10394000531E9A411000384351E79149F31A0A4037
:103950005707D5082A035B05120B5B0D03E680238E
:103960001B041D4200D1BBE01D000023984624E645
:103970008648834200D1DAE6624462458041691894
:1039800040420918C8075208104380464D085207A4
:1039900005D00F221E000240042A00D0CCE542468A
:1039A0006F07D20817430D09D4E77848874200D142
:1039B000D5E0382B00DCB2E080252D04294200D16F
:1039C0004CE100233E009846F7E501225242624452
:1039D0009445804140422D1A90461E002A0200D58F
:1039E00013E6A9E5531E9A42924152428D1A984617
:1039F00004003E002B0200D507E69DE504000D0003
:103A0000D208C8E6002B00D0E3E0002F3FD180228F
:103A100000245E4B1203A6E56346D31A9A429241F4
:103A20004D1B524298460400AD1AEBE66244160064
:103A3000664580416A1840421218130200D49DE086
:103A4000534973080A40D107194357085B0700D14F
:103A5000FEE00F230B40042B00D1F9E00B1D98462C
:103A60008845AD416D420223ED195CE663469B1A21
:103A70009C4580416D1A40422D1A98462B020DD468
:103A800043466F07DB081F43ED08012362E74E073B
:103A9000D20804001643CD0870E604000126AFE604
:103AA00018000F002038C740202B03D04020C31A35
:103AB00099400A43531E9A41100038431FE61C00E8
:103AC0002E00203CE640202B05D04024E31A9D40E8
:103AD00063462B439C466446631E9C41344314E773
:103AE00001236344984627E56346D31A9A429241DC
:103AF0004D1B5242AD1A98462B02CED443466F0757
:103B0000DB081F4304000123ED0823E7002F00D149
:103B1000D7E604000D009446BDE60300D9E58020F9
:103B2000000405431F2B6BDC2020C01A80462800B0
:103B30004646B0406646DE400643B14660464646CD
:103B4000B040DD40461EB0414E46491930438046E4
:103B500090449045924152423E005518D5E54E079B
:103B6000D2081643CD0809E663469E189642924154
:103B7000691852428A18130200D561E75707F60800
:103B800001233743D508E5E6FE070000FF070000E4
:103B9000FFFF7FFF002BE2D06346DE086B071E436A
:103BA0000B00ED08134300D1E8E580231B031D4201
:103BB00006D0C808184203D10500D60849070E43AD
:103BC000730FF600F6085B071E43D7E50D00D20819
:103BD000E1E56346DE086B071E43ED08002F00D1C8
:103BE000CCE580231B031D42EAD0CF081F42E7D15A
:103BF000D608490704003D000E43E1E723006EE6C6
:103C000018002E002038C640202B05D04020C31AB3
:103C10009D4063462B439C466046431E984130437B
:103C200095E720210023091A0EE50023002F00D17B
:103C3000BAE50D00904676E547461F4300D140E6C1
:103C40001D00C44627E60122624490461E0073E42C
:103C5000C9087F0702230F4315097BE6531C9846CA
:103C60000D003E0068E4D6084B071E43CD0885E5ED
:103C7000030057E7114BD2082B405F0717435A0246
:103C8000120B01236FE43300B8464CE54346DA08D3
:103C9000330080E532420AD0084B04001A406746E0
:103CA00001235BE4013290460D001E0044E4DB0872
:103CB00057071F4304000023D5084BE6FFFF7FFF93
:103CC000F0B5DE46454657464E46E0B587B0009211
:103CD00001930B031B0B9B46CA0F4B00040080464D
:103CE0005B0D029200D1BFE08F4A934238D0594613
:103CF000420FC9000A43802109041143C2009046C3
:103D00008A4A894692469A44002300240393009EDF
:103D1000019F3B031B0B7A0030009B46520DFD0FA9
:103D2000002A00D17FE0804B9A426ED05946730F33
:103D3000C9000B438021090419438B467B49F300DA
:103D40008C46514662448A1A92460021029E6E4079
:103D5000F6B20F2C00D9F9E0754AA4001259974623
:103D60005A460243914600D0B6E09A460223904656
:103D700008240393CBE72E0000210023002288466D
:103D80001B051343F60733434046190007B0F0BC48
:103D9000BB46B246A946A046F0BDCB464346029D6F
:103DA0000399022900D1FAE1032900D1A1E00129F8
:103DB000E1D0604A524490464446002C00DC00E2C8
:103DC0005A0704D00F221A40042A00D07FE22E00A6
:103DD000DA085B46DB0106D55946574B802419406B
:103DE0008B46E4005444554B9C4209DC5B465B0720
:103DF000134398465B4664055A02120B630DBFE7F6
:103E0000002100228846484BBAE75B46009A1343DC
:103E10004B4A9446E244002B59D10222144300221B
:103E20000221934692E75B46009A134349D05B46D2
:103E3000002B00D1A4E1584600F0F8FF0300020077
:103E40000B3B1D27009EFB1A11005846DE40083927
:103E50008840330003439B46009B8B4039495244C2
:103E60008A460021924471E75B460343994621D07C
:103E70005B46002B00D171E1584600F0D7FF0B23C1
:103E80005B429C460200844466461D239B1B260021
:103E900011005846DE4008398840330003439946F4
:103EA00023008B409846284B00249B1A9A460023F7
:103EB00003932CE7002398469A4601330424039386
:103EC00025E7012214430022012193463EE7032304
:103ED00003211C43330039E79A460323D9460C24B7
:103EE000039314E700238022984600260E4B12030A
:103EF00046E78022594612030A43120398462E00D1
:103F0000094B120B3CE7802249461203114202D0B2
:103F100059461142F0D080224B4612031A43120335
:103F2000029E014B120B2BE7FF07000001FCFFFF75
:103F3000406E0008FF030000FFFFFFFEFE070000C9
:103F400001F8FFFFF30300000DFCFFFFCB4500D29B
:103F5000FAE000D1F5E001225242944600224446A4
:103F600048469046E2445A461F0E12021B02029334
:103F7000130C994617433B041B0C4946009300F071
:103F800051FF009A0B044243210C050019438A4259
:103F900007D9C919013D8F4203D88A4201D9851E2C
:103FA000C919881A494600F03DFF009A240442438B
:103FB0000904240C03000C43A24204D9E419013B78
:103FC000A74200D8F7E00299A01A2D040C0C0904AE
:103FD0001D43090C2A0C2B04AB460D001B0C5D4342
:103FE000059163435143049462435B182C0CE3181E
:103FF000994203D9802149028C466244190C2D0450
:104000001B042D0C8A185D19904200D287E000D164
:1040100082E043465D1BA8459B41801A5B42C01A63
:10402000B14B534498461C00874200D10CE14946ED
:1040300000F0F8FE0200009B03905A430B04290C89
:1040400019438A420AD90300C919013B03938F42DD
:1040500004D88A4202D9831E0393C919881A494693
:1040600000F0E0FE0A00120494462A046546009916
:10407000120C414303002A43914207D9D219013857
:10408000974203D8914201D9981ED219039B521A24
:104090001B0403430598190C05008C461904090CF0
:1040A0004D438946614600956546484304994D4312
:1040B000AC464D464D432918009D2D0CA946494458
:1040C000884203D9802040028146CC44009D080CE0
:1040D0002D0409042D0C60444D1982420FD30BD0DE
:1040E00001221343814A92456CDB1A1D9A429B417F
:1040F0005B42D2089B446CE6002D00D193E0591E30
:10410000BA188C46BA4200D285E0824200D2C7E09B
:1041100000D1D5E00B00E3E7A84500D379E75B4683
:10412000591E029B9C46E0441C0098459B415B4203
:10413000DB19C018874238D2824278D875D08B46B6
:1041400067E7434500D906E74A46D4075008424688
:10415000520814434246D207904604E700F066FE38
:1041600015239C4684440200634620321C2B00DC4D
:104170008AE623000838834099460023984692E651
:1041800000F054FE03000200153320321C2B00DC2B
:1041900057E600990838814000238B465EE60021EF
:1041A0002E0000228846524BEAE58742C7D144459B
:1041B000C2D98B462DE7A24200D804E7831EE4193A
:1041C00001E72E0001224146521A382A00DDD3E5CC
:1041D0001F2A3FDC47481C00504459468340814019
:1041E000D440581E834121430B435946D1400A0015
:1041F000590709D00F211940042905D0191D9942EA
:104200009B415B42D2180B00110268D500210123AB
:1042100000228846B4E50B00824200D060E7029A93
:10422000954200D05CE73500C6E5454587D90223B5
:104230005B429C46029BE3449C46E04498459B417C
:104240005B42DB19C018E4E6002B36DD01230022B7
:104250009B44BEE51F2140464942091A5846C840C2
:104260000100202A04D05846234A52449040034378
:104270005A1E934107200B430100002219401842A7
:1042800009D00F21194004291FD0181D98428941D7
:10429000030049424907DB080B43984600236FE5BA
:1042A0000299023B49008C4602998C45894149425A
:1042B000C919521861460291AEE701235B4281E7BA
:1042C0000299A942ECD36346A9E70021E3E71A1D4E
:1042D0009A429B415B422E00D2089B4479E55107EC
:1042E0005202120BD7E7C046FF03000002FCFFFF9B
:1042F000FF0700001E0400003E040000F0B5574612
:10430000DE464E464546E0B50D000400E80F834604
:104310000903D80F090B82461A488C461F0369000F
:104320005E00490D3F0B760D81421AD0864211D0B6
:104330000120B1420FD1BC450DD1A2420BD1D345D2
:104340001ED0002907D1614611430A00531E9A412D
:10435000100000E00120F0BCBB46B246A946A046D2
:10436000F0BD01208E42F6D1614639430F0017435C
:104370002743F0D15B465246981A431E9841EAE71C
:104380000020E8E7FF070000F0B557464E464546D7
:10439000DE46E0B50D000E034900490D8A46DF0FE9
:1043A000E90FBC4683B02F4F0400804601915800AE
:1043B00019039146360B090B400DBA451DD0B84282
:1043C0000DD05746002F2AD13443002824D10A4368
:1043D00036D0002C41D163465800013815E0114316
:1043E00038D15346002B01D12643F4D0019B6345BD
:1043F00007D1019B5800013807E026432AD15045D8
:1044000021D00120019B5F42384303B0F0BCBB4682
:10441000B246A946A046F0BD002CDCD0E6E7002855
:10442000EFD0019B6345ECD18245EADCE1DB8E42B3
:10443000E7D8DED1C845E4D80020C845E5D2D8E7A2
:10444000002CE2D0DDE7114304D1019B6345D8D1B4
:104450000020DAE702204042D7E7019B6345E6D01F
:10446000CFE7C046FF070000F0B557464E46454629
:10447000DE46E0B50D000E034900490D8A46DF0F08
:10448000E90FBC4683B02E4F0400804601915800CE
:1044900019039146360B090B400DBA451ED0B842A0
:1044A0000DD05746002F27D13443002833D10A437B
:1044B00034D0002C40D163465800013815E0114338
:1044C00012D15346002B01D12643F4D0019B634502
:1044D0001DD00120019B5F42384306E0264303D1F3
:1044E0005045F6D111431CD0022003B0F0BCBB46AE
:1044F000B246A946A046F0BD0028EAD0019B63451C
:10450000E7D18245E5DC02DB8E42E2D80ED0019B8A
:1045100058000138E9E7002CCDD0D7E7002CE4D0D3
:10452000D7E7019B00206345DFD0D2E7C845D0D84C
:104530000020C845D9D2EAE7019B6345E4D0C8E72B
:10454000FF070000F0B557464E464546DE46E0B54B
:104550001F000B031B0B16009846CA0F4B000400EC
:10456000924685B05B0D00D1C2E1CC4A934200D1A6
:1045700028E14146420FC9000A4380210904114342
:10458000C2009146C64A884693469B4400230025B4
:1045900001933C037A00FB0F3000240B520D009373
:1045A00000D185E1BD4B9A4200D160E1BC4B9C46F5
:1045B000624493440A2D00DD14E1730FE4001C43B0
:1045C00080231B042343F0005246009900264A40F2
:1045D0009246022D11DD0122AA40A6211400C90035
:1045E0000C400A4200D0FDE0902189000A4200D030
:1045F000D4E18821114200D0EFE049464A4609043F
:10460000140C090C020C0F0015000004000C65438B
:1046100047430195B9462F000D0006005543AC46AF
:104620004D4666432D0CB4446544AE4205D93E0068
:1046300080277F02BC46664401964F463F043F0CEC
:104640002E0C2D04ED1902951D0C1B041B0C00955E
:104650001D001F0065434F43AC46009D69436C43FA
:104660003D0CA946614449448C4503D980256D021F
:10467000AC4664443F040D0C3F0C0904C919AC4618
:104680007518039545462E04360C2F0C350045430E
:104690007843804638006444AC462D0CA94650430C
:1046A000724342444A44904503D980256D02A8468E
:1046B0004044150CA84665462D042D0CAC4635002B
:1046C0005D4312046244AC467B43009D40449846DF
:1046D0002B006E4365467B4346442D0CAD191F00ED
:1046E0000093A84504D980235B029846474400976D
:1046F000039B019E98462B044644984663468E428F
:1047000089411B041B0C4344B61849421B195F180E
:1047100096429241BC465242804691468C45894120
:10472000A3429B41E044C14449425B4291459241CE
:104730000B43804589412D0C494252420A435B1983
:104740009B18009A029994464A4663445B02D20D34
:104750001A43904672020A43511E8A41F60D1643CF
:104760004A4652021643B146DB0154D44D4A5A44DC
:10477000002A00DC18E133005B0715D00F215B46EF
:104780003140042910D04946081D484589418146D9
:10479000494288444146C90106D54146424A114032
:1047A00080228846D2009A18404B9A4200DD2BE1C5
:1047B00041464B464C07DB081C4352054B021B0B82
:1047C000520D1AE042460243914600D0E0E09B467B
:1047D0000223904608250193DBE6009A984692460C
:1047E00081460196019B022B00D10DE1032B35D0B0
:1047F000012B1BD100220023002412051A4353462B
:10480000DB071A432000110005B0F0BCBB46B246DE
:10481000A946A046F0BD0122730832401343424628
:10482000D2071343994643465B08984680225B466D
:10483000D2005A440133002A00DCB6E04946490759
:10484000A8D00F214846014004299CD1A2E70F2D92
:1048500000D1FDE0009BA0469A46B1468023424627
:104860001B0313431B034C460C4A1B0BC5E70B49A8
:1048700033008C462343E344002B77D102212943A4
:104880000A29AFDC5046009C60408246002D00D1D2
:104890000EE10D00002002269DE6C046FF07000045
:1048A00001FCFFFFFF030000FFFFFFFEFE0700000B
:1048B000230033434BD0002C00D1BBE0200000F09C
:1048C000B5FA030002000B3B1D20C31A3000D8408C
:1048D00011000300300008398C40884023435946BA
:1048E0008A1A78498B4693440A2D00DC6CE679E7F6
:1048F00043460343994623D04346002B00D187E02B
:10490000404600F093FA0B235B429C46020084442D
:1049100011004046083988401D23804660461B1A16
:104920002000D840030040460343984623008B40B4
:104930009946644B00259B1A9B460023019328E669
:10494000002398469B4601330425019321E601226A
:1049500015430A2D00DD45E7524600994A4092462C
:10496000022D00DC46E70020012634E603231D4328
:104970000A2D00DD6BE75346009A8821534001223F
:10498000AA409A4603262300114200D135E624E7C7
:104990009B46032381460C250193FAE500239A46A2
:1049A0008023494A1B0328E75B460121891A3829DD
:1049B00000DD1FE71F295ADD1F204042821A4046B2
:1049C000D040202908D0414A9446424663449A4048
:1049D00013004A461A4391464A460721531E9A41FC
:1049E0000C00024300231440114209D00831114049
:1049F000042960D0111D9142A4410A006442640759
:104A0000D20814430022F8E6002300242E4AF4E6DC
:104A100000F00CFA15239C468444020063462032C1
:104A20001C2B00DC74E700239946230008388340E0
:104A300098467EE700F0FAF90300020015332032B1
:104A40001C2B00DC40E7330008388340002046E799
:104A5000802342461B031A4200D1FFE61C4200D0CD
:104A6000FCE6009A234392463400174AC5E6184AEA
:104A7000404694464A4663449840CA4010434A46DA
:104A80009A40531E9A4143460243CB40510709D0F6
:104A90000F211140042905D0111D9142924152422B
:104AA0009B180A00190208D5012200230024A4E65D
:104AB00000230024A1E60024A2E75C075B021B0B95
:104AC0009EE7C0460DFCFFFFFF0700003E0400000C
:104AD0001E04000070B5002816D0C317C5185D402D
:104AE000C40F280000F0A2F9104B1B1A5B055B0DE8
:104AF0000A2814DC02002E00153296400B22121AEE
:104B0000D5402D032D0B03E00024002300250026B3
:104B10001B052B43E40723433000190070BD0B38FD
:104B200085402D0300262D0BF2E7C0461E04000031
:104B300010B5041E10D000F079F90E4B1B1A5B055E
:104B40005B0D0A280FDC0B222100121AD140153010
:104B50000A038440120B01E0002300221B051343CB
:104B60002000190010BD22000B38824012030024DF
:104B7000120BF3E71E04000070B542024300C40F9D
:104B8000FE201B0E591C550A08420CD0E02189005A
:104B90008C466D07120B63441B051343E407234344
:104BA0002800190070BD002B14D1002D1BD0280047
:104BB00000F03CF90A281CDC0B232A001B1ADA40FF
:104BC000030015339D400E4B12031B1A5B05120B9D
:104BD0005B0DE1E7002D09D0130B802212031A436D
:104BE0006D07084BD8E700230022D5E70022054BCC
:104BF000D2E703002A000B3B9A400025E3E7C046BA
:104C000089030000FF070000F0B54B000F035B0DA8
:104C10003D4C450F83B07F0A5E1C2F4300900191ED
:104C2000CA0FC50026420BD038495C18FE2C12DD95
:104C3000FF200023C0051843D207104303B0F0BD86
:104C400000203D43002BF5D0002DF1D08023DB0365
:104C5000FF203B43EEE7002C0CDD009BFF009B0197
:104C6000581E8341690F3B430B43590725D1DB088D
:104C7000E0B2DFE7210017312EDB80211E2009047E
:104C80003943001B1F282ADD02267642341B0E0002
:104C9000E6403400202804D01D48844663449940EF
:104CA0000D432B00591E8B41234307211800084058
:104CB0000B421FD19B015B0ABCE70F21194004295D
:104CC00003D19B015B0AE0B2B4E704335901F8D584
:104CD00001340023E0B2ADE700200023AAE70D4C29
:104CE0001C192B00A540C340A140681E85412943E3
:104CF0000B43DAE70F21002419400429E5D19B0179
:104D000020005B0A96E7C046FE07000080FCFFFF1C
:104D1000A2FCFFFF82FCFFFF002243088B4274D3FA
:104D200003098B425FD3030A8B4244D3030B8B42AC
:104D300028D3030C8B420DD3FF22090212BA030CB5
:104D40008B4202D31212090265D0030B8B4219D396
:104D500000E0090AC30B8B4201D3CB03C01A5241B6
:104D6000830B8B4201D38B03C01A5241430B8B42FE
:104D700001D34B03C01A5241030B8B4201D30B03E7
:104D8000C01A5241C30A8B4201D3CB02C01A52410E
:104D9000830A8B4201D38B02C01A5241430A8B42D1
:104DA00001D34B02C01A5241030A8B4201D30B02BA
:104DB000C01A5241CDD2C3098B4201D3CB01C01AD4
:104DC000524183098B4201D38B01C01A52414309DE
:104DD0008B4201D34B01C01A524103098B4201D3CC
:104DE0000B01C01A5241C3088B4201D3CB00C01A39
:104DF000524183088B4201D38B00C01A52414308B1
:104E00008B4201D34B00C01A5241411A00D20146D5
:104E1000524110467047FFE701B50020FDF7F8FA50
:104E200002BDC0460029F7D076E770471C21012358
:104E30001B04984201D3000C10391B0A984201D37D
:104E4000000A08391B09984201D30009043902A25B
:104E5000105C40187047C0460403020201010101C2
:104E600000000000000000000CB430B50C0000256C
:104E70009DB002940694094C20AB04CB0794049493
:104E8000074C02A9019305944D6600F0CFF9029BEF
:104E90001D701DB030BC08BC02B01847FFFFFF7F7B
:104EA0000802FFFF0EB410B500249DB002900690DA
:104EB0000A481FAB07900490094804CB05900948A5
:104EC00002A9006801934C6600F0B0F9029B1C70C7
:104ED0001DB010BC08BC03B01847C046FFFFFF7FE1
:104EE0000802FFFF08000020104B70B51D68040089
:104EF0002A6B002A16D1182000F000FC021E28633D
:104F000004D146210A4B0B4800F08CF80A4B0021D3
:104F100003600A4B43600A4B83600B2383810120AB
:104F20001061516100231461536170BD08000020BD
:104F3000806E0008976E00080E33CDAB34126DE61C
:104F4000ECDE0500164B70B51D682C6B002C17D1DC
:104F5000182000F0D3FB041E286305D12200522143
:104F6000104B114800F05EF8104B01220360104B0B
:104F70004360104B83600B238381002302614361F4
:104F8000206961690C4A0D4B01F0F2FC01220023FB
:104F900080185941206161614800400870BDC046D9
:104FA00008000020806E0008976E00080E33CDAB1D
:104FB00034126DE6ECDE05002D7F954C2DF4515832
:104FC0000EB403B503AB04CB8168019300F06AFA19
:104FD00002B008BC03B018470FB407B5054904ABCD
:104FE000086804CB8168019300F05CFA03B008BC48
:104FF00004B0184708000020C9B20378002B04D081
:105000008B4200D170470130F7E74B42594149428A
:105010000840F7E70023C25C0133002AFBD1581E89
:10502000704700007FB514001A00094B05001B688B
:105030000E00D868074B002C01D1074B1C00074914
:10504000019302942B00009600F0D6FE01F00CFABA
:1050500008000020F86E0008336F0008056F000894
:10506000130010B50022FFF7DDFF0000F0B58E68D9
:1050700085B01F000C00330002900392BE4254D84A
:105080000C22885E9022D20010422CD003220969A3
:1050900023685B1A019363695343019ADD0FED188E
:1050A0007B1C6D109B182A00AB4201D91D001A0011
:1050B000400527D51100029800F056FB061E2AD0A5
:1050C000019A216901F0C7F9A289194B1A4080237E
:1050D0001343A381019B2661F618266065613E009B
:1050E000ED1A3B00A5601F003A000399206801F00B
:1050F0004AF90020A3689B1BA3602368DB19236087
:1051000005B0F0BD029800F087FE061EE2D12169CD
:10511000029801F0B1F90C230120029A4042136079
:10512000A28934331343A381EAE73E00DCE7C0469B
:105130007FFBFFFFF0B5936887B00C001700049069
:10514000002B55D013680293029B1B680593029BAA
:105150005B680193029B08330293019B002BF3D001
:10516000A6683500B3425DD30C23E05E9023DB00DC
:1051700018422DD00322216923685B1A03936369C7
:105180005343DD0FED18039B019A01336D109B18FB
:105190002A00AB4201D91D001A0040052DD511008F
:1051A000049800F0E1FA061E30D0039A216901F05C
:1051B00052F9A2891C4B1A4080231343A381039BFD
:1051C0002661F61826606561019EED1AA56035001E
:1051D0002A000599206801F0D6F8A368019A9B1B64
:1051E000A36023685B192360BB689B1ABB60ABD1CB
:1051F000002000237B6007B0F0BD049800F00CFE97
:10520000061EDCD12169049801F036F90C23049ABA
:1052100001201360A28934331343A3810023404249
:10522000BB60E6E7019ED2E77FFBFFFFF0B59FB0D2
:1052300002901C008B890E0015001B0611D50B690E
:10524000002B0ED1402100F08FFA30603061002831
:1052500005D10C23029A136001204042D4E0402380
:1052600073610023292102AA52180B932033137073
:10527000013102AA10335218137005942C002378C0
:10528000002B01D0252B48D1671BAC420BD03B0033
:105290002A0031000298FFF7E9FE013000D1AEE0AC
:1052A0000B9BDB190B932378002B00D1A7E0012285
:1052B000532100235242079202AA5218651C0693FA
:1052C0000993089313701C93554F297805223800D1
:1052D00001F0B6F86C1C069906AB00281FD1CA066F
:1052E00004D55327202202A8C01902700A0704D54A
:1052F00053272B2202A8C01902702A782A2A15D017
:105300002C0000200A27DA682178651C3039092929
:1053100050D9002811D009920FE00134AFE70123E2
:10532000C01B83400B4325000693CDE7059A101D53
:1053300012680590002A37DBDA6022782E2A0CD119
:1053400062782A2A3BD1059A0234111D1268059110
:10535000002A01DA012252425A60324D032228000B
:10536000217801F06DF806AF002806D04023401BDD
:105370008340069A013413430693217806222A4873
:10538000651C397601F05CF800283FD0274B002BD4
:1053900029D10722059B07339343083305930B9BC1
:1053A00003995B180B9369E75242DA6002220A43C1
:1053B0000692C2E77A432C0001205218A4E700228B
:1053C0000A205A601100130001342278651C303A1B
:1053D000092A03D9002BC0D00791BEE741432C0016
:1053E00001238918F1E705AA009239003200104B19
:1053F000029800E000BF0390039B0133CFD1B38933
:105400000B985B0600D527E71FB0F0BD05AA0092F8
:1054100039003200064B029800F096FAEBE7C046DE
:10542000346F00083A6F00083E6F0008000000006B
:105430006D500008936810B5013B9360002B04DAAF
:105440009469A34207DB0A2905D01368581C106031
:105450001970080010BD00F00FFD0100F9E7F8B564
:1054600006000F001400D518AC4201D1002007E05F
:1054700021783A003000FFF7DDFF0134431CF3D1FF
:10548000F8BD002310B5140092689A4205D022009E
:1054900000F098FD00220300A26000221800626064
:1054A00010BD0000F0B59FB00D0016001C0002906A
:1054B000002804D0036A002B01D100F05DFC6B6E64
:1054C000DB0705D4AB899B0502D4A86D00F09FFFD4
:1054D000AB891B0702D52B69002B13D12900029839
:1054E00000F016FD00280DD06B6EDB0703D5012000
:1054F00040421FB0F0BDAB899B05F8D4A86D00F009
:105500008CFFF4E70023292102AA52180B932033C1
:105510001370013102AA103352181370059434002D
:105520002378002B01D0252B48D1A71BB4420BD0E8
:105530003B00320029000298FFF791FF013000D1B3
:10554000AEE00B9BDB190B932378002B00D1A7E077
:105550000122532100235242079202AA5218661CCC
:1055600006930993089313701C93594F31780522C1
:10557000380000F065FF741C069906AB00281FD1A7
:10558000CA0604D55327202202A8C01902700A07B0
:1055900004D553272B2202A8C019027032782A2A78
:1055A00015D0340000200A27DA682178661C3039CB
:1055B000092950D9002811D009920FE00134AFE732
:1055C0000123C01B83400B4326000693CDE7059AB9
:1055D000101D12680590002A37DBDA6022782E2A27
:1055E0000CD162782A2A3BD1059A0234111D126827
:1055F0000591002A01DA012252425A60354E0322F7
:105600003000217800F01CFF06AF002806D04023B0
:10561000801B8340069A01341343069321780622A7
:105620002D48661C397600F00BFF002847D02B4B25
:10563000002B29D10722059B073393430833059399
:105640000B9B03995B180B9369E75242DA600222C5
:105650000A430692C2E77A43340001205218A4E7B5
:1056600000220A205A601100130001342278661CBF
:10567000303A092A03D9002BC0D00791BEE7414335
:10568000340001238918F1E705AA009239002A00A5
:10569000134B029800E000BF0390039B0133CFD16E
:1056A0006B6EDB0705D4AB899B0502D4A86D00F0B7
:1056B000B4FEAB895B0600D519E70B9819E705AA7C
:1056C000009239002A00064B029800F03DF9E3E70A
:1056D000346F00083A6F00083E6F000800000000B9
:1056E0005F54000810B5044C13000A000100206844
:1056F000FFF7D8FE10BDC0460800002010B5034BD0
:105700000100186800F030F810BDC0460800002005
:1057100010B5034B0100186800F0AEFE10BDC04686
:105720000800002070B50F4E0D00316804000029FC
:1057300002D100F055FE30602900200000F050FE3C
:10574000431C03D101256D42280070BD0323C51CF5
:105750009D43A842F8D0291A200000F041FE0130F4
:10576000F2D1EFE7F0010020F7B50322CB1C934301
:10577000083305001F000C2B34D20C27B94233D854
:10578000280000F0EDF9374E33681C00002C2FD1B3
:1057900039002800FFF7C6FF0400431C5FD13468BE
:1057A0000094009B002B4AD1002C52D02368280083
:1057B000E3180099019300F013FE019B834248D146
:1057C00023682800FF1A3900FFF7ACFF013040D0F2
:1057D0002368DB19236033685A68002A33D1009BA1
:1057E000336019E0002BC9DA0C232B600020FEBDCA
:1057F0002168C91B20D40B290AD9E2192760A342CA
:1058000004D1326063681160536005E05A60F9E7C3
:105810006268A3420ED13260280000F0A9F920008E
:1058200007220B30231D9043C21A9842DFD01B1A67
:10583000A350DCE75A60EFE723006468A6E7009C0A
:1058400063680093ADE71A005B68A342FBD10023B5
:10585000DAE70C2328002B6000F08AF9C6E707601E
:10586000DAE7C046F4010020F7B5160001938A6814
:105870000B690C000090934200DA130022003360A1
:1058800043321278002A01D00133336023689B062B
:1058900002D53368023333602268062315001D40A9
:1058A0001A4227D0230043331B785A1E93412268A3
:1058B000920630D4220001990098089D4332A847EF
:1058C000013025D00622236800251340042B05D182
:1058D0003368E568ED1AEB43DB171D40A3682269C6
:1058E000934201DD9B1AED180026B54220D100201D
:1058F00010E00135E36832689B1AAB42D2DD22002A
:10590000012301990098089F1932B8470130F0D15E
:1059100001204042FEBD3020E118433108702100D3
:105920005A1C45310978A218433202331170C1E77D
:105930002200012301990098089F1A32B8470130CC
:10594000E6D00136D1E70000F0B58BB006920A0030
:1059500043320793059003920A7E0C00109B782A2D
:1059600009D8622A0BD8002A00D1BAE07A490491FA
:10597000582A00D18EE0250042352A7022E010001E
:1059800063381528F7D800F0E9FF16001F00F6FF6E
:10599000F6FFF6FFF6FF1F00F6FFF6FFF6FFF6FF35
:1059A0009F0036007E00F6FFF6FFB000F6FF3600DF
:1059B000F6FFF6FF820025001A684235111D1960B6
:1059C00013682B7001239EE018680968021D0D06FC
:1059D0000BD506681A60002E03DA2D23039A76424F
:1059E00013705D4B0A27049318E006681A60490695
:1059F000F1D536B2EFE70868196840C9050602D448
:105A0000400600D5B6B21960534B0A2704936F2A9B
:105A100000D1023F2300002243331A706368A36061
:105A2000002B06DB04212268039D8A432260334356
:105A30000CD0039D30003900FFF7F4F9049B013DC1
:105A40005B5C2B70330006009F42F3D9082F09D10D
:105A50002368DB0706D5626823699A4202DC30239B
:105A6000013D2B70039B5B1B2361079B210000936F
:105A70000598069B09AAFFF7F7FE013048D10120DF
:105A800040420BB0F0BD202209680A432260782210
:105A900032490491210045310A701968226840C9D1
:105AA000100602D4500600D5B6B21960D30702D54D
:105AB000202313432360002E01D01027AAE72022C1
:105AC000236893432360F8E71A680D68101D49693D
:105AD000186013682E0601D5196002E06D06FBD52B
