:020000040800F2
:1000000000200020B90000089D0A0008B10A00087D
:1000100000000000000000000000000000000000E0
:100020000000000000000000000000009D0A000821
:1000300000000000000000009D0A00089D0A000862
:100040009D0A00089D0A00089D0A00089D0A0008F4
:100050009D0A00089D0A00089D0A00089D0A0008E4
:10006000000000009D0A00089D0A00089D0A000883
:100070009D0A00089D0A0008000000009D0A000873
:10008000000000009D0A00080000000000000000C1
:100090009D0A0008000000009D0A00089D0A000853
:1000A0009D0A00089D0A00089D0A0008290D000805
:1000B0009D0A00089D0A000800F06CFC00F02EFC70
:1000C000E1235B02180000F087FD62B6C04600F035
:1000D0008FFB024B180000F0EFFEFEE7C87300082C
:1000E00080B582B000AF0200FB1D1A70FB1D1B78AB
:1000F0001900104801F00EF9030019000E4801F034
:1001000009F903005A1E0D4B5A600C4B00229A60ED
:100110000A4B05221A60C046084B1A6880235B020E
:100120001340F9D0054B00221A60C046BD4602B00C
:1001300080BDC04640420F000048E80110E000E0EA
:1001400080B584B000AF78600023FB6015E00B231E
:10015000FB1800221A7008E0FA20FFF7C1FF0B21FC
:100160007B181A787B1801321A700B23FB181B7846
:10017000032BF1D9FB680133FB60FA687B689A4274
:10018000E5D3C046C046BD4604B080BD80B500AFD3
:10019000A023DB055A69A023DB0502210A435A612B
:1001A0002820FFF79DFFA023DB055A69A023DB056C
:1001B00002218A435A61C046BD4680BD80B582B0E7
:1001C00000AF0200FB1D1A70FB1D1B785BB2002BF9
:1001D00008DAA023DB055A69A023DB0520210A43A6
:1001E0005A6107E0A023DB055A69A023DB05202123
:1001F0008A435A61FB1D1B784022134008D0A0237C
:10020000DB055A69A023DB0510210A435A6107E088
:10021000A023DB055A69A023DB0510218A435A611C
:10022000FB1D1B782022134008D0A023DB055A6950
:10023000A023DB0508210A435A6107E0A023DB0560
:100240005A69A023DB0508218A435A61FB1D1B78EC
:100250001022134008D0A023DB055A69A023DB0538
:1002600004210A435A6107E0A023DB055A69A02351
:10027000DB0504218A435A61FFF788FF2820FFF736
:100280002FFFFB1D1B780822134008D0A023DB059D
:100290005A69A023DB0520210A435A6107E0A02305
:1002A000DB055A69A023DB0520218A435A61FB1D27
:1002B0001B780422134008D0A023DB055A69A02331
:1002C000DB0510210A435A6107E0A023DB055A69C8
:1002D000A023DB0510218A435A61FB1D1B780222F3
:1002E000134008D0A023DB055A69A023DB050821B1
:1002F0000A435A6107E0A023DB055A69A023DB0506
:1003000008218A435A61FB1D1B780122134008D043
:10031000A023DB055A69A023DB0504210A435A61A7
:1003200007E0A023DB055A69A023DB0504218A43EB
:100330005A61FFF72BFFC046BD4602B080BD80B5B5
:1003400082B000AF0200FB1D1A70A023DB055A69C2
:10035000A023DB0501210A435A61FB1D1B7818000D
:10036000FFF72CFF0220FFF7EBFEC046BD4602B0B0
:1003700080BD80B582B000AF0200FB1D1A70A023C3
:10038000DB055A69A023DB0501218A435A61FB1D65
:100390001B781800FFF712FF0520FFF7D1FEC046BB
:1003A000BD4602B080BD80B500AFA023DB055A6911
:1003B000A023DB0502218A435A611420FFF7C0FE07
:1003C0003320FFF7D6FF3320FFF7D3FF3220FFF7AC
:1003D000D0FF2820FFF7CDFF0C20FFF7CAFF012038
:1003E000FFF7C7FF1420FFF7ABFEC046BD4680BD38
:1003F00080B584B000AF786008001100FB1C021CBF
:100400001A70BB1C0A1C1A70FB1C1B78022B01D132
:10041000C02300E080231800FFF7ABFF0520FFF7A3
:100420008FFE0023FB6009E0FB687A68D3181B7815
:100430001800FFF784FFFB680133FB60FB687A68F4
:10044000D3181B78002BEFD1BB1C1B78002B09D0D5
:1004500005E02020FFF773FFFB680133FB60FB68BA
:100460000F2BF6DDC046BD4604B080BD80B500AFA1
:10047000494BDA6A484B01210A43DA62A023DB05C3
:100480001B68032293431A00A023DB0501210A43C2
:100490001A60A023DB055A68A023DB0501218A43EB
:1004A0005A60A023DB051B680C2293431A00A0238B
:1004B000DB0504210A431A60A023DB055A68A02348
:1004C000DB0502218A435A60A023DB051B6830222A
:1004D00093431A00A023DB0510210A431A60A023CE
:1004E000DB055A68A023DB0504218A435A60A02358
:1004F000DB051B68C02293431A00A023DB054021C3
:100500000A431A60A023DB055A68A023DB050821F3
:100510008A435A60A023DB051B68204A1A40A023A7
:10052000DB05802149000A431A60A023DB055A68D5
:10053000A023DB0510218A435A60A023DB051B683A
:10054000174A1A40A023DB058021C9000A431A601C
:10055000A023DB055A68A023DB0520218A435A60CB
:10056000A023DB051A68A023DB050E490A401A60A8
:10057000A023DB05DA68A023DB058021C9030A4339
:10058000DA60A023DB05DA68A023DB0506490A4010
:10059000DA60C046BD4680BD00100240FFFCFFFF90
:1005A000FFF3FFFFFFFF3FFFFFFF7FFF80B582B03C
:1005B00000AF7860C0467B685A1E7A60002BFAD183
:1005C000C046C046BD4602B080BD80B500AF0B4BF3
:1005D0000B4A5A60094B00229A60084B05221A60A8
:1005E000C046064B1A6880235B021340F9D0034BC8
:1005F00000221A60C046BD4680BDC04610E000E043
:10060000FF7C0000B0B588B000AFF860002000218A
:1006100038617961734974484860724972488860EA
:100620007049052008601EE06E4908688021490273
:10063000014007D038697969012400250019694112
:10064000386179617969002907DC796900290AD163
:1006500039696648814200D805E0624B00221A6081
:1006600000220023B9E0A021C90508698021090101
:100670000140D9D15B49002008605A495A48486076
:1006800058495948886057490520086000200021D2
:10069000386179611EE053490868802149020140B0
:1006A00007D038697969012400250019694138614A
:1006B00079617969002907DC796900290AD13969EA
:1006C0004A48814200D805E0464B00221A600022C9
:1006D000002382E0A021C9050869802109010140A9
:1006E000D9D04049002008603E493F4848603D4914
:1006F0003D4888603B4905200860002000213861A2
:1007000079610021F9614FE036490868802149028A
:10071000014007D038697969012400250019694131
:10072000386179617969002907DC796900290AD182
:1007300039692E48814200D805E02A4B00221A6010
:100740000022002349E0A021C90508698021090190
:100750000140D9D11EE023490868802149020140A7
:1007600007D0386979690124002500196941386189
:1007700079617969002907DC796900290AD1396929
:100780001A48814200D805E0164B00221A60002268
:10079000002322E0A021C905086980210901014048
:1007A000D9D0F9690131F961F869F9688842CADB81
:1007B0000C49002008603969090A786903060B436F
:1007C00039690A06074989680748411A39600021D2
:1007D00079603868796812184B4110001900BD46DD
:1007E00008B0B0BD10E000E0FFFFFF00A0860100F0
:1007F00080B58CB000AF1423FB62FFF737FEFB6AB5
:100800001800FFF79DFCFFF7CEFDFA235B001800F0
:10081000FFF796FC384B180003F060FA374B0122C3
:1008200001211800FFF7E4FD354BDA6A344B012152
:100830000A43DA62A023DB051A68A023DB053149ED
:100840000A401A60A023DB05DA68A023DB058021BB
:1008500049020A43DA60A023DB05DA68A023DB053E
:1008600029490A40DA60FA235B001800FFF768FCA8
:10087000264B180003F032FA6420FFF7C3FE020093
:100880000B003A627B627B6A002B05DC7B6A002BE3
:1008900028D13B6A002B25D0386A796A00F026FE01
:1008A00000221B4B01F068FB02000B001000190036
:1008B00002F0E2F9031CFB61F969FE20800500F0FB
:1008C0002BFE031CBB61B86902F08EF902000B001D
:1008D0001049381D03F03EF83B1D0122022118008B
:1008E000FFF786FD0C4B1B689B68180002F0FCFFAD
:1008F000C820FFF725FCBFE72473000850730008E9
:1009000000100240FFFFFCFFFFFFFDFF60730008C7
:1009100084D7E741C07300081000002080B582B082
:1009200000AF164B7B60164B3B6007E07A68131DE7
:100930007B603B68191D396012681A603A68114B78
:100940009A42F3D304E03B681A1D3A6000221A6011
:100950003A680D4B9A42F6D30C4B3B6004E03B687F
:100960001A1D3A601B6898473A68094B9A42F6D3B9
:10097000C046C046BD4602B080BDC046AC78000847
:1009800000000020CC010020CC030020AC7800083F
:10099000AC78000880B500AF3B4B1A683A4B012198
:1009A0000A431A60C046384B1B6804221340FAD031
:1009B000354B0122DA60C046334BDB680C22134012
:1009C000042BF9D1314B1A68304B02210A431A60CB
:1009D0002E4B1A682D4B01210A431A602A4B9A6B41
:1009E000294B802149050A439A63294B8022120131
:1009F0001A60C046264B5B6810221340FAD1224B86
:100A0000DA68214B23490A40DA601F4BDA681E4B33
:100A10008821C9030A43DA601B4A1B4BD268DA609B
:100A2000194A194BD268DA60174A174BD268DA6054
:100A3000154B1A68144B18490A401A60124B1A6871
:100A4000114B802149040A431A60C0460E4B1A68B4
:100A500080239B041340F9D00B4BDA680A4B032127
:100A60008A43DA60084BDA68074B03210A43DA60ED
:100A7000C046054BDB680C2213400C2BF9D1C04655
:100A8000C046BD4680BDC046001002400020024066
:100A900000700040FFFF02FFFFFFFFFE80B500AFC8
:100AA000024B180000F008FAFEE7C046F073000899
:100AB00080B500AF024B180000F0FEF9FEE7C0461B
:100AC0002074000890B585B000AF78603960184B8D
:100AD0001B68002B02D101235B4224E00023FB6052
:100AE0000AE0FB685A1CFA603A68D418114B1800E7
:100AF00000F0ADF9030023707B68013B1A00FB682E
:100B0000934205D20B4B180000F0CCF9031EE8D13C
:100B1000FB68002B06D03A68FB68D31800221A70D5
:100B2000FB6800E000231800BD4605B090BDC0463C
:100B300064020020CC01002080B584B000AF786052
:100B40003960224B1B68002B02D101235B4238E045
:100B50007B683F2B0BDCC0461D4B180000F0A2F950
:100B600003004022D21A7B689A42F5D302E00223A6
:100B70005B4226E00023FB600BE03A68FB68D31879
:100B80001A78134B1100180000F030F9FB6801339C
:100B9000FB607B68FA689A42EFD30E4B1B68082211
:100BA00013400DD10B4B1A680A4B08210A431A60F7
:100BB000074B180000F04BF903001A00054B9A622E
:100BC00000231800BD4604B080BDC046640200206A
:100BD000180200200038014080B584B000AF786072
:100BE00072B6C046454B00229A64444B9A6C434B04
:100BF0005A64424B5A6C414B1A64414B00229A642E
:100C00003F4B9A6C3E4B5A643D4B5A6C3C4B1A64BA
:100C10003C4B01221A603C4B00221A603B4BDA6AC3
:100C20003A4B01210A43DA62394BFB607968F86874
:100C300000F070FB0300FB60A023DB059A68A02393
:100C4000DB058021C9020A439A60A023DB055A68AC
:100C5000A023DB052F490A405A60A023DB051B684F
:100C60002D4A1A40A023DB05802109030A431A609C
:100C7000A023DB055A6AA023DB0540210A435A6200
:100C8000A023DB051B68254A1A40A023DB05802131
:100C900089030A431A60A023DB055A6AA023DB05F7
:100CA0008021C9000A435A62184B5A6B174B8021A6
:100CB000C9010A435A631A4B1A68194B6C210A433B
:100CC0001A60174B00225A60154B00229A60144B91
:100CD000FA68DA60124B1A68114B01210A431A6054
:100CE000104B1A680F4B802109050A431A6062B63F
:100CF000C046C046BD4604B080BDC046CC01002001
:100D00001802002064020020680200200010024047
:100D10000048E801FFFDFFFFFFFFF3FFFFFFCFFFEC
:100D20000038014000E100E080B500AF084BDB690E
:100D30008022134001D000F025F8054BDB6920220A
:100D4000134001D000F006F8C046BD4680BDC04645
:100D50000038014080B500AF074B5B6ADAB2074B41
:100D60001100180000F042F8031E02D0044B0122CB
:100D70001A60C046BD4680BD00380140CC0100204D
:100D80006802002080B500AF164B180000F08AF80A
:100D9000031E08D0134B180000F059F803001A0086
:100DA000114B9A621BE0104B1A680F4B08218A43C3
:100DB0001A600D4BDB694022134005D00A4B1A6ABA
:100DC000094B40210A431A62074BDB69802213401A
:100DD00005D0054B9A69044B10210A439A61C0461D
:100DE000BD4680BD180200200038014080B582B0A9
:100DF00000AF78600A00FB1C1A707B681A6C7B6875
:100E00005B6C9A4205D17B689B6C002B01D001235F
:100E100019E072B6C0467B681B6C591C7A68116475
:100E20007A68F91C0978D1547B689B6C5A1C7B68E2
:100E30009A647B681B6C402B02D17B6800221A6489
:100E400062B6C04600231800BD4602B080BD80B522
:100E500084B000AF78607B689B6C002B01D10023CD
:100E60001CE072B6C0467B685B6C591C7A685164A2
:100E70000F22BA187968CB5C13707B685B6C402BCF
:100E800002D17B6800225A647B689B6C5A1E7B6887
:100E90009A6462B6C0460F23FB181B781800BD4643
:100EA00004B080BD80B582B000AF78607B689B6C79
:100EB0001800BD4602B080BD80B582B000AF78603A
:100EC0000B4B1B68002B09D101235B420BE07B68B5
:100ED0005A1C7A6019000120FFF72EFE7B681B78F0
:100EE000002BF4D100231800BD4602B080BDC046DF
:100EF0006402002080B582B000AF0200FB1D1A70B2
:100F0000FB1D19000120FFF717FEC046BD4602B0C9
:100F100080BD80B500AF044B1800FFF798FF0300B9
:100F20001800BD4680BDC046CC010020B0B584B0DD
:100F300000AF786039601E4B1B68002B02D1012383
:100F40005B4231E00023FB600B23FB1800221A7088
:100F500017E0C046174B1800FFF7A4FF031EF9D097
:100F60000B257C19134B1800FFF771FF030023704A
:100F7000FB685A1CFA601A007B689B187A19127871
:100F80001A703B68013BFA689A4204DA0B23FB189B
:100F90001B780D2BDDD1FB68002B04DDFB687A6824
:100FA000D31800221A70FB681800BD4604B0B0BD0B
:100FB00064020020CC01002090B583B000AFFC1D7E
:100FC000FFF7A7FF03002370FB1D1B781800FFF736
:100FD00091FFFB1D1B781800BD4603B090BDB0B556
:100FE00084B000AF78603960214B1B68002B02D1C0
:100FF00001235B4237E00023FB600B23FB18002238
:101000001A701DE0C0461B4B1800FFF74BFF031E74
:10101000F9D00B257C19174B1800FFF718FF0300B8
:1010200023702C003B191B781800FFF763FFFB6847
:101030005A1CFA601A007B689B183A1912781A70C9
:101040003B68013BFA689A4204DA0B23FB181B78D1
:101050000D2BD7D1FB68002B04DDFB687A68D31811
:1010600000221A70FB681800BD4604B0B0BDC0462F
:1010700064020020CC01002080B582B000AF78600F
:10108000FEE780B582B000AF786001235B421800B4
:10109000BD4602B080BD80B584B000AFF860B960D5
:1010A0007A60044B0C221A6001235B421800BD4693
:1010B00004B080BD7802002080B500AF034B0B2246
:1010C0001A6001235B421800BD4680BD78020020F3
:1010D00080B582B000AF786039603B6880229201B1
:1010E0005A6000231800BD4602B080BD80B500AF35
:1010F00001231800BD4680BD80B582B000AF786086
:101100003960044B16221A6001235B421800BD4669
:1011100002B080BD7802002080B582B000AF786058
:101120003960044B1F221A6001235B421800BD4640
:1011300002B080BD7802002080B584B000AFF860B6
:10114000B9607A6000231800BD4604B080BD80B548
:1011500082B000AF786039603B68802292015A60AB
:1011600000231800BD4602B080BD80B582B000AF3C
:10117000786001235B421800BD4602B080BD80B597
:1011800082B000AF7860044B02221A6001235B42F8
:101190001800BD4602B080BD7802002080B582B044
:1011A00000AF7860044B0A221A6001235B421800EA
:1011B000BD4602B080BDC0467802002080B582B036
:1011C00000AF78607B68022B01D8012303E0044B59
:1011D00009221A6000231800BD4602B080BDC04637
:1011E0007802002080B586B000AF7860124B7B613A
:1011F000124B3B61124B1B68002B02D1104B7A69DA
:101200001A600F4B1B68FB600D4B1A687B68D31884
:101210003A699A4205D20B4B0C221A6001235B42B9
:1012200006E0074B1A687B68D218054B1A60FB680A
:101230001800BD4606B080BDCC0300200010002081
:10124000740200207802002080B588B000AFF860FA
:10125000B9607A600023BB61FB68002B22D10023B8
:10126000FB611AE0FFF755FE03001A0017217B18F7
:101270001A70BB685A1CBA607A181278D2B21A7007
:10128000BB690133BB617B181B78DBB20A2B01D130
:10129000BB690EE0FB690133FB61FA697B689A4226
:1012A000E0DB05E0054B09221A6001235B4200E008
:1012B000BB691800BD4608B080BDC046780200205A
:1012C00080B586B000AFF860B9607A60FB68013B1A
:1012D000012B11D800237B6109E0BB685A1CBA605E
:1012E0001B781800FFF706FE7B6901337B617A6982
:1012F0007B689A42F1DB05E0054B09221A60012365
:101300005B4200E07B681800BD4606B080BDC04669
:101310007802002003460B437FD4002243088B420F
:1013200074D303098B425FD3030A8B4244D3030B6C
:101330008B4228D3030C8B420DD3FF22090212BA31
:10134000030C8B4202D31212090265D0030B8B42AD
:1013500019D300E0090AC30B8B4201D3CB03C01A97
:101360005241830B8B4201D38B03C01A5241430B72
:101370008B4201D34B03C01A5241030B8B4201D362
:101380000B03C01A5241C30A8B4201D3CB02C01ACD
:101390005241830A8B4201D38B02C01A5241430A45
:1013A0008B4201D34B02C01A5241030A8B4201D334
:1013B0000B02C01A5241CDD2C3098B4201D3CB01DB
:1013C000C01A524183098B4201D38B01C01A52418A
:1013D00043098B4201D34B01C01A524103098B428E
:1013E00001D30B01C01A5241C3088B4201D3CB0079
:1013F000C01A524183088B4201D38B00C01A52415C
:1014000043088B4201D34B00C01A5241411A00D20B
:1014100001465241104670475DE0CA0F00D0494274
:10142000031000D34042534000229C4603098B42E4
:101430002DD3030A8B4212D3FC22890112BA030A6C
:101440008B420CD3890192118B4208D389019211EE
:101450008B4204D389013AD0921100E08909C30973
:101460008B4201D3CB01C01A524183098B4201D375
:101470008B01C01A524143098B4201D34B01C01A60
:10148000524103098B4201D30B01C01A5241C308D8
:101490008B4201D3CB00C01A524183088B4201D347
:1014A0008B00C01A5241D9D243088B4201D34B0062
:1014B000C01A5241411A00D20146634652415B10A4
:1014C000104601D34042002B00D549427047634685
:1014D0005B1000D3404201B5002000F005F802BDCA
:1014E0000029F8D016E770477047C04670B506006F
:1014F000080001F027FB0022064B01F05BF80D000D
:101500000400300001F04CFB2B00220000F01AF91F
:1015100070BDC0460000F041F0B546464F46D64685
:101520004502C0B5C30F470098460E1C6D0A3F0E1A
:101530005BD0FF2F21D08023ED00DB041D4300236F
:1015400099469A467F3F74027300640A1B0EF60F99
:10155000002B20D0FF2B43D080220020E400D204B7
:1015600014437F3B4246FF1A4B4672400F2B00D973
:101570009DE071499B00CB589F46002D5AD108230E
:101580009946063B74029A467300FF27640A1B0EB5
:10159000F60F002BDED1002C3BD1012342464946F9
:1015A000724019430E2918D86448890041588F4663
:1015B0005346022B00D1B8E0032B6ED042462C00DC
:1015C000012B40D100200024C0052043D207104346
:1015D000E0BCBA46B146A846F0BDFF200024F3E7C0
:1015E000002C20D10223FF3FD8E7002D05D1042392
:1015F0009946033B00279A46A5E7280001F04EFCD8
:101600007627431F9D4000237F4299469A463F1A02
:1016100099E7200001F042FC431F9C4076235B4287
:101620001B1A00209EE703234A461A4391460320D3
:10163000FC3397E70C239946093BFF279A4682E73C
:1016400003282CD0320038007F30002847DD6307A4
:1016500004D00F232340042B00D00434230103D5EE
:101660003800374B80301C40FE28B6DCA401640AE9
:10167000C0B2A9E780240022FF20E403A4E780236E
:10168000DB031D4201D01C420BD08024E4032C4319
:1016900064024246FF20640A96E746462C008023F7
:1016A000DB031C4364023200FF20640A8CE76D01F7
:1016B000600185422DD21B230024013F0126290011
:1016C00064006D00002901DB854201D32D1A3443EB
:1016D000013B002BF3D16B1E9D412C43B3E701234B
:1016E0001B1A1B2B00DD6DE721009E37D940BC4043
:1016F0000B00611E8C412343590704D00F21194070
:10170000042900D00433590113D49B0100205C0A42
:101710005AE71A2301242D1AD0E7981E4342584154
:10172000404232000024C0B24EE74246FF2000246F
:101730004AE70120002447E7447400088474000845
:10174000FFFFFFF7F0B54F464646D646C0B50D033E
:1017500082B0009201934E00C300CC0F690A450F7E
:101760009C46009A019B0D435F001903D80F009B14
:10177000490A5B0F1943009B760D7F0DDA00F31BBE
:10178000844258D0002B13DD002F00D088E00800E1
:10179000104300D159E1581E012B00D1C2E2B14FD4
:1017A000BB4200D141E1382800DD6AE2030064E178
:1017B000002B00D1B1E0BB1B002E00D0E1E164465C
:1017C0002C4300D176E25C1E012B00D1E8E2A54E4D
:1017D000B34200D1B7E2382C00DC6BE3541EA242C6
:1017E000924152428D1AA0461E0004002A0268D47B
:1017F00043461F1D47459B415B42ED182B0200D419
:101800009DE3984A0136964200D1EBE0964A730573
:101810002A405B0D5107FF0852020F43120B1B05B4
:101820001343E40723433800190002B0E0BCBA4672
:10183000B146A846F0BD002B00DCD7E0002F00D059
:101840009AE00800104300D1FFE0581E012B00D1A0
:1018500048E2844FBB4200D1E7E0382800DCB8E220
:1018600080221204154200D149E31E000023150016
:1018700098467C4B01369E4200D1B3E07A4B012161
:101880001D4043465A081940EF070A4317436D08A5
:101890007B07B3D00F233B40042BAFD0B846A7E75C
:1018A0007048864200D1C0E0382B00DCE2E0012322
:1018B0005B4263449C45804140422D1A98462B026E
:1018C00096D501235B429846684D280001F0E6FA60
:1018D0000300083B20214046CA1AD040020040467F
:1018E0009D4098402A438046B34200DA72E1981B3B
:1018F00043460130091A45468B40C5405E1EB34140
:1019000017008F402B431F43C2403B0015000026A9
:101910001343BDD10027002281E7554F731C3B4282
:1019200000D01BE163460F002B431743002E00D06D
:10193000C4E1002B00D145E2002F00D107E163464E
:101940009B1A9846C445B6416B1A76429B1B80266B
:101950003604334200D1CBE26346D31A9A42924115
:101960001F00491B52428A1A9C46174300D0EDE2E1
:1019700004000023002252E73A48864255D0382B13
:1019800000DD48E18020000401431F2B00DDE3E17E
:101990002027F81A824608005746B84081461000B2
:1019A0004F46D840074338005746BA40D940571EE3
:1019B000BA416D18104360448046E0458041404282
:1019C0002D182B0200D554E743465B0700D1B9E23E
:1019D0000F2342461340042B00D009E73300424650
:1019E000D20834E033000022002718E7002B00D192
:1019F0008FE0BB1B002E00D033E16046284300D1AE
:101A000040E2581E012B00D10AE2164EB34200D12B
:101A100085E2382800DC87E280252D04294200D1A8
:101A20009CE21E000023984623E763466E07D80811
:101A30000643ED0837002F4311D0802212032A43BA
:101A400012033700074B120BE9E66246D2086E0715
:101A50001643044AED089342ECD03700D6E0014B20
:101A60000022DCE6FF070000FFFF7FFFFFFF7F0093
:101A7000FE0700008020000401431F2B00DDB1E0C1
:101A80002027F81A824608005746B84081461000C1
:101A90004F46D840074338005746BA40D940571EF2
:101AA000BA416D1A104363461B1A9C458041984603
:101AB00040422D1A2B0287D56D026D0A002D00D0F1
:101AC00003E7404601F0EAF9030018331F2B00DC5E
:101AD00000E74246083882409E4200DD91E09B1BB1
:101AE000581C1F2800DCF8E117001F3BDF402028AE
:101AF00005D040231B1A9A40531E9A411743002FCA
:101B00003CD000267B0700D0C4E63500B846330041
:101B100065E7CB48731C034200D085E063462B4346
:101B2000002E00D092E10F001743002B00D1D8E126
:101B3000002F0CD06244624580416D1840422D1840
:101B40002B0200D5F2E1170094462F4316D06346CE
:101B50006F07D80807430023ED0857E063469B1A38
:101B60009846C445BF416B1A7F42DB1B1F0200D55C
:101B7000AEE047461D001F43A0D1002400230022F1
:101B80004DE6B04CA74200D1DDE0382B00DD85E00A
:101B90008024240425431F2B00DDECE02026F41ACA
:101BA000A1462C004E46B4406646DE403443A04673
:101BB00066464C46A640DD40741EA6414446491B7D
:101BC0003443131B9A4292415242984604003E000D
:101BD0008D1A6FE7F61A03009B4D15405B0700D086
:101BE000F6E6FBE618000F002038C740202B03D094
:101BF0004020C31A99400A43531E9A4110003843AB
:101C000051E79149F31A0A405707D5082A035B05A3
:101C1000120B5B0D03E680231B041D4200D1BBE0C9
:101C20001D000023984624E68648834200D1DAE668
:101C3000624462458041691840420918C807520849
:101C4000104380464D08520705D00F221E00024067
:101C5000042A00D0CCE542466F07D20817430D098D
:101C6000D4E77848874200D1D5E0382B00DCB2E0D9
:101C700080252D04294200D14CE100233E009846E6
:101C8000F7E50122524262449445804140422D1AB8
:101C900090461E002A0200D513E6A9E5531E9A427B
:101CA000924152428D1A984604003E002B0200D504
:101CB00007E69DE504000D00D208C8E6002B00D021
:101CC000E3E0002F3FD1802200245E4B1203A6E503
:101CD0006346D31A9A4292414D1B524298460400E1
:101CE000AD1AEBE662441600664580416A18404230
:101CF0001218130200D49DE0534973080A40D1071B
:101D0000194357085B0700D1FEE00F230B40042B5B
:101D100000D1F9E00B1D98468845AD416D42022384
:101D2000ED195CE663469B1A9C4580416D1A404262
:101D30002D1A98462B020DD443466F07DB081F432C
:101D4000ED08012362E74E07D20804001643CD08D0
:101D500070E604000126AFE618000F002038C740E7
:101D6000202B03D04020C31A99400A43531E9A41A6
:101D7000100038431FE61C002E00203CE640202BBC
:101D800005D04024E31A9D4063462B439C4664469D
:101D9000631E9C41344314E701236344984627E5BE
:101DA0006346D31A9A4292414D1B5242AD1A98464D
:101DB0002B02CED443466F07DB081F4304000123E8
:101DC000ED0823E7002F00D1D7E604000D0094466C
:101DD000BDE60300D9E58020000405431F2B6BDC22
:101DE0002020C01A804628004646B0406646DE40A5
:101DF0000643B14660464646B040DD40461EB0410F
:101E00004E46491930438046904490459241524293
:101E10003E005518D5E54E07D2081643CD0809E611
:101E200063469E1896429241691852428A181302DC
:101E300000D561E75707F60801233743D508E5E6E3
:101E4000FE070000FF070000FFFF7FFF002BE2D02E
:101E50006346DE086B071E430B00ED08134300D1F9
:101E6000E8E580231B031D4206D0C808184203D1B1
:101E70000500D60849070E43730FF600F6085B0706
:101E80001E43D7E50D00D208E1E56346DE086B0787
:101E90001E43ED08002F00D1CCE580231B031D421B
:101EA000EAD0CF081F42E7D1D608490704003D0019
:101EB0000E43E1E723006EE618002E002038C640EE
:101EC000202B05D04020C31A9D4063462B439C46DF
:101ED0006046431E9841304395E720210023091AAC
:101EE0000EE50023002F00D1BAE50D00904676E5FF
:101EF00047461F4300D140E61D00C44627E60122A5
:101F0000624490461E0073E4C9087F0702230F4312
:101F100015097BE6531C98460D003E0068E4D60880
:101F20004B071E43CD0885E5030057E7114BD20848
:101F30002B405F0717435A02120B01236FE4330053
:101F4000B8464CE54346DA08330080E532420AD011
:101F5000084B04001A40674601235BE401329046B7
:101F60000D001E0044E4DB0857071F430400002354
:101F7000D5084BE6FFFF7FFFF0B5DE4645465746E6
:101F80004E46E0B587B0009201930B031B0B9B46B6
:101F9000CA0F4B00040080465B0D029200D1BFE0E7
:101FA0008F4A934238D05946420FC9000A438021D4
:101FB00009041143C20090468A4A894692469A44CF
:101FC000002300240393009E019F3B031B0B7A0018
:101FD00030009B46520DFD0F002A00D17FE0804B60
:101FE0009A426ED05946730FC9000B4380210904F1
:101FF00019438B467B49F3008C46514662448A1A4A
:1020000092460021029E6E40F6B20F2C00D9F9E0F4
:10201000754AA400125997465A460243914600D089
:10202000B6E09A460223904608240393CBE72E009D
:1020300000210023002288461B051343F607334383
:102040004046190007B0F0BCBB46B246A946A046C0
:10205000F0BDCB464346029D0399022900D1FAE127
:10206000032900D1A1E00129E1D0604A5244904601
:102070004446002C00DC00E25A0704D00F221A402C
:10208000042A00D07FE22E00DA085B46DB0106D589
:102090005946574B802419408B46E4005444554B15
:1020A0009C4209DC5B465B07134398465B4664052C
:1020B0005A02120B630DBFE7002100228846484BED
:1020C000BAE75B46009A13434B4A9446E244002B1E
:1020D00059D10222144300220221934692E75B4623
:1020E000009A134349D05B46002B00D1A4E1584627
:1020F00000F0D4FE030002000B3B1D27009EFB1ADC
:1021000011005846DE4008398840330003439B469F
:10211000009B8B40394952448A460021924471E722
:102120005B460343994621D05B46002B00D171E109
:10213000584600F0B3FE0B235B429C4602008444E9
:1021400066461D239B1B260011005846DE400839B9
:10215000884033000343994623008B409846284B20
:1021600000249B1A9A46002303932CE700239846E9
:102170009A4601330424039325E7012214430022E5
:10218000012193463EE7032303211C43330039E733
:102190009A460323D9460C24039314E70023802294
:1021A000984600260E4B120346E78022594612033A
:1021B0000A43120398462E00094B120B3CE780227B
:1021C00049461203114202D059461142F0D08022F2
:1021D0004B4612031A431203029E014B120B2BE7CC
:1021E000FF07000001FCFFFFC0740008FF030000B0
:1021F000FFFFFFFEFE07000001F8FFFFF3030000F2
:102200000DFCFFFFCB4500D2FAE000D1F5E0012242
:10221000524294460022444648469046E2445A467A
:102220001F0E12021B020293130C994617433B0424
:102230001B0C4946009300F02DFE009A0B0442430C
:10224000210C050019438A4207D9C919013D8F4263
:1022500003D88A4201D9851EC919881A494600F057
:1022600019FE009A240442430904240C03000C4381
:10227000A24204D9E419013BA74200D8F7E0029931
:10228000A01A2D040C0C09041D43090C2A0C2B0464
:10229000AB460D001B0C5D43059163435143049411
:1022A00062435B182C0CE318994203D98021490240
:1022B0008C466244190C2D041B042D0C8A185D19E0
:1022C000904200D287E000D182E043465D1BA845E2
:1022D0009B41801A5B42C01AB14B534498461C0084
:1022E000874200D10CE1494600F0D4FD0200009B7A
:1022F00003905A430B04290C19438A420AD903005C
:10230000C919013B03938F4204D88A4202D9831E24
:102310000393C919881A494600F0BCFD0A0012044B
:1023200094462A0465460099120C414303002A434F
:10233000914207D9D2190138974203D8914201D965
:10234000981ED219039B521A1B0403430598190CBB
:1023500005008C461904090C4D43894661460095D9
:102360006546484304994D43AC464D464D432918B4
:10237000009D2D0CA9464944884203D98020400283
:102380008146CC44009D080C2D0409042D0C6044AA
:102390004D1982420FD30BD001221343814A92453B
:1023A0006CDB1A1D9A429B415B42D2089B446CE64F
:1023B000002D00D193E0591EBA188C46BA4200D2C3
:1023C00085E0824200D2C7E000D1D5E00B00E3E710
:1023D000A84500D379E75B46591E029B9C46E04422
:1023E0001C0098459B415B42DB19C018874238D2DC
:1023F000824278D875D08B4667E7434500D906E717
:102400004A46D40750084246520814434246D2076F
:10241000904604E700F042FD15239C4684440200E8
:10242000634620321C2B00DC8AE6230008388340F8
:1024300099460023984692E600F030FD0300020022
:10244000153320321C2B00DC57E6009908388140F8
:1024500000238B465EE600212E0000228846524B68
:10246000EAE58742C7D14445C2D98B462DE7A2424F
:1024700000D804E7831EE41901E72E00012241463B
:10248000521A382A00DDD3E51F2A3FDC47481C00DA
:102490005044594683408140D440581E83412143D3
:1024A0000B435946D1400A00590709D00F21194062
:1024B000042905D0191D99429B415B42D2180B009B
:1024C000110268D50021012300228846B4E50B00E3
:1024D000824200D060E7029A954200D05CE7350066
:1024E000C6E5454587D902235B429C46029BE344EF
:1024F0009C46E04498459B415B42DB19C018E4E6EA
:10250000002B36DD012300229B44BEE51F214046FF
:102510004942091A5846C8400100202A04D05846AA
:10252000234A5244904003435A1E934107200B43D1
:10253000010000221940184209D00F211940042936
:102540001FD0181D98428941030049424907DB0802
:102550000B43984600236FE50299023B49008C46E5
:1025600002998C4589414942C91952186146029124
:10257000AEE701235B4281E70299A942ECD36346AF
:10258000A9E70021E3E71A1D9A429B415B422E0016
:10259000D2089B4479E551075202120BD7E7C04697
:1025A000FF03000002FCFFFFFF0700001E04000005
:1025B0003E040000F0B557464E464546DE46E0B5BF
:1025C0001F000B031B0B16009846CA0F4B0004009C
:1025D000924685B05B0D00D1C2E1CC4A934200D156
:1025E00028E14146420FC9000A43802109041143F2
:1025F000C2009146C64A884693469B440023002564
:1026000001933C037A00FB0F3000240B520D009322
:1026100000D185E1BD4B9A4200D160E1BC4B9C46A4
:10262000624493440A2D00DD14E1730FE4001C435F
:1026300080231B042343F0005246009900264A40A1
:102640009246022D11DD0122AA40A6211400C900E4
:102650000C400A4200D0FDE0902189000A4200D0DF
:10266000D4E18821114200D0EFE049464A460904EE
:10267000140C090C020C0F0015000004000C65433B
:1026800047430195B9462F000D0006005543AC465F
:102690004D4666432D0CB4446544AE4205D93E0018
:1026A00080277F02BC46664401964F463F043F0C9C
:1026B0002E0C2D04ED1902951D0C1B041B0C00950E
:1026C0001D001F0065434F43AC46009D69436C43AA
:1026D0003D0CA946614449448C4503D980256D02CF
:1026E000AC4664443F040D0C3F0C0904C919AC46C8
:1026F0007518039545462E04360C2F0C35004543BE
:102700007843804638006444AC462D0CA9465043BB
:10271000724342444A44904503D980256D02A8463D
:102720004044150CA84665462D042D0CAC463500DA
:102730005D4312046244AC467B43009D404498468E
:102740002B006E4365467B4346442D0CAD191F009C
:102750000093A84504D980235B029846474400971C
:10276000039B019E98462B044644984663468E423E
:1027700089411B041B0C4344B61849421B195F18BE
:1027800096429241BC465242804691468C458941D0
:10279000A3429B41E044C14449425B42914592417E
:1027A0000B43804589412D0C494252420A435B1933
:1027B0009B18009A029994464A4663445B02D20DE4
:1027C0001A43904672020A43511E8A41F60D16437F
:1027D0004A4652021643B146DB0154D44D4A5A448C
:1027E000002A00DC18E133005B0715D00F215B469F
:1027F0003140042910D04946081D48458941814689
:10280000494288444146C90106D54146424A1140E1
:1028100080228846D2009A18404B9A4200DD2BE174
:1028200041464B464C07DB081C4352054B021B0B31
:10283000520D1AE042460243914600D0E0E09B462A
:102840000223904608250193DBE6009A98469246BB
:1028500081460196019B022B00D10DE1032B35D05F
:10286000012B1BD100220023002412051A435346DA
:10287000DB071A432000110005B0F0BCBB46B2468E
:10288000A946A046F0BD01227308324013434246D8
:10289000D2071343994643465B08984680225B461D
:1028A000D2005A440133002A00DCB6E04946490709
:1028B000A8D00F214846014004299CD1A2E70F2D42
:1028C00000D1FDE0009BA0469A46B14680234246D7
:1028D0001B0313431B034C460C4A1B0BC5E70B4958
:1028E00033008C462343E344002B77D10221294354
:1028F0000A29AFDC5046009C60408246002D00D182
:102900000EE10D00002002269DE6C046FF070000F4
:1029100001FCFFFFFF030000FFFFFFFEFE070000BA
:10292000230033434BD0002C00D1BBE0200000F04B
:10293000B5FA030002000B3B1D20C31A3000D8403B
:1029400011000300300008398C4088402343594669
:102950008A1A78498B4693440A2D00DC6CE679E7A5
:1029600043460343994623D04346002B00D187E0DA
:10297000404600F093FA0B235B429C4602008444DD
:1029800011004046083988401D23804660461B1AC6
:102990002000D840030040460343984623008B4064
:1029A0009946644B00259B1A9B460023019328E619
:1029B000002398469B4601330425019321E601221A
:1029C00015430A2D00DD45E7524600994A409246DC
:1029D000022D00DC46E70020012634E603231D43D8
:1029E0000A2D00DD6BE75346009A882153400122EF
:1029F000AA409A4603262300114200D135E624E777
:102A00009B46032381460C250193FAE500239A4651
:102A10008023494A1B0328E75B460121891A38298C
:102A200000DD1FE71F295ADD1F204042821A404661
:102A3000D040202908D0414A9446424663449A40F7
:102A400013004A461A4391464A460721531E9A41AB
:102A50000C00024300231440114209D008311140F8
:102A6000042960D0111D9142A4410A006442640708
:102A7000D20814430022F8E6002300242E4AF4E68C
:102A800000F00CFA15239C46844402006346203271
:102A90001C2B00DC74E70023994623000838834090
:102AA00098467EE700F0FAF9030002001533203261
:102AB0001C2B00DC40E7330008388340002046E749
:102AC000802342461B031A4200D1FFE61C4200D07D
:102AD000FCE6009A234392463400174AC5E6184A9A
:102AE000404694464A4663449840CA4010434A468A
:102AF0009A40531E9A4143460243CB40510709D0A6
:102B00000F211140042905D0111D914292415242DA
:102B10009B180A00190208D5012200230024A4E60C
:102B200000230024A1E60024A2E75C075B021B0B44
:102B30009EE7C0460DFCFFFFFF0700003E040000BB
:102B40001E04000070B5002816D0C317C5185D40DC
:102B5000C40F280000F0A2F9104B1B1A5B055B0D97
:102B60000A2814DC02002E00153296400B22121A9D
:102B7000D5402D032D0B03E0002400230025002663
:102B80001B052B43E40723433000190070BD0B38AD
:102B900085402D0300262D0BF2E7C0461E040000E1
:102BA00010B5041E10D000F079F90E4B1B1A5B050E
:102BB0005B0D0A280FDC0B222100121AD1401530C0
:102BC0000A038440120B01E0002300221B0513437B
:102BD0002000190010BD22000B388240120300248F
:102BE000120BF3E71E04000070B542024300C40F4D
:102BF000FE201B0E591C550A08420CD0E02189000A
:102C00008C466D07120B63441B051343E4072343F3
:102C10002800190070BD002B14D1002D1BD02800F6
:102C200000F03CF90A281CDC0B232A001B1ADA40AE
:102C3000030015339D400E4B12031B1A5B05120B4C
:102C40005B0DE1E7002D09D0130B802212031A431C
:102C50006D07084BD8E700230022D5E70022054B7B
:102C6000D2E703002A000B3B9A400025E3E7C04669
:102C700089030000FF070000F0B54B000F035B0D58
:102C80003D4C450F83B07F0A5E1C2F43009001919D
:102C9000CA0FC50026420BD038495C18FE2C12DD45
:102CA000FF200023C0051843D207104303B0F0BD36
:102CB00000203D43002BF5D0002DF1D08023DB0315
:102CC000FF203B43EEE7002C0CDD009BFF009B0147
:102CD000581E8341690F3B430B43590725D1DB083D
:102CE000E0B2DFE7210017312EDB80211E2009042E
:102CF0003943001B1F282ADD02267642341B0E00B2
:102D0000E6403400202804D01D488446634499409E
:102D10000D432B00591E8B41234307211800084007
:102D20000B421FD19B015B0ABCE70F21194004290C
:102D300003D19B015B0AE0B2B4E704335901F8D533
:102D400001340023E0B2ADE700200023AAE70D4CD8
:102D50001C192B00A540C340A140681E8541294392
:102D60000B43DAE70F21002419400429E5D19B0128
:102D700020005B0A96E7C046FE07000080FCFFFFCC
:102D8000A2FCFFFF82FCFFFF002243088B4274D3AA
:102D900003098B425FD3030A8B4244D3030B8B425C
:102DA00028D3030C8B420DD3FF22090212BA030C65
:102DB0008B4202D31212090265D0030B8B4219D346
:102DC00000E0090AC30B8B4201D3CB03C01A524166
:102DD000830B8B4201D38B03C01A5241430B8B42AE
:102DE00001D34B03C01A5241030B8B4201D30B0397
:102DF000C01A5241C30A8B4201D3CB02C01A5241BE
:102E0000830A8B4201D38B02C01A5241430A8B4280
:102E100001D34B02C01A5241030A8B4201D30B0269
:102E2000C01A5241CDD2C3098B4201D3CB01C01A83
:102E3000524183098B4201D38B01C01A524143098D
:102E40008B4201D34B01C01A524103098B4201D37B
:102E50000B01C01A5241C3088B4201D3CB00C01AE8
:102E6000524183088B4201D38B00C01A5241430860
:102E70008B4201D34B00C01A5241411A00D2014685
:102E8000524110467047FFE701B50020FEF72CFBCA
:102E900002BDC0460029F7D076E770471C21012308
:102EA0001B04984201D3000C10391B0A984201D32D
:102EB000000A08391B09984201D30009043902A20B
:102EC000105C40187047C046040302020101010172
:102ED0000000000000000000F0B51F0000231600F5
:102EE0008BB09F4204DA802109067B181F002D2336
:102EF000129A149D1370202303229D43462D07D060
:102F00002B00453B59424B411099013ACB18109385
:102F100009AB049308AB0393139B00920293109B9D
:102F2000320001933B0000F099FF0400472D1BD1B4
:102F3000119BDB0711D5109BC318079300220023B8
:102F40003000390003F006FC002801D0079B0993EC
:102F50003022099B07998B4220D32000099B159AA8
:102F60001B1B13600BB0F0BD109BC3180793462DBD
:102F7000E4D10378302B0CD100220023300039003B
:102F800003F0E8FB002804D10123109A9B1A139A3E
:102F90001360139B079A1B68D318CEE7591C09913D
:102FA0001A70D6E7F0B52B2385B005000C1E027011
:102FB00001DA4C4202336B70092C2EDD02ABDE1DB0
:102FC00020000A21FEF78CFA37003031013E200044
:102FD00031700A210194FEF79DF9019B0400632BD7
:102FE000EEDCBA1E30341470AC1C1300210002A8B1
:102FF000073098420CD802AB07330020934203D32A
:10300000093002ABC018C01B0019401B05B0F0BD51
:103010001878013308700131E9E73023E418AB7008
:10302000281DEC70F1E70000F0B597B00C001C9D76
:103030000A920B93099000F071FE036818000F9339
:1030400000F07FFE0023072210901493237E0E933E
:10305000236811932B68073393430122C0CB2B6065
:103060007B005B080D930C96A664E7640C980D99A1
:10307000A44B524204F0F8F8002831D10C980D9975
:103080000122A04B524203F075FB002828D10022F8
:1030900000233000390003F063FB002803D0230035
:1030A0002D2243331A70984B0C930E9B472B01D85B
:1030B000964B0C9303230025119A236101339A4305
:1030C00022600B9B2100009309980A9B15AA00F02F
:1030D000D9F9013000D099E00120404217B0F0BD8D
:1030E00032003B003000390004F0BEF800280CD05C
:1030F000002F03DA23002D2243331A70844B0C93E4
:103100000E9B472BD6D8834BD3E720220E9D6368B6
:1031100095435A1C44D1073363608023119ADB0026
:10312000134300222360069214AA05920E9A0AA95C
:10313000049213AA03922322521802920193636805
:103140003200009309983B00FFF7C6FE13990C90DC
:10315000472D2BD1CB1C02DB63688B4244DA0E9ED9
:10316000023EF3B20E9320000E9A013950301391B3
:10317000FFF718FF149A050013182361012A02DCD7
:103180002268D20701D50133236123230AAA9B18A1
:103190001B78002B95D023002D2243331A7090E723
:1031A000472DBAD1002BB8D10133B5E70E9B652B63
:1031B000D9D90E9B662B19D16368002909DD2161DD
:1031C000002B02D12268D2070BD501335B18236193
:1031D00007E0002B03D101222068104200D09A1C86
:1031E00022610025A165D0E767230E93149B8B42D3
:1031F00005DC23682161DB07F3D54B1CE7E70122DF
:10320000002901DC9218521A9B18E0E72268530546
:1032100008D423690C9A0A9909980B9DA847013094
:1032200029D159E70E9B652B00D8D6E0A06CE16C44
:103230000022002303F08EFA002833D00123364AFF
:103240000A9909980B9DA847013000D144E7149EC4
:10325000139BB34202DB2368DB070CD50B9D109B4D
:103260000F9A0A990998A8470025013000D133E741
:10327000731EAB420ADC23689B0700D500E1159B57
:10328000E068984200DB29E7180027E722000123C5
:103290000A9909980B9F1A32B847013000D11BE7F1
:1032A0000135E5E7139B002B38DC01231A4A0A9904
:1032B00009980B9DA847013000D10DE7149E139B80
:1032C000334302D12368DB07D5D50B9D109B0F9AA2
:1032D0000A990998A8470025013000D1FCE6139B04
:1032E0005B42AB4201DC330094E7220001230A99E0
:1032F00009980B9F1A32B847013000D1ECE601352E
:10330000EDE7C046FFFFEF7F047500080075000879
:103310000C7500080875000810750008149EA76D4C
:10332000B74200DD3700002F2FDCFB430025DB1701
:103330003B400E93A76D0E9BFB1AAB422EDC139BFA
:103340009E4237DC2368DB0734D4139DF31B751BC7
:103350009D4200DD1D00002D35DCEB430027DB170F
:103360001D400C95139B0C9AF31A9B1ABB4200DC70
:1033700081E7220001230A9909980B9D1A32A84778
:10338000013000D1A8E60137ECE73B000C9A0A991E
:1033900009980B9DA8470130C7D19DE62200012363
:1033A0000A9909980B9F1A32B847013000D193E669
:1033B0000135BFE7109B0F9A0A9909980B9DA84702
:1033C0000130C2D188E60C9B0A99DA1909982B00C2
:1033D0000B9FB8470130C0D17EE6149E012E02DC5F
:1033E00001231A4239D001230C9A0A9909980B9F9C
:1033F000B847013000D16FE6109B0F9A0A990998DF
:103400000B9FB847013000D166E6A06CE16C731EDB
:103410000E930022002303F09DF900281BD10C9A83
:103420000E9B01320A9909980B9EB04701300ED1CC
:1034300052E6220001230A9909980B9E1A32B047DE
:10344000013000D148E601370E9B9F42F1DB22009C
:103450002B005032DFE60027F6E70C9AE2E7220065
:1034600001230A9909980B9E1932B047013000D107
:1034700032E60135E368159A9B1AAB42EFDCFEE6B3
:103480000025F7E7F7B5160001938A680B690C0071
:103490000090934200DA1300220033604332127826
:1034A000002A01D00133336023689B0602D53368BC
:1034B000023333602268062315001D401A4227D0CC
:1034C000230043331B785A1E93412268920630D45E
:1034D000220001990098089D4332A847013025D069
:1034E0000622236800251340042B05D13368E568C4
:1034F000ED1AEB43DB171D40A3682269934201DDFF
:103500009B1AED180026B54220D1002010E00135AD
:10351000E36832689B1AAB42D2DD22000123019995
:103520000098089F1932B8470130F0D1012040427D
:10353000FEBD3020E1184331087021005A1C45318E
:103540000978A218433202331170C1E72200012327
:1035500001990098089F1A32B8470130E6D0013629
:10356000D1E70000F0B58BB006920A004332079312
:10357000059003920A7E0C00109B782A09D8622AD3
:103580000BD8002A00D1BAE07A490491582A00D118
:103590008EE0250042352A7022E01000633815289D
:1035A000F7D803F0BDF816001F00F6FFF6FFF6FF90
:1035B000F6FF1F00F6FFF6FFF6FFF6FF9F0036004E
:1035C0007E00F6FFF6FFB000F6FF3600F6FFF6FFCE
:1035D000820025001A684235111D196013682B708E
:1035E00001239EE018680968021D0D060BD50668C8
:1035F0001A60002E03DA2D23039A764213705D4B76
:103600000A27049318E006681A604906F1D536B215
:10361000EFE70868196840C9050602D4400600D5DE
:10362000B6B21960534B0A2704936F2A00D1023FA8
:103630002300002243331A706368A360002B06DB6B
:1036400004212268039D8A43226033430CD0039DEA
:1036500030003900FFF71EFC049B013D5B5C2B70C2
:10366000330006009F42F3D9082F09D12368DB07F6
:1036700006D5626823699A4202DC3023013D2B7033
:10368000039B5B1B2361079B210000930598069B0E
:1036900009AAFFF7F7FE013048D1012040420BB0E4
:1036A000F0BD202209680A43226078223249049141
:1036B000210045310A701968226840C9100602D4F9
:1036C000500600D5B6B21960D30702D520231343A4
:1036D0002360002E01D01027AAE7202223689343FD
:1036E0002360F8E71A680D68101D496918601368AF
:1036F0002E0601D5196002E06D06FBD51980002366
:10370000039D2361BFE71A68111D19601568002128
:103710002800626800F00AFB002801D0401B6060AE
:10372000636823610023039A1370ACE72A002369BE
:1037300006990598079DA8470130AED023689B07DE
:1037400015D4099BE0689842A9DA1800A7E722007F
:10375000012306990598079E1932B04701309CD085
:103760000135E368099A9B1AAB42F0DCE9E70025D2
:10377000F7E7C0461275000823750008F7B50C225C
:103780008B5E05000C001A075AD44A68002A02DC36
:103790000A6C002A4FDDE76A002F4CD000228021FE
:1037A0002E682A601A0049010A400B4234D0626D2B
:1037B000A3895B0706D56368D21A636B002B01D01F
:1037C000236CD21A00232800E76A216AB8470C2329
:1037D000E25E431C06D129681D292ED82B4BCB4015
:1037E000DB072AD50023636023692360D20405D553
:1037F000431C02D12B68002B00D16065616B2E60E9
:10380000002918D023004433994202D0280001F047
:1038100011F9002363630EE001232800216AB847F1
:103820000200431CC4D12B68002BC1D01D2B01D03A
:10383000162B1DD12E60002021E0402313431BE0F6
:103840000E69002EF7D00F680E60BA1B019200229D
:103850009B0700D14A69A260019B002BEBDDA36AA4
:1038600032001F002800019B216AB847002807DCAE
:103870004023A28913431BB20120A3814042FEBD15
:10388000019B36181B1A0193E6E7C0460100402051
:103890000B6970B505000C00002B02D10025280033
:1038A00070BD002804D0036A002B01D100F070F92C
:1038B0000C22A35E002BF1D0626ED20704D49B05CC
:1038C00002D4A06D00F021FA28002100FFF756FF76
:1038D000636E0500DB07E2D4A3899B05DFD4A06DEE
:1038E00000F019FADBE70000010010B5002805D14F
:1038F000054A0649064800F07FF910BD054B1868D7
:10390000FFF7C6FFF9E7C046040000209138000821
:1039100014000020100000200CB430B50C0000256D
:103920009DB002940694094C20AB04CB07940494F8
:10393000074C02A9019305944D6601F0A5F9029B7D
:103940001D701DB030BC08BC02B01847FFFFFF7FE0
:103950000802FFFF0EB410B500249DB0029006903F
:103960000A481FAB07900490094804CB059009480A
:1039700002A9006801934C6601F086F9029B1C7055
:103980001DB010BC08BC03B01847C046FFFFFF7F46
:103990000802FFFF10000020002310B504000360A0
:1039A0004360836081814366C281036143618361B7
:1039B000190008225C3000F09BF90B4B2462636213
:1039C0000A4BA3620A4BE3620A4B23630A4B9C42F5
:1039D00005D00A4B9C4202D0094B9C4203D12000E7
:1039E000583000F08EF910BDF5590008215A000832
:1039F000595A0008855A00087C020020E402002081
:103A00004C03002010B5034A0349044800F0F4F8C1
:103A100010BDC046040000209138000814000020AA
:103A200041680B4B10B50400994201D0FFF730FFFD
:103A3000A168084B994202D02000FFF729FFE168F6
:103A4000054B994202D02000FFF722FF10BDC0466F
:103A50007C020020E40200204C0300204B6E10B5D5
:103A6000DB0705D48B899B0502D4886D00F04DF9E6
:103A7000002010BD4B6E10B5DB0705D48B899B056C
:103A800002D4886D00F047F9002010BD10B5094B35
:103A9000094A04211A6009480022FFF77DFF01222C
:103AA00009210748FFF778FF022212210548FFF796
:103AB00073FF10BDB4030020053A00087C0200200B
:103AC000E40200204C03002010B5024800F01DF96C
:103AD00010BDC046BF03002010B5024800F01BF91E
:103AE00010BDC046BF030020F8B50700FFF7ECFF8C
:103AF000244B1B68002B01D1FFF7C8FF224EB4688E
:103B00007368013B0FD53568002D39D1D6213800B7
:103B1000490001F0F3F9041E26D13060FFF7DCFF05
:103B20000C233B601CE00C22A55E002D1AD1200066
:103B3000164B5830E360656600F0E3F8FFF7CCFF02
:103B40002000082229002560A56065602561656167
:103B5000A5615C3000F0CCF86563A563A564E564FD
:103B60002000F8BD6834CCE70423D022056029008A
:103B7000250043600C30A060520000F0B9F83460BA
:103B80002E00BCE7B4030020040000200100FFFF6A
:103B900010B50400FFF798FF236A002B02D0FFF74F
:103BA0009BFF10BD044B2362044B1B68002BF6D116
:103BB000FFF76CFFF3E7C046213A0008B40300208A
:103BC00010B5FFF781FF0020024A034900F014F806
:103BD00010BDC046040000205D3A000810B5044A3C
:103BE0000449002000F008F8FFF776FF10BDC0463A
:103BF00004000020753A0008F7B514000026009074
:103C00000191A5686768013F04D52468002CF8D1AC
:103C10003000FEBDAB89012B08D90E22AB5E01330B
:103C200004D029000098019B984706436835EAE7CD
:103C3000036A70B505000E008468002B01D1FFF700
:103C4000A7FF636EDB0705D4A3899B0502D4A06D93
:103C500000F05BF8A3891B0702D52369002B1FD155
:103C60002100280001F090FF002819D001256D42A5
:103C7000636EDB0705D4A3899B0502D4A06D00F019
:103C80004AF8280070BD0136A360002B04DAA2694F
:103C9000934216DB0A2914D023685A1C226019703B
:103CA000A3683178013B0029EDD1A360002B0FDA26
:103CB000220028000A3101F01BFF0130D6D00A256E
:103CC000D6E72200280001F013FF0130E8D1CDE74C
:103CD00023685A1C22600A221A70F0E710B5034BC1
:103CE00001001868FFF7A4FF10BDC04610000020B7
:103CF00003008218934200D1704719700133F9E72D
:103D00007047704770477047704770470120704791
:103D10000120704770477047F03070470048704787
:103D2000500100200048704750010020C9B282189D
:103D3000904201D10020704703788B42FBD00130C4
:103D4000F6E70023C25C0133002AFBD1581E7047FE
:103D5000F0B503690C6989B0039006910020A34275
:103D600063DB0B00013C1433A50004935B1905933E
:103D7000039B143301935D19059B2F681E6838005F
:103D800001363100FFF700F80290B74227D3049BB9
:103D900000279C46019E0797624608CA30689446F1
:103DA000029A99B251431B0C5343C9190A0C9B1830
:103DB00089B282B2521A07991F0C5218000C9BB29A
:103DC0001114C31A5B18191492B21B04134308C6CA
:103DD000059B07916345DFD22B68002B2BD00699FA
:103DE000039801F0F3FB00281EDB0026019D0499D7
:103DF00001C92B6887B29AB2D21B9219000C1B0C16
:103E00001B1A10141B181E1492B21B04134308C56E
:103E1000059B8B42ECD2019AA300D3181A68002AA2
:103E200014D0029B01330293029809B0F0BD2B68B5
:103E3000002B04D1013C019B043DAB42F7D3039B13
:103E40001C61CCE71A68002A04D1013C019A043BAA
:103E50009A42F7D3039B1C61E3E70000F0B514001E
:103E60001D00C2699DB010941195259F0290002AF3
:103E700010D1102001F00CF8029B021ED86104D171
:103E8000EF21C04BC04802F019F800234360836063
:103E90000360C360116800290BD0012352680298A7
:103EA00093404A608B6001F0FBF80022029BDB69C3
:103EB0001A602E1E1DDA01236E00DE403B60119653
:103EC000B24BB24A3340934216D1B14B249A3603D7
:103ED000360B1360264301D100F07DFDAD4B269AD1
:103EE0000593002A02D0AC4B269A136005981DB0AA
:103EF000F0BD00233B60E3E7109A119B0C920D93F9
:103F00000C980D990022002302F024FC071E0BD010
:103F10000123249A1360269B002B02D09F4B269AE4
:103F200013609F4B0593E1E71AAB01931BAB009322
:103F300002980C9A0D9B01F075FC1A9B0490310DB0
:103F4000059300D17BE00D9B19971A03954B120B3B
:103F50001343954A8E180C980D9919000022934B23
:103F600002F04AFD924A934BFEF724FB924A934B90
:103F7000FDF7E8FB040030000D00FEF7E3FD904A7A
:103F8000904BFEF717FB02000B0020002900FDF705
:103F9000D9FB04000D0003F089F9002203900023EF
:103FA0002000290002F0DCFB00280BD00398FEF76C
:103FB000C9FD2B00220002F0CDFB43425841039B78
:103FC0001B1A039301231393039B162B10D80C98F1
:103FD0000D99039A7C4BD2009B181A685B6802F01B
:103FE000BFFB002847D0039B013B0393002313939F
:103FF000059B9E1B00230693731E03D50122931B72
:10400000069300230A93039B002B36DB039A0A9B3B
:10401000944663440A93002312920E93229B012438
:10402000092B61D8052B02DD0024043B2293229B3F
:10403000981E032862D802F069FB53553629059B68
:104040001B9FDF19614BFA18202A0FDD40239B1AB2
:104050009E405F4B3000FB18DC402043FEF7A0FD84
:1040600001225C4B7E1ECB18199276E7202320009C
:104070009B1A9840F2E71390BAE7069B039A9B1AA3
:10408000069353420E9300231293C7E70123239A0A
:104090000F939446039B63440B9301330893002BC7
:1040A00008DC012306E001230F93239B002B29DD6D
:1040B0000B930893029A0021D0690422150014354D
:1040C0004E1C9D4223D94160029800F0A7FF059045
:1040D00000281FD1B021404B2B48059AFF31D2E672
:1040E0000023E1E70023D2E700230F942293013B52
:1040F00000220B93089313332392DBE701230F93E2
:10410000023BF5E701231A000B930893F4E7310013
:104110005200D3E7029B059ADB691A60089B0E2BBD
:1041200000D9DEE0002C00D1DBE0039B002B68DD32
:104130000F21039A244B0A40D2009B181E685F6827
:10414000039B02251C110C9A0D9B14921593039B43
:10415000DB050AD5214B0C401A6A5B6A0C980D9955
:10416000FDF70AFF1490159101351C4B0993002CA3
:1041700036D11498159932003B00FDF7FDFE06007C
:104180000F005BE041750008587500080000F07FE3
:104190000F2700003D7500084075000811750008E4
:1041A000107500080000F03F01FCFFFF0000F83F21
:1041B00061436F63A787D23FB3C8608B288AC63F2D
:1041C000FB799F501344D33FE0760008320400008F
:1041D00012040000000010FEB9750008B87600084F
:1041E00001231C4209D0ED18099B30001A685B6856
:1041F0003900FEF7DFF906000F00099B6410083351
:10420000B4E7039B02250C9E0D9F002B16D00F22B6
:104210005C422240D24BD2009B1830001A685B6887
:104220003900FEF7C7F9CF4B060009930F000023B2
:104230002411002C00D098E0002BA0D1139B002B60
:1042400000D1A1E0002230003900C74B02F088FA0B
:10425000002800D198E0089B002B00D194E00B9B34
:10426000002B3EDD039B3000013B39000993002207
:10427000BE4BFEF79FF906000F000B9C013528008E
:10428000FEF760FC32003B00FEF794F90022B84BC9
:10429000FDF758FAB74B14901591CB181593149A53
:1042A000159B16921793002C72D100223000390012
:1042B000B14B02F0A1FB169A179B06000F0002F00B
:1042C00063FA002800D0AAE28020000684461599EF
:1042D000300061440B00149A390002F041FA0028C2
:1042E00026D11B9B002B00DA69E1039A0E2A00DD20
:1042F00065E19B4BD2009B185C681B680693079492
:10430000239B002B00DBE4E0089B002B00DDE0E0BA
:104310000ED1069807990022974BFEF74BF9020041
:104320000B000C980D9902F025FA002800D179E2D3
:1043300000263700239B059CDB4309930397002746
:104340003100029800F0ACFE039B002B00D1B6E0D8
:10435000002F05D09F4203D03900029800F0A0FE44
:104360000399029800F09CFEA9E00122144206D0B5
:10437000099BAD181A685B68FEF71CF90123099ABE
:1043800064100832099254E7039B089C099376E76E
:10439000734B621ED2009B1818685968059BE3187E
:1043A00018930F9B002B49D002000B00002073498B
:1043B000FDF7E2FD169A179B02F01EFB059B149079
:1043C000159116933900300002F070FF0500FEF7DA
:1043D000B9FB02000B003000390002F00DFB169B08
:1043E00030355C1C1D70149A159B06000F0002F0FE
:1043F000B7F9002863D132003B0000205A4902F08F
:10440000FBFA149A159B02F0ABF9002800D0B9E032
:10441000189B9C4200D164E7149815990022534BD5
:10442000FEF7C8F8002214901591504B3000390067
:10443000FEF7C0F8169406000F00C3E7169A179B04
:10444000FEF7B8F814901591059D3900300002F080
:104450002DFF0400FEF776FB0B0002003900300050
:1044600002F0CAFA3034189B2C70013506000F0098
:10447000AB4227D11498159900221C003F4BFDF741
:1044800061F902000B003000390002F07DF90028CC
:1044900000D077E0149A159B0020384902F0ACFA5E
:1044A00002000B003000390002F05AF9002800D158
:1044B00017E72300013C2278302AFAD01C00099B20
:1044C00003933DE00022294BFEF774F806000F002D
:1044D000BBE7089F059E013FBF19069A079B0C98F2
:1044E0000D99FDF749FD02F0E1FE0500FEF72AFBFC
:1044F000069A079BFEF75EF802000B000C980D99D8
:1045000002F07AFA2A0033003032013634001A7091
:104510009F4247D102000B00FDF714F9069A079B52
:1045200006000F0002F030F9002829D1069A079BF7
:104530003000390002F00EF9002801D0ED071FD439
:104540000499029800F0ACFD00232370039B249A89
:1045500001331360269B002B00D1C7E41C60C5E427
:10456000E0760008B87600080000F03F0000244024
:1045700000001C400000C0FC000014400000E03FB0
:10458000039B099323001C00013B1A78392A06D1AA
:10459000059A9A42F7D1099A0132099230220132E2
:1045A0001A708CE70022C64BFEF704F800220023A5
:1045B0000C900D9102F0CEF800288ED0C0E70F9F2E
:1045C0000E9D069C002F14D0229A012A00DDE4E003
:1045D000199A002A00D1DAE0BA4A9B18069A0121FA
:1045E000D21806920A9A0298D3180A9300F05CFE39
:1045F0000700002C0ED00A9B002B0BDD0A9A23002B
:10460000944200DD1300069AE41AD21A06920A9A1E
:10461000D31A0A930E9B002B21D00F9B002B00D1A5
:10462000D3E0049E002D14D039002A00029800F037
:10463000FFFE049A01000700029800F04DFE0600FC
:104640000499029800F02CFD0E9B04965B1B0E93C0
:1046500005D031000E9A029800F0EAFE0490012184
:10466000029800F021FE129B0600002B00D1BCE155
:104670001A000100029800F0DBFE229B06000025D4
:10468000012B16DC0025109BAB420ED1119B1B03A6
:10469000AB420AD18C4B119A134206D0069B0135CE
:1046A000013306930A9B01330A93129B0120002BCE
:1046B00008D0336903339B00F318586800F0A4FD59
:1046C0002023181A0A9B181802001F231A401842A8
:1046D00000D181E001339B1A042B79DD1C239B1A46
:1046E000069AE418D21806920A9AD3180A93069BDF
:1046F000002B05DD1A000499029800F0FBFE0490DF
:104700000A9B002B05DD31001A00029800F0F2FE32
:104710000600139B002B61D03100049800F056FF77
:1047200000285BDA039B0A22013B099304990023CA
:10473000029800F0D9FC0F9B0490002B00D15BE1A4
:10474000002339000A22029800F0CEFC0B9B0700E0
:10475000002B4DDC229B022B46DD0B9B002B00D057
:10476000E8E531000522029800F0BEFC06000100D9
:10477000049800F02BFF002800DCDBE5059B059A80
:104780005C1C31231370099B01330993D6E5362352
:104790001A9A0E9D9B1A069C20E7089B5D1E0E9B95
:1047A000AB4208DB5D1B089B002BF4DA069B089AE2
:1047B0009C1A002312E70E9B129AEB1AD31812933D
:1047C0000E95069C0025089B08E70E9A049942E77F
:1047D000042B8CD01C3383E71300FBE7039B099366
:1047E000089B0B93002BB5DD0F9B002B00D107E13D
:1047F000002C05DD39002200029800F07BFE070046
:104800000397002D20D07968029800F007FC041E61
:104810000CD122002D4B2E482E49FFF734FB2600E9
:104820003700ABE7039B089E0993F9E739003A6923
:104830000C31023292000C3001F036FB01222100D3
:10484000029800F057FE0390059B0B9A0693013BDC
:104850009B1801220E93109B13400C933100049877
:10486000FFF776FA390005000A90049800F0AEFED2
:10487000039A0B903100029800F0C4FE0122C36835
:10488000040030350892002B04D10100049800F098
:104890009DFE08902100029800F002FC069B229ADF
:1048A0005C1C089B13430C9A134315D1392D2ED051
:1048B0000B9B002B01DD0A9D3135069B1D703FE5EA
:1048C00000002440330400000000F07FB9750008A8
:1048D00058750008EF0200000B9B002B04DB229AA6
:1048E00013430C9A13431ED1089B002BE5DD04995A
:1048F0000122029800F0FEFD3100049000F066FEF7
:10490000002802DCD9D1EB07D7D5392DD3D13923F3
:10491000069A137023001C00013B1A78392A51D0E3
:1049200001321A700CE5089B002B03DD392DEED007
:104930000135C2E7069B0E9A1D7093422DD00023CD
:104940000A220499029800F0CFFB039B04909F4237
:1049500009D1390000230A22029800F0C5FB0700A4
:10496000039006947AE7390000230A22029800F0A7
:10497000BBFB002307000A220399029800F0B4FB56
:104980000390EEE700240B9BA34201DD1C00013CD9
:1049900003970027059B0133E4180499012202982C
:1049A00000F0A8FD3100049000F010FE0028B1DCFA
:1049B00001D1ED07AED423001C00013B1A78302A48
:1049C000FAD0BDE4059A9A42A5D1099B0133099317
:1049D00031231370B4E4154B269A0593144B002A27
:1049E00001D0FFF781FAFFF781FA229B012B00DC4F
:1049F00048E60120129D65E60B9B002B00DCA9E632
:104A0000002431000498FFF7A3F9059B30301855B6
:104A10000B9B01340500A342B4DD00230A22049954
:104A2000029800F061FB0490EBE7C0463475000883
:104A30003C75000870B505000C1E10D0043C2368BE
:104A4000002B00DAE418280000F0D8FA1D4A136899
:104A5000002B05D163601460280000F0D7FA70BD08
:104A6000A34208D9206821188B42F3D119685B68EA
:104A700009182160EEE71A005B68002B01D0A34201
:104A8000F9D911685018A0420BD1206809185018A4
:104A900011608342E0D118685B684118116053606F
:104AA000DAE7A04202D90C232B60D5E72068211851
:104AB0008B4203D119685B680918216063605460F8
:104AC000CAE7C046C4030020F0B58E6885B01F0059
:104AD0000C00330002900392BE4254D80C22885E30
:104AE0009022D20010422CD00322096923685B1A5D
:104AF000019363695343019ADD0FED187B1C6D1020
:104B00009B182A00AB4201D91D001A00400527D589
:104B10001100029800F0F2F9061E2AD0019A2169CC
:104B200001F0C2F9A289194B1A4080231343A381D3
:104B3000019B2661F618266065613E00ED1A3B0078
:104B4000A5601F003A000399206801F0DAF8002000
:104B5000A3689B1BA3602368DB19236005B0F0BD2D
:104B6000029800F095FF061EE2D121690298FFF736
:104B700061FF0C230120029A40421360A289343362
:104B80001343A381EAE73E00DCE7C0467FFBFFFF5B
:104B9000F0B5936887B00C0017000490002B55D037
:104BA00013680293029B1B680593029B5B68019349
:104BB000029B08330293019B002BF3D0A6683500BB
:104BC000B3425DD30C23E05E9023DB0018422DD06E
:104BD0000322216923685B1A039363695343DD0F42
:104BE000ED18039B019A01336D109B182A00AB420C
:104BF00001D91D001A0040052DD51100049800F0C0
:104C00007DF9061E30D0039A216901F04DF9A28981
:104C10001C4B1A4080231343A381039B2661F61883
:104C200026606561019EED1AA56035002A00059990
:104C3000206801F066F8A368019A9B1BA3602368B3
:104C40005B192360BB689B1ABB60ABD100200023BB
:104C50007B6007B0F0BD049800F01AFF061EDCD19F
:104C600021690498FFF7E6FE0C23049A01201360E3
:104C7000A28934331343A38100234042BB60E6E79B
:104C8000019ED2E77FFBFFFFF0B59FB002901C00B2
:104C90008B890E0015001B0611D50B69002B0ED158
:104CA000402100F02BF930603061002805D10C2341
:104CB000029A136001204042D4E040237361002334
:104CC000292102AA52180B9320331370013102AA32
:104CD00010335218137005942C002378002B01D048
:104CE000252B48D1671BAC420BD03B002A0031007A
:104CF0000298FFF7E9FE013000D1AEE00B9BDB1913
:104D00000B932378002B00D1A7E00122532100232D
:104D10005242079202AA5218651C069309930893FF
:104D200013701C93554F297805223800FEF7FEFFBB
:104D30006C1C069906AB00281FD1CA0604D5532760
:104D4000202202A8C01902700A0704D553272B227B
:104D500002A8C01902702A782A2A15D02C00002037
:104D60000A27DA682178651C3039092950D90028CA
:104D700011D009920FE00134AFE70123C01B83403B
:104D80000B4325000693CDE7059A101D1268059088
:104D9000002A37DBDA6022782E2A0CD162782A2AA0
:104DA0003BD1059A0234111D12680591002A01DADF
:104DB000012252425A60324D032228002178FEF728
:104DC000B5FF06AF002806D04023401B8340069A5B
:104DD000013413430693217806222A48651C39764C
:104DE000FEF7A4FF00283FD0274B002B29D1072234
:104DF000059B07339343083305930B9B03995B187B
:104E00000B9369E75242DA6002220A430692C2E734
:104E10007A432C0001205218A4E700220A205A608D
:104E20001100130001342278651C303A092A03D995
:104E3000002BC0D00791BEE741432C000123891805
:104E4000F1E705AA009239003200104B0298FEF7F4
:104E5000EBF80390039B0133CFD1B3890B985B062A
:104E600000D527E71FB0F0BD05AA00923900320037
:104E7000064B0298FEF776FBEBE7C046CA750008C2
:104E8000D0750008D475000829300008C94A000808
:104E900010B5034B0100186800F030F810BDC04693
:104EA0001000002010B5034B01001868FFF7C2FD89
:104EB00010BDC0461000002070B50F4E0D003168C7
:104EC0000400002902D100F069FF306029002000B1
:104ED00000F064FF431C03D101256D42280070BD22
:104EE0000323C51C9D43A842F8D0291A200000F0D6
:104EF00055FF0130F2D1EFE7C0030020F7B50322E0
:104F0000CB1C9343083305001F000C2B34D20C2715
:104F1000B94233D8280000F071F8374E33681C00CE
:104F2000002C2FD139002800FFF7C6FF0400431CD6
:104F30005FD134680094009B002B4AD1002C52D0E2
:104F400023682800E3180099019300F027FF019BD4
:104F5000834248D123682800FF1A3900FFF7ACFFCD
:104F6000013040D02368DB19236033685A68002A77
:104F700033D1009B336019E0002BC9DA0C232B607E
:104F80000020FEBD2168C91B20D40B290AD9E219D3
:104F90002760A34204D1326063681160536005E06A
:104FA0005A60F9E76268A3420ED13260280000F02F
:104FB0002DF8200007220B30231D9043C21A98427F
:104FC000DFD01B1AA350DCE75A60EFE723006468C8
:104FD000A6E7009C63680093ADE71A005B68A342F4
:104FE000FBD10023DAE70C2328002B6000F00EF839
:104FF000C6E70760DAE7C046C403002010B50248E0
:10500000FEF783FE10BDC046BC03002010B5024869
:10501000FEF781FE10BDC046BC03002070B5C46918
:1050200005000E00002C10D11020FFF731FF041EE8
:10503000E86105D122006B21174B184800F03EFFB4
:105040000023436083600360C360E368002B0BD1DF
:1050500021220421280000F054FFEB69E060DB68A6
:10506000002B01D1002070BDB2009B1818680028E9
:1050700005D002681A6000230361C360F3E70121D1
:105080000C00B440621D2800920000F03AFF002896
:10509000E8D046608460EEE741750008DB750008E3
:1050A00070B5C66905000C00002E0ED11020FFF768
:1050B000EFFE021EE86104D18F21094B094800F080
:1050C000FDFE466086600660C660002C07D0EB6976
:1050D0006268DB6892009B181A6822601C6070BDD1
:1050E00041750008DB750008F7B50F0001900C0052
:1050F0001E0000200D6914373B68013099B25143FE
:105100001B0C534389190E0C9B191E0C89B21B04EE
:105110005B1808C78542EFDC002E22D0A368AB42A3
:1051200019DC616801980131FFF778FF071E05D18E
:105130003A00BA210C4B0D4800F0C0FE2100226954
:105140000C31023292000C3000F0AEFE21000198CA
:10515000FFF7A6FF3C002B1D9B00E31801355E60A6
:1051600025612000FEBDC046B9750008DB7500084A
:10517000F7B5060018000F0008300921009314004D
:10518000FCF7C8F80123002183420ADB3000FFF757
:1051900045FF011E08D10A00194B1A48D33100F00F
:1051A0008DFE5B000131EFE7089B3D004361012369
:1051B0000361092C16DD09353B192F0001933B785B
:1051C0000A22303B3000FFF78FFF019B01370100BF
:1051D0009F42F4D12D19083D2700009B9F4204DB1C
:1051E0000800FEBD09240A35F6E72B1BDB5D0A2209
:1051F0003000303BFFF778FF01370100EDE7C04694
:10520000B9750008DB7500088022030052020020F7
:10521000934201D21B04103080225204934201D2E7
:1052200008301B0280225205934201D204301B0138
:105230008022D205934201D202309B00002B03DB77
:105240000130134200D1202070470368010007227B
:105250001800104013420DD0063A0020134205D129
:105260000230034203D0D34010000B6070479B080C
:105270000B60FBE79AB2002A01D110201B0CDAB2B6
:10528000002A01D108301B0A1A0701D104301B097A
:105290009A0701D102309B08DA07E9D401305B0894
:1052A000E6D12020E2E7000010B50C000121FFF755
:1052B000B5FE002807D14621054C0200054B200011
:1052C000FF3100F0FBFD01234461036110BDC046C6
:1052D000DB750008B9750008F0B50D6916690F0097
:1052E000140089B0B54204DB33000C002E00170017
:1052F0001D0073190193A36872196168934200DA63
:105300000131FFF78BFE0090002806D1B121464BFA
:105310004648009A490000F0D1FD009A73191432F2
:105320009B00D3180293002113000298834229D3D3
:105330002300B6001433049314379B19AD00039374
:10534000BC462B0063440793002305932300039975
:105350001533994204D30C1B153CA408A3000593F4
:10536000079B9C4510D3019B002B05DD029B043B52
:1053700002931B68002B52D0009B019A18001A61FF
:1053800009B0F0BD02C3D0E763461C68A4B2002C8C
:105390001ED017000025049E01CE3B68069383B201
:1053A000634319006B46000C1B8B6043CB180699B6
:1053B0005B19090C4018190C41189BB20D0C09041B
:1053C0001943039B02C7B342E6D8059BD3185D601F
:1053D00063461C68240C1ED01168160008000027C4
:1053E000049D2B68000C9BB26343DB191B18180447
:1053F00089B20843306080CD70683F0C674381B24A
:1054000079181B0CC918039B0F0C0436AB42E8D863
:10541000059BD318596004239C44D218A0E7019B34
:10542000013B01939FE7C046B9750008DB75000892
:10543000F7B50323150007000C001A401D4208D0E1
:105440002849013A9200525800232100FFF74CFEF0
:105450000400AB10019342D0FD69002D11D1102042
:10546000FFF716FD051EF86106D1B4212A001E4B78
:105470001E48FF3100F022FD00234360836003607B
:10548000C360AE68002E07D138001949FFF70CFF42
:1054900000230600A86003600122019B2500134041
:1054A000019A52100192002B0CD0210032003800DA
:1054B000FFF712FF290004003800FFF7F1FD019B00
:1054C000002B0CD03068002807D1320031003800A2
:1054D000FFF702FF0023306003600600DCE72000D6
:1054E000FEBDC0468476000841750008DB750008E3
:1054F00071020000F0B50C0016002369571187B047
:10550000FB180293013301934968A3680390019A41
:10551000934210DB0398FFF781FD00230100050093
:105520001A00143198420CD1EF212A00254B26484D
:10553000490000F0C3FC01315B00E8E798000A5025
:105540000133BB42FADBFB43DB171F40BF002300E4
:10555000C9191F20370022691433920005919A1847
:105560000740064228D00130C01B049000201E686E
:105570008C46BE4006436046066001CB049E043163
:10558000F0409A42F3D82100153100238A4203D318
:10559000131B153B9B089B00059AD31858600028E5
:1055A00001D1029B0193019B039821002B61FFF71E
:1055B00077FD280007B0F0BD40CB0E6004319A4261
:1055C000FAD8EEE7B9750008DB75000830B50B694D
:1055D00004690200E01A9C420FD114329B0014317E
:1055E0001400C918D218043A043915680B689D4292
:1055F00004D001209D4200D2023830BD9442F2D343
:10560000FBE70000F0B50C0087B00090110020000F
:105610001700FFF7DBFF051E10D101000098FFF710
:10562000FDFC021E04D1454B4548464900F046FCAE
:10563000012345610361100007B0F0BD0026B042B0
:1056400003DA23003C001F00013661680098FFF771
:10565000E5FC021E03D1394B39483B49E6E7236993
:10566000143400939B00E318019314239C463B6978
:10567000BC449B00634402930300C66000201433C3
:105680000393059304946146049B20CB049308C9BB
:105690008C46A9B20E0099B2711A09182D0C1B0C78
:1056A0000814EB1A1B18181489B21B041943059B24
:1056B00002C30593029B6345E5D83B00029D153369
:1056C00000219D4203D3EB1B153B9B089900039BD4
:1056D0005B1861180E1D350004330293039B1B1BDE
:1056E0000393039B9C46019BAC449D4212D30198BB
:1056F00001310023884204D3030003339B1B9B0822
:105700009B0002995B18043B1968002911D0009B8B
:10571000136190E7070008CD98B2C01900141C0C63
:105720000419DB1920149BB224042343644623602C
:10573000D7E7009901390091E5E7C046B97500083F
:10574000DB750008370200004502000010B5002498
:105750000C4B0D4A0B409B18A34206DC5B421A150A
:10576000132A05DC80231B0313411900200010BD00
:10577000143A01241E2A02DC80242406D44000238B
:10578000F3E7C0460000F07F0000C0FCF7B506005C
:10579000036914369B00F3181D1F2C680F002000AE
:1057A0000193FFF731FD2022121A3A6003001C4AD0
:1057B0000A2815DC0B212700091ACF403A438C46F2
:1057C00011000022AE4202D2019A083A1268153343
:1057D0009C4063462700DA401743380003B0F0BD11
:1057E0000027AE4202D2019D083D2F680B2149429D
:1057F0008C469C440B2B10D0614620238C405B1AB6
:105800003900D9400C43224311000022B54201D98E
:10581000043D2A686446A740DDE722431100DCE727
:105820000000F03FF7B5012116001F00FFF7F6FB5F
:10583000041E05D12200254B2548264900F03EFBD9
:105840003B037D001B0B6D0D02D0802252031343DE
:105850000193002E25D068460096FFF7F6FC0099CC
:1058600000281CD0019B20221E00121A96403200F4
:10587000C3400A4362610193019EA661731E9E416B
:1058800001362661002D14D03526134BED18089BE8
:105890002D181D60099B361A1E602000FEBD616137
:1058A000EAE701A8FFF7D1FC019B012663612030E4
:1058B000E7E70A4BC018089B1860094BF3189B00D8
:1058C000E3185869FFF7A0FC7601E3E7B975000813
:1058D000DB7500080F030000CDFBFFFFCEFBFFFFD1
:1058E000FFFFFF3FF0B587B00F0004A90600FFF7E8
:1058F0004DFF00900191009B019C380005A9029387
:105900000394FFF743FF0D0002000B003069396973
:10591000049E401A05994001711A41180805002992
:1059200008DD01994118039102980399FCF724FBC3
:1059300007B0F0BD2B1AF7E710B50400172805DCF7
:10594000074BC4001B191868596810BD0020054991
:105950000022054B013CFCF72DFE002CF8D1F4E7AA
:10596000E07600080000F03F0000244070B514000D
:1059700005000139136949110131890014349B0074
:105980004118E318A3420DD8140011340025A34296
:1059900003D39B1A113B9B089D00002340198842AA
:1059A00003D370BD40CC40C5ECE708C0F7E7020068
:1059B000006910B514324B11984213DB0CDD1F2423
:1059C00008002040214207D099008C582100C14096
:1059D000814001208C4204D19B00D318934203D80C
:1059E000002010BD0300F7E7043B19680029F5D03B
:1059F0000120F6E770B50C000E25495F00F0BAF9FA
:105A0000002803DB636D1B18636570BDA389024A20
:105A10001340A381F9E7C046FFEFFFFF0020704766
:105A2000F8B51F008B8905000C001600DB0505D5B5
:105A30000E23C95E0022022300F088F9A389054ADB
:105A400028001340A38132000E23E15E3B0000F0EA
:105A5000B7F9F8BDFFEFFFFF70B50C000E25495FE9
:105A600000F074F90C22A35E421C03D1044A1340D7
:105A7000A38170BD802252011343A3816065F8E7C2
:105A8000FFEFFFFF10B50E23C95E00F0DFF910BD78
:105A9000F7B506000C001500002905D11100FFF72D
:105AA0002DFA04002000FEBD002A03D1FEF7C2FF3C
:105AB0002C00F7E700F06EFA0700854202D8430891
:105AC000AB42EFD329003000FFF718FA019000280D
:105AD00001D1019CE6E72A00BD4200D93A0021002D
