:10000000020003758169120176E582600302006FC8
:10001000780079007A007B007C007D00EC4D601C4C
:1000200088828983E493A3A882A9838A828B83F040
:10003000A3AA82AB831CBCFFE31D80E07582007520
:1000400083007C007D00EC4D600AE4F0A31CBCFF43
:10005000F51D80F27582007583007C007D00EC4DFB
:10006000600AE4F0A31CBCFFF51D80F212017512BA
:10007000054A80FE436F6D6D616E643A2025730002
:10008000526573706F6E73653A2025730D0A0041D7
:10009000542B44564944303030300D0A001B5B323B
:1000A0004A0041542B5645520D0A0041542B4241FF
:1000B00055440D0A0041542B524649440D0A004153
:1000C000542B445649440D0A0041542B5246430DCB
:1000D0000A0041542B504F57450D0A0041542B4301
:1000E0004C53530D0A0041542B4456494446444650
:1000F000440D0A0041542B5246433131330D0A005E
:10010000627574746F6E20312070726573736564EC
:100110002E2073776974636820746F206175746F23
:100120006D61746963206D6F646500627574746FCE
:100130006E203220707265737365642E2073776948
:1001400074636820746F206D616E75616C206D6FD3
:10015000646500746573742025640A004E4F205254
:100160004553504F4E53450D0A003C4E4F20464CD0
:100170004F41543E002275A7007597DE7597AD7507
:10018000FF8075EF0675A71075C12075A70075A9CA
:100190000075A900E5A930E7FB75A90375A903E57A
:1001A000A930E7FB43A41143A60175E10175E20004
:1001B00075E341759810758DE6858D8B53890F43D6
:1001C0008920D28ED2997582002275A700C2EF7560
:1001D000B28075BC2075B91E75E80075DF3F75B338
:1001E00000D2EF22AA82438E407592B87593FF85A4
:1001F00092948593957591047B00C3EB9A500BE51F
:100200009130E7FB53917F0B80F075910022AA8219
:10021000AB837C007D00C3EC9AED9B502B7E00BE2F
:100220000400501D7582FAC002C003C004C005C09E
:10023000061201E4D006D005D004D003D0020E800F
:10024000DE0CBC00D10D80CE22AA82AB83ACF0FDC7
:1002500075A72075930C75C8107594008A118B12C0
:100260008C138D1490A20075F04A7404120989AAA7
:1002700082AB83ACF0FD751118E4F512F513F5149B
:100280008A828B838CF0ED120989AA82AB83ACF051
:10029000FDE4C39AFAE49BFB74019CE49D8A958B70
:1002A00096D2C943944075A70022AA8275A7201050
:1002B000C90280FB8A9275A70022AA82AB83ACF0A8
:1002C0008A828B838CF012096DFD60188D82C002CA
:1002D000C003C0041202AAD004D003D0020ABA009C
:1002E000DF0B80DC2275A72010C80280FB53C83FBB
:1002F00085928275A7002275A7207A007B0020C80E
:100300002675A700758214C002C0031201E4D00351
:10031000D00275A7200ABA00010BBAA8E1BB61DEC2
:1003200075A70075820A22C2C853C83F859282759C
:10033000A70022AA82AB83ACF07D008A068B078CD3
:1003400000C002C003C004C005C006C007C0001240
:1003500002F7A982D000D007D006D005D004D00380
:10036000D002B90A0A8A828B838CF0E4020B33C371
:10037000ED952250180D8E828F8388F0E9120B3391
:10038000A3AE82AF838E028F03880480B48A828BEF
:10039000838CF0E4020B3375A720A2C875A7002256
:1003A000AA82AB837C007D00C3EC9AED9B50477E14
:1003B00000BE04005039C002C003C004C005C0061E
:1003C000120397E433D006D005D004D003D00260E6
:1003D00001227582FAC002C003C004C005C0061223
:1003E00001E4D006D005D004D003D0020E80C20CA8
:1003F000BC00B50D80B222AA82AB83ACF0C002C0B3
:1004000003C004C002C003C0047474C0E07400C020
:10041000E07480C0E0120B12E58124FAF581C2A0DD
:1004200090000512020ED004D003D0028A828B8382
:100430008CF01202BA75221390005075F04012032E
:100440003390000A12020ED2A07450C0E07400C0B3
:10045000E07440C0E07480C0E07400C0E07480C00C
:10046000E0120B12E58124FAF58122C2A090000A65
:1004700012020E90008F75F0801202BA90000A12DC
:10048000020E53C83FD2A022AA828511F005F07453
:1004900001800225E0D5F0FBFB75A720BA000280A1
:1004A0000ABA0102800FBA021E8014EBF4FA52F16C
:1004B000EB42D48012EBF4FA52F2EB42D58008EB17
:1004C000F4FA52F3EB42CC75A700228582BBC2ED51
:1004D000D2EC30EDFD85BD8285BE83221204CB12A5
:1004E00009EEAA82AB83ACF0FDC002C003C004C019
:1004F0000590333375F0537440120A5AAA82AB83C5
:10050000ACF0FDE58124FCF581E4C0E074FCC0E0C2
:10051000747FC0E07446C0E08A828B838CF0ED1259
:100520000BECAA82AB83ACF0FDE58124FCF5818A5B
:10053000828B838CF0ED2275A720539CFB43B00483
:1005400043B00143B00275A700229001F412020EDD
:10055000749DC0E07400C0E07480C0E0120B1215FE
:100560008115811581902580E4F5F012024912046D
:100570006B9000A275F0801203F79000AB75F080CD
:100580001203F79000B575F0801203F79000BF7565
:10059000F0801203F79000C975F0801203F7900005
:1005A000D275F0801203F79000DC75F0801203F72B
:1005B0009000E675F0801203F79000F475F0801259
:1005C00003F7751102758202120488751103758292
:1005D00002120488751104758202120488751105CF
:1005E0007582021204881201CA120537758221121F
:1005F00002AA90000512020E7582401202AA7A0029
:100600007B00C002C003120397D003D00240250A2A
:10061000BA00010BC374FA9AE464808BF063F08033
:1006200095F04010758264C002C0031201E4D0034B
:10063000D00280CE120397400302094375820F1245
:1006400004DCAA82AB83ACF0FD8A238B248C258D3D
:10065000267582101204DCAA82AB83ACF0FD8A27D7
:100660008B288C298D2A7582111204DCAA82AB8317
:10067000ACF0FD8A2B8B2C8C2D8D2E7582121204E2
:10068000DCAA82AB83ACF0FD8A2F8B308C318D32AB
:1006900074E5C0E074D0C0E07452C0E07440C0E0C3
:1006A0008527828528838529F0E52A120BECAA820A
:1006B000AB83ACF0FDE58124FCF581C002C003C032
:1006C00004C005900000E4F5F07440120A5AAA82B2
:1006D000AB83ACF0FDE58124FCF581E4C0E0C0E033
:1006E0007480C0E0743FC0E08A828B838CF0ED128E
:1006F0000BE185823385833485F035F536E5812439
:10070000FCF58174E5C0E074D0C0E07452C0E074C0
:1007100040C0E08523828524838525F0E526120BE1
:10072000ECAE82AF83AAF0FBE58124FCF581C00624
:10073000C007C002C003900000E4F5F07440120A44
:100740005AAA82AB83ACF0FDE58124FCF581E4C0BC
:10075000E0C0E07480C0E0743FC0E08A828B838C8C
:10076000F0ED120BE185823785833885F039F53A53
:10077000E58124FCF581E5B0E5B05401FEB401004B
:100780009200E5B0035401FEB40100920130001C58
:100790007400C0E07401C0E07480C0E0120B121558
:1007A00081158115817E057F0002090D30011C74C1
:1007B0002BC0E07401C0E07480C0E0120B12158100
:1007C000158115817E067F0002090DE4C0E0C0E0BE
:1007D00074C0C0E0743FC0E08533828534838535C2
:1007E000F0E5361209FAAA82E58124FCF581EA7067
:1007F0002AC0E0C0E0C0E0743FC0E08533828534A9
:10080000838535F0E5361209FAAA82E58124FCF5E4
:1008100081EA60077E037F0002090DE4C0E0C0E0CA
:10082000C0E074BFC0E08533828534838535F0E550
:1008300036120A2AAA82E58124FCF581EA602CE4BA
:10084000C0E0C0E074C0C0E074BFC0E08533828502
:1008500034838535F0E536120A2AAA82E58124FC24
:10086000F581EA70067E04FF02090DE4C0E0C0E0F5
:1008700074C0C0E0743FC0E0853782853883853915
:10088000F0E53A1209FAAA82E58124FCF581EA70C2
:1008900029C0E0C0E0C0E0743FC0E0853782853801
:1008A000838539F0E53A1209FAAA82E58124FCF53C
:1008B00081EA60067E017F008053E4C0E0C0E0C0B2
:1008C000E074BFC0E08537828538838539F0E53A2A
:1008D000120A2AAA82E58124FCF581EA602BE4C091
:1008E000E0C0E074C0C0E074BFC0E08537828538E6
:1008F000838539F0E53A120A2AAA82E58124FCF5BB
:1009000081EA70057E02FF80047E007F00C006C081
:10091000077453C0E07401C0E07480C0E07450C03C
:10092000E07400C0E07440C0E0120B9BE58124F845
:10093000F58190005075F0401202BA9000641202E6
:100940000E80217450C0E07400C0E07440C0E074B8
:100950005CC0E07401C0E07480C0E0120B12E5815D
:1009600024FAF58190003212020E0205EC20F714F1
:1009700030F6148883A88220F507E6A883758300E3
:1009800022E280F7E49322E022FB7A20E4FCFDFEE1
:10099000FFE5822582F582E58333F583E5F033F5C3
:1009A000F0EB33FB4017DAE98042E5822582F582DD
:1009B000E58333F583E5F033F5F0EB33FBEC33FC03
:1009C000ED33FDEE33FEEF33FFEC9511ED9512EEB6
:1009D0009513EF95144013EC9511FCED9512FDEE77
:1009E0009513FEEF9514FF438201DABEEB22E4ACCF
:1009F00083AB82FAF9748E020D14FFA881181812C5
:100A00000D3CD2D133E6400730E70B75820122203E
:100A1000E70675820022C2D1120D1EE97003F5822D
:100A20002230D101B3E433F58222FFA881181812D5
:100A30000D3CD2D133E6400730E70B75820022200F
:100A4000E70675820122C2D1120D1EE97003F582FC
:100A50002220D101B3E433F58222120DE9BC000358
:100A6000020D88EF60FA30D502B2D1E583B4FF03FE
:100A7000020D9EE582B4FF03020D9E2583400724EC
:100A800082400B020D882483145003020D9EF582D0
:100A9000EA8DF0A4A8F0EA8EF0A428F8E435F0F985
:100AA000EB8DF0A428E935F0F9E433CA8FF0A429DE
:100AB000F9EA35F0FAEBF88EF0A429F9EA35F0FA04
:100AC000E433FBEC8DF0A429F9EA35F0FAE43BFBC2
:100AD000E88FF0A42AFAEB35F0FBE433CCFD8EF07E
:100AE000A42AFAEB35F0FBE43CFCED8FF0A42BFBE1
:100AF000EC35F0FC20E703120DB6020D6702143747
:100B000085824985834A85F04B85104C900AFD0209
:100B10000EA0C008858108E50824FBF54CE50824F3
:100B2000FBF8864908864A08864B900AFD120EA0FB
:100B3000D0082220F71030F6118883A88220F5070C
:100B4000F6A88375830022F280F7F022AA82AB090F
:100B5000AC0AAD0B8B828C838DF0EA120B33050946
:100B6000E4B50902050A2285820985830A85F00B0E
:100B7000850C49850D4A850E4B850F4C900B4C1208
:100B80000EA0AA82AB83AC09AD0AAE0B8C828D831A
:100B90008EF0E4120B338A828B8322C00885810891
:100BA000E50824F8F54CE50824FBF8860908860AD0
:100BB00008860BE50824F8F8864908864A08864B1B
:100BC000900B4C120EA0AA82AB83AC09AD0AAE0BFF
:100BD0008C828D838EF0E4120B338A828B83D00853
:100BE00022A8811818C6B2E7C602144C120DE930CB
:100BF000D502B2D1BF0009BC0003020DAB020D9EAD
:100C0000BC0003020D88E583B4FF0BE582B4FF034B
:100C1000020DAB020D88E582B4FF03020D9EC39561
:100C2000835007247F400B020D8824801450030258
:100C30000D9EC0E0E4CCCBCAF98D118E128F13EF5C
:100C400054F0C4F5147583068514F0EB84F582E93D
:100C5000C4F9EAC4FAEBC4FBEC540FC47803D6FC25
:100C600018EBD6FB18EAD6FA8582F0EDA4A8F0FDC1
:100C70008582F0EEA428FEE435F0F88582F0EFA43A
:100C800028FFE435F0F8E99DF9EA9EFAEB9FFBECCA
:100C900098FCAD11AE12AF1330E7101582E92DF9B3
:100CA000EA3EFAEB3FFBE43CFC80EDC082D5839842
:100CB000C3E933F9EA33FAEB33FBEC33FCC3E99DC8
:100CC000EA9EEB9FEC9400B3E413F9D002D0E0C4A9
:100CD0004AFAD003D0E0C44BFBD004D0E0F5F05486
:100CE0000FC44CFCD082158230F40FD3EC13FCEB14
:100CF00013FBEA13FAE913F90582E930E70A7401F4
:100D00002AFAE43BFBE43CFC020D7FFCABF0AA8337
:100D1000A982749EC2D1F582120DB6020D677901C7
:100D2000AA82E68F82B5821318E6B5F00E18E6B5F2
:100D3000830918E68A82B58202790022B4800FE521
:100D4000F0700AE5837006E58270027F00EFB680DE
:100D50001518B6001018B6000B18B60006080808DB
:100D600076002208080822B98003EA13B34010EA8B
:100D70002401FAE43BFBE43CFC50047C800582BC8B
:100D8000000EBB000BBA0008E4F5F0F583F58222F3
:100D9000A2D1E582138CF092F78B838A8222E4F54C
:100DA00083F58275F080F4A2D11322E4F583F582F5
:100DB00075F0C0747F227804EC7011E58224F8503D
:100DC0000AF582E4C9CACBFCD8EF22EC7820058270
:100DD00020E713D5820122C3E933F9EA33FAEB3372
:100DE000FBEC33FCD8EA158222AA82AB83A2F7334C
:100DF00092D16002D2F7F582ACF0E58124F9F8E6F1
:100E0000FD08E6FE0886F008E6A2F73392D56002F8
:100E1000D2F7F583AFF022AA827428C0E0740EC026
:100E2000E0C03BC03C8A82220542E4B54202054351
:100E300022AA8274302AFA24C6500A74072AFA3089
:100E400002034302208A82020E17E582FAC4540F7D
:100E5000F582C002120E31D002740F5AF582020ED2
:100E600031AA3DAB3EAC3FAD40AE41754820EE2EC1
:100E7000FEED235401FF4206EA2AFAEB33FBEC3382
:100E8000FCED33FDC3EE95444008EEC39544FE43AC
:100E90000201D548D98A3D8B3E8C3F8D408E412240
:100EA00085823B85833CE4F542F543AA49AB4AACD5
:100EB0004B8A828B838CF012096DFD74012AF549EF
:100EC000E43BF54A8C4BEDFA7003021430BA25026C
:100ED0008003021428C206C207C208C209C20AC29D
:100EE0000BC20CC20DC203C204C205754400754595
:100EF000007546FFAB49AC4AAD4B8B828C838DF0BD
:100F000012096DFAA3AB82AC838B498C4A8D4BBA24
:100F100025078A82120E1780928A06BE3000402E64
:100F20008A06EE24C6402774FFB54613E54575F0E2
:100F30000AA4FEEA24D02EF54570BFD20780BBE597
:100F40004675F00AA4FEEA24D02EF54680ACBA2EEF
:100F50000A74FFB546A4754600809F8A06BE6100EC
:100F6000400E8A06EE248540075302DFD20280023B
:100F7000C202BA20028075BA2303020FFBBA2A0309
:100F8000021000BA2B02805FBA2D028055BA4202CD
:100F9000805FBA4303021045BA4403021180BA4588
:100FA0000302119ABA4603021196BA470302119E30
:100FB000BA4903021180BA4C02803BBA4E030211B7
:100FC000A2BA4F03021187BA5003021119BA530390
:100FD000021069BA550302118CBA5803021191022A
:100FE00011CCD206020EFAD208020EFAD209020E73
:100FF000FAD20B020EFAD20C020EFAD20D020EFA3F
:1010000074FFB54620300B0BE54C14F8884C864530
:10101000020EFAE54C24FEF8884C8606088607186E
:101020008E45020EFA300B0BE54C14F8884C8646C0
:10103000020EFAE54C24FEF8884C8606088607184E
:101040008E46020EFA300B0AE54C14F8884C8602E4
:10105000800FE54C24FEF8884C8603088604188B24
:10106000028A82120E170211D1E54C24FDF8884C39
:10107000860308860408860518188B3D8C3E8D3F34
:101080008B828C838DF01214A5AB82AC838B47745A
:10109000FFB5460385474620061DC3E547954550E5
:1010A00016E545C39547F545AB451545EB60087515
:1010B0008220120E1780F1853D82853E83853FF0A8
:1010C00012096DFBFA6029AB461546C3E464808BB8
:1010D000F063F08095F050188A82120E17AB3DAC89
:1010E0003EAD3F0BBB00010C8B3D8C3E8D3F80C75E
:1010F0002006030211D1C3E547954540030211D1F3
:10110000E545C39547F545AB451545EB7003021121
:10111000D1758220120E1780EEE54C24FDF8884C24
:10112000860308860408860518188B3D8C3E8D3F83
:10113000E53FFB30E7047A438013EB546060047AA8
:1011400050800AEB30E6047A4980027A588A82C0DD
:1011500002120E1775823A120E17758230120E1790
:10116000758278120E17D002BA4902800BBA50026B
:101170008006853E82120E4A853D82120E4A8051BB
:10118000D20A75440A804A754408804575440A802D
:1011900040754410803BD2038037D2048033D2059F
:1011A000802FE54C24FDF8884C86030886040886C9
:1011B0000518188B3D8C3E8D3F8B828C838DF0E51E
:1011C00042120B33A3E543120B3380058A82120EC1
:1011D0001720030620040330055AE54C24FCF88848
:1011E0004C86030886040886050886061818188B9E
:1011F0003D8C3E8D3F8E40753D6A753E01753F804A
:10120000853D4D853E4E853F4F7401254DFEE435AD
:101210004EFFAB4F8E3D8F3E8B3F854D82854E837B
:10122000854FF012096DFBFA7003020EAB8A821231
:101230000E1780CCE5447003020EAB7B69300B2B9C
:10124000E54C14F8884CE6FC3395E0FDFEFF8C3D40
:101250008D3E8E3F8F40200A5EAC3D7D007E007F3C
:10126000008C3D8D3E8E3F8F40804C300C1FE54CF6
:1012700024FCF8884C86040886050886060886073C
:101280001818188C3D8D3E8E3F8F40802AE54C24E7
:10129000FEF8884C860408860518ED3395E0FEFFBD
:1012A0008C3D8D3E8E3F8F40200A0CAC3DAD3E7E86
:1012B000007F008E3F8F40300D43E53D453E453F6A
:1012C000454060397408B5440C758230C003120E75
:1012D00017D00380287410B54423758230C00312E0
:1012E0000E17D00330020C758278C003120E17D08F
:1012F00003800A758258C003120E17D003300A25E6
:10130000AC3DAD3EAE3FE540FF30E717C3E49CFC8B
:10131000E49DFDE49EFEE49FFF8C3D8D3E8E3F8F5D
:10132000408002C20A754700D20E8B00754100C092
:1013300000120E61D000200E0DE541C4FCE6FD4C0C
:10134000F61888038002A6410547B20EE53D453EEA
:10135000453F454070D68803E5457003754501203B
:10136000071A200617E54704FCC39545500E758201
:1013700020C003120E17D003154580E9300A0E7500
:10138000822DC003120E17D00315458024E5476057
:101390002030080E75822BC003120E17D00315459E
:1013A000800F30090C758220C003120E17D0031570
:1013B0004520061EAC451545C3E5479C5027300720
:1013C000047C3080027C208C82C003120E17D00374
:1013D00080E2C3E54795455009E545C39547F54586
:1013E00080037545008B00AB471547EB6022B20EBA
:1013F000200E0A08E6C4540FFB8B41800786037455
:101400000F5BF541854182C000120E31D00080D7BC
:10141000200603020EABAB451545EB7003020EAB85
:10142000758220120E1780EE8A82120E17020EAB02
:1014300085428285438322AA82BA0A0810990280D3
:10144000FB75990D10990280FB8A9922120DE9799A
:1014500000E583B58202800D50031214CDE583C3ED
:1014600095821214E7E5D0C465D020E117EA2DFA81
:10147000EB3EFBEC3FFC500974011214E7EC448096
:10148000FC020D67C3EA9DFAEB9EFBEC9FFC500F3C
:10149000C3E499F9E49AFAE49BFBE49CFCB2D11210
:1014A0000DB6020D67AA82AB83ACF07D007E008A88
:1014B000828B838CF012096DFFA3AA82AB83EF604D
:1014C000070DBD00EA0E80E78D828E8322E582C57E
:1014D00083F582A2D133A2D592D11392D5ECCFFC61
:1014E000EBCEFBEACDFA226040F82582500274FF71
:1014F000F582E824F8501ECCCBCAF9E4CC24F8508D
:1015000014CBCAF9E4CB24F8500BCAF9E4CA24F886
:10151000500379002224086010F8C3EC13FCEB138D
:10152000FBEA13FAE913F9D8F122000000000000E9
:00000001FF
