:10000000020003758169120123E582600302006F1B
:10001000780079007A007B007C007D00EC4D601C4C
:1000200088828983E493A3A882A9838A828B83F040
:10003000A3AA82AB831CBCFFE31D80E07582007520
:1000400083007C007D00EC4D600AE4F0A31CBCFF43
:10005000F51D80F27582007583007C007D00EC4DFB
:10006000600AE4F0A31CBCFFF51D80F2120122120D
:1000700004F180FE436F6D6D616E643A202573005C
:10008000526573706F6E73653A2025730D0A0041D7
:10009000542B44564944303030300D0A001B5B323B
:1000A0004A0041542B5645520D0A0041542B4241FF
:1000B00055440D0A0041542B524649440D0A004153
:1000C000542B445649440D0A0041542B5246430DCB
:1000D0000A0041542B504F57450D0A0041542B4301
:1000E0004C53530D0A0041542B4456494446444650
:1000F000440D0A0041542B5246433131330D0A005E
:10010000746573742025640A004E4F205245535085
:100110004F4E53450D0A003C4E4F20464C4F415424
:100120003E002275A7007597DE7597AD75FF807547
:10013000EF0675A71075C12075A70075A90075A9F0
:1001400000E5A930E7FB75A90375A903E5A930E728
:10015000FB43A41143A60175E10175E20075E3417B
:10016000759810758DE6858D8B53890F438920D244
:100170008ED2997582002275A700C2EF75B2807584
:10018000BC2075B91E75E80075DF3F75B300D2EF6E
:1001900022AA82438E407592B87593FF859294850A
:1001A00093957591047B00C3EB9A500BE59130E772
:1001B000FB53917F0B80F075910022AA82AB837C68
:1001C000007D00C3EC9AED9B502B7E00BE040050D6
:1001D0001D7582FAC002C003C004C005C00612012A
:1001E00091D006D005D004D003D0020E80DE0CBC26
:1001F00000D10D80CE22AA82AB83ACF0FD75A72082
:1002000075930C75C8107594008A118B128C138D20
:100210001490A20075F04A74041208EEAA82AB830F
:10022000ACF0FD751118E4F512F513F5148A828B04
:10023000838CF0ED1208EEAA82AB83ACF0FDE4C330
:100240009AFAE49BFB74019CE49D8A958B96D2C933
:1002500043944075A70022AA8275A72010C9028086
:10026000FB8A9275A70022AA82AB83ACF08A828BAC
:10027000838CF01208D2FD60188D82C002C003C0CA
:1002800004120257D004D003D0020ABA00DF0B8058
:10029000DC2275A72010C80280FB53C83F859282DC
:1002A00075A7002275A7207A007B0020C82675A7B5
:1002B00000758214C002C003120191D003D00275F0
:1002C000A7200ABA00010BBAA8E1BB61DE75A7003E
:1002D00075820A22C2C853C83F85928275A7002240
:1002E000AA82AB83ACF07D008A068B078C00C0022B
:1002F000C003C004C005C006C007C0001202A4A904
:1003000082D000D007D006D005D004D003D002B9E7
:100310000A0A8A828B838CF0E4020A98C3ED952244
:1003200050180D8E828F8388F0E9120A98A3AE824E
:10033000AF838E028F03880480B48A828B838CF013
:10034000E4020A9875A720A2C875A70022AA82AB6A
:10035000837C007D00C3EC9AED9B50477E00BE0479
:10036000005039C002C003C004C005C006120344D7
:10037000E433D006D005D004D003D002600122754A
:1003800082FAC002C003C004C005C006120191D0A9
:1003900006D005D004D003D0020E80C20CBC00B53C
:1003A0000D80B222AA82AB83ACF0C002C003C004AD
:1003B000C002C003C0047474C0E07400C0E0748064
:1003C000C0E0120A77E58124FAF581C2A090000509
:1003D0001201BBD004D003D0028A828B838CF0122E
:1003E000026775221390005075F0401202E09000F1
:1003F0000A1201BBD2A07450C0E07400C0E0744087
:10040000C0E07480C0E07400C0E07480C0E0120AF4
:1004100077E58124FAF58122C2A090000A1201BB7F
:1004200090008F75F08012026790000A1201BB5392
:10043000C83FD2A022AA828511F005F07401800283
:1004400025E0D5F0FBFB75A720BA0002800ABA01AF
:1004500002800FBA021E8014EBF4FA52F1EB42D480
:100460008012EBF4FA52F2EB42D58008EBF4FA5228
:10047000F3EB42CC75A700228582BBC2EDD2EC30F3
:10048000EDFD85BD8285BE8322120478120953AA30
:1004900082AB83ACF0FDC002C003C004C005903342
:1004A0003375F05374401209BFAA82AB83ACF0FDE0
:1004B000E58124FCF581E4C0E074FCC0E0747FC0F9
:1004C000E07446C0E08A828B838CF0ED120B51AA57
:1004D00082AB83ACF0FDE58124FCF5818A828B83BD
:1004E0008CF0ED2275A720539CFB43B00475A70048
:1004F000229001F41201BB749DC0E07400C0E0744E
:1005000080C0E0120A77158115811581902580E45D
:10051000F5F01201F61204189000A275F080120393
:10052000A49000AB75F0801203A49000B575F08024
:100530001203A49000BF75F0801203A49000C97547
:10054000F0801203A49000D275F0801203A49000F2
:10055000DC75F0801203A49000E675F0801203A40D
:100560009000F475F0801203A475110275820212D6
:1005700004357511037582021204357511047582F4
:1005800002120435751105758202120435120177C5
:100590001204E47582211202579000051201BB7506
:1005A00082401202577A007B00C002C0031203444B
:1005B000D003D00240250ABA00010BC374FA9AE4B2
:1005C00064808BF063F08095F04010758264C00207
:1005D000C003120191D003D00280CE120344400325
:1005E0000208A875820F120489AA82AB83ACF0FDC1
:1005F0008A238B248C258D26758210120489AA8269
:10060000AB83ACF0FD8A278B288C298D2A7582114B
:10061000120489AA82AB83ACF0FD8A2B8B2C8C2D23
:100620008D2E758212120489AA82AB83ACF0FD8AEA
:100630002F8B308C318D32745CC0E0748FC0E074CD
:1006400052C0E07440C0E08527828528838529F068
:10065000E52A120B51AA82AB83ACF0FDE58124FCA4
:10066000F581C002C003C004C005900000E4F5F0AD
:1006700074401209BFAA82AB83ACF0FDE58124FC73
:10068000F581E4C0E0C0E07480C0E0743FC0E08A5F
:10069000828B838CF0ED120B468582338583348503
:1006A000F035F536E58124FCF581745CC0E0748F8B
:1006B000C0E07452C0E07440C0E08523828524838A
:1006C0008525F0E526120B51AE82AF83AAF0FBE53B
:1006D0008124FCF581C006C007C002C00390000061
:1006E000E4F5F074401209BFAA82AB83ACF0FDE5DB
:1006F0008124FCF581E4C0E0C0E07480C0E0743F78
:10070000C0E08A828B838CF0ED120B4685823785A0
:10071000833885F039F53AE58124FCF581E5B0545C
:1007200001FEB40100920050077E057F00020872AE
:10073000E4C0E0C0E074C0C0E0743FC0E085338234
:100740008534838535F0E53612095FAA82E5812478
:10075000FCF581EA702AC0E0C0E0C0E0743FC0E070
:100760008533828534838535F0E53612095FAA82A8
:10077000E58124FCF581EA60077E017F00020872B2
:10078000E4C0E0C0E0C0E074BFC0E08533828534DF
:10079000838535F0E53612098FAA82E58124FCF5C0
:1007A00081EA602CE4C0E0C0E074C0C0E074BFC067
:1007B000E08533828534838535F0E53612098FAACA
:1007C00082E58124FCF581EA70067E03FF0208724F
:1007D000E4C0E0C0E074C0C0E0743FC0E085378290
:1007E0008538838539F0E53A12095FAA82E58124CC
:1007F000FCF581EA7029C0E0C0E0C0E0743FC0E0D1
:100800008537828538838539F0E53A12095FAA82F7
:10081000E58124FCF581EA60067E027F008053E4D6
:10082000C0E0C0E0C0E074BFC0E085378285388397
:100830008539F0E53A12098FAA82E58124FCF58119
:10084000EA602BE4C0E0C0E074C0C0E074BFC0E068
:100850008537828538838539F0E53A12098FAA8277
:10086000E58124FCF581EA70057E04FF80047E00AA
:100870007F00C006C0077400C0E07401C0E074804F
:10088000C0E07450C0E07400C0E07440C0E0120BDF
:1008900000E58124F8F58190005075F04012026760
:1008A0009000321201BB80217450C0E07400C0E09F
:1008B0007440C0E07409C0E07401C0E07480C0E01E
:1008C000120A77E58124FAF5819000321201BB0209
:1008D000059320F71430F6148883A88220F507E6E4
:1008E000A88375830022E280F7E49322E022FB7A5A
:1008F00020E4FCFDFEFFE5822582F582E58333F5E9
:1009000083E5F033F5F0EB33FB4017DAE98042E59D
:10091000822582F582E58333F583E5F033F5F0EB4C
:1009200033FBEC33FCED33FDEE33FEEF33FFEC95A0
:1009300011ED9512EE9513EF95144013EC9511FC03
:10094000ED9512FDEE9513FEEF9514FF438201DA4B
:10095000BEEB22E4AC83AB82FAF9748E020C79FF11
:10096000A8811818120CA1D2D133E6400730E70B4A
:100970007582012220E70675820022C2D1120C8303
:10098000E97003F5822230D101B3E433F58222FF0E
:10099000A8811818120CA1D2D133E6400730E70B1A
:1009A0007582002220E70675820122C2D1120C83D3
:1009B000E97003F5822220D101B3E433F5822212DB
:1009C0000D4EBC0003020CEDEF60FA30D502B2D13F
:1009D000E583B4FF03020D03E582B4FF03020D03B8
:1009E000258340072482400B020CED24831450031E
:1009F000020D03F582EA8DF0A4A8F0EA8EF0A42897
:100A0000F8E435F0F9EB8DF0A428E935F0F9E4339A
:100A1000CA8FF0A429F9EA35F0FAEBF88EF0A42990
:100A2000F9EA35F0FAE433FBEC8DF0A429F9EA3564
:100A3000F0FAE43BFBE88FF0A42AFAEB35F0FBE494
:100A400033CCFD8EF0A42AFAEB35F0FBE43CFCED50
:100A50008FF0A42BFBEC35F0FC20E703120D1B02FA
:100A60000CCC02139C85824985834A85F04B851006
:100A70004C900A62020E05C008858108E50824FB37
:100A8000F54CE50824FBF8864908864A08864B9011
:100A90000A62120E05D0082220F71030F611888362
:100AA000A88220F507F6A88375830022F280F7F06C
:100AB00022AA82AB09AC0AAD0B8B828C838DF0EA43
:100AC000120A980509E4B50902050A2285820985FA
:100AD000830A85F00B850C49850D4A850E4B850FE1
:100AE0004C900AB1120E05AA82AB83AC09AD0AAED6
:100AF0000B8C828D838EF0E4120A988A828B83227B
:100B0000C008858108E50824F8F54CE50824FBF8C1
:100B1000860908860A08860BE50824F8F88649083D
:100B2000864A08864B900AB1120E05AA82AB83ACA6
:100B300009AD0AAE0B8C828D838EF0E4120A988A7E
:100B4000828B83D00822A8811818C6B2E7C6021388
:100B5000B1120D4E30D502B2D1BF0009BC00030264
:100B60000D10020D03BC0003020CEDE583B4FF0B76
:100B7000E582B4FF03020D10020CEDE582B4FF0321
:100B8000020D03C395835007247F400B020CED2414
:100B900080145003020D03C0E0E4CCCBCAF98D11E0
:100BA0008E128F13EF54F0C4F5147583068514F07C
:100BB000EB84F582E9C4F9EAC4FAEBC4FBEC540F08
:100BC000C47803D6FC18EBD6FB18EAD6FA8582F077
:100BD000EDA4A8F0FD8582F0EEA428FEE435F0F83F
:100BE0008582F0EFA428FFE435F0F8E99DF9EA9E4C
:100BF000FAEB9FFBEC98FCAD11AE12AF1330E7108F
:100C00001582E92DF9EA3EFAEB3FFBE43CFC80ED6E
:100C1000C082D58398C3E933F9EA33FAEB33FBECAE
:100C200033FCC3E99DEA9EEB9FEC9400B3E413F917
:100C3000D002D0E0C44AFAD003D0E0C44BFBD004C9
:100C4000D0E0F5F0540FC44CFCD082158230F40F84
:100C5000D3EC13FCEB13FBEA13FAE913F90582E971
:100C600030E70A74012AFAE43BFBE43CFC020CE4A2
:100C7000FCABF0AA83A982749EC2D1F582120D1B2F
:100C8000020CCC7901AA82E68F82B5821318E6B5F0
:100C9000F00E18E6B5830918E68A82B5820279005B
:100CA00022B4800FE5F0700AE5837006E5827002D9
:100CB0007F00EFB6801518B6001018B6000B18B6F6
:100CC000000608080876002208080822B98003EA0E
:100CD00013B34010EA2401FAE43BFBE43CFC50046B
:100CE0007C800582BC000EBB000BBA0008E4F5F066
:100CF000F583F58222A2D1E582138CF092F78B83E3
:100D00008A8222E4F583F58275F080F4A2D1132261
:100D1000E4F583F58275F0C0747F227804EC7011DD
:100D2000E58224F8500AF582E4C9CACBFCD8EF2248
:100D3000EC7820058220E713D5820122C3E933F93C
:100D4000EA33FAEB33FBEC33FCD8EA158222AA82B1
:100D5000AB83A2F73392D16002D2F7F582ACF0E513
:100D60008124F9F8E6FD08E6FE0886F008E6A2F719
:100D70003392D56002D2F7F583AFF022AA82748D48
:100D8000C0E0740DC0E0C03BC03C8A82220542E452
:100D9000B54202054322AA8274302AFA24C6500AB8
:100DA00074072AFA3001034302208A82020D7CE58F
:100DB00082FAC4540FF582C002120D96D002740F4D
:100DC0005AF582020D96AA3DAB3EAC3FAD40AE4116
:100DD000754820EE2EFEED235401FF4206EA2AFA62
:100DE000EB33FBEC33FCED33FDC3EE95444008EEF2
:100DF000C39544FE430201D548D98A3D8B3E8C3FC2
:100E00008D408E412285823B85833CE4F542F5434B
:100E1000AA49AB4AAC4B8A828B838CF01208D2FD74
:100E200074012AF549E43BF54A8C4BEDFA70030254
:100E30001395BA2502800302138DC205C206C207AC
:100E4000C208C209C20AC20BC20CC202C203C20457
:100E50007544007545007546FFAB49AC4AAD4B8BF8
:100E6000828C838DF01208D2FAA3AB82AC838B49BB
:100E70008C4A8D4BBA25078A82120D7C80928A0695
:100E8000BE3000402E8A06EE24C6402774FFB546C9
:100E900013E54575F00AA4FEEA24D02EF54570BF8F
:100EA000D20680BBE54675F00AA4FEEA24D02EF5F2
:100EB0004680ACBA2E0A74FFB546A4754600809FE2
:100EC0008A06BE6100400E8A06EE24854007530262
:100ED000DFD2018002C201BA20028075BA23030268
:100EE0000F60BA2A03020F65BA2B02805FBA2D0287
:100EF0008055BA4202805FBA4303020FAABA440384
:100F00000210E5BA45030210FFBA46030210FBBA0D
:100F10004703021103BA49030210E5BA4C02803BB1
:100F2000BA4E03021107BA4F030210ECBA50030283
:100F3000107EBA5303020FCEBA55030210F1BA580D
:100F4000030210F6021131D205020E5FD207020E23
:100F50005FD208020E5FD20A020E5FD20B020E5F52
:100F6000D20C020E5F74FFB54620300A0BE54C141C
:100F7000F8884C8645020E5FE54C24FEF8884C86C6
:100F800006088607188E45020E5F300A0BE54C14E2
:100F9000F8884C8646020E5FE54C24FEF8884C86A5
:100FA00006088607188E46020E5F300A0AE54C14C2
:100FB000F8884C8602800FE54C24FEF8884C8603A6
:100FC000088604188B028A82120D7C021136E54CC9
:100FD00024FDF8884C860308860408860518188BBB
:100FE0003D8C3E8D3F8B828C838DF012140AAB8238
:100FF000AC838B4774FFB5460385474620051DC368
:10100000E54795455016E545C39547F545AB45156C
:1010100045EB6008758220120D7C80F1853D82854C
:101020003E83853FF01208D2FBFA6029AB46154695
:10103000C3E464808BF063F08095F050188A8212CC
:101040000D7CAB3DAC3EAD3F0BBB00010C8B3D8C32
:101050003E8D3F80C7200503021136C3E547954505
:101060004003021136E545C39547F545AB451545A7
:10107000EB7003021136758220120D7C80EEE54C78
:1010800024FDF8884C860308860408860518188B0A
:101090003D8C3E8D3FE53FFB30E7047A438013EB08
:1010A000546060047A50800AEB30E6047A4980028A
:1010B0007A588A82C002120D7C75823A120D7C75B4
:1010C0008230120D7C758278120D7CD002BA4902F2
:1010D000800BBA50028006853E82120DAF853D829C
:1010E000120DAF8051D20975440A804A75440880B8
:1010F0004575440A8040754410803BD2028037D247
:10110000038033D204802FE54C24FDF8884C8603FD
:1011100008860408860518188B3D8C3E8D3F8B820F
:101120008C838DF0E542120A98A3E543120A988059
:10113000058A82120D7C20020620030330045AE542
:101140004C24FCF8884C860308860408860508862B
:10115000061818188B3D8C3E8D3F8E40753D1775D7
:101160003E01753F80853D4D853E4E853F4F740164
:10117000254DFEE4354EFFAB4F8E3D8F3E8B3F85B8
:101180004D82854E83854FF01208D2FBFA70030220
:101190000E108A82120D7C80CCE5447003020E1082
:1011A0007B69300A2BE54C14F8884CE6FC3395E05B
:1011B000FDFEFF8C3D8D3E8E3F8F4020095EAC3D95
:1011C0007D007E007F008C3D8D3E8E3F8F40804CA9
:1011D000300B1FE54C24FCF8884C86040886050873
:1011E00086060886071818188C3D8D3E8E3F8F4066
:1011F000802AE54C24FEF8884C860408860518ED04
:101200003395E0FEFF8C3D8D3E8E3F8F4020090CD4
:10121000AC3DAD3E7E007F008E3F8F40300C43E5FD
:101220003D453E453F454060397408B5440C7582E4
:1012300030C003120D7CD00380287410B544237590
:101240008230C003120D7CD00330010C758278C04F
:1012500003120D7CD003800A758258C003120D7CE6
:10126000D003300925AC3DAD3EAE3FE540FF30E751
:1012700017C3E49CFCE49DFDE49EFEE49FFF8C3DCF
:101280008D3E8E3F8F408002C209754700D20D8B84
:1012900000754100C000120DC6D000200D0DE541C3
:1012A000C4FCE6FD4CF61888038002A6410547B24F
:1012B0000DE53D453E453F454070D68803E5457008
:1012C0000375450120061A200517E54704FCC39560
:1012D00045500E758220C003120D7CD00315458049
:1012E000E930090E75822DC003120D7CD00315451F
:1012F0008024E547602030070E75822BC003120D55
:101300007CD0031545800F30080C758220C0031275
:101310000D7CD003154520051EAC451545C3E5479A
:101320009C50273006047C3080027C208C82C003D5
:10133000120D7CD00380E2C3E54795455009E54591
:10134000C39547F54580037545008B00AB471547AE
:10135000EB6022B20D200D0A08E6C4540FFB8B414E
:1013600080078603740F5BF541854182C000120D32
:1013700096D00080D7200503020E10AB451545EB33
:101380007003020E10758220120D7C80EE8A82128C
:101390000D7C020E1085428285438322AA82BA0AFE
:1013A0000810990280FB75990D10990280FB8A99AB
:1013B00022120D4E7900E583B58202800D50031292
:1013C0001432E583C3958212144CE5D0C465D02055
:1013D000E117EA2DFAEB3EFBEC3FFC5009740112D9
:1013E000144CEC4480FC020CCCC3EA9DFAEB9EFB4F
:1013F000EC9FFC500FC3E499F9E49AFAE49BFBE4F8
:101400009CFCB2D1120D1B020CCCAA82AB83ACF0B7
:101410007D007E008A828B838CF01208D2FFA3AA03
:1014200082AB83EF60070DBD00EA0E80E78D828EF0
:101430008322E582C583F582A2D133A2D592D1134E
:1014400092D5ECCFFCEBCEFBEACDFA226040F8253A
:1014500082500274FFF582E824F8501ECCCBCAF902
:10146000E4CC24F85014CBCAF9E4CB24F8500BCACE
:10147000F9E4CA24F8500379002224086010F8C364
:10148000EC13FCEB13FBEA13FAE913F9D8F1220091
:00000001FF
