:10000000020003758149120161E582600302006FFD
:10001000780079007A007B007C007D00EC4D601C4C
:1000200088828983E493A3A882A9838A828B83F040
:10003000A3AA82AB831CBCFFE31D80E07582007520
:1000400083007C007D00EC4D600AE4F0A31CBCFF43
:10005000F51D80F27582007583007C007D00EC4DFB
:10006000600AE4F0A31CBCFFF51D80F212016012CF
:1000700002ED80FE1B5B324A0041444320746573ED
:10008000742070726F6772616D0A46696C653A2000
:1000900025730A436F6D70696C65643A2025732C73
:1000A0002025730A0A00433A5C55736572735C6CD1
:1000B000656967685C456C656332393150726F6A97
:1000C000656374325C45464D385F6578616D706C70
:1000D00065735C4144435C4144432E63004D61724F
:1000E00020323520323032350031303A32343A3035
:1000F0003100564050322E323D25372E3566562C73
:1001000020564050322E333D25372E3566562C2052
:10011000564050322E343D25372E3566562C20560B
:100120004050322E353D25372E3566562C20486FEF
:1001300072697A6F6E74616C3A25372E35662C20A1
:10014000566572746963616C3A25372E35662C20CA
:10015000427574746F6E53746174653A25640D0052
:100160002275A7007597DE7597AD75FF8075EF0650
:1001700075A71075C12075A70075A90075A900E5C0
:10018000A930E7FB75A90375A903E5A930E7FB438F
:10019000A41075E10175E20075E340759810758D46
:1001A000E6858D8B53890F438920D28ED299758233
:1001B000002275A700C2EF75B28075BC2075B91E0C
:1001C00075E80075DF3F75B300D2EF22AA82438E37
:1001D000407592B87593FF859294859395759104B7
:1001E0007B00C3EB9A500BE59130E7FB53917F0BFB
:1001F00080F075910022AA82AB837C007D00C3EC65
:100200009AED9B502B7E00BE0400501D7582FAC0F3
:1002100002C003C004C005C0061201CCD006D00540
:10022000D004D003D0020E80DE0CBC00D10D80CEF5
:1002300022AA82851CF005F07401800225E0D5F029
:10024000FBFB75A720BA0002800ABA0102800FBA30
:10025000021E8014EBF4FA52F1EB42D48012EBF45C
:10026000FA52F2EB42D58008EBF4FA52F3EB42CCAF
:1002700075A700228582BBC2EDD2EC30EDFD85BDB5
:100280008285BE832212027412050CAA82AB83AC53
:10029000F0FDC002C003C004C00590333375F053B5
:1002A0007440120518AA82AB83ACF0FDE58124FCF2
:1002B000F581E4C0E074FCC0E0747FC0E07446C027
:1002C000E08A828B838CF0ED1205FCAA82AB83ACB2
:1002D000F0FDE58124FCF5818A828B838CF0ED2290
:1002E00075A720539CFB43B00475A700229001F42E
:1002F0001201F67474C0E07400C0E07480C0E012B3
:1003000005D015811581158174E9C0E07400C0E045
:100310007480C0E074DDC0E07400C0E07480C0E0B0
:1003200074A6C0E07400C0E07480C0E07479C0E0DE
:100330007400C0E07480C0E01205D0E58124F4F5BB
:1003400081751C02758202120231751C03758202CE
:10035000120231751C04758202120231751C05757A
:1003600082021202311201B21202E075820F1202F1
:1003700085AA82AB83ACF0FD8A228B238C248D2549
:10038000758210120285AA82AB83ACF0FD8A268B9F
:10039000278C288D29758211120285AA82AB83AC25
:1003A000F0FD8A2A8B2B8C2C8D2D758212120285E2
:1003B00085823685833785F038F53985362E853741
:1003C0002F853830853931745CC0E0748FC0E0749B
:1003D00052C0E07440C0E08526828527838528F0DE
:1003E000E5291205FCAE82AF83AAF0FBE58124FC6F
:1003F000F581C006C007C002C003900000E4F5F01C
:100400007440120518AA82AB83ACF0FDE58124FC90
:10041000F581E4C0E0C0E07480C0E0743FC0E08AD1
:10042000828B838CF0ED1205F185823285833385D2
:10043000F034F535E58124FCF581745CC0E0748FFF
:10044000C0E07452C0E07440C0E0852282852383FE
:100450008524F0E5251205FCAE82AF83AAF0FBE50A
:100460008124FCF581C006C007C002C003900000D3
:10047000E4F5F07440120518AA82AB83ACF0FDE5F8
:100480008124FCF581E4C0E0C0E07480C0E0743FEA
:10049000C0E08A828B838CF0ED1205F1AA82AB83D7
:1004A000ACF0FDE58124FCF581E5B003035401FEC9
:1004B000B401009200E433FE7F00C006C007C00212
:1004C000C003C004C005C032C033C034C035C0361C
:1004D000C037C038C039C02AC02BC02CC02DC026A0
:1004E000C027C028C029C022C023C024C02574F260
:1004F000C0E07400C0E07480C0E01205D0E5812443
:10050000E3F5819000321201F602036BE4AC83AB99
:1005100082FAF9748E0207241207B0BC00030207A6
:100520004FEF60FA30D502B2D1E583B4FF03020782
:1005300065E582B4FF0302076525834007248240F6
:100540000B02074F2483145003020765F582EA8DDE
:10055000F0A4A8F0EA8EF0A428F8E435F0F9EB8DC9
:10056000F0A428E935F0F9E433CA8FF0A429F9EAB8
:1005700035F0FAEBF88EF0A429F9EA35F0FAE43315
:10058000FBEC8DF0A429F9EA35F0FAE43BFBE88FA7
:10059000F0A42AFAEB35F0FBE433CCFD8EF0A42A6C
:1005A000FAEB35F0FBE43CFCED8FF0A42BFBEC35D3
:1005B000F0FC20E70312077D02072E02116A8582F4
:1005C0001885831985F01A85091B9005BB020BBDA0
:1005D000C008858108E50824FBF51BE50824FBF825
:1005E000861808861908861A9005BB120BBDD0081C
:1005F00022A8811818C6B2E7C602117F1207B030D0
:10060000D502B2D1BF0009BC000302077202076520
:10061000BC000302074FE583B4FF0BE582B4FF0380
:1006200002077202074FE582B4FF03020765C39514
:10063000835007247F400B02074F2480145003028D
:100640000765C0E0E4CCCBCAF98D1C8E1D8F1EEF70
:1006500054F0C4F51F758306851FF0EB84F582E91D
:10066000C4F9EAC4FAEBC4FBEC540FC47803D6FC1B
:1006700018EBD6FB18EAD6FA8582F0EDA4A8F0FDB7
:100680008582F0EEA428FEE435F0F88582F0EFA430
:1006900028FFE435F0F8E99DF9EA9EFAEB9FFBECC0
:1006A00098FCAD1CAE1DAF1E30E7101582E92DF988
:1006B000EA3EFAEB3FFBE43CFC80EDC082D5839838
:1006C000C3E933F9EA33FAEB33FBEC33FCC3E99DBE
:1006D000EA9EEB9FEC9400B3E413F9D002D0E0C49F
:1006E0004AFAD003D0E0C44BFBD004D0E0F5F0547C
:1006F0000FC44CFCD082158230F40FD3EC13FCEB0A
:1007000013FBEA13FAE913F90582E930E70A7401E9
:100710002AFAE43BFBE43CFC020746FCABF0AA836C
:10072000A982749EC2D1F58212077D02072EB9807C
:1007300003EA13B34010EA2401FAE43BFBE43CFC77
:1007400050047C800582BC000EBB000BBA0008E49C
:10075000F5F0F583F58222A2D1E582138CF092F7B1
:100760008B838A8222E4F583F58275F080F4A2D12E
:100770001322E4F583F58275F0C0747F227804ECCF
:100780007011E58224F8500AF582E4C9CACBFCD87E
:10079000EF22EC7820058220E713D5820122C3E9FD
:1007A00033F9EA33FAEB33FBEC33FCD8EA15822257
:1007B000AA82AB83A2F73392D16002D2F7F582AC62
:1007C000F0E58124F9F8E6FD08E6FE0886F008E683
:1007D000A2F73392D56002D2F7F583AFF022AA8256
:1007E00074EFC0E07407C0E0C00AC00B8A82220523
:1007F00011E4B51102051222AA8274302AFA24C625
:10080000500A74072AFA3001034302208A82020741
:10081000DEE582FAC4540FF582C0021207F8D00256
:10082000740F5AF5820207F8AA0CAB0DAC0EAD0F8F
:10083000AE10751720EE2EFEED235401FF4206EA9E
:100840002AFAEB33FBEC33FCED33FDC3EE9513409A
:1008500008EEC39513FE430201D517D98A0C8B0D00
:100860008C0E8D0F8E10227846E624D075F00AA4E7
:10087000FA7847E624D02AFA78458603BB2D04C3CC
:10088000E49AFA751301C3E464808AF063F08095FA
:10089000F050297517038A0374F62517401C0513B9
:1008A000E51714243AF8E517243AF98704A60477E3
:1008B0002E1BEBFA6004051780DE8B02EA30E70D91
:1008C000783B8603783CA603783B762E0AE51560D4
:1008D0000AE51504FB2513F5138005300C020513FA
:1008E000783A8603E4BB2D0104FB70062007033031
:1008F000080205133005030209AE300657EB600C01
:1009000075822DC0021207DED002801C30070C75E4
:10091000822BC0021207DED002800D30080A7582D9
:1009200020C0021207DED002783B8604BC2E0C7574
:100930008230C0021207DED0021514AC141514C3A5
:10094000E5139C40030209F2758230C0021207DEF3
:10095000D00280E7AC141514C3E5139C500C7582CB
:1009600020C0021207DED00280EA783A8604BC2D4D
:100970000C75822DC0021207DED002801C30070CDD
:1009800075822BC0021207DED002800D30080A7576
:100990008220C0021207DED002783B8604BC2E52B1
:1009A000758230C0021207DED00215148044EB605D
:1009B0000E75822DC0021207DED002151480203081
:1009C000070E75822BC0021207DED0021514800FAD
:1009D00030080C758220C0021207DED00215147890
:1009E0003B8603BB2E0C758230C0021207DED0029C
:1009F0001514751701C20EE517243AF88603BB4596
:100A000003020AAFBB2E348A03C3E464808BF06315
:100A1000F08095F0500F758230C0031207DED003CE
:100A20001B8B0280E48B02D20EE5157038200C037C
:100A3000020AAF75822E1207DE8074300E278A03F9
:100A4000EB30E71FC3E464808515F063F08095F018
:100A5000500C758230C0031207DED00315150B8BC6
:100A60000280DD8B02300E0EC3E464808515F063D6
:100A7000F08095F05021E517243AF886038B82C068
:100A8000021207DED002300E0EE517243AF8860374
:100A9000BB2E02800215151514C3E464808515F081
:100AA00063F08095F04003200E0505170209F7C397
:100AB000E464808515F063F08095F0500A7582300B
:100AC0001207DE151580E830050FAA141514EA6028
:100AD000087582201207DE80F122E5157003300CC4
:100AE0000D74072515FAE514C39AF5148006E5146C
:100AF00024FAF514751700783A8602BA2B0F2007EE
:100B00000C783A7620200805751701051420051980
:100B1000AA14C3E464808AF063F08095F0500A75EB
:100B200082201207DE151480E7C20EE517243AF87A
:100B30008602BA00028069BA451F3001027665C399
:100B4000E464808515F063F08095F0500A7582307A
:100B50001207DE151580E8D20EC3E5179402E433C0
:100B6000FA7014EA700EC3E464808515F063F080B7
:100B700095F04003300E16E517243AF886028A8273
:100B80001207DEE51724FD50121515800E7402B50C
:100B90001709300C0675822E1207DE0517020B2B83
:100BA000300519AA14C3E464808AF063F08095F0DC
:100BB000500A7582201207DE151480E72285820A0A
:100BC00085830BE4F511F512AA18AB19AC1A8A82C9
:100BD0008B838CF01211D8FD74012AF518E43BF5D3
:100BE000198C1AEDFA7003021163BA250280030210
:100BF000115BC205C206C207C208C209C20AC20B03
:100C0000C20CC202C203C20475130075140075152C
:100C1000FFAB18AC19AD1A8B828C838DF01211D8F2
:100C2000FAA3AB82AC838B188C198D1ABA25078A6C
:100C3000821207DE80928A06BE3000402E8A06EEBF
:100C400024C6402774FFB51513E51475F00AA4FEF9
:100C5000EA24D02EF51470BFD20680BBE51575F0DE
:100C60000AA4FEEA24D02EF51580ACBA2E0A74FF31
:100C7000B515A4751500809F8A06BE6100400E8AD6
:100C800006EE248540075302DFD2018002C201BA7A
:100C900020028075BA2303020D18BA2A03020D1D23
:100CA000BA2B02805FBA2D028055BA4202805FBA29
:100CB0004303020D62BA4403020E9DBA4503020EBD
:100CC000B7BA4603020EB3BA4703020EBBBA4903D2
:100CD000020E9DBA4C02803BBA4E03020EBFBA4FC1
:100CE00003020EA4BA5003020E36BA5303020D8655
:100CF000BA5503020EA9BA5803020EAE020EE9D28B
:100D000005020C17D207020C17D208020C17D20AE0
:100D1000020C17D20B020C17D20C020C1774FFB581
:100D20001520300A0BE51B14F8881B8614020C17DB
:100D3000E51B24FEF8881B8606088607188E140219
:100D40000C17300A0BE51B14F8881B8615020C17CC
:100D5000E51B24FEF8881B8606088607188E1502F8
:100D60000C17300A0AE51B14F8881B8602800FE571
:100D70001B24FEF8881B8603088604188B028A82CF
:100D80001207DE020EEEE51B24FDF8881B86030821
:100D9000860408860518188B0C8C0D8D0E8B828CA2
:100DA000838DF012132CAB82AC838B1674FFB515B8
:100DB0000385161520051DC3E51695145016E51478
:100DC000C39516F514AB141514EB60087582201248
:100DD00007DE80F1850C82850D83850EF01211D817
:100DE000FBFA6029AB151515C3E464808BF063F042
:100DF0008095F050188A821207DEAB0CAC0DAD0E58
:100E00000BBB00010C8B0C8C0D8D0E80C7200503D5
:100E1000020EEEC3E51695144003020EEEE514C370
:100E20009516F514AB141514EB7003020EEE7582D3
:100E3000201207DE80EEE51B24FDF8881B860308E0
:100E4000860408860518188B0C8C0D8D0EE50EFB9C
:100E500030E7047A438013EB546060047A50800AD0
:100E6000EB30E6047A4980027A588A82C00212077F
:100E7000DE75823A1207DE7582301207DE758278DF
:100E80001207DED002BA4902800BBA5002800685F2
:100E90000D82120811850C821208118051D2097539
:100EA000130A804A751308804575130A804075132C
:100EB00010803BD2028037D2038033D204802FE5EA
:100EC0001B24FDF8881B860308860408860518186D
:100ED0008B0C8C0D8D0E8B828C838DF0E511121393
:100EE00013A3E51212131380058A821207DE200273
:100EF00006200303300470E51B24FCF8881B8603DE
:100F00000886040886050886061818188B0C8C0DB0
:100F10008D0E8E0FE50CE50DE50EE50F8B828C83B3
:100F20008DF0EE1211F474FFB5150375150630043B
:100F300027747F550FFB8B10E510EB2BFB8B10E517
:100F40000E30E70674014510F510E51024684006E0
:100F5000749925104002D203300306120ADA020BFC
:100F6000C8120867020BC8E5137003020BC87B3F69
:100F7000300A2BE51B14F8881BE6FC3395E0FDFED8
:100F8000FF8C0C8D0D8E0E8F0F20095EAC0C7D003A
:100F90007E007F008C0C8D0D8E0E8F0F804C300BE1
:100FA0001FE51B24FCF8881B8604088605088606B6
:100FB0000886071818188C0C8D0D8E0E8F0F802A3E
:100FC000E51B24FEF8881B860408860518ED33957A
:100FD000E0FEFF8C0C8D0D8E0E8F0F20090CAC0CDB
:100FE000AD0D7E007F008E0E8F0F300C43E50C455B
:100FF0000D450E450F60397408B5130C758230C06D
:10100000031207DED00380287410B51323758230D5
:10101000C0031207DED00330010C758278C00312C2
:1010200007DED003800A758258C0031207DED003A2
:10103000300925AC0CAD0DAE0EE50FFF30E717C340
:10104000E49CFCE49DFDE49EFEE49FFF8C0C8D0D72
:101050008E0E8F0F8002C209751600D20D8B00759F
:101060001000C000120828D000200D0DE510C4FCAF
:10107000E6FD4CF61888038002A6100516B20DE5B1
:101080000C450D450E450F70D68803E514700375A9
:10109000140120061A200517E51604FCC395145008
:1010A0000E758220C0031207DED003151480E930CC
:1010B000090E75822DC0031207DED003151480249B
:1010C000E516602030070E75822BC0031207DED0B4
:1010D000031514800F30080C758220C0031207DE40
:1010E000D003151420051EAC141514C3E5169C502E
:1010F000273006047C3080027C208C82C0031207DB
:10110000DED00380E2C3E51695145009E514C395BB
:1011100016F51480037514008B00AB161516EB60E2
:1011200022B20D200D0A08E6C4540FFB8B10800775
:101130008603740F5BF510851082C0001207F8D08B
:101140000080D7200503020BC8AB141514EB700305
:10115000020BC87582201207DE80EE8A821207DE3B
:10116000020BC885118285128322AA82BA0A08104E
:10117000990280FB75990D10990280FB8A992212C1
:1011800007B07900E583B58202800D500312135435
:10119000E583C3958212136EE5D0C465D020E117B4
:1011A000EA2DFAEB3EFBEC3FFC5009740112136E82
:1011B000EC4480FC02072EC3EA9DFAEB9EFBEC9FF9
:1011C000FC500FC3E499F9E49AFAE49BFBE49CFC1D
:1011D000B2D112077D02072E20F71430F61488834F
:1011E000A88220F507E6A88375830022E280F7E451
:1011F0009322E022C0E0F84582458345F07009F56E
:10120000F0FBFCFDFE0212C2E823A2F792E0F8A96F
:1012100082AA83D2F7ABF07C007E07C37497984014
:101220004074FF2EFE740A89F0A4F985F082740AD6
:101230008AF0A4FA85F083740A8BF0A4FB74052964
:10124000F9EA3582FAEB3583FB740035F0FCC3EC28
:1012500013FCEB13FBEA13FAE913F908EC70EF80C7
:10126000BAE8C3947FF88B838EF0E4FBFCFDFEFFAD
:1012700008C3E933F9EA33FAE58333F583EB3BD46A
:10128000FBEC3CD4FCED3DD4FDEE3ED4FEEF3FD470
:10129000FF602D05F074052BD4FBE43CD4FCE43D49
:1012A000D4FDE43ED4FEE43FD4FF758204C3EF13C3
:1012B000FFEE13FEED13FDEC13FCEB13FBD582EDFB
:1012C000D8AF783AD0E020E704762B8002762D085C
:1012D0007906E7C4540F4430F608B90603762E08A1
:1012E000E7540F4430F60819B902E7764508E5F0EF
:1012F00020E704762B8004762DF4040875F00A8428
:101300004430F608E5F04430F608E4F690003A750B
:10131000F0402220F71030F6118883A88220F507CC
:10132000F6A88375830022F280F7F022AA82AB83AD
:10133000ACF07D007E008A828B838CF01211D8FF86
:10134000A3AA82AB83EF60070DBD00EA0E80E78D94
:10135000828E8322E582C583F582A2D133A2D59203
:10136000D11392D5ECCFFCEBCEFBEACDFA22604054
:10137000F82582500274FFF582E824F8501ECCCB89
:10138000CAF9E4CC24F85014CBCAF9E4CB24F850C1
:101390000BCAF9E4CA24F85003790022240860102B
:1013A000F8C3EC13FCEB13FBEA13FAE913F9D8F1D9
:1013B000220000000000000000000000000000000B
:00000001FF
